{
	"liberland/eth/mastet_token_flattened.sol": {
		"MasterToken": {
			"abi": [
				{
					"inputs": [
						{
							"internalType": "string",
							"name": "name",
							"type": "string"
						},
						{
							"internalType": "string",
							"name": "symbol",
							"type": "string"
						},
						{
							"internalType": "uint8",
							"name": "decimals",
							"type": "uint8"
						},
						{
							"internalType": "address",
							"name": "beneficiary",
							"type": "address"
						},
						{
							"internalType": "uint256",
							"name": "supply",
							"type": "uint256"
						},
						{
							"internalType": "bytes32",
							"name": "sidechainAssetId",
							"type": "bytes32"
						}
					],
					"stateMutability": "nonpayable",
					"type": "constructor"
				},
				{
					"anonymous": false,
					"inputs": [
						{
							"indexed": true,
							"internalType": "address",
							"name": "owner",
							"type": "address"
						},
						{
							"indexed": true,
							"internalType": "address",
							"name": "spender",
							"type": "address"
						},
						{
							"indexed": false,
							"internalType": "uint256",
							"name": "value",
							"type": "uint256"
						}
					],
					"name": "Approval",
					"type": "event"
				},
				{
					"anonymous": false,
					"inputs": [
						{
							"indexed": true,
							"internalType": "address",
							"name": "previousOwner",
							"type": "address"
						},
						{
							"indexed": true,
							"internalType": "address",
							"name": "newOwner",
							"type": "address"
						}
					],
					"name": "OwnershipTransferred",
					"type": "event"
				},
				{
					"anonymous": false,
					"inputs": [
						{
							"indexed": true,
							"internalType": "address",
							"name": "from",
							"type": "address"
						},
						{
							"indexed": true,
							"internalType": "address",
							"name": "to",
							"type": "address"
						},
						{
							"indexed": false,
							"internalType": "uint256",
							"name": "value",
							"type": "uint256"
						}
					],
					"name": "Transfer",
					"type": "event"
				},
				{
					"stateMutability": "nonpayable",
					"type": "fallback"
				},
				{
					"inputs": [],
					"name": "_sidechainAssetId",
					"outputs": [
						{
							"internalType": "bytes32",
							"name": "",
							"type": "bytes32"
						}
					],
					"stateMutability": "view",
					"type": "function"
				},
				{
					"inputs": [
						{
							"internalType": "address",
							"name": "owner",
							"type": "address"
						},
						{
							"internalType": "address",
							"name": "spender",
							"type": "address"
						}
					],
					"name": "allowance",
					"outputs": [
						{
							"internalType": "uint256",
							"name": "",
							"type": "uint256"
						}
					],
					"stateMutability": "view",
					"type": "function"
				},
				{
					"inputs": [
						{
							"internalType": "address",
							"name": "spender",
							"type": "address"
						},
						{
							"internalType": "uint256",
							"name": "value",
							"type": "uint256"
						}
					],
					"name": "approve",
					"outputs": [
						{
							"internalType": "bool",
							"name": "",
							"type": "bool"
						}
					],
					"stateMutability": "nonpayable",
					"type": "function"
				},
				{
					"inputs": [
						{
							"internalType": "address",
							"name": "owner",
							"type": "address"
						}
					],
					"name": "balanceOf",
					"outputs": [
						{
							"internalType": "uint256",
							"name": "",
							"type": "uint256"
						}
					],
					"stateMutability": "view",
					"type": "function"
				},
				{
					"inputs": [
						{
							"internalType": "uint256",
							"name": "value",
							"type": "uint256"
						}
					],
					"name": "burn",
					"outputs": [],
					"stateMutability": "nonpayable",
					"type": "function"
				},
				{
					"inputs": [
						{
							"internalType": "address",
							"name": "from",
							"type": "address"
						},
						{
							"internalType": "uint256",
							"name": "value",
							"type": "uint256"
						}
					],
					"name": "burnFrom",
					"outputs": [],
					"stateMutability": "nonpayable",
					"type": "function"
				},
				{
					"inputs": [],
					"name": "decimals",
					"outputs": [
						{
							"internalType": "uint8",
							"name": "",
							"type": "uint8"
						}
					],
					"stateMutability": "view",
					"type": "function"
				},
				{
					"inputs": [
						{
							"internalType": "address",
							"name": "spender",
							"type": "address"
						},
						{
							"internalType": "uint256",
							"name": "subtractedValue",
							"type": "uint256"
						}
					],
					"name": "decreaseAllowance",
					"outputs": [
						{
							"internalType": "bool",
							"name": "",
							"type": "bool"
						}
					],
					"stateMutability": "nonpayable",
					"type": "function"
				},
				{
					"inputs": [
						{
							"internalType": "address",
							"name": "spender",
							"type": "address"
						},
						{
							"internalType": "uint256",
							"name": "addedValue",
							"type": "uint256"
						}
					],
					"name": "increaseAllowance",
					"outputs": [
						{
							"internalType": "bool",
							"name": "",
							"type": "bool"
						}
					],
					"stateMutability": "nonpayable",
					"type": "function"
				},
				{
					"inputs": [],
					"name": "isOwner",
					"outputs": [
						{
							"internalType": "bool",
							"name": "",
							"type": "bool"
						}
					],
					"stateMutability": "view",
					"type": "function"
				},
				{
					"inputs": [
						{
							"internalType": "address",
							"name": "beneficiary",
							"type": "address"
						},
						{
							"internalType": "uint256",
							"name": "amount",
							"type": "uint256"
						}
					],
					"name": "mintTokens",
					"outputs": [],
					"stateMutability": "nonpayable",
					"type": "function"
				},
				{
					"inputs": [],
					"name": "name",
					"outputs": [
						{
							"internalType": "string",
							"name": "",
							"type": "string"
						}
					],
					"stateMutability": "view",
					"type": "function"
				},
				{
					"inputs": [],
					"name": "owner",
					"outputs": [
						{
							"internalType": "address",
							"name": "",
							"type": "address"
						}
					],
					"stateMutability": "view",
					"type": "function"
				},
				{
					"inputs": [],
					"name": "renounceOwnership",
					"outputs": [],
					"stateMutability": "nonpayable",
					"type": "function"
				},
				{
					"inputs": [],
					"name": "symbol",
					"outputs": [
						{
							"internalType": "string",
							"name": "",
							"type": "string"
						}
					],
					"stateMutability": "view",
					"type": "function"
				},
				{
					"inputs": [],
					"name": "totalSupply",
					"outputs": [
						{
							"internalType": "uint256",
							"name": "",
							"type": "uint256"
						}
					],
					"stateMutability": "view",
					"type": "function"
				},
				{
					"inputs": [
						{
							"internalType": "address",
							"name": "to",
							"type": "address"
						},
						{
							"internalType": "uint256",
							"name": "value",
							"type": "uint256"
						}
					],
					"name": "transfer",
					"outputs": [
						{
							"internalType": "bool",
							"name": "",
							"type": "bool"
						}
					],
					"stateMutability": "nonpayable",
					"type": "function"
				},
				{
					"inputs": [
						{
							"internalType": "address",
							"name": "from",
							"type": "address"
						},
						{
							"internalType": "address",
							"name": "to",
							"type": "address"
						},
						{
							"internalType": "uint256",
							"name": "value",
							"type": "uint256"
						}
					],
					"name": "transferFrom",
					"outputs": [
						{
							"internalType": "bool",
							"name": "",
							"type": "bool"
						}
					],
					"stateMutability": "nonpayable",
					"type": "function"
				},
				{
					"inputs": [
						{
							"internalType": "address",
							"name": "newOwner",
							"type": "address"
						}
					],
					"name": "transferOwnership",
					"outputs": [],
					"stateMutability": "nonpayable",
					"type": "function"
				}
			],
			"devdoc": {
				"kind": "dev",
				"methods": {
					"allowance(address,address)": {
						"details": "Function to check the amount of tokens that an owner allowed to a spender.",
						"params": {
							"owner": "address The address which owns the funds.",
							"spender": "address The address which will spend the funds."
						},
						"returns": {
							"_0": "A uint256 specifying the amount of tokens still available for the spender."
						}
					},
					"approve(address,uint256)": {
						"details": "Approve the passed address to spend the specified amount of tokens on behalf of msg.sender. Beware that changing an allowance with this method brings the risk that someone may use both the old and the new allowance by unfortunate transaction ordering. One possible solution to mitigate this race condition is to first reduce the spender's allowance to 0 and set the desired value afterwards: https://github.com/ethereum/EIPs/issues/20#issuecomment-263524729",
						"params": {
							"spender": "The address which will spend the funds.",
							"value": "The amount of tokens to be spent."
						}
					},
					"balanceOf(address)": {
						"details": "Gets the balance of the specified address.",
						"params": {
							"owner": "The address to query the balance of."
						},
						"returns": {
							"_0": "An uint256 representing the amount owned by the passed address."
						}
					},
					"burn(uint256)": {
						"details": "Burns a specific amount of tokens.",
						"params": {
							"value": "The amount of token to be burned."
						}
					},
					"burnFrom(address,uint256)": {
						"details": "Burns a specific amount of tokens from the target address and decrements allowance",
						"params": {
							"from": "address The address which you want to send tokens from",
							"value": "uint256 The amount of token to be burned"
						}
					},
					"constructor": {
						"details": "Constructor that gives the specified address all of existing tokens."
					},
					"decimals()": {
						"returns": {
							"_0": "the number of decimals of the token."
						}
					},
					"decreaseAllowance(address,uint256)": {
						"details": "Decrease the amount of tokens that an owner allowed to a spender. approve should be called when allowed_[_spender] == 0. To decrement allowed value is better to use this function to avoid 2 calls (and wait until the first transaction is mined) From MonolithDAO Token.sol Emits an Approval event.",
						"params": {
							"spender": "The address which will spend the funds.",
							"subtractedValue": "The amount of tokens to decrease the allowance by."
						}
					},
					"increaseAllowance(address,uint256)": {
						"details": "Increase the amount of tokens that an owner allowed to a spender. approve should be called when allowed_[_spender] == 0. To increment allowed value is better to use this function to avoid 2 calls (and wait until the first transaction is mined) From MonolithDAO Token.sol Emits an Approval event.",
						"params": {
							"addedValue": "The amount of tokens to increase the allowance by.",
							"spender": "The address which will spend the funds."
						}
					},
					"isOwner()": {
						"returns": {
							"_0": "true if `msg.sender` is the owner of the contract."
						}
					},
					"name()": {
						"returns": {
							"_0": "the name of the token."
						}
					},
					"owner()": {
						"returns": {
							"_0": "the address of the owner."
						}
					},
					"renounceOwnership()": {
						"details": "Allows the current owner to relinquish control of the contract."
					},
					"symbol()": {
						"returns": {
							"_0": "the symbol of the token."
						}
					},
					"totalSupply()": {
						"details": "Total number of tokens in existence"
					},
					"transfer(address,uint256)": {
						"details": "Transfer token for a specified address",
						"params": {
							"to": "The address to transfer to.",
							"value": "The amount to be transferred."
						}
					},
					"transferFrom(address,address,uint256)": {
						"details": "Transfer tokens from one address to another. Note that while this function emits an Approval event, this is not required as per the specification, and other compliant implementations may not emit the event.",
						"params": {
							"from": "address The address which you want to send tokens from",
							"to": "address The address which you want to transfer to",
							"value": "uint256 the amount of tokens to be transferred"
						}
					},
					"transferOwnership(address)": {
						"details": "Allows the current owner to transfer control of the contract to a newOwner.",
						"params": {
							"newOwner": "The address to transfer ownership to."
						}
					}
				},
				"version": 1
			},
			"evm": {
				"assembly": "    /* \"liberland/eth/mastet_token_flattened.sol\":12821:13515  contract MasterToken is ERC20Burnable, ERC20Detailed, Ownable {... */\n  mstore(0x40, 0x80)\n    /* \"liberland/eth/mastet_token_flattened.sol\":13025:13339  constructor(... */\n  callvalue\n  dup1\n  iszero\n  tag_1\n  jumpi\n  0x00\n  dup1\n  revert\ntag_1:\n  pop\n  mload(0x40)\n  sub(codesize, bytecodeSize)\n  dup1\n  bytecodeSize\n  dup4\n  codecopy\n  dup2\n  dup2\n  add\n  0x40\n  mstore\n  dup2\n  add\n  swap1\n  tag_2\n  swap2\n  swap1\n  tag_3\n  jump\t// in\ntag_2:\n    /* \"liberland/eth/mastet_token_flattened.sol\":13226:13230  name */\n  dup6\n    /* \"liberland/eth/mastet_token_flattened.sol\":13232:13238  symbol */\n  dup6\n    /* \"liberland/eth/mastet_token_flattened.sol\":13240:13248  decimals */\n  dup6\n    /* \"liberland/eth/mastet_token_flattened.sol\":1391:1396  name_ */\n  dup3\n    /* \"liberland/eth/mastet_token_flattened.sol\":1383:1388  _name */\n  0x03\n    /* \"liberland/eth/mastet_token_flattened.sol\":1383:1396  _name = name_ */\n  swap1\n  dup2\n  tag_8\n  swap2\n  swap1\n  tag_9\n  jump\t// in\ntag_8:\n  pop\n    /* \"liberland/eth/mastet_token_flattened.sol\":1416:1423  symbol_ */\n  dup2\n    /* \"liberland/eth/mastet_token_flattened.sol\":1406:1413  _symbol */\n  0x04\n    /* \"liberland/eth/mastet_token_flattened.sol\":1406:1423  _symbol = symbol_ */\n  swap1\n  dup2\n  tag_10\n  swap2\n  swap1\n  tag_9\n  jump\t// in\ntag_10:\n  pop\n    /* \"liberland/eth/mastet_token_flattened.sol\":1445:1454  decimals_ */\n  dup1\n    /* \"liberland/eth/mastet_token_flattened.sol\":1433:1442  _decimals */\n  0x05\n  0x00\n    /* \"liberland/eth/mastet_token_flattened.sol\":1433:1454  _decimals = decimals_ */\n  0x0100\n  exp\n  dup2\n  sload\n  dup2\n  0xff\n  mul\n  not\n  and\n  swap1\n  dup4\n  0xff\n  and\n  mul\n  or\n  swap1\n  sstore\n  pop\n    /* \"liberland/eth/mastet_token_flattened.sol\":1270:1461  constructor(... */\n  pop\n  pop\n  pop\n    /* \"liberland/eth/mastet_token_flattened.sol\":11168:11178  msg.sender */\n  caller\n    /* \"liberland/eth/mastet_token_flattened.sol\":11159:11165  _owner */\n  0x05\n  0x01\n    /* \"liberland/eth/mastet_token_flattened.sol\":11159:11178  _owner = msg.sender */\n  0x0100\n  exp\n  dup2\n  sload\n  dup2\n  0xffffffffffffffffffffffffffffffffffffffff\n  mul\n  not\n  and\n  swap1\n  dup4\n  0xffffffffffffffffffffffffffffffffffffffff\n  and\n  mul\n  or\n  swap1\n  sstore\n  pop\n    /* \"liberland/eth/mastet_token_flattened.sol\":11226:11232  _owner */\n  0x05\n  0x01\n  swap1\n  sload\n  swap1\n  0x0100\n  exp\n  swap1\n  div\n  0xffffffffffffffffffffffffffffffffffffffff\n  and\n    /* \"liberland/eth/mastet_token_flattened.sol\":11193:11233  OwnershipTransferred(address(0), _owner) */\n  0xffffffffffffffffffffffffffffffffffffffff\n  and\n    /* \"liberland/eth/mastet_token_flattened.sol\":11222:11223  0 */\n  0x00\n    /* \"liberland/eth/mastet_token_flattened.sol\":11193:11233  OwnershipTransferred(address(0), _owner) */\n  0xffffffffffffffffffffffffffffffffffffffff\n  and\n  0x8be0079c531659141344cd1fd0a4f28419497f9722a3daafe3b4186f6b6457e0\n  mload(0x40)\n  mload(0x40)\n  dup1\n  swap2\n  sub\n  swap1\n  log3\n    /* \"liberland/eth/mastet_token_flattened.sol\":13280:13296  sidechainAssetId */\n  dup1\n    /* \"liberland/eth/mastet_token_flattened.sol\":13260:13277  _sidechainAssetId */\n  0x06\n    /* \"liberland/eth/mastet_token_flattened.sol\":13260:13296  _sidechainAssetId = sidechainAssetId */\n  dup2\n  swap1\n  sstore\n  pop\n    /* \"liberland/eth/mastet_token_flattened.sol\":13306:13332  _mint(beneficiary, supply) */\n  tag_13\n    /* \"liberland/eth/mastet_token_flattened.sol\":13312:13323  beneficiary */\n  dup4\n    /* \"liberland/eth/mastet_token_flattened.sol\":13325:13331  supply */\n  dup4\n    /* \"liberland/eth/mastet_token_flattened.sol\":13306:13311  _mint */\n  shl(0x20, tag_14)\n    /* \"liberland/eth/mastet_token_flattened.sol\":13306:13332  _mint(beneficiary, supply) */\n  0x20\n  shr\n  jump\t// in\ntag_13:\n    /* \"liberland/eth/mastet_token_flattened.sol\":13025:13339  constructor(... */\n  pop\n  pop\n  pop\n  pop\n  pop\n  pop\n    /* \"liberland/eth/mastet_token_flattened.sol\":12821:13515  contract MasterToken is ERC20Burnable, ERC20Detailed, Ownable {... */\n  jump(tag_15)\n    /* \"liberland/eth/mastet_token_flattened.sol\":7990:8247  function _mint(address account, uint256 value) internal {... */\ntag_14:\n    /* \"liberland/eth/mastet_token_flattened.sol\":8083:8084  0 */\n  0x00\n    /* \"liberland/eth/mastet_token_flattened.sol\":8064:8085  account != address(0) */\n  0xffffffffffffffffffffffffffffffffffffffff\n  and\n    /* \"liberland/eth/mastet_token_flattened.sol\":8064:8071  account */\n  dup3\n    /* \"liberland/eth/mastet_token_flattened.sol\":8064:8085  account != address(0) */\n  0xffffffffffffffffffffffffffffffffffffffff\n  and\n  sub\n    /* \"liberland/eth/mastet_token_flattened.sol\":8056:8086  require(account != address(0)) */\n  tag_17\n  jumpi\n  0x00\n  dup1\n  revert\ntag_17:\n    /* \"liberland/eth/mastet_token_flattened.sol\":8127:8132  value */\n  dup1\n    /* \"liberland/eth/mastet_token_flattened.sol\":8112:8124  _totalSupply */\n  sload(0x02)\n    /* \"liberland/eth/mastet_token_flattened.sol\":8112:8132  _totalSupply + value */\n  tag_18\n  swap2\n  swap1\n  tag_19\n  jump\t// in\ntag_18:\n    /* \"liberland/eth/mastet_token_flattened.sol\":8097:8109  _totalSupply */\n  0x02\n    /* \"liberland/eth/mastet_token_flattened.sol\":8097:8132  _totalSupply = _totalSupply + value */\n  dup2\n  swap1\n  sstore\n  pop\n    /* \"liberland/eth/mastet_token_flattened.sol\":8184:8189  value */\n  dup1\n    /* \"liberland/eth/mastet_token_flattened.sol\":8163:8172  _balances */\n  0x00\n    /* \"liberland/eth/mastet_token_flattened.sol\":8163:8181  _balances[account] */\n  dup1\n    /* \"liberland/eth/mastet_token_flattened.sol\":8173:8180  account */\n  dup5\n    /* \"liberland/eth/mastet_token_flattened.sol\":8163:8181  _balances[account] */\n  0xffffffffffffffffffffffffffffffffffffffff\n  and\n  0xffffffffffffffffffffffffffffffffffffffff\n  and\n  dup2\n  mstore\n  0x20\n  add\n  swap1\n  dup2\n  mstore\n  0x20\n  add\n  0x00\n  keccak256\n  sload\n    /* \"liberland/eth/mastet_token_flattened.sol\":8163:8189  _balances[account] + value */\n  tag_20\n  swap2\n  swap1\n  tag_19\n  jump\t// in\ntag_20:\n    /* \"liberland/eth/mastet_token_flattened.sol\":8142:8151  _balances */\n  0x00\n    /* \"liberland/eth/mastet_token_flattened.sol\":8142:8160  _balances[account] */\n  dup1\n    /* \"liberland/eth/mastet_token_flattened.sol\":8152:8159  account */\n  dup5\n    /* \"liberland/eth/mastet_token_flattened.sol\":8142:8160  _balances[account] */\n  0xffffffffffffffffffffffffffffffffffffffff\n  and\n  0xffffffffffffffffffffffffffffffffffffffff\n  and\n  dup2\n  mstore\n  0x20\n  add\n  swap1\n  dup2\n  mstore\n  0x20\n  add\n  0x00\n  keccak256\n    /* \"liberland/eth/mastet_token_flattened.sol\":8142:8189  _balances[account] = _balances[account] + value */\n  dup2\n  swap1\n  sstore\n  pop\n    /* \"liberland/eth/mastet_token_flattened.sol\":8225:8232  account */\n  dup2\n    /* \"liberland/eth/mastet_token_flattened.sol\":8204:8240  Transfer(address(0), account, value) */\n  0xffffffffffffffffffffffffffffffffffffffff\n  and\n    /* \"liberland/eth/mastet_token_flattened.sol\":8221:8222  0 */\n  0x00\n    /* \"liberland/eth/mastet_token_flattened.sol\":8204:8240  Transfer(address(0), account, value) */\n  0xffffffffffffffffffffffffffffffffffffffff\n  and\n  0xddf252ad1be2c89b69c2b068fc378daa952ba7f163c4a11628f55a4df523b3ef\n    /* \"liberland/eth/mastet_token_flattened.sol\":8234:8239  value */\n  dup4\n    /* \"liberland/eth/mastet_token_flattened.sol\":8204:8240  Transfer(address(0), account, value) */\n  mload(0x40)\n  tag_21\n  swap2\n  swap1\n  tag_22\n  jump\t// in\ntag_21:\n  mload(0x40)\n  dup1\n  swap2\n  sub\n  swap1\n  log3\n    /* \"liberland/eth/mastet_token_flattened.sol\":7990:8247  function _mint(address account, uint256 value) internal {... */\n  pop\n  pop\n  jump\t// out\n    /* \"#utility.yul\":7:82   */\ntag_23:\n    /* \"#utility.yul\":40:46   */\n  0x00\n    /* \"#utility.yul\":73:75   */\n  0x40\n    /* \"#utility.yul\":67:76   */\n  mload\n    /* \"#utility.yul\":57:76   */\n  swap1\n  pop\n    /* \"#utility.yul\":7:82   */\n  swap1\n  jump\t// out\n    /* \"#utility.yul\":88:205   */\ntag_24:\n    /* \"#utility.yul\":197:198   */\n  0x00\n    /* \"#utility.yul\":194:195   */\n  dup1\n    /* \"#utility.yul\":187:199   */\n  revert\n    /* \"#utility.yul\":211:328   */\ntag_25:\n    /* \"#utility.yul\":320:321   */\n  0x00\n    /* \"#utility.yul\":317:318   */\n  dup1\n    /* \"#utility.yul\":310:322   */\n  revert\n    /* \"#utility.yul\":334:451   */\ntag_26:\n    /* \"#utility.yul\":443:444   */\n  0x00\n    /* \"#utility.yul\":440:441   */\n  dup1\n    /* \"#utility.yul\":433:445   */\n  revert\n    /* \"#utility.yul\":457:574   */\ntag_27:\n    /* \"#utility.yul\":566:567   */\n  0x00\n    /* \"#utility.yul\":563:564   */\n  dup1\n    /* \"#utility.yul\":556:568   */\n  revert\n    /* \"#utility.yul\":580:682   */\ntag_28:\n    /* \"#utility.yul\":621:627   */\n  0x00\n    /* \"#utility.yul\":672:674   */\n  0x1f\n    /* \"#utility.yul\":668:675   */\n  not\n    /* \"#utility.yul\":663:665   */\n  0x1f\n    /* \"#utility.yul\":656:661   */\n  dup4\n    /* \"#utility.yul\":652:666   */\n  add\n    /* \"#utility.yul\":648:676   */\n  and\n    /* \"#utility.yul\":638:676   */\n  swap1\n  pop\n    /* \"#utility.yul\":580:682   */\n  swap2\n  swap1\n  pop\n  jump\t// out\n    /* \"#utility.yul\":688:868   */\ntag_29:\n    /* \"#utility.yul\":736:813   */\n  0x4e487b7100000000000000000000000000000000000000000000000000000000\n    /* \"#utility.yul\":733:734   */\n  0x00\n    /* \"#utility.yul\":726:814   */\n  mstore\n    /* \"#utility.yul\":833:837   */\n  0x41\n    /* \"#utility.yul\":830:831   */\n  0x04\n    /* \"#utility.yul\":823:838   */\n  mstore\n    /* \"#utility.yul\":857:861   */\n  0x24\n    /* \"#utility.yul\":854:855   */\n  0x00\n    /* \"#utility.yul\":847:862   */\n  revert\n    /* \"#utility.yul\":874:1155   */\ntag_30:\n    /* \"#utility.yul\":957:984   */\n  tag_78\n    /* \"#utility.yul\":979:983   */\n  dup3\n    /* \"#utility.yul\":957:984   */\n  tag_28\n  jump\t// in\ntag_78:\n    /* \"#utility.yul\":949:955   */\n  dup2\n    /* \"#utility.yul\":945:985   */\n  add\n    /* \"#utility.yul\":1087:1093   */\n  dup2\n    /* \"#utility.yul\":1075:1085   */\n  dup2\n    /* \"#utility.yul\":1072:1094   */\n  lt\n    /* \"#utility.yul\":1051:1069   */\n  0xffffffffffffffff\n    /* \"#utility.yul\":1039:1049   */\n  dup3\n    /* \"#utility.yul\":1036:1070   */\n  gt\n    /* \"#utility.yul\":1033:1095   */\n  or\n    /* \"#utility.yul\":1030:1118   */\n  iszero\n  tag_79\n  jumpi\n    /* \"#utility.yul\":1098:1116   */\n  tag_80\n  tag_29\n  jump\t// in\ntag_80:\n    /* \"#utility.yul\":1030:1118   */\ntag_79:\n    /* \"#utility.yul\":1138:1148   */\n  dup1\n    /* \"#utility.yul\":1134:1136   */\n  0x40\n    /* \"#utility.yul\":1127:1149   */\n  mstore\n    /* \"#utility.yul\":917:1155   */\n  pop\n    /* \"#utility.yul\":874:1155   */\n  pop\n  pop\n  jump\t// out\n    /* \"#utility.yul\":1161:1290   */\ntag_31:\n    /* \"#utility.yul\":1195:1201   */\n  0x00\n    /* \"#utility.yul\":1222:1242   */\n  tag_82\n  tag_23\n  jump\t// in\ntag_82:\n    /* \"#utility.yul\":1212:1242   */\n  swap1\n  pop\n    /* \"#utility.yul\":1251:1284   */\n  tag_83\n    /* \"#utility.yul\":1279:1283   */\n  dup3\n    /* \"#utility.yul\":1271:1277   */\n  dup3\n    /* \"#utility.yul\":1251:1284   */\n  tag_30\n  jump\t// in\ntag_83:\n    /* \"#utility.yul\":1161:1290   */\n  swap2\n  swap1\n  pop\n  jump\t// out\n    /* \"#utility.yul\":1296:1604   */\ntag_32:\n    /* \"#utility.yul\":1358:1362   */\n  0x00\n    /* \"#utility.yul\":1448:1466   */\n  0xffffffffffffffff\n    /* \"#utility.yul\":1440:1446   */\n  dup3\n    /* \"#utility.yul\":1437:1467   */\n  gt\n    /* \"#utility.yul\":1434:1490   */\n  iszero\n  tag_85\n  jumpi\n    /* \"#utility.yul\":1470:1488   */\n  tag_86\n  tag_29\n  jump\t// in\ntag_86:\n    /* \"#utility.yul\":1434:1490   */\ntag_85:\n    /* \"#utility.yul\":1508:1537   */\n  tag_87\n    /* \"#utility.yul\":1530:1536   */\n  dup3\n    /* \"#utility.yul\":1508:1537   */\n  tag_28\n  jump\t// in\ntag_87:\n    /* \"#utility.yul\":1500:1537   */\n  swap1\n  pop\n    /* \"#utility.yul\":1592:1596   */\n  0x20\n    /* \"#utility.yul\":1586:1590   */\n  dup2\n    /* \"#utility.yul\":1582:1597   */\n  add\n    /* \"#utility.yul\":1574:1597   */\n  swap1\n  pop\n    /* \"#utility.yul\":1296:1604   */\n  swap2\n  swap1\n  pop\n  jump\t// out\n    /* \"#utility.yul\":1610:1856   */\ntag_33:\n    /* \"#utility.yul\":1691:1692   */\n  0x00\n    /* \"#utility.yul\":1701:1814   */\ntag_89:\n    /* \"#utility.yul\":1715:1721   */\n  dup4\n    /* \"#utility.yul\":1712:1713   */\n  dup2\n    /* \"#utility.yul\":1709:1722   */\n  lt\n    /* \"#utility.yul\":1701:1814   */\n  iszero\n  tag_91\n  jumpi\n    /* \"#utility.yul\":1800:1801   */\n  dup1\n    /* \"#utility.yul\":1795:1798   */\n  dup3\n    /* \"#utility.yul\":1791:1802   */\n  add\n    /* \"#utility.yul\":1785:1803   */\n  mload\n    /* \"#utility.yul\":1781:1782   */\n  dup2\n    /* \"#utility.yul\":1776:1779   */\n  dup5\n    /* \"#utility.yul\":1772:1783   */\n  add\n    /* \"#utility.yul\":1765:1804   */\n  mstore\n    /* \"#utility.yul\":1737:1739   */\n  0x20\n    /* \"#utility.yul\":1734:1735   */\n  dup2\n    /* \"#utility.yul\":1730:1740   */\n  add\n    /* \"#utility.yul\":1725:1740   */\n  swap1\n  pop\n    /* \"#utility.yul\":1701:1814   */\n  jump(tag_89)\ntag_91:\n    /* \"#utility.yul\":1848:1849   */\n  0x00\n    /* \"#utility.yul\":1839:1845   */\n  dup5\n    /* \"#utility.yul\":1834:1837   */\n  dup5\n    /* \"#utility.yul\":1830:1846   */\n  add\n    /* \"#utility.yul\":1823:1850   */\n  mstore\n    /* \"#utility.yul\":1672:1856   */\n  pop\n    /* \"#utility.yul\":1610:1856   */\n  pop\n  pop\n  pop\n  jump\t// out\n    /* \"#utility.yul\":1862:2296   */\ntag_34:\n    /* \"#utility.yul\":1951:1956   */\n  0x00\n    /* \"#utility.yul\":1976:2042   */\n  tag_93\n    /* \"#utility.yul\":1992:2041   */\n  tag_94\n    /* \"#utility.yul\":2034:2040   */\n  dup5\n    /* \"#utility.yul\":1992:2041   */\n  tag_32\n  jump\t// in\ntag_94:\n    /* \"#utility.yul\":1976:2042   */\n  tag_31\n  jump\t// in\ntag_93:\n    /* \"#utility.yul\":1967:2042   */\n  swap1\n  pop\n    /* \"#utility.yul\":2065:2071   */\n  dup3\n    /* \"#utility.yul\":2058:2063   */\n  dup2\n    /* \"#utility.yul\":2051:2072   */\n  mstore\n    /* \"#utility.yul\":2103:2107   */\n  0x20\n    /* \"#utility.yul\":2096:2101   */\n  dup2\n    /* \"#utility.yul\":2092:2108   */\n  add\n    /* \"#utility.yul\":2141:2144   */\n  dup5\n    /* \"#utility.yul\":2132:2138   */\n  dup5\n    /* \"#utility.yul\":2127:2130   */\n  dup5\n    /* \"#utility.yul\":2123:2139   */\n  add\n    /* \"#utility.yul\":2120:2145   */\n  gt\n    /* \"#utility.yul\":2117:2229   */\n  iszero\n  tag_95\n  jumpi\n    /* \"#utility.yul\":2148:2227   */\n  tag_96\n  tag_27\n  jump\t// in\ntag_96:\n    /* \"#utility.yul\":2117:2229   */\ntag_95:\n    /* \"#utility.yul\":2238:2290   */\n  tag_97\n    /* \"#utility.yul\":2283:2289   */\n  dup5\n    /* \"#utility.yul\":2278:2281   */\n  dup3\n    /* \"#utility.yul\":2273:2276   */\n  dup6\n    /* \"#utility.yul\":2238:2290   */\n  tag_33\n  jump\t// in\ntag_97:\n    /* \"#utility.yul\":1957:2296   */\n  pop\n    /* \"#utility.yul\":1862:2296   */\n  swap4\n  swap3\n  pop\n  pop\n  pop\n  jump\t// out\n    /* \"#utility.yul\":2316:2671   */\ntag_35:\n    /* \"#utility.yul\":2383:2388   */\n  0x00\n    /* \"#utility.yul\":2432:2435   */\n  dup3\n    /* \"#utility.yul\":2425:2429   */\n  0x1f\n    /* \"#utility.yul\":2417:2423   */\n  dup4\n    /* \"#utility.yul\":2413:2430   */\n  add\n    /* \"#utility.yul\":2409:2436   */\n  slt\n    /* \"#utility.yul\":2399:2521   */\n  tag_99\n  jumpi\n    /* \"#utility.yul\":2440:2519   */\n  tag_100\n  tag_26\n  jump\t// in\ntag_100:\n    /* \"#utility.yul\":2399:2521   */\ntag_99:\n    /* \"#utility.yul\":2550:2556   */\n  dup2\n    /* \"#utility.yul\":2544:2557   */\n  mload\n    /* \"#utility.yul\":2575:2665   */\n  tag_101\n    /* \"#utility.yul\":2661:2664   */\n  dup5\n    /* \"#utility.yul\":2653:2659   */\n  dup3\n    /* \"#utility.yul\":2646:2650   */\n  0x20\n    /* \"#utility.yul\":2638:2644   */\n  dup7\n    /* \"#utility.yul\":2634:2651   */\n  add\n    /* \"#utility.yul\":2575:2665   */\n  tag_34\n  jump\t// in\ntag_101:\n    /* \"#utility.yul\":2566:2665   */\n  swap2\n  pop\n    /* \"#utility.yul\":2389:2671   */\n  pop\n    /* \"#utility.yul\":2316:2671   */\n  swap3\n  swap2\n  pop\n  pop\n  jump\t// out\n    /* \"#utility.yul\":2677:2763   */\ntag_36:\n    /* \"#utility.yul\":2712:2719   */\n  0x00\n    /* \"#utility.yul\":2752:2756   */\n  0xff\n    /* \"#utility.yul\":2745:2750   */\n  dup3\n    /* \"#utility.yul\":2741:2757   */\n  and\n    /* \"#utility.yul\":2730:2757   */\n  swap1\n  pop\n    /* \"#utility.yul\":2677:2763   */\n  swap2\n  swap1\n  pop\n  jump\t// out\n    /* \"#utility.yul\":2769:2887   */\ntag_37:\n    /* \"#utility.yul\":2840:2862   */\n  tag_104\n    /* \"#utility.yul\":2856:2861   */\n  dup2\n    /* \"#utility.yul\":2840:2862   */\n  tag_36\n  jump\t// in\ntag_104:\n    /* \"#utility.yul\":2833:2838   */\n  dup2\n    /* \"#utility.yul\":2830:2863   */\n  eq\n    /* \"#utility.yul\":2820:2881   */\n  tag_105\n  jumpi\n    /* \"#utility.yul\":2877:2878   */\n  0x00\n    /* \"#utility.yul\":2874:2875   */\n  dup1\n    /* \"#utility.yul\":2867:2879   */\n  revert\n    /* \"#utility.yul\":2820:2881   */\ntag_105:\n    /* \"#utility.yul\":2769:2887   */\n  pop\n  jump\t// out\n    /* \"#utility.yul\":2893:3032   */\ntag_38:\n    /* \"#utility.yul\":2948:2953   */\n  0x00\n    /* \"#utility.yul\":2979:2985   */\n  dup2\n    /* \"#utility.yul\":2973:2986   */\n  mload\n    /* \"#utility.yul\":2964:2986   */\n  swap1\n  pop\n    /* \"#utility.yul\":2995:3026   */\n  tag_107\n    /* \"#utility.yul\":3020:3025   */\n  dup2\n    /* \"#utility.yul\":2995:3026   */\n  tag_37\n  jump\t// in\ntag_107:\n    /* \"#utility.yul\":2893:3032   */\n  swap3\n  swap2\n  pop\n  pop\n  jump\t// out\n    /* \"#utility.yul\":3038:3164   */\ntag_39:\n    /* \"#utility.yul\":3075:3082   */\n  0x00\n    /* \"#utility.yul\":3115:3157   */\n  0xffffffffffffffffffffffffffffffffffffffff\n    /* \"#utility.yul\":3108:3113   */\n  dup3\n    /* \"#utility.yul\":3104:3158   */\n  and\n    /* \"#utility.yul\":3093:3158   */\n  swap1\n  pop\n    /* \"#utility.yul\":3038:3164   */\n  swap2\n  swap1\n  pop\n  jump\t// out\n    /* \"#utility.yul\":3170:3266   */\ntag_40:\n    /* \"#utility.yul\":3207:3214   */\n  0x00\n    /* \"#utility.yul\":3236:3260   */\n  tag_110\n    /* \"#utility.yul\":3254:3259   */\n  dup3\n    /* \"#utility.yul\":3236:3260   */\n  tag_39\n  jump\t// in\ntag_110:\n    /* \"#utility.yul\":3225:3260   */\n  swap1\n  pop\n    /* \"#utility.yul\":3170:3266   */\n  swap2\n  swap1\n  pop\n  jump\t// out\n    /* \"#utility.yul\":3272:3394   */\ntag_41:\n    /* \"#utility.yul\":3345:3369   */\n  tag_112\n    /* \"#utility.yul\":3363:3368   */\n  dup2\n    /* \"#utility.yul\":3345:3369   */\n  tag_40\n  jump\t// in\ntag_112:\n    /* \"#utility.yul\":3338:3343   */\n  dup2\n    /* \"#utility.yul\":3335:3370   */\n  eq\n    /* \"#utility.yul\":3325:3388   */\n  tag_113\n  jumpi\n    /* \"#utility.yul\":3384:3385   */\n  0x00\n    /* \"#utility.yul\":3381:3382   */\n  dup1\n    /* \"#utility.yul\":3374:3386   */\n  revert\n    /* \"#utility.yul\":3325:3388   */\ntag_113:\n    /* \"#utility.yul\":3272:3394   */\n  pop\n  jump\t// out\n    /* \"#utility.yul\":3400:3543   */\ntag_42:\n    /* \"#utility.yul\":3457:3462   */\n  0x00\n    /* \"#utility.yul\":3488:3494   */\n  dup2\n    /* \"#utility.yul\":3482:3495   */\n  mload\n    /* \"#utility.yul\":3473:3495   */\n  swap1\n  pop\n    /* \"#utility.yul\":3504:3537   */\n  tag_115\n    /* \"#utility.yul\":3531:3536   */\n  dup2\n    /* \"#utility.yul\":3504:3537   */\n  tag_41\n  jump\t// in\ntag_115:\n    /* \"#utility.yul\":3400:3543   */\n  swap3\n  swap2\n  pop\n  pop\n  jump\t// out\n    /* \"#utility.yul\":3549:3626   */\ntag_43:\n    /* \"#utility.yul\":3586:3593   */\n  0x00\n    /* \"#utility.yul\":3615:3620   */\n  dup2\n    /* \"#utility.yul\":3604:3620   */\n  swap1\n  pop\n    /* \"#utility.yul\":3549:3626   */\n  swap2\n  swap1\n  pop\n  jump\t// out\n    /* \"#utility.yul\":3632:3754   */\ntag_44:\n    /* \"#utility.yul\":3705:3729   */\n  tag_118\n    /* \"#utility.yul\":3723:3728   */\n  dup2\n    /* \"#utility.yul\":3705:3729   */\n  tag_43\n  jump\t// in\ntag_118:\n    /* \"#utility.yul\":3698:3703   */\n  dup2\n    /* \"#utility.yul\":3695:3730   */\n  eq\n    /* \"#utility.yul\":3685:3748   */\n  tag_119\n  jumpi\n    /* \"#utility.yul\":3744:3745   */\n  0x00\n    /* \"#utility.yul\":3741:3742   */\n  dup1\n    /* \"#utility.yul\":3734:3746   */\n  revert\n    /* \"#utility.yul\":3685:3748   */\ntag_119:\n    /* \"#utility.yul\":3632:3754   */\n  pop\n  jump\t// out\n    /* \"#utility.yul\":3760:3903   */\ntag_45:\n    /* \"#utility.yul\":3817:3822   */\n  0x00\n    /* \"#utility.yul\":3848:3854   */\n  dup2\n    /* \"#utility.yul\":3842:3855   */\n  mload\n    /* \"#utility.yul\":3833:3855   */\n  swap1\n  pop\n    /* \"#utility.yul\":3864:3897   */\n  tag_121\n    /* \"#utility.yul\":3891:3896   */\n  dup2\n    /* \"#utility.yul\":3864:3897   */\n  tag_44\n  jump\t// in\ntag_121:\n    /* \"#utility.yul\":3760:3903   */\n  swap3\n  swap2\n  pop\n  pop\n  jump\t// out\n    /* \"#utility.yul\":3909:3986   */\ntag_46:\n    /* \"#utility.yul\":3946:3953   */\n  0x00\n    /* \"#utility.yul\":3975:3980   */\n  dup2\n    /* \"#utility.yul\":3964:3980   */\n  swap1\n  pop\n    /* \"#utility.yul\":3909:3986   */\n  swap2\n  swap1\n  pop\n  jump\t// out\n    /* \"#utility.yul\":3992:4114   */\ntag_47:\n    /* \"#utility.yul\":4065:4089   */\n  tag_124\n    /* \"#utility.yul\":4083:4088   */\n  dup2\n    /* \"#utility.yul\":4065:4089   */\n  tag_46\n  jump\t// in\ntag_124:\n    /* \"#utility.yul\":4058:4063   */\n  dup2\n    /* \"#utility.yul\":4055:4090   */\n  eq\n    /* \"#utility.yul\":4045:4108   */\n  tag_125\n  jumpi\n    /* \"#utility.yul\":4104:4105   */\n  0x00\n    /* \"#utility.yul\":4101:4102   */\n  dup1\n    /* \"#utility.yul\":4094:4106   */\n  revert\n    /* \"#utility.yul\":4045:4108   */\ntag_125:\n    /* \"#utility.yul\":3992:4114   */\n  pop\n  jump\t// out\n    /* \"#utility.yul\":4120:4263   */\ntag_48:\n    /* \"#utility.yul\":4177:4182   */\n  0x00\n    /* \"#utility.yul\":4208:4214   */\n  dup2\n    /* \"#utility.yul\":4202:4215   */\n  mload\n    /* \"#utility.yul\":4193:4215   */\n  swap1\n  pop\n    /* \"#utility.yul\":4224:4257   */\n  tag_127\n    /* \"#utility.yul\":4251:4256   */\n  dup2\n    /* \"#utility.yul\":4224:4257   */\n  tag_47\n  jump\t// in\ntag_127:\n    /* \"#utility.yul\":4120:4263   */\n  swap3\n  swap2\n  pop\n  pop\n  jump\t// out\n    /* \"#utility.yul\":4269:5745   */\ntag_3:\n    /* \"#utility.yul\":4402:4408   */\n  0x00\n    /* \"#utility.yul\":4410:4416   */\n  dup1\n    /* \"#utility.yul\":4418:4424   */\n  0x00\n    /* \"#utility.yul\":4426:4432   */\n  dup1\n    /* \"#utility.yul\":4434:4440   */\n  0x00\n    /* \"#utility.yul\":4442:4448   */\n  dup1\n    /* \"#utility.yul\":4491:4494   */\n  0xc0\n    /* \"#utility.yul\":4479:4488   */\n  dup8\n    /* \"#utility.yul\":4470:4477   */\n  dup10\n    /* \"#utility.yul\":4466:4489   */\n  sub\n    /* \"#utility.yul\":4462:4495   */\n  slt\n    /* \"#utility.yul\":4459:4579   */\n  iszero\n  tag_129\n  jumpi\n    /* \"#utility.yul\":4498:4577   */\n  tag_130\n  tag_24\n  jump\t// in\ntag_130:\n    /* \"#utility.yul\":4459:4579   */\ntag_129:\n    /* \"#utility.yul\":4639:4640   */\n  0x00\n    /* \"#utility.yul\":4628:4637   */\n  dup8\n    /* \"#utility.yul\":4624:4641   */\n  add\n    /* \"#utility.yul\":4618:4642   */\n  mload\n    /* \"#utility.yul\":4669:4687   */\n  0xffffffffffffffff\n    /* \"#utility.yul\":4661:4667   */\n  dup2\n    /* \"#utility.yul\":4658:4688   */\n  gt\n    /* \"#utility.yul\":4655:4772   */\n  iszero\n  tag_131\n  jumpi\n    /* \"#utility.yul\":4691:4770   */\n  tag_132\n  tag_25\n  jump\t// in\ntag_132:\n    /* \"#utility.yul\":4655:4772   */\ntag_131:\n    /* \"#utility.yul\":4796:4870   */\n  tag_133\n    /* \"#utility.yul\":4862:4869   */\n  dup10\n    /* \"#utility.yul\":4853:4859   */\n  dup3\n    /* \"#utility.yul\":4842:4851   */\n  dup11\n    /* \"#utility.yul\":4838:4860   */\n  add\n    /* \"#utility.yul\":4796:4870   */\n  tag_35\n  jump\t// in\ntag_133:\n    /* \"#utility.yul\":4786:4870   */\n  swap7\n  pop\n    /* \"#utility.yul\":4589:4880   */\n  pop\n    /* \"#utility.yul\":4940:4942   */\n  0x20\n    /* \"#utility.yul\":4929:4938   */\n  dup8\n    /* \"#utility.yul\":4925:4943   */\n  add\n    /* \"#utility.yul\":4919:4944   */\n  mload\n    /* \"#utility.yul\":4971:4989   */\n  0xffffffffffffffff\n    /* \"#utility.yul\":4963:4969   */\n  dup2\n    /* \"#utility.yul\":4960:4990   */\n  gt\n    /* \"#utility.yul\":4957:5074   */\n  iszero\n  tag_134\n  jumpi\n    /* \"#utility.yul\":4993:5072   */\n  tag_135\n  tag_25\n  jump\t// in\ntag_135:\n    /* \"#utility.yul\":4957:5074   */\ntag_134:\n    /* \"#utility.yul\":5098:5172   */\n  tag_136\n    /* \"#utility.yul\":5164:5171   */\n  dup10\n    /* \"#utility.yul\":5155:5161   */\n  dup3\n    /* \"#utility.yul\":5144:5153   */\n  dup11\n    /* \"#utility.yul\":5140:5162   */\n  add\n    /* \"#utility.yul\":5098:5172   */\n  tag_35\n  jump\t// in\ntag_136:\n    /* \"#utility.yul\":5088:5172   */\n  swap6\n  pop\n    /* \"#utility.yul\":4890:5182   */\n  pop\n    /* \"#utility.yul\":5221:5223   */\n  0x40\n    /* \"#utility.yul\":5247:5309   */\n  tag_137\n    /* \"#utility.yul\":5301:5308   */\n  dup10\n    /* \"#utility.yul\":5292:5298   */\n  dup3\n    /* \"#utility.yul\":5281:5290   */\n  dup11\n    /* \"#utility.yul\":5277:5299   */\n  add\n    /* \"#utility.yul\":5247:5309   */\n  tag_38\n  jump\t// in\ntag_137:\n    /* \"#utility.yul\":5237:5309   */\n  swap5\n  pop\n    /* \"#utility.yul\":5192:5319   */\n  pop\n    /* \"#utility.yul\":5358:5360   */\n  0x60\n    /* \"#utility.yul\":5384:5448   */\n  tag_138\n    /* \"#utility.yul\":5440:5447   */\n  dup10\n    /* \"#utility.yul\":5431:5437   */\n  dup3\n    /* \"#utility.yul\":5420:5429   */\n  dup11\n    /* \"#utility.yul\":5416:5438   */\n  add\n    /* \"#utility.yul\":5384:5448   */\n  tag_42\n  jump\t// in\ntag_138:\n    /* \"#utility.yul\":5374:5448   */\n  swap4\n  pop\n    /* \"#utility.yul\":5329:5458   */\n  pop\n    /* \"#utility.yul\":5497:5500   */\n  0x80\n    /* \"#utility.yul\":5524:5588   */\n  tag_139\n    /* \"#utility.yul\":5580:5587   */\n  dup10\n    /* \"#utility.yul\":5571:5577   */\n  dup3\n    /* \"#utility.yul\":5560:5569   */\n  dup11\n    /* \"#utility.yul\":5556:5578   */\n  add\n    /* \"#utility.yul\":5524:5588   */\n  tag_45\n  jump\t// in\ntag_139:\n    /* \"#utility.yul\":5514:5588   */\n  swap3\n  pop\n    /* \"#utility.yul\":5468:5598   */\n  pop\n    /* \"#utility.yul\":5637:5640   */\n  0xa0\n    /* \"#utility.yul\":5664:5728   */\n  tag_140\n    /* \"#utility.yul\":5720:5727   */\n  dup10\n    /* \"#utility.yul\":5711:5717   */\n  dup3\n    /* \"#utility.yul\":5700:5709   */\n  dup11\n    /* \"#utility.yul\":5696:5718   */\n  add\n    /* \"#utility.yul\":5664:5728   */\n  tag_48\n  jump\t// in\ntag_140:\n    /* \"#utility.yul\":5654:5728   */\n  swap2\n  pop\n    /* \"#utility.yul\":5608:5738   */\n  pop\n    /* \"#utility.yul\":4269:5745   */\n  swap3\n  swap6\n  pop\n  swap3\n  swap6\n  pop\n  swap3\n  swap6\n  jump\t// out\n    /* \"#utility.yul\":5751:5850   */\ntag_49:\n    /* \"#utility.yul\":5803:5809   */\n  0x00\n    /* \"#utility.yul\":5837:5842   */\n  dup2\n    /* \"#utility.yul\":5831:5843   */\n  mload\n    /* \"#utility.yul\":5821:5843   */\n  swap1\n  pop\n    /* \"#utility.yul\":5751:5850   */\n  swap2\n  swap1\n  pop\n  jump\t// out\n    /* \"#utility.yul\":5856:6036   */\ntag_50:\n    /* \"#utility.yul\":5904:5981   */\n  0x4e487b7100000000000000000000000000000000000000000000000000000000\n    /* \"#utility.yul\":5901:5902   */\n  0x00\n    /* \"#utility.yul\":5894:5982   */\n  mstore\n    /* \"#utility.yul\":6001:6005   */\n  0x22\n    /* \"#utility.yul\":5998:5999   */\n  0x04\n    /* \"#utility.yul\":5991:6006   */\n  mstore\n    /* \"#utility.yul\":6025:6029   */\n  0x24\n    /* \"#utility.yul\":6022:6023   */\n  0x00\n    /* \"#utility.yul\":6015:6030   */\n  revert\n    /* \"#utility.yul\":6042:6362   */\ntag_51:\n    /* \"#utility.yul\":6086:6092   */\n  0x00\n    /* \"#utility.yul\":6123:6124   */\n  0x02\n    /* \"#utility.yul\":6117:6121   */\n  dup3\n    /* \"#utility.yul\":6113:6125   */\n  div\n    /* \"#utility.yul\":6103:6125   */\n  swap1\n  pop\n    /* \"#utility.yul\":6170:6171   */\n  0x01\n    /* \"#utility.yul\":6164:6168   */\n  dup3\n    /* \"#utility.yul\":6160:6172   */\n  and\n    /* \"#utility.yul\":6191:6209   */\n  dup1\n    /* \"#utility.yul\":6181:6262   */\n  tag_144\n  jumpi\n    /* \"#utility.yul\":6247:6251   */\n  0x7f\n    /* \"#utility.yul\":6239:6245   */\n  dup3\n    /* \"#utility.yul\":6235:6252   */\n  and\n    /* \"#utility.yul\":6225:6252   */\n  swap2\n  pop\n    /* \"#utility.yul\":6181:6262   */\ntag_144:\n    /* \"#utility.yul\":6309:6311   */\n  0x20\n    /* \"#utility.yul\":6301:6307   */\n  dup3\n    /* \"#utility.yul\":6298:6312   */\n  lt\n    /* \"#utility.yul\":6278:6296   */\n  dup2\n    /* \"#utility.yul\":6275:6313   */\n  sub\n    /* \"#utility.yul\":6272:6356   */\n  tag_145\n  jumpi\n    /* \"#utility.yul\":6328:6346   */\n  tag_146\n  tag_50\n  jump\t// in\ntag_146:\n    /* \"#utility.yul\":6272:6356   */\ntag_145:\n    /* \"#utility.yul\":6093:6362   */\n  pop\n    /* \"#utility.yul\":6042:6362   */\n  swap2\n  swap1\n  pop\n  jump\t// out\n    /* \"#utility.yul\":6368:6509   */\ntag_52:\n    /* \"#utility.yul\":6417:6421   */\n  0x00\n    /* \"#utility.yul\":6440:6443   */\n  dup2\n    /* \"#utility.yul\":6432:6443   */\n  swap1\n  pop\n    /* \"#utility.yul\":6463:6466   */\n  dup2\n    /* \"#utility.yul\":6460:6461   */\n  0x00\n    /* \"#utility.yul\":6453:6467   */\n  mstore\n    /* \"#utility.yul\":6497:6501   */\n  0x20\n    /* \"#utility.yul\":6494:6495   */\n  0x00\n    /* \"#utility.yul\":6484:6502   */\n  keccak256\n    /* \"#utility.yul\":6476:6502   */\n  swap1\n  pop\n    /* \"#utility.yul\":6368:6509   */\n  swap2\n  swap1\n  pop\n  jump\t// out\n    /* \"#utility.yul\":6515:6608   */\ntag_53:\n    /* \"#utility.yul\":6552:6558   */\n  0x00\n    /* \"#utility.yul\":6599:6601   */\n  0x20\n    /* \"#utility.yul\":6594:6596   */\n  0x1f\n    /* \"#utility.yul\":6587:6592   */\n  dup4\n    /* \"#utility.yul\":6583:6597   */\n  add\n    /* \"#utility.yul\":6579:6602   */\n  div\n    /* \"#utility.yul\":6569:6602   */\n  swap1\n  pop\n    /* \"#utility.yul\":6515:6608   */\n  swap2\n  swap1\n  pop\n  jump\t// out\n    /* \"#utility.yul\":6614:6721   */\ntag_54:\n    /* \"#utility.yul\":6658:6666   */\n  0x00\n    /* \"#utility.yul\":6708:6713   */\n  dup3\n    /* \"#utility.yul\":6702:6706   */\n  dup3\n    /* \"#utility.yul\":6698:6714   */\n  shl\n    /* \"#utility.yul\":6677:6714   */\n  swap1\n  pop\n    /* \"#utility.yul\":6614:6721   */\n  swap3\n  swap2\n  pop\n  pop\n  jump\t// out\n    /* \"#utility.yul\":6727:7120   */\ntag_55:\n    /* \"#utility.yul\":6796:6802   */\n  0x00\n    /* \"#utility.yul\":6846:6847   */\n  0x08\n    /* \"#utility.yul\":6834:6844   */\n  dup4\n    /* \"#utility.yul\":6830:6848   */\n  mul\n    /* \"#utility.yul\":6869:6966   */\n  tag_151\n    /* \"#utility.yul\":6899:6965   */\n  0xffffffffffffffffffffffffffffffffffffffffffffffffffffffffffffffff\n    /* \"#utility.yul\":6888:6897   */\n  dup3\n    /* \"#utility.yul\":6869:6966   */\n  tag_54\n  jump\t// in\ntag_151:\n    /* \"#utility.yul\":6987:7026   */\n  tag_152\n    /* \"#utility.yul\":7017:7025   */\n  dup7\n    /* \"#utility.yul\":7006:7015   */\n  dup4\n    /* \"#utility.yul\":6987:7026   */\n  tag_54\n  jump\t// in\ntag_152:\n    /* \"#utility.yul\":6975:7026   */\n  swap6\n  pop\n    /* \"#utility.yul\":7059:7063   */\n  dup1\n    /* \"#utility.yul\":7055:7064   */\n  not\n    /* \"#utility.yul\":7048:7053   */\n  dup5\n    /* \"#utility.yul\":7044:7065   */\n  and\n    /* \"#utility.yul\":7035:7065   */\n  swap4\n  pop\n    /* \"#utility.yul\":7108:7112   */\n  dup1\n    /* \"#utility.yul\":7098:7106   */\n  dup7\n    /* \"#utility.yul\":7094:7113   */\n  and\n    /* \"#utility.yul\":7087:7092   */\n  dup5\n    /* \"#utility.yul\":7084:7114   */\n  or\n    /* \"#utility.yul\":7074:7114   */\n  swap3\n  pop\n    /* \"#utility.yul\":6803:7120   */\n  pop\n  pop\n    /* \"#utility.yul\":6727:7120   */\n  swap4\n  swap3\n  pop\n  pop\n  pop\n  jump\t// out\n    /* \"#utility.yul\":7126:7186   */\ntag_56:\n    /* \"#utility.yul\":7154:7157   */\n  0x00\n    /* \"#utility.yul\":7175:7180   */\n  dup2\n    /* \"#utility.yul\":7168:7180   */\n  swap1\n  pop\n    /* \"#utility.yul\":7126:7186   */\n  swap2\n  swap1\n  pop\n  jump\t// out\n    /* \"#utility.yul\":7192:7334   */\ntag_57:\n    /* \"#utility.yul\":7242:7251   */\n  0x00\n    /* \"#utility.yul\":7275:7328   */\n  tag_155\n    /* \"#utility.yul\":7293:7327   */\n  tag_156\n    /* \"#utility.yul\":7302:7326   */\n  tag_157\n    /* \"#utility.yul\":7320:7325   */\n  dup5\n    /* \"#utility.yul\":7302:7326   */\n  tag_43\n  jump\t// in\ntag_157:\n    /* \"#utility.yul\":7293:7327   */\n  tag_56\n  jump\t// in\ntag_156:\n    /* \"#utility.yul\":7275:7328   */\n  tag_43\n  jump\t// in\ntag_155:\n    /* \"#utility.yul\":7262:7328   */\n  swap1\n  pop\n    /* \"#utility.yul\":7192:7334   */\n  swap2\n  swap1\n  pop\n  jump\t// out\n    /* \"#utility.yul\":7340:7415   */\ntag_58:\n    /* \"#utility.yul\":7383:7386   */\n  0x00\n    /* \"#utility.yul\":7404:7409   */\n  dup2\n    /* \"#utility.yul\":7397:7409   */\n  swap1\n  pop\n    /* \"#utility.yul\":7340:7415   */\n  swap2\n  swap1\n  pop\n  jump\t// out\n    /* \"#utility.yul\":7421:7690   */\ntag_59:\n    /* \"#utility.yul\":7531:7570   */\n  tag_160\n    /* \"#utility.yul\":7562:7569   */\n  dup4\n    /* \"#utility.yul\":7531:7570   */\n  tag_57\n  jump\t// in\ntag_160:\n    /* \"#utility.yul\":7592:7683   */\n  tag_161\n    /* \"#utility.yul\":7641:7682   */\n  tag_162\n    /* \"#utility.yul\":7665:7681   */\n  dup3\n    /* \"#utility.yul\":7641:7682   */\n  tag_58\n  jump\t// in\ntag_162:\n    /* \"#utility.yul\":7633:7639   */\n  dup5\n    /* \"#utility.yul\":7626:7630   */\n  dup5\n    /* \"#utility.yul\":7620:7631   */\n  sload\n    /* \"#utility.yul\":7592:7683   */\n  tag_55\n  jump\t// in\ntag_161:\n    /* \"#utility.yul\":7586:7590   */\n  dup3\n    /* \"#utility.yul\":7579:7684   */\n  sstore\n    /* \"#utility.yul\":7497:7690   */\n  pop\n    /* \"#utility.yul\":7421:7690   */\n  pop\n  pop\n  pop\n  jump\t// out\n    /* \"#utility.yul\":7696:7769   */\ntag_60:\n    /* \"#utility.yul\":7741:7744   */\n  0x00\n    /* \"#utility.yul\":7696:7769   */\n  swap1\n  jump\t// out\n    /* \"#utility.yul\":7775:7964   */\ntag_61:\n    /* \"#utility.yul\":7852:7884   */\n  tag_165\n  tag_60\n  jump\t// in\ntag_165:\n    /* \"#utility.yul\":7893:7958   */\n  tag_166\n    /* \"#utility.yul\":7951:7957   */\n  dup2\n    /* \"#utility.yul\":7943:7949   */\n  dup5\n    /* \"#utility.yul\":7937:7941   */\n  dup5\n    /* \"#utility.yul\":7893:7958   */\n  tag_59\n  jump\t// in\ntag_166:\n    /* \"#utility.yul\":7828:7964   */\n  pop\n    /* \"#utility.yul\":7775:7964   */\n  pop\n  pop\n  jump\t// out\n    /* \"#utility.yul\":7970:8156   */\ntag_62:\n    /* \"#utility.yul\":8030:8150   */\ntag_168:\n    /* \"#utility.yul\":8047:8050   */\n  dup2\n    /* \"#utility.yul\":8040:8045   */\n  dup2\n    /* \"#utility.yul\":8037:8051   */\n  lt\n    /* \"#utility.yul\":8030:8150   */\n  iszero\n  tag_170\n  jumpi\n    /* \"#utility.yul\":8101:8140   */\n  tag_171\n    /* \"#utility.yul\":8138:8139   */\n  0x00\n    /* \"#utility.yul\":8131:8136   */\n  dup3\n    /* \"#utility.yul\":8101:8140   */\n  tag_61\n  jump\t// in\ntag_171:\n    /* \"#utility.yul\":8074:8075   */\n  0x01\n    /* \"#utility.yul\":8067:8072   */\n  dup2\n    /* \"#utility.yul\":8063:8076   */\n  add\n    /* \"#utility.yul\":8054:8076   */\n  swap1\n  pop\n    /* \"#utility.yul\":8030:8150   */\n  jump(tag_168)\ntag_170:\n    /* \"#utility.yul\":7970:8156   */\n  pop\n  pop\n  jump\t// out\n    /* \"#utility.yul\":8162:8705   */\ntag_63:\n    /* \"#utility.yul\":8263:8265   */\n  0x1f\n    /* \"#utility.yul\":8258:8261   */\n  dup3\n    /* \"#utility.yul\":8255:8266   */\n  gt\n    /* \"#utility.yul\":8252:8698   */\n  iszero\n  tag_173\n  jumpi\n    /* \"#utility.yul\":8297:8335   */\n  tag_174\n    /* \"#utility.yul\":8329:8334   */\n  dup2\n    /* \"#utility.yul\":8297:8335   */\n  tag_52\n  jump\t// in\ntag_174:\n    /* \"#utility.yul\":8381:8410   */\n  tag_175\n    /* \"#utility.yul\":8399:8409   */\n  dup5\n    /* \"#utility.yul\":8381:8410   */\n  tag_53\n  jump\t// in\ntag_175:\n    /* \"#utility.yul\":8371:8379   */\n  dup2\n    /* \"#utility.yul\":8367:8411   */\n  add\n    /* \"#utility.yul\":8564:8566   */\n  0x20\n    /* \"#utility.yul\":8552:8562   */\n  dup6\n    /* \"#utility.yul\":8549:8567   */\n  lt\n    /* \"#utility.yul\":8546:8595   */\n  iszero\n  tag_176\n  jumpi\n    /* \"#utility.yul\":8585:8593   */\n  dup2\n    /* \"#utility.yul\":8570:8593   */\n  swap1\n  pop\n    /* \"#utility.yul\":8546:8595   */\ntag_176:\n    /* \"#utility.yul\":8608:8688   */\n  tag_177\n    /* \"#utility.yul\":8664:8686   */\n  tag_178\n    /* \"#utility.yul\":8682:8685   */\n  dup6\n    /* \"#utility.yul\":8664:8686   */\n  tag_53\n  jump\t// in\ntag_178:\n    /* \"#utility.yul\":8654:8662   */\n  dup4\n    /* \"#utility.yul\":8650:8687   */\n  add\n    /* \"#utility.yul\":8637:8648   */\n  dup3\n    /* \"#utility.yul\":8608:8688   */\n  tag_62\n  jump\t// in\ntag_177:\n    /* \"#utility.yul\":8267:8698   */\n  pop\n  pop\n    /* \"#utility.yul\":8252:8698   */\ntag_173:\n    /* \"#utility.yul\":8162:8705   */\n  pop\n  pop\n  pop\n  jump\t// out\n    /* \"#utility.yul\":8711:8828   */\ntag_64:\n    /* \"#utility.yul\":8765:8773   */\n  0x00\n    /* \"#utility.yul\":8815:8820   */\n  dup3\n    /* \"#utility.yul\":8809:8813   */\n  dup3\n    /* \"#utility.yul\":8805:8821   */\n  shr\n    /* \"#utility.yul\":8784:8821   */\n  swap1\n  pop\n    /* \"#utility.yul\":8711:8828   */\n  swap3\n  swap2\n  pop\n  pop\n  jump\t// out\n    /* \"#utility.yul\":8834:9003   */\ntag_65:\n    /* \"#utility.yul\":8878:8884   */\n  0x00\n    /* \"#utility.yul\":8911:8962   */\n  tag_181\n    /* \"#utility.yul\":8959:8960   */\n  0x00\n    /* \"#utility.yul\":8955:8961   */\n  not\n    /* \"#utility.yul\":8947:8952   */\n  dup5\n    /* \"#utility.yul\":8944:8945   */\n  0x08\n    /* \"#utility.yul\":8940:8953   */\n  mul\n    /* \"#utility.yul\":8911:8962   */\n  tag_64\n  jump\t// in\ntag_181:\n    /* \"#utility.yul\":8907:8963   */\n  not\n    /* \"#utility.yul\":8992:8996   */\n  dup1\n    /* \"#utility.yul\":8986:8990   */\n  dup4\n    /* \"#utility.yul\":8982:8997   */\n  and\n    /* \"#utility.yul\":8972:8997   */\n  swap2\n  pop\n    /* \"#utility.yul\":8885:9003   */\n  pop\n    /* \"#utility.yul\":8834:9003   */\n  swap3\n  swap2\n  pop\n  pop\n  jump\t// out\n    /* \"#utility.yul\":9008:9303   */\ntag_66:\n    /* \"#utility.yul\":9084:9088   */\n  0x00\n    /* \"#utility.yul\":9230:9259   */\n  tag_183\n    /* \"#utility.yul\":9255:9258   */\n  dup4\n    /* \"#utility.yul\":9249:9253   */\n  dup4\n    /* \"#utility.yul\":9230:9259   */\n  tag_65\n  jump\t// in\ntag_183:\n    /* \"#utility.yul\":9222:9259   */\n  swap2\n  pop\n    /* \"#utility.yul\":9292:9295   */\n  dup3\n    /* \"#utility.yul\":9289:9290   */\n  0x02\n    /* \"#utility.yul\":9285:9296   */\n  mul\n    /* \"#utility.yul\":9279:9283   */\n  dup3\n    /* \"#utility.yul\":9276:9297   */\n  or\n    /* \"#utility.yul\":9268:9297   */\n  swap1\n  pop\n    /* \"#utility.yul\":9008:9303   */\n  swap3\n  swap2\n  pop\n  pop\n  jump\t// out\n    /* \"#utility.yul\":9308:10703   */\ntag_9:\n    /* \"#utility.yul\":9425:9462   */\n  tag_185\n    /* \"#utility.yul\":9458:9461   */\n  dup3\n    /* \"#utility.yul\":9425:9462   */\n  tag_49\n  jump\t// in\ntag_185:\n    /* \"#utility.yul\":9527:9545   */\n  0xffffffffffffffff\n    /* \"#utility.yul\":9519:9525   */\n  dup2\n    /* \"#utility.yul\":9516:9546   */\n  gt\n    /* \"#utility.yul\":9513:9569   */\n  iszero\n  tag_186\n  jumpi\n    /* \"#utility.yul\":9549:9567   */\n  tag_187\n  tag_29\n  jump\t// in\ntag_187:\n    /* \"#utility.yul\":9513:9569   */\ntag_186:\n    /* \"#utility.yul\":9593:9631   */\n  tag_188\n    /* \"#utility.yul\":9625:9629   */\n  dup3\n    /* \"#utility.yul\":9619:9630   */\n  sload\n    /* \"#utility.yul\":9593:9631   */\n  tag_51\n  jump\t// in\ntag_188:\n    /* \"#utility.yul\":9678:9745   */\n  tag_189\n    /* \"#utility.yul\":9738:9744   */\n  dup3\n    /* \"#utility.yul\":9730:9736   */\n  dup3\n    /* \"#utility.yul\":9724:9728   */\n  dup6\n    /* \"#utility.yul\":9678:9745   */\n  tag_63\n  jump\t// in\ntag_189:\n    /* \"#utility.yul\":9772:9773   */\n  0x00\n    /* \"#utility.yul\":9796:9800   */\n  0x20\n    /* \"#utility.yul\":9783:9800   */\n  swap1\n  pop\n    /* \"#utility.yul\":9828:9830   */\n  0x1f\n    /* \"#utility.yul\":9820:9826   */\n  dup4\n    /* \"#utility.yul\":9817:9831   */\n  gt\n    /* \"#utility.yul\":9845:9846   */\n  0x01\n    /* \"#utility.yul\":9840:10458   */\n  dup2\n  eq\n  tag_191\n  jumpi\n    /* \"#utility.yul\":10502:10503   */\n  0x00\n    /* \"#utility.yul\":10519:10525   */\n  dup5\n    /* \"#utility.yul\":10516:10593   */\n  iszero\n  tag_192\n  jumpi\n    /* \"#utility.yul\":10568:10577   */\n  dup3\n    /* \"#utility.yul\":10563:10566   */\n  dup8\n    /* \"#utility.yul\":10559:10578   */\n  add\n    /* \"#utility.yul\":10553:10579   */\n  mload\n    /* \"#utility.yul\":10544:10579   */\n  swap1\n  pop\n    /* \"#utility.yul\":10516:10593   */\ntag_192:\n    /* \"#utility.yul\":10619:10686   */\n  tag_193\n    /* \"#utility.yul\":10679:10685   */\n  dup6\n    /* \"#utility.yul\":10672:10677   */\n  dup3\n    /* \"#utility.yul\":10619:10686   */\n  tag_66\n  jump\t// in\ntag_193:\n    /* \"#utility.yul\":10613:10617   */\n  dup7\n    /* \"#utility.yul\":10606:10687   */\n  sstore\n    /* \"#utility.yul\":10475:10697   */\n  pop\n    /* \"#utility.yul\":9810:10697   */\n  jump(tag_190)\n    /* \"#utility.yul\":9840:10458   */\ntag_191:\n    /* \"#utility.yul\":9892:9896   */\n  0x1f\n    /* \"#utility.yul\":9888:9897   */\n  not\n    /* \"#utility.yul\":9880:9886   */\n  dup5\n    /* \"#utility.yul\":9876:9898   */\n  and\n    /* \"#utility.yul\":9926:9963   */\n  tag_194\n    /* \"#utility.yul\":9958:9962   */\n  dup7\n    /* \"#utility.yul\":9926:9963   */\n  tag_52\n  jump\t// in\ntag_194:\n    /* \"#utility.yul\":9985:9986   */\n  0x00\n    /* \"#utility.yul\":9999:10207   */\ntag_195:\n    /* \"#utility.yul\":10013:10020   */\n  dup3\n    /* \"#utility.yul\":10010:10011   */\n  dup2\n    /* \"#utility.yul\":10007:10021   */\n  lt\n    /* \"#utility.yul\":9999:10207   */\n  iszero\n  tag_197\n  jumpi\n    /* \"#utility.yul\":10092:10101   */\n  dup5\n    /* \"#utility.yul\":10087:10090   */\n  dup10\n    /* \"#utility.yul\":10083:10102   */\n  add\n    /* \"#utility.yul\":10077:10103   */\n  mload\n    /* \"#utility.yul\":10069:10075   */\n  dup3\n    /* \"#utility.yul\":10062:10104   */\n  sstore\n    /* \"#utility.yul\":10143:10144   */\n  0x01\n    /* \"#utility.yul\":10135:10141   */\n  dup3\n    /* \"#utility.yul\":10131:10145   */\n  add\n    /* \"#utility.yul\":10121:10145   */\n  swap2\n  pop\n    /* \"#utility.yul\":10190:10192   */\n  0x20\n    /* \"#utility.yul\":10179:10188   */\n  dup6\n    /* \"#utility.yul\":10175:10193   */\n  add\n    /* \"#utility.yul\":10162:10193   */\n  swap5\n  pop\n    /* \"#utility.yul\":10036:10040   */\n  0x20\n    /* \"#utility.yul\":10033:10034   */\n  dup2\n    /* \"#utility.yul\":10029:10041   */\n  add\n    /* \"#utility.yul\":10024:10041   */\n  swap1\n  pop\n    /* \"#utility.yul\":9999:10207   */\n  jump(tag_195)\ntag_197:\n    /* \"#utility.yul\":10235:10241   */\n  dup7\n    /* \"#utility.yul\":10226:10233   */\n  dup4\n    /* \"#utility.yul\":10223:10242   */\n  lt\n    /* \"#utility.yul\":10220:10399   */\n  iszero\n  tag_198\n  jumpi\n    /* \"#utility.yul\":10293:10302   */\n  dup5\n    /* \"#utility.yul\":10288:10291   */\n  dup10\n    /* \"#utility.yul\":10284:10303   */\n  add\n    /* \"#utility.yul\":10278:10304   */\n  mload\n    /* \"#utility.yul\":10336:10384   */\n  tag_199\n    /* \"#utility.yul\":10378:10382   */\n  0x1f\n    /* \"#utility.yul\":10370:10376   */\n  dup10\n    /* \"#utility.yul\":10366:10383   */\n  and\n    /* \"#utility.yul\":10355:10364   */\n  dup3\n    /* \"#utility.yul\":10336:10384   */\n  tag_65\n  jump\t// in\ntag_199:\n    /* \"#utility.yul\":10328:10334   */\n  dup4\n    /* \"#utility.yul\":10321:10385   */\n  sstore\n    /* \"#utility.yul\":10243:10399   */\n  pop\n    /* \"#utility.yul\":10220:10399   */\ntag_198:\n    /* \"#utility.yul\":10445:10446   */\n  0x01\n    /* \"#utility.yul\":10441:10442   */\n  0x02\n    /* \"#utility.yul\":10433:10439   */\n  dup9\n    /* \"#utility.yul\":10429:10443   */\n  mul\n    /* \"#utility.yul\":10425:10447   */\n  add\n    /* \"#utility.yul\":10419:10423   */\n  dup9\n    /* \"#utility.yul\":10412:10448   */\n  sstore\n    /* \"#utility.yul\":9847:10458   */\n  pop\n  pop\n  pop\n    /* \"#utility.yul\":9810:10697   */\ntag_190:\n  pop\n    /* \"#utility.yul\":9400:10703   */\n  pop\n  pop\n  pop\n    /* \"#utility.yul\":9308:10703   */\n  pop\n  pop\n  jump\t// out\n    /* \"#utility.yul\":10709:10889   */\ntag_67:\n    /* \"#utility.yul\":10757:10834   */\n  0x4e487b7100000000000000000000000000000000000000000000000000000000\n    /* \"#utility.yul\":10754:10755   */\n  0x00\n    /* \"#utility.yul\":10747:10835   */\n  mstore\n    /* \"#utility.yul\":10854:10858   */\n  0x11\n    /* \"#utility.yul\":10851:10852   */\n  0x04\n    /* \"#utility.yul\":10844:10859   */\n  mstore\n    /* \"#utility.yul\":10878:10882   */\n  0x24\n    /* \"#utility.yul\":10875:10876   */\n  0x00\n    /* \"#utility.yul\":10868:10883   */\n  revert\n    /* \"#utility.yul\":10895:11086   */\ntag_19:\n    /* \"#utility.yul\":10935:10938   */\n  0x00\n    /* \"#utility.yul\":10954:10974   */\n  tag_202\n    /* \"#utility.yul\":10972:10973   */\n  dup3\n    /* \"#utility.yul\":10954:10974   */\n  tag_43\n  jump\t// in\ntag_202:\n    /* \"#utility.yul\":10949:10974   */\n  swap2\n  pop\n    /* \"#utility.yul\":10988:11008   */\n  tag_203\n    /* \"#utility.yul\":11006:11007   */\n  dup4\n    /* \"#utility.yul\":10988:11008   */\n  tag_43\n  jump\t// in\ntag_203:\n    /* \"#utility.yul\":10983:11008   */\n  swap3\n  pop\n    /* \"#utility.yul\":11031:11032   */\n  dup3\n    /* \"#utility.yul\":11028:11029   */\n  dup3\n    /* \"#utility.yul\":11024:11033   */\n  add\n    /* \"#utility.yul\":11017:11033   */\n  swap1\n  pop\n    /* \"#utility.yul\":11052:11055   */\n  dup1\n    /* \"#utility.yul\":11049:11050   */\n  dup3\n    /* \"#utility.yul\":11046:11056   */\n  gt\n    /* \"#utility.yul\":11043:11079   */\n  iszero\n  tag_204\n  jumpi\n    /* \"#utility.yul\":11059:11077   */\n  tag_205\n  tag_67\n  jump\t// in\ntag_205:\n    /* \"#utility.yul\":11043:11079   */\ntag_204:\n    /* \"#utility.yul\":10895:11086   */\n  swap3\n  swap2\n  pop\n  pop\n  jump\t// out\n    /* \"#utility.yul\":11092:11210   */\ntag_68:\n    /* \"#utility.yul\":11179:11203   */\n  tag_207\n    /* \"#utility.yul\":11197:11202   */\n  dup2\n    /* \"#utility.yul\":11179:11203   */\n  tag_43\n  jump\t// in\ntag_207:\n    /* \"#utility.yul\":11174:11177   */\n  dup3\n    /* \"#utility.yul\":11167:11204   */\n  mstore\n    /* \"#utility.yul\":11092:11210   */\n  pop\n  pop\n  jump\t// out\n    /* \"#utility.yul\":11216:11438   */\ntag_22:\n    /* \"#utility.yul\":11309:11313   */\n  0x00\n    /* \"#utility.yul\":11347:11349   */\n  0x20\n    /* \"#utility.yul\":11336:11345   */\n  dup3\n    /* \"#utility.yul\":11332:11350   */\n  add\n    /* \"#utility.yul\":11324:11350   */\n  swap1\n  pop\n    /* \"#utility.yul\":11360:11431   */\n  tag_209\n    /* \"#utility.yul\":11428:11429   */\n  0x00\n    /* \"#utility.yul\":11417:11426   */\n  dup4\n    /* \"#utility.yul\":11413:11430   */\n  add\n    /* \"#utility.yul\":11404:11410   */\n  dup5\n    /* \"#utility.yul\":11360:11431   */\n  tag_68\n  jump\t// in\ntag_209:\n    /* \"#utility.yul\":11216:11438   */\n  swap3\n  swap2\n  pop\n  pop\n  jump\t// out\n    /* \"liberland/eth/mastet_token_flattened.sol\":12821:13515  contract MasterToken is ERC20Burnable, ERC20Detailed, Ownable {... */\ntag_15:\n  dataSize(sub_0)\n  dup1\n  dataOffset(sub_0)\n  0x00\n  codecopy\n  0x00\n  return\nstop\n\nsub_0: assembly {\n        /* \"liberland/eth/mastet_token_flattened.sol\":12821:13515  contract MasterToken is ERC20Burnable, ERC20Detailed, Ownable {... */\n      mstore(0x40, 0x80)\n      callvalue\n      dup1\n      iszero\n      tag_1\n      jumpi\n      0x00\n      dup1\n      revert\n    tag_1:\n      pop\n      jumpi(tag_2, lt(calldatasize, 0x04))\n      shr(0xe0, calldataload(0x00))\n      dup1\n      0x79cc6790\n      gt\n      tag_23\n      jumpi\n      dup1\n      0xa9059cbb\n      gt\n      tag_24\n      jumpi\n      dup1\n      0xa9059cbb\n      eq\n      tag_18\n      jumpi\n      dup1\n      0xdd62ed3e\n      eq\n      tag_19\n      jumpi\n      dup1\n      0xf0dda65c\n      eq\n      tag_20\n      jumpi\n      dup1\n      0xf2fde38b\n      eq\n      tag_21\n      jumpi\n      dup1\n      0xfcec35a9\n      eq\n      tag_22\n      jumpi\n      jump(tag_3)\n    tag_24:\n      dup1\n      0x79cc6790\n      eq\n      tag_13\n      jumpi\n      dup1\n      0x8da5cb5b\n      eq\n      tag_14\n      jumpi\n      dup1\n      0x8f32d59b\n      eq\n      tag_15\n      jumpi\n      dup1\n      0x95d89b41\n      eq\n      tag_16\n      jumpi\n      dup1\n      0xa457c2d7\n      eq\n      tag_17\n      jumpi\n      jump(tag_3)\n    tag_23:\n      dup1\n      0x313ce567\n      gt\n      tag_25\n      jumpi\n      dup1\n      0x313ce567\n      eq\n      tag_8\n      jumpi\n      dup1\n      0x39509351\n      eq\n      tag_9\n      jumpi\n      dup1\n      0x42966c68\n      eq\n      tag_10\n      jumpi\n      dup1\n      0x70a08231\n      eq\n      tag_11\n      jumpi\n      dup1\n      0x715018a6\n      eq\n      tag_12\n      jumpi\n      jump(tag_3)\n    tag_25:\n      dup1\n      0x06fdde03\n      eq\n      tag_4\n      jumpi\n      dup1\n      0x095ea7b3\n      eq\n      tag_5\n      jumpi\n      dup1\n      0x18160ddd\n      eq\n      tag_6\n      jumpi\n      dup1\n      0x23b872dd\n      eq\n      tag_7\n      jumpi\n      jump(tag_3)\n    tag_2:\n    tag_3:\n        /* \"liberland/eth/mastet_token_flattened.sol\":13375:13383  revert() */\n      0x00\n      dup1\n      revert\n        /* \"liberland/eth/mastet_token_flattened.sol\":1521:1602  function name() public view returns (string memory) {... */\n    tag_4:\n      tag_28\n      tag_29\n      jump\t// in\n    tag_28:\n      mload(0x40)\n      tag_30\n      swap2\n      swap1\n      tag_31\n      jump\t// in\n    tag_30:\n      mload(0x40)\n      dup1\n      swap2\n      sub\n      swap1\n      return\n        /* \"liberland/eth/mastet_token_flattened.sol\":4696:4878  function approve(address spender, uint256 value)... */\n    tag_5:\n      tag_32\n      0x04\n      dup1\n      calldatasize\n      sub\n      dup2\n      add\n      swap1\n      tag_33\n      swap2\n      swap1\n      tag_34\n      jump\t// in\n    tag_33:\n      tag_35\n      jump\t// in\n    tag_32:\n      mload(0x40)\n      tag_36\n      swap2\n      swap1\n      tag_37\n      jump\t// in\n    tag_36:\n      mload(0x40)\n      dup1\n      swap2\n      sub\n      swap1\n      return\n        /* \"liberland/eth/mastet_token_flattened.sol\":2789:2887  function totalSupply() public view override returns (uint256) {... */\n    tag_6:\n      tag_38\n      tag_39\n      jump\t// in\n    tag_38:\n      mload(0x40)\n      tag_40\n      swap2\n      swap1\n      tag_41\n      jump\t// in\n    tag_40:\n      mload(0x40)\n      dup1\n      swap2\n      sub\n      swap1\n      return\n        /* \"liberland/eth/mastet_token_flattened.sol\":5341:5601  function transferFrom(... */\n    tag_7:\n      tag_42\n      0x04\n      dup1\n      calldatasize\n      sub\n      dup2\n      add\n      swap1\n      tag_43\n      swap2\n      swap1\n      tag_44\n      jump\t// in\n    tag_43:\n      tag_45\n      jump\t// in\n    tag_42:\n      mload(0x40)\n      tag_46\n      swap2\n      swap1\n      tag_37\n      jump\t// in\n    tag_46:\n      mload(0x40)\n      dup1\n      swap2\n      sub\n      swap1\n      return\n        /* \"liberland/eth/mastet_token_flattened.sol\":1823:1904  function decimals() public view returns (uint8) {... */\n    tag_8:\n      tag_47\n      tag_48\n      jump\t// in\n    tag_47:\n      mload(0x40)\n      tag_49\n      swap2\n      swap1\n      tag_50\n      jump\t// in\n    tag_49:\n      mload(0x40)\n      dup1\n      swap2\n      sub\n      swap1\n      return\n        /* \"liberland/eth/mastet_token_flattened.sol\":6104:6367  function increaseAllowance(address spender, uint256 addedValue)... */\n    tag_9:\n      tag_51\n      0x04\n      dup1\n      calldatasize\n      sub\n      dup2\n      add\n      swap1\n      tag_52\n      swap2\n      swap1\n      tag_34\n      jump\t// in\n    tag_52:\n      tag_53\n      jump\t// in\n    tag_51:\n      mload(0x40)\n      tag_54\n      swap2\n      swap1\n      tag_37\n      jump\t// in\n    tag_54:\n      mload(0x40)\n      dup1\n      swap2\n      sub\n      swap1\n      return\n        /* \"liberland/eth/mastet_token_flattened.sol\":10159:10236  function burn(uint256 value) public {... */\n    tag_10:\n      tag_55\n      0x04\n      dup1\n      calldatasize\n      sub\n      dup2\n      add\n      swap1\n      tag_56\n      swap2\n      swap1\n      tag_57\n      jump\t// in\n    tag_56:\n      tag_58\n      jump\t// in\n    tag_55:\n      stop\n        /* \"liberland/eth/mastet_token_flattened.sol\":3100:3213  function balanceOf(address owner) public view override returns (uint256) {... */\n    tag_11:\n      tag_59\n      0x04\n      dup1\n      calldatasize\n      sub\n      dup2\n      add\n      swap1\n      tag_60\n      swap2\n      swap1\n      tag_61\n      jump\t// in\n    tag_60:\n      tag_62\n      jump\t// in\n    tag_59:\n      mload(0x40)\n      tag_63\n      swap2\n      swap1\n      tag_41\n      jump\t// in\n    tag_63:\n      mload(0x40)\n      dup1\n      swap2\n      sub\n      swap1\n      return\n        /* \"liberland/eth/mastet_token_flattened.sol\":12004:12141  function renounceOwnership() public onlyOwner {... */\n    tag_12:\n      tag_64\n      tag_65\n      jump\t// in\n    tag_64:\n      stop\n        /* \"liberland/eth/mastet_token_flattened.sol\":10488:10581  function burnFrom(address from, uint256 value) public {... */\n    tag_13:\n      tag_66\n      0x04\n      dup1\n      calldatasize\n      sub\n      dup2\n      add\n      swap1\n      tag_67\n      swap2\n      swap1\n      tag_34\n      jump\t// in\n    tag_67:\n      tag_68\n      jump\t// in\n    tag_66:\n      stop\n        /* \"liberland/eth/mastet_token_flattened.sol\":11303:11380  function owner() public view returns (address) {... */\n    tag_14:\n      tag_69\n      tag_70\n      jump\t// in\n    tag_69:\n      mload(0x40)\n      tag_71\n      swap2\n      swap1\n      tag_72\n      jump\t// in\n    tag_71:\n      mload(0x40)\n      dup1\n      swap2\n      sub\n      swap1\n      return\n        /* \"liberland/eth/mastet_token_flattened.sol\":11636:11726  function isOwner() public view returns (bool) {... */\n    tag_15:\n      tag_73\n      tag_74\n      jump\t// in\n    tag_73:\n      mload(0x40)\n      tag_75\n      swap2\n      swap1\n      tag_37\n      jump\t// in\n    tag_75:\n      mload(0x40)\n      dup1\n      swap2\n      sub\n      swap1\n      return\n        /* \"liberland/eth/mastet_token_flattened.sol\":1664:1749  function symbol() public view returns (string memory) {... */\n    tag_16:\n      tag_76\n      tag_77\n      jump\t// in\n    tag_76:\n      mload(0x40)\n      tag_78\n      swap2\n      swap1\n      tag_31\n      jump\t// in\n    tag_78:\n      mload(0x40)\n      dup1\n      swap2\n      sub\n      swap1\n      return\n        /* \"liberland/eth/mastet_token_flattened.sol\":6875:7148  function decreaseAllowance(address spender, uint256 subtractedValue)... */\n    tag_17:\n      tag_79\n      0x04\n      dup1\n      calldatasize\n      sub\n      dup2\n      add\n      swap1\n      tag_80\n      swap2\n      swap1\n      tag_34\n      jump\t// in\n    tag_80:\n      tag_81\n      jump\t// in\n    tag_79:\n      mload(0x40)\n      tag_82\n      swap2\n      swap1\n      tag_37\n      jump\t// in\n    tag_82:\n      mload(0x40)\n      dup1\n      swap2\n      sub\n      swap1\n      return\n        /* \"liberland/eth/mastet_token_flattened.sol\":3886:4060  function transfer(address to, uint256 value)... */\n    tag_18:\n      tag_83\n      0x04\n      dup1\n      calldatasize\n      sub\n      dup2\n      add\n      swap1\n      tag_84\n      swap2\n      swap1\n      tag_34\n      jump\t// in\n    tag_84:\n      tag_85\n      jump\t// in\n    tag_83:\n      mload(0x40)\n      tag_86\n      swap2\n      swap1\n      tag_37\n      jump\t// in\n    tag_86:\n      mload(0x40)\n      dup1\n      swap2\n      sub\n      swap1\n      return\n        /* \"liberland/eth/mastet_token_flattened.sol\":3544:3718  function allowance(address owner, address spender)... */\n    tag_19:\n      tag_87\n      0x04\n      dup1\n      calldatasize\n      sub\n      dup2\n      add\n      swap1\n      tag_88\n      swap2\n      swap1\n      tag_89\n      jump\t// in\n    tag_88:\n      tag_90\n      jump\t// in\n    tag_87:\n      mload(0x40)\n      tag_91\n      swap2\n      swap1\n      tag_41\n      jump\t// in\n    tag_91:\n      mload(0x40)\n      dup1\n      swap2\n      sub\n      swap1\n      return\n        /* \"liberland/eth/mastet_token_flattened.sol\":13396:13513  function mintTokens(address beneficiary, uint256 amount) public onlyOwner {... */\n    tag_20:\n      tag_92\n      0x04\n      dup1\n      calldatasize\n      sub\n      dup2\n      add\n      swap1\n      tag_93\n      swap2\n      swap1\n      tag_34\n      jump\t// in\n    tag_93:\n      tag_94\n      jump\t// in\n    tag_92:\n      stop\n        /* \"liberland/eth/mastet_token_flattened.sol\":12312:12419  function transferOwnership(address newOwner) public onlyOwner {... */\n    tag_21:\n      tag_95\n      0x04\n      dup1\n      calldatasize\n      sub\n      dup2\n      add\n      swap1\n      tag_96\n      swap2\n      swap1\n      tag_61\n      jump\t// in\n    tag_96:\n      tag_97\n      jump\t// in\n    tag_95:\n      stop\n        /* \"liberland/eth/mastet_token_flattened.sol\":12889:12921  bytes32 public _sidechainAssetId */\n    tag_22:\n      tag_98\n      tag_99\n      jump\t// in\n    tag_98:\n      mload(0x40)\n      tag_100\n      swap2\n      swap1\n      tag_101\n      jump\t// in\n    tag_100:\n      mload(0x40)\n      dup1\n      swap2\n      sub\n      swap1\n      return\n        /* \"liberland/eth/mastet_token_flattened.sol\":1521:1602  function name() public view returns (string memory) {... */\n    tag_29:\n        /* \"liberland/eth/mastet_token_flattened.sol\":1558:1571  string memory */\n      0x60\n        /* \"liberland/eth/mastet_token_flattened.sol\":1590:1595  _name */\n      0x03\n        /* \"liberland/eth/mastet_token_flattened.sol\":1583:1595  return _name */\n      dup1\n      sload\n      tag_103\n      swap1\n      tag_104\n      jump\t// in\n    tag_103:\n      dup1\n      0x1f\n      add\n      0x20\n      dup1\n      swap2\n      div\n      mul\n      0x20\n      add\n      mload(0x40)\n      swap1\n      dup2\n      add\n      0x40\n      mstore\n      dup1\n      swap3\n      swap2\n      swap1\n      dup2\n      dup2\n      mstore\n      0x20\n      add\n      dup3\n      dup1\n      sload\n      tag_105\n      swap1\n      tag_104\n      jump\t// in\n    tag_105:\n      dup1\n      iszero\n      tag_106\n      jumpi\n      dup1\n      0x1f\n      lt\n      tag_107\n      jumpi\n      0x0100\n      dup1\n      dup4\n      sload\n      div\n      mul\n      dup4\n      mstore\n      swap2\n      0x20\n      add\n      swap2\n      jump(tag_106)\n    tag_107:\n      dup3\n      add\n      swap2\n      swap1\n      0x00\n      mstore\n      keccak256(0x00, 0x20)\n      swap1\n    tag_108:\n      dup2\n      sload\n      dup2\n      mstore\n      swap1\n      0x01\n      add\n      swap1\n      0x20\n      add\n      dup1\n      dup4\n      gt\n      tag_108\n      jumpi\n      dup3\n      swap1\n      sub\n      0x1f\n      and\n      dup3\n      add\n      swap2\n    tag_106:\n      pop\n      pop\n      pop\n      pop\n      pop\n      swap1\n      pop\n        /* \"liberland/eth/mastet_token_flattened.sol\":1521:1602  function name() public view returns (string memory) {... */\n      swap1\n      jump\t// out\n        /* \"liberland/eth/mastet_token_flattened.sol\":4696:4878  function approve(address spender, uint256 value)... */\n    tag_35:\n        /* \"liberland/eth/mastet_token_flattened.sol\":4794:4798  bool */\n      0x00\n        /* \"liberland/eth/mastet_token_flattened.sol\":4814:4850  _approve(msg.sender, spender, value) */\n      tag_110\n        /* \"liberland/eth/mastet_token_flattened.sol\":4823:4833  msg.sender */\n      caller\n        /* \"liberland/eth/mastet_token_flattened.sol\":4835:4842  spender */\n      dup5\n        /* \"liberland/eth/mastet_token_flattened.sol\":4844:4849  value */\n      dup5\n        /* \"liberland/eth/mastet_token_flattened.sol\":4814:4822  _approve */\n      tag_111\n        /* \"liberland/eth/mastet_token_flattened.sol\":4814:4850  _approve(msg.sender, spender, value) */\n      jump\t// in\n    tag_110:\n        /* \"liberland/eth/mastet_token_flattened.sol\":4867:4871  true */\n      0x01\n        /* \"liberland/eth/mastet_token_flattened.sol\":4860:4871  return true */\n      swap1\n      pop\n        /* \"liberland/eth/mastet_token_flattened.sol\":4696:4878  function approve(address spender, uint256 value)... */\n      swap3\n      swap2\n      pop\n      pop\n      jump\t// out\n        /* \"liberland/eth/mastet_token_flattened.sol\":2789:2887  function totalSupply() public view override returns (uint256) {... */\n    tag_39:\n        /* \"liberland/eth/mastet_token_flattened.sol\":2842:2849  uint256 */\n      0x00\n        /* \"liberland/eth/mastet_token_flattened.sol\":2868:2880  _totalSupply */\n      sload(0x02)\n        /* \"liberland/eth/mastet_token_flattened.sol\":2861:2880  return _totalSupply */\n      swap1\n      pop\n        /* \"liberland/eth/mastet_token_flattened.sol\":2789:2887  function totalSupply() public view override returns (uint256) {... */\n      swap1\n      jump\t// out\n        /* \"liberland/eth/mastet_token_flattened.sol\":5341:5601  function transferFrom(... */\n    tag_45:\n        /* \"liberland/eth/mastet_token_flattened.sol\":5459:5463  bool */\n      0x00\n        /* \"liberland/eth/mastet_token_flattened.sol\":5475:5501  _transfer(from, to, value) */\n      tag_114\n        /* \"liberland/eth/mastet_token_flattened.sol\":5485:5489  from */\n      dup5\n        /* \"liberland/eth/mastet_token_flattened.sol\":5491:5493  to */\n      dup5\n        /* \"liberland/eth/mastet_token_flattened.sol\":5495:5500  value */\n      dup5\n        /* \"liberland/eth/mastet_token_flattened.sol\":5475:5484  _transfer */\n      tag_115\n        /* \"liberland/eth/mastet_token_flattened.sol\":5475:5501  _transfer(from, to, value) */\n      jump\t// in\n    tag_114:\n        /* \"liberland/eth/mastet_token_flattened.sol\":5511:5573  _approve(from, msg.sender, _allowed[from][msg.sender] - value) */\n      tag_116\n        /* \"liberland/eth/mastet_token_flattened.sol\":5520:5524  from */\n      dup5\n        /* \"liberland/eth/mastet_token_flattened.sol\":5526:5536  msg.sender */\n      caller\n        /* \"liberland/eth/mastet_token_flattened.sol\":5567:5572  value */\n      dup5\n        /* \"liberland/eth/mastet_token_flattened.sol\":5538:5546  _allowed */\n      0x01\n        /* \"liberland/eth/mastet_token_flattened.sol\":5538:5552  _allowed[from] */\n      0x00\n        /* \"liberland/eth/mastet_token_flattened.sol\":5547:5551  from */\n      dup10\n        /* \"liberland/eth/mastet_token_flattened.sol\":5538:5552  _allowed[from] */\n      0xffffffffffffffffffffffffffffffffffffffff\n      and\n      0xffffffffffffffffffffffffffffffffffffffff\n      and\n      dup2\n      mstore\n      0x20\n      add\n      swap1\n      dup2\n      mstore\n      0x20\n      add\n      0x00\n      keccak256\n        /* \"liberland/eth/mastet_token_flattened.sol\":5538:5564  _allowed[from][msg.sender] */\n      0x00\n        /* \"liberland/eth/mastet_token_flattened.sol\":5553:5563  msg.sender */\n      caller\n        /* \"liberland/eth/mastet_token_flattened.sol\":5538:5564  _allowed[from][msg.sender] */\n      0xffffffffffffffffffffffffffffffffffffffff\n      and\n      0xffffffffffffffffffffffffffffffffffffffff\n      and\n      dup2\n      mstore\n      0x20\n      add\n      swap1\n      dup2\n      mstore\n      0x20\n      add\n      0x00\n      keccak256\n      sload\n        /* \"liberland/eth/mastet_token_flattened.sol\":5538:5572  _allowed[from][msg.sender] - value */\n      tag_117\n      swap2\n      swap1\n      tag_118\n      jump\t// in\n    tag_117:\n        /* \"liberland/eth/mastet_token_flattened.sol\":5511:5519  _approve */\n      tag_111\n        /* \"liberland/eth/mastet_token_flattened.sol\":5511:5573  _approve(from, msg.sender, _allowed[from][msg.sender] - value) */\n      jump\t// in\n    tag_116:\n        /* \"liberland/eth/mastet_token_flattened.sol\":5590:5594  true */\n      0x01\n        /* \"liberland/eth/mastet_token_flattened.sol\":5583:5594  return true */\n      swap1\n      pop\n        /* \"liberland/eth/mastet_token_flattened.sol\":5341:5601  function transferFrom(... */\n      swap4\n      swap3\n      pop\n      pop\n      pop\n      jump\t// out\n        /* \"liberland/eth/mastet_token_flattened.sol\":1823:1904  function decimals() public view returns (uint8) {... */\n    tag_48:\n        /* \"liberland/eth/mastet_token_flattened.sol\":1864:1869  uint8 */\n      0x00\n        /* \"liberland/eth/mastet_token_flattened.sol\":1888:1897  _decimals */\n      0x05\n      0x00\n      swap1\n      sload\n      swap1\n      0x0100\n      exp\n      swap1\n      div\n      0xff\n      and\n        /* \"liberland/eth/mastet_token_flattened.sol\":1881:1897  return _decimals */\n      swap1\n      pop\n        /* \"liberland/eth/mastet_token_flattened.sol\":1823:1904  function decimals() public view returns (uint8) {... */\n      swap1\n      jump\t// out\n        /* \"liberland/eth/mastet_token_flattened.sol\":6104:6367  function increaseAllowance(address spender, uint256 addedValue)... */\n    tag_53:\n        /* \"liberland/eth/mastet_token_flattened.sol\":6200:6204  bool */\n      0x00\n        /* \"liberland/eth/mastet_token_flattened.sol\":6220:6339  _approve(... */\n      tag_121\n        /* \"liberland/eth/mastet_token_flattened.sol\":6242:6252  msg.sender */\n      caller\n        /* \"liberland/eth/mastet_token_flattened.sol\":6266:6273  spender */\n      dup5\n        /* \"liberland/eth/mastet_token_flattened.sol\":6319:6329  addedValue */\n      dup5\n        /* \"liberland/eth/mastet_token_flattened.sol\":6287:6295  _allowed */\n      0x01\n        /* \"liberland/eth/mastet_token_flattened.sol\":6287:6307  _allowed[msg.sender] */\n      0x00\n        /* \"liberland/eth/mastet_token_flattened.sol\":6296:6306  msg.sender */\n      caller\n        /* \"liberland/eth/mastet_token_flattened.sol\":6287:6307  _allowed[msg.sender] */\n      0xffffffffffffffffffffffffffffffffffffffff\n      and\n      0xffffffffffffffffffffffffffffffffffffffff\n      and\n      dup2\n      mstore\n      0x20\n      add\n      swap1\n      dup2\n      mstore\n      0x20\n      add\n      0x00\n      keccak256\n        /* \"liberland/eth/mastet_token_flattened.sol\":6287:6316  _allowed[msg.sender][spender] */\n      0x00\n        /* \"liberland/eth/mastet_token_flattened.sol\":6308:6315  spender */\n      dup9\n        /* \"liberland/eth/mastet_token_flattened.sol\":6287:6316  _allowed[msg.sender][spender] */\n      0xffffffffffffffffffffffffffffffffffffffff\n      and\n      0xffffffffffffffffffffffffffffffffffffffff\n      and\n      dup2\n      mstore\n      0x20\n      add\n      swap1\n      dup2\n      mstore\n      0x20\n      add\n      0x00\n      keccak256\n      sload\n        /* \"liberland/eth/mastet_token_flattened.sol\":6287:6329  _allowed[msg.sender][spender] + addedValue */\n      tag_122\n      swap2\n      swap1\n      tag_123\n      jump\t// in\n    tag_122:\n        /* \"liberland/eth/mastet_token_flattened.sol\":6220:6228  _approve */\n      tag_111\n        /* \"liberland/eth/mastet_token_flattened.sol\":6220:6339  _approve(... */\n      jump\t// in\n    tag_121:\n        /* \"liberland/eth/mastet_token_flattened.sol\":6356:6360  true */\n      0x01\n        /* \"liberland/eth/mastet_token_flattened.sol\":6349:6360  return true */\n      swap1\n      pop\n        /* \"liberland/eth/mastet_token_flattened.sol\":6104:6367  function increaseAllowance(address spender, uint256 addedValue)... */\n      swap3\n      swap2\n      pop\n      pop\n      jump\t// out\n        /* \"liberland/eth/mastet_token_flattened.sol\":10159:10236  function burn(uint256 value) public {... */\n    tag_58:\n        /* \"liberland/eth/mastet_token_flattened.sol\":10205:10229  _burn(msg.sender, value) */\n      tag_125\n        /* \"liberland/eth/mastet_token_flattened.sol\":10211:10221  msg.sender */\n      caller\n        /* \"liberland/eth/mastet_token_flattened.sol\":10223:10228  value */\n      dup3\n        /* \"liberland/eth/mastet_token_flattened.sol\":10205:10210  _burn */\n      tag_126\n        /* \"liberland/eth/mastet_token_flattened.sol\":10205:10229  _burn(msg.sender, value) */\n      jump\t// in\n    tag_125:\n        /* \"liberland/eth/mastet_token_flattened.sol\":10159:10236  function burn(uint256 value) public {... */\n      pop\n      jump\t// out\n        /* \"liberland/eth/mastet_token_flattened.sol\":3100:3213  function balanceOf(address owner) public view override returns (uint256) {... */\n    tag_62:\n        /* \"liberland/eth/mastet_token_flattened.sol\":3164:3171  uint256 */\n      0x00\n        /* \"liberland/eth/mastet_token_flattened.sol\":3190:3199  _balances */\n      dup1\n        /* \"liberland/eth/mastet_token_flattened.sol\":3190:3206  _balances[owner] */\n      0x00\n        /* \"liberland/eth/mastet_token_flattened.sol\":3200:3205  owner */\n      dup4\n        /* \"liberland/eth/mastet_token_flattened.sol\":3190:3206  _balances[owner] */\n      0xffffffffffffffffffffffffffffffffffffffff\n      and\n      0xffffffffffffffffffffffffffffffffffffffff\n      and\n      dup2\n      mstore\n      0x20\n      add\n      swap1\n      dup2\n      mstore\n      0x20\n      add\n      0x00\n      keccak256\n      sload\n        /* \"liberland/eth/mastet_token_flattened.sol\":3183:3206  return _balances[owner] */\n      swap1\n      pop\n        /* \"liberland/eth/mastet_token_flattened.sol\":3100:3213  function balanceOf(address owner) public view override returns (uint256) {... */\n      swap2\n      swap1\n      pop\n      jump\t// out\n        /* \"liberland/eth/mastet_token_flattened.sol\":12004:12141  function renounceOwnership() public onlyOwner {... */\n    tag_65:\n        /* \"liberland/eth/mastet_token_flattened.sol\":11507:11516  isOwner() */\n      tag_129\n        /* \"liberland/eth/mastet_token_flattened.sol\":11507:11514  isOwner */\n      tag_74\n        /* \"liberland/eth/mastet_token_flattened.sol\":11507:11516  isOwner() */\n      jump\t// in\n    tag_129:\n        /* \"liberland/eth/mastet_token_flattened.sol\":11499:11530  require(isOwner(), \"Not owner\") */\n      tag_130\n      jumpi\n      mload(0x40)\n      0x08c379a000000000000000000000000000000000000000000000000000000000\n      dup2\n      mstore\n      0x04\n      add\n      tag_131\n      swap1\n      tag_132\n      jump\t// in\n    tag_131:\n      mload(0x40)\n      dup1\n      swap2\n      sub\n      swap1\n      revert\n    tag_130:\n        /* \"liberland/eth/mastet_token_flattened.sol\":12102:12103  0 */\n      0x00\n        /* \"liberland/eth/mastet_token_flattened.sol\":12065:12105  OwnershipTransferred(_owner, address(0)) */\n      0xffffffffffffffffffffffffffffffffffffffff\n      and\n        /* \"liberland/eth/mastet_token_flattened.sol\":12086:12092  _owner */\n      0x05\n      0x01\n      swap1\n      sload\n      swap1\n      0x0100\n      exp\n      swap1\n      div\n      0xffffffffffffffffffffffffffffffffffffffff\n      and\n        /* \"liberland/eth/mastet_token_flattened.sol\":12065:12105  OwnershipTransferred(_owner, address(0)) */\n      0xffffffffffffffffffffffffffffffffffffffff\n      and\n      0x8be0079c531659141344cd1fd0a4f28419497f9722a3daafe3b4186f6b6457e0\n      mload(0x40)\n      mload(0x40)\n      dup1\n      swap2\n      sub\n      swap1\n      log3\n        /* \"liberland/eth/mastet_token_flattened.sol\":12132:12133  0 */\n      0x00\n        /* \"liberland/eth/mastet_token_flattened.sol\":12115:12121  _owner */\n      0x05\n      0x01\n        /* \"liberland/eth/mastet_token_flattened.sol\":12115:12134  _owner = address(0) */\n      0x0100\n      exp\n      dup2\n      sload\n      dup2\n      0xffffffffffffffffffffffffffffffffffffffff\n      mul\n      not\n      and\n      swap1\n      dup4\n      0xffffffffffffffffffffffffffffffffffffffff\n      and\n      mul\n      or\n      swap1\n      sstore\n      pop\n        /* \"liberland/eth/mastet_token_flattened.sol\":12004:12141  function renounceOwnership() public onlyOwner {... */\n      jump\t// out\n        /* \"liberland/eth/mastet_token_flattened.sol\":10488:10581  function burnFrom(address from, uint256 value) public {... */\n    tag_68:\n        /* \"liberland/eth/mastet_token_flattened.sol\":10552:10574  _burnFrom(from, value) */\n      tag_135\n        /* \"liberland/eth/mastet_token_flattened.sol\":10562:10566  from */\n      dup3\n        /* \"liberland/eth/mastet_token_flattened.sol\":10568:10573  value */\n      dup3\n        /* \"liberland/eth/mastet_token_flattened.sol\":10552:10561  _burnFrom */\n      tag_136\n        /* \"liberland/eth/mastet_token_flattened.sol\":10552:10574  _burnFrom(from, value) */\n      jump\t// in\n    tag_135:\n        /* \"liberland/eth/mastet_token_flattened.sol\":10488:10581  function burnFrom(address from, uint256 value) public {... */\n      pop\n      pop\n      jump\t// out\n        /* \"liberland/eth/mastet_token_flattened.sol\":11303:11380  function owner() public view returns (address) {... */\n    tag_70:\n        /* \"liberland/eth/mastet_token_flattened.sol\":11341:11348  address */\n      0x00\n        /* \"liberland/eth/mastet_token_flattened.sol\":11367:11373  _owner */\n      0x05\n      0x01\n      swap1\n      sload\n      swap1\n      0x0100\n      exp\n      swap1\n      div\n      0xffffffffffffffffffffffffffffffffffffffff\n      and\n        /* \"liberland/eth/mastet_token_flattened.sol\":11360:11373  return _owner */\n      swap1\n      pop\n        /* \"liberland/eth/mastet_token_flattened.sol\":11303:11380  function owner() public view returns (address) {... */\n      swap1\n      jump\t// out\n        /* \"liberland/eth/mastet_token_flattened.sol\":11636:11726  function isOwner() public view returns (bool) {... */\n    tag_74:\n        /* \"liberland/eth/mastet_token_flattened.sol\":11676:11680  bool */\n      0x00\n        /* \"liberland/eth/mastet_token_flattened.sol\":11713:11719  _owner */\n      0x05\n      0x01\n      swap1\n      sload\n      swap1\n      0x0100\n      exp\n      swap1\n      div\n      0xffffffffffffffffffffffffffffffffffffffff\n      and\n        /* \"liberland/eth/mastet_token_flattened.sol\":11699:11719  msg.sender == _owner */\n      0xffffffffffffffffffffffffffffffffffffffff\n      and\n        /* \"liberland/eth/mastet_token_flattened.sol\":11699:11709  msg.sender */\n      caller\n        /* \"liberland/eth/mastet_token_flattened.sol\":11699:11719  msg.sender == _owner */\n      0xffffffffffffffffffffffffffffffffffffffff\n      and\n      eq\n        /* \"liberland/eth/mastet_token_flattened.sol\":11692:11719  return msg.sender == _owner */\n      swap1\n      pop\n        /* \"liberland/eth/mastet_token_flattened.sol\":11636:11726  function isOwner() public view returns (bool) {... */\n      swap1\n      jump\t// out\n        /* \"liberland/eth/mastet_token_flattened.sol\":1664:1749  function symbol() public view returns (string memory) {... */\n    tag_77:\n        /* \"liberland/eth/mastet_token_flattened.sol\":1703:1716  string memory */\n      0x60\n        /* \"liberland/eth/mastet_token_flattened.sol\":1735:1742  _symbol */\n      0x04\n        /* \"liberland/eth/mastet_token_flattened.sol\":1728:1742  return _symbol */\n      dup1\n      sload\n      tag_140\n      swap1\n      tag_104\n      jump\t// in\n    tag_140:\n      dup1\n      0x1f\n      add\n      0x20\n      dup1\n      swap2\n      div\n      mul\n      0x20\n      add\n      mload(0x40)\n      swap1\n      dup2\n      add\n      0x40\n      mstore\n      dup1\n      swap3\n      swap2\n      swap1\n      dup2\n      dup2\n      mstore\n      0x20\n      add\n      dup3\n      dup1\n      sload\n      tag_141\n      swap1\n      tag_104\n      jump\t// in\n    tag_141:\n      dup1\n      iszero\n      tag_142\n      jumpi\n      dup1\n      0x1f\n      lt\n      tag_143\n      jumpi\n      0x0100\n      dup1\n      dup4\n      sload\n      div\n      mul\n      dup4\n      mstore\n      swap2\n      0x20\n      add\n      swap2\n      jump(tag_142)\n    tag_143:\n      dup3\n      add\n      swap2\n      swap1\n      0x00\n      mstore\n      keccak256(0x00, 0x20)\n      swap1\n    tag_144:\n      dup2\n      sload\n      dup2\n      mstore\n      swap1\n      0x01\n      add\n      swap1\n      0x20\n      add\n      dup1\n      dup4\n      gt\n      tag_144\n      jumpi\n      dup3\n      swap1\n      sub\n      0x1f\n      and\n      dup3\n      add\n      swap2\n    tag_142:\n      pop\n      pop\n      pop\n      pop\n      pop\n      swap1\n      pop\n        /* \"liberland/eth/mastet_token_flattened.sol\":1664:1749  function symbol() public view returns (string memory) {... */\n      swap1\n      jump\t// out\n        /* \"liberland/eth/mastet_token_flattened.sol\":6875:7148  function decreaseAllowance(address spender, uint256 subtractedValue)... */\n    tag_81:\n        /* \"liberland/eth/mastet_token_flattened.sol\":6976:6980  bool */\n      0x00\n        /* \"liberland/eth/mastet_token_flattened.sol\":6996:7120  _approve(... */\n      tag_146\n        /* \"liberland/eth/mastet_token_flattened.sol\":7018:7028  msg.sender */\n      caller\n        /* \"liberland/eth/mastet_token_flattened.sol\":7042:7049  spender */\n      dup5\n        /* \"liberland/eth/mastet_token_flattened.sol\":7095:7110  subtractedValue */\n      dup5\n        /* \"liberland/eth/mastet_token_flattened.sol\":7063:7071  _allowed */\n      0x01\n        /* \"liberland/eth/mastet_token_flattened.sol\":7063:7083  _allowed[msg.sender] */\n      0x00\n        /* \"liberland/eth/mastet_token_flattened.sol\":7072:7082  msg.sender */\n      caller\n        /* \"liberland/eth/mastet_token_flattened.sol\":7063:7083  _allowed[msg.sender] */\n      0xffffffffffffffffffffffffffffffffffffffff\n      and\n      0xffffffffffffffffffffffffffffffffffffffff\n      and\n      dup2\n      mstore\n      0x20\n      add\n      swap1\n      dup2\n      mstore\n      0x20\n      add\n      0x00\n      keccak256\n        /* \"liberland/eth/mastet_token_flattened.sol\":7063:7092  _allowed[msg.sender][spender] */\n      0x00\n        /* \"liberland/eth/mastet_token_flattened.sol\":7084:7091  spender */\n      dup9\n        /* \"liberland/eth/mastet_token_flattened.sol\":7063:7092  _allowed[msg.sender][spender] */\n      0xffffffffffffffffffffffffffffffffffffffff\n      and\n      0xffffffffffffffffffffffffffffffffffffffff\n      and\n      dup2\n      mstore\n      0x20\n      add\n      swap1\n      dup2\n      mstore\n      0x20\n      add\n      0x00\n      keccak256\n      sload\n        /* \"liberland/eth/mastet_token_flattened.sol\":7063:7110  _allowed[msg.sender][spender] - subtractedValue */\n      tag_147\n      swap2\n      swap1\n      tag_118\n      jump\t// in\n    tag_147:\n        /* \"liberland/eth/mastet_token_flattened.sol\":6996:7004  _approve */\n      tag_111\n        /* \"liberland/eth/mastet_token_flattened.sol\":6996:7120  _approve(... */\n      jump\t// in\n    tag_146:\n        /* \"liberland/eth/mastet_token_flattened.sol\":7137:7141  true */\n      0x01\n        /* \"liberland/eth/mastet_token_flattened.sol\":7130:7141  return true */\n      swap1\n      pop\n        /* \"liberland/eth/mastet_token_flattened.sol\":6875:7148  function decreaseAllowance(address spender, uint256 subtractedValue)... */\n      swap3\n      swap2\n      pop\n      pop\n      jump\t// out\n        /* \"liberland/eth/mastet_token_flattened.sol\":3886:4060  function transfer(address to, uint256 value)... */\n    tag_85:\n        /* \"liberland/eth/mastet_token_flattened.sol\":3980:3984  bool */\n      0x00\n        /* \"liberland/eth/mastet_token_flattened.sol\":4000:4032  _transfer(msg.sender, to, value) */\n      tag_149\n        /* \"liberland/eth/mastet_token_flattened.sol\":4010:4020  msg.sender */\n      caller\n        /* \"liberland/eth/mastet_token_flattened.sol\":4022:4024  to */\n      dup5\n        /* \"liberland/eth/mastet_token_flattened.sol\":4026:4031  value */\n      dup5\n        /* \"liberland/eth/mastet_token_flattened.sol\":4000:4009  _transfer */\n      tag_115\n        /* \"liberland/eth/mastet_token_flattened.sol\":4000:4032  _transfer(msg.sender, to, value) */\n      jump\t// in\n    tag_149:\n        /* \"liberland/eth/mastet_token_flattened.sol\":4049:4053  true */\n      0x01\n        /* \"liberland/eth/mastet_token_flattened.sol\":4042:4053  return true */\n      swap1\n      pop\n        /* \"liberland/eth/mastet_token_flattened.sol\":3886:4060  function transfer(address to, uint256 value)... */\n      swap3\n      swap2\n      pop\n      pop\n      jump\t// out\n        /* \"liberland/eth/mastet_token_flattened.sol\":3544:3718  function allowance(address owner, address spender)... */\n    tag_90:\n        /* \"liberland/eth/mastet_token_flattened.sol\":3657:3664  uint256 */\n      0x00\n        /* \"liberland/eth/mastet_token_flattened.sol\":3687:3695  _allowed */\n      0x01\n        /* \"liberland/eth/mastet_token_flattened.sol\":3687:3702  _allowed[owner] */\n      0x00\n        /* \"liberland/eth/mastet_token_flattened.sol\":3696:3701  owner */\n      dup5\n        /* \"liberland/eth/mastet_token_flattened.sol\":3687:3702  _allowed[owner] */\n      0xffffffffffffffffffffffffffffffffffffffff\n      and\n      0xffffffffffffffffffffffffffffffffffffffff\n      and\n      dup2\n      mstore\n      0x20\n      add\n      swap1\n      dup2\n      mstore\n      0x20\n      add\n      0x00\n      keccak256\n        /* \"liberland/eth/mastet_token_flattened.sol\":3687:3711  _allowed[owner][spender] */\n      0x00\n        /* \"liberland/eth/mastet_token_flattened.sol\":3703:3710  spender */\n      dup4\n        /* \"liberland/eth/mastet_token_flattened.sol\":3687:3711  _allowed[owner][spender] */\n      0xffffffffffffffffffffffffffffffffffffffff\n      and\n      0xffffffffffffffffffffffffffffffffffffffff\n      and\n      dup2\n      mstore\n      0x20\n      add\n      swap1\n      dup2\n      mstore\n      0x20\n      add\n      0x00\n      keccak256\n      sload\n        /* \"liberland/eth/mastet_token_flattened.sol\":3680:3711  return _allowed[owner][spender] */\n      swap1\n      pop\n        /* \"liberland/eth/mastet_token_flattened.sol\":3544:3718  function allowance(address owner, address spender)... */\n      swap3\n      swap2\n      pop\n      pop\n      jump\t// out\n        /* \"liberland/eth/mastet_token_flattened.sol\":13396:13513  function mintTokens(address beneficiary, uint256 amount) public onlyOwner {... */\n    tag_94:\n        /* \"liberland/eth/mastet_token_flattened.sol\":11507:11516  isOwner() */\n      tag_152\n        /* \"liberland/eth/mastet_token_flattened.sol\":11507:11514  isOwner */\n      tag_74\n        /* \"liberland/eth/mastet_token_flattened.sol\":11507:11516  isOwner() */\n      jump\t// in\n    tag_152:\n        /* \"liberland/eth/mastet_token_flattened.sol\":11499:11530  require(isOwner(), \"Not owner\") */\n      tag_153\n      jumpi\n      mload(0x40)\n      0x08c379a000000000000000000000000000000000000000000000000000000000\n      dup2\n      mstore\n      0x04\n      add\n      tag_154\n      swap1\n      tag_132\n      jump\t// in\n    tag_154:\n      mload(0x40)\n      dup1\n      swap2\n      sub\n      swap1\n      revert\n    tag_153:\n        /* \"liberland/eth/mastet_token_flattened.sol\":13480:13506  _mint(beneficiary, amount) */\n      tag_156\n        /* \"liberland/eth/mastet_token_flattened.sol\":13486:13497  beneficiary */\n      dup3\n        /* \"liberland/eth/mastet_token_flattened.sol\":13499:13505  amount */\n      dup3\n        /* \"liberland/eth/mastet_token_flattened.sol\":13480:13485  _mint */\n      tag_157\n        /* \"liberland/eth/mastet_token_flattened.sol\":13480:13506  _mint(beneficiary, amount) */\n      jump\t// in\n    tag_156:\n        /* \"liberland/eth/mastet_token_flattened.sol\":13396:13513  function mintTokens(address beneficiary, uint256 amount) public onlyOwner {... */\n      pop\n      pop\n      jump\t// out\n        /* \"liberland/eth/mastet_token_flattened.sol\":12312:12419  function transferOwnership(address newOwner) public onlyOwner {... */\n    tag_97:\n        /* \"liberland/eth/mastet_token_flattened.sol\":11507:11516  isOwner() */\n      tag_159\n        /* \"liberland/eth/mastet_token_flattened.sol\":11507:11514  isOwner */\n      tag_74\n        /* \"liberland/eth/mastet_token_flattened.sol\":11507:11516  isOwner() */\n      jump\t// in\n    tag_159:\n        /* \"liberland/eth/mastet_token_flattened.sol\":11499:11530  require(isOwner(), \"Not owner\") */\n      tag_160\n      jumpi\n      mload(0x40)\n      0x08c379a000000000000000000000000000000000000000000000000000000000\n      dup2\n      mstore\n      0x04\n      add\n      tag_161\n      swap1\n      tag_132\n      jump\t// in\n    tag_161:\n      mload(0x40)\n      dup1\n      swap2\n      sub\n      swap1\n      revert\n    tag_160:\n        /* \"liberland/eth/mastet_token_flattened.sol\":12384:12412  _transferOwnership(newOwner) */\n      tag_163\n        /* \"liberland/eth/mastet_token_flattened.sol\":12403:12411  newOwner */\n      dup2\n        /* \"liberland/eth/mastet_token_flattened.sol\":12384:12402  _transferOwnership */\n      tag_164\n        /* \"liberland/eth/mastet_token_flattened.sol\":12384:12412  _transferOwnership(newOwner) */\n      jump\t// in\n    tag_163:\n        /* \"liberland/eth/mastet_token_flattened.sol\":12312:12419  function transferOwnership(address newOwner) public onlyOwner {... */\n      pop\n      jump\t// out\n        /* \"liberland/eth/mastet_token_flattened.sol\":12889:12921  bytes32 public _sidechainAssetId */\n    tag_99:\n      sload(0x06)\n      dup2\n      jump\t// out\n        /* \"liberland/eth/mastet_token_flattened.sol\":8995:9273  function _approve(... */\n    tag_111:\n        /* \"liberland/eth/mastet_token_flattened.sol\":9136:9137  0 */\n      0x00\n        /* \"liberland/eth/mastet_token_flattened.sol\":9117:9138  spender != address(0) */\n      0xffffffffffffffffffffffffffffffffffffffff\n      and\n        /* \"liberland/eth/mastet_token_flattened.sol\":9117:9124  spender */\n      dup3\n        /* \"liberland/eth/mastet_token_flattened.sol\":9117:9138  spender != address(0) */\n      0xffffffffffffffffffffffffffffffffffffffff\n      and\n      sub\n        /* \"liberland/eth/mastet_token_flattened.sol\":9109:9139  require(spender != address(0)) */\n      tag_166\n      jumpi\n      0x00\n      dup1\n      revert\n    tag_166:\n        /* \"liberland/eth/mastet_token_flattened.sol\":9174:9175  0 */\n      0x00\n        /* \"liberland/eth/mastet_token_flattened.sol\":9157:9176  owner != address(0) */\n      0xffffffffffffffffffffffffffffffffffffffff\n      and\n        /* \"liberland/eth/mastet_token_flattened.sol\":9157:9162  owner */\n      dup4\n        /* \"liberland/eth/mastet_token_flattened.sol\":9157:9176  owner != address(0) */\n      0xffffffffffffffffffffffffffffffffffffffff\n      and\n      sub\n        /* \"liberland/eth/mastet_token_flattened.sol\":9149:9177  require(owner != address(0)) */\n      tag_167\n      jumpi\n      0x00\n      dup1\n      revert\n    tag_167:\n        /* \"liberland/eth/mastet_token_flattened.sol\":9215:9220  value */\n      dup1\n        /* \"liberland/eth/mastet_token_flattened.sol\":9188:9196  _allowed */\n      0x01\n        /* \"liberland/eth/mastet_token_flattened.sol\":9188:9203  _allowed[owner] */\n      0x00\n        /* \"liberland/eth/mastet_token_flattened.sol\":9197:9202  owner */\n      dup6\n        /* \"liberland/eth/mastet_token_flattened.sol\":9188:9203  _allowed[owner] */\n      0xffffffffffffffffffffffffffffffffffffffff\n      and\n      0xffffffffffffffffffffffffffffffffffffffff\n      and\n      dup2\n      mstore\n      0x20\n      add\n      swap1\n      dup2\n      mstore\n      0x20\n      add\n      0x00\n      keccak256\n        /* \"liberland/eth/mastet_token_flattened.sol\":9188:9212  _allowed[owner][spender] */\n      0x00\n        /* \"liberland/eth/mastet_token_flattened.sol\":9204:9211  spender */\n      dup5\n        /* \"liberland/eth/mastet_token_flattened.sol\":9188:9212  _allowed[owner][spender] */\n      0xffffffffffffffffffffffffffffffffffffffff\n      and\n      0xffffffffffffffffffffffffffffffffffffffff\n      and\n      dup2\n      mstore\n      0x20\n      add\n      swap1\n      dup2\n      mstore\n      0x20\n      add\n      0x00\n      keccak256\n        /* \"liberland/eth/mastet_token_flattened.sol\":9188:9220  _allowed[owner][spender] = value */\n      dup2\n      swap1\n      sstore\n      pop\n        /* \"liberland/eth/mastet_token_flattened.sol\":9251:9258  spender */\n      dup2\n        /* \"liberland/eth/mastet_token_flattened.sol\":9235:9266  Approval(owner, spender, value) */\n      0xffffffffffffffffffffffffffffffffffffffff\n      and\n        /* \"liberland/eth/mastet_token_flattened.sol\":9244:9249  owner */\n      dup4\n        /* \"liberland/eth/mastet_token_flattened.sol\":9235:9266  Approval(owner, spender, value) */\n      0xffffffffffffffffffffffffffffffffffffffff\n      and\n      0x8c5be1e5ebec7d5bd14f71427d1e84f3dd0314c0f7b2291e5b200ac8c7c3b925\n        /* \"liberland/eth/mastet_token_flattened.sol\":9260:9265  value */\n      dup4\n        /* \"liberland/eth/mastet_token_flattened.sol\":9235:9266  Approval(owner, spender, value) */\n      mload(0x40)\n      tag_168\n      swap2\n      swap1\n      tag_41\n      jump\t// in\n    tag_168:\n      mload(0x40)\n      dup1\n      swap2\n      sub\n      swap1\n      log3\n        /* \"liberland/eth/mastet_token_flattened.sol\":8995:9273  function _approve(... */\n      pop\n      pop\n      pop\n      jump\t// out\n        /* \"liberland/eth/mastet_token_flattened.sol\":7367:7647  function _transfer(... */\n    tag_115:\n        /* \"liberland/eth/mastet_token_flattened.sol\":7498:7499  0 */\n      0x00\n        /* \"liberland/eth/mastet_token_flattened.sol\":7484:7500  to != address(0) */\n      0xffffffffffffffffffffffffffffffffffffffff\n      and\n        /* \"liberland/eth/mastet_token_flattened.sol\":7484:7486  to */\n      dup3\n        /* \"liberland/eth/mastet_token_flattened.sol\":7484:7500  to != address(0) */\n      0xffffffffffffffffffffffffffffffffffffffff\n      and\n      sub\n        /* \"liberland/eth/mastet_token_flattened.sol\":7476:7501  require(to != address(0)) */\n      tag_170\n      jumpi\n      0x00\n      dup1\n      revert\n    tag_170:\n        /* \"liberland/eth/mastet_token_flattened.sol\":7548:7553  value */\n      dup1\n        /* \"liberland/eth/mastet_token_flattened.sol\":7530:7539  _balances */\n      0x00\n        /* \"liberland/eth/mastet_token_flattened.sol\":7530:7545  _balances[from] */\n      dup1\n        /* \"liberland/eth/mastet_token_flattened.sol\":7540:7544  from */\n      dup6\n        /* \"liberland/eth/mastet_token_flattened.sol\":7530:7545  _balances[from] */\n      0xffffffffffffffffffffffffffffffffffffffff\n      and\n      0xffffffffffffffffffffffffffffffffffffffff\n      and\n      dup2\n      mstore\n      0x20\n      add\n      swap1\n      dup2\n      mstore\n      0x20\n      add\n      0x00\n      keccak256\n      sload\n        /* \"liberland/eth/mastet_token_flattened.sol\":7530:7553  _balances[from] - value */\n      tag_171\n      swap2\n      swap1\n      tag_118\n      jump\t// in\n    tag_171:\n        /* \"liberland/eth/mastet_token_flattened.sol\":7512:7521  _balances */\n      0x00\n        /* \"liberland/eth/mastet_token_flattened.sol\":7512:7527  _balances[from] */\n      dup1\n        /* \"liberland/eth/mastet_token_flattened.sol\":7522:7526  from */\n      dup6\n        /* \"liberland/eth/mastet_token_flattened.sol\":7512:7527  _balances[from] */\n      0xffffffffffffffffffffffffffffffffffffffff\n      and\n      0xffffffffffffffffffffffffffffffffffffffff\n      and\n      dup2\n      mstore\n      0x20\n      add\n      swap1\n      dup2\n      mstore\n      0x20\n      add\n      0x00\n      keccak256\n        /* \"liberland/eth/mastet_token_flattened.sol\":7512:7553  _balances[from] = _balances[from] - value */\n      dup2\n      swap1\n      sstore\n      pop\n        /* \"liberland/eth/mastet_token_flattened.sol\":7595:7600  value */\n      dup1\n        /* \"liberland/eth/mastet_token_flattened.sol\":7579:7588  _balances */\n      0x00\n        /* \"liberland/eth/mastet_token_flattened.sol\":7579:7592  _balances[to] */\n      dup1\n        /* \"liberland/eth/mastet_token_flattened.sol\":7589:7591  to */\n      dup5\n        /* \"liberland/eth/mastet_token_flattened.sol\":7579:7592  _balances[to] */\n      0xffffffffffffffffffffffffffffffffffffffff\n      and\n      0xffffffffffffffffffffffffffffffffffffffff\n      and\n      dup2\n      mstore\n      0x20\n      add\n      swap1\n      dup2\n      mstore\n      0x20\n      add\n      0x00\n      keccak256\n      sload\n        /* \"liberland/eth/mastet_token_flattened.sol\":7579:7600  _balances[to] + value */\n      tag_172\n      swap2\n      swap1\n      tag_123\n      jump\t// in\n    tag_172:\n        /* \"liberland/eth/mastet_token_flattened.sol\":7563:7572  _balances */\n      0x00\n        /* \"liberland/eth/mastet_token_flattened.sol\":7563:7576  _balances[to] */\n      dup1\n        /* \"liberland/eth/mastet_token_flattened.sol\":7573:7575  to */\n      dup5\n        /* \"liberland/eth/mastet_token_flattened.sol\":7563:7576  _balances[to] */\n      0xffffffffffffffffffffffffffffffffffffffff\n      and\n      0xffffffffffffffffffffffffffffffffffffffff\n      and\n      dup2\n      mstore\n      0x20\n      add\n      swap1\n      dup2\n      mstore\n      0x20\n      add\n      0x00\n      keccak256\n        /* \"liberland/eth/mastet_token_flattened.sol\":7563:7600  _balances[to] = _balances[to] + value */\n      dup2\n      swap1\n      sstore\n      pop\n        /* \"liberland/eth/mastet_token_flattened.sol\":7630:7632  to */\n      dup2\n        /* \"liberland/eth/mastet_token_flattened.sol\":7615:7640  Transfer(from, to, value) */\n      0xffffffffffffffffffffffffffffffffffffffff\n      and\n        /* \"liberland/eth/mastet_token_flattened.sol\":7624:7628  from */\n      dup4\n        /* \"liberland/eth/mastet_token_flattened.sol\":7615:7640  Transfer(from, to, value) */\n      0xffffffffffffffffffffffffffffffffffffffff\n      and\n      0xddf252ad1be2c89b69c2b068fc378daa952ba7f163c4a11628f55a4df523b3ef\n        /* \"liberland/eth/mastet_token_flattened.sol\":7634:7639  value */\n      dup4\n        /* \"liberland/eth/mastet_token_flattened.sol\":7615:7640  Transfer(from, to, value) */\n      mload(0x40)\n      tag_173\n      swap2\n      swap1\n      tag_41\n      jump\t// in\n    tag_173:\n      mload(0x40)\n      dup1\n      swap2\n      sub\n      swap1\n      log3\n        /* \"liberland/eth/mastet_token_flattened.sol\":7367:7647  function _transfer(... */\n      pop\n      pop\n      pop\n      jump\t// out\n        /* \"liberland/eth/mastet_token_flattened.sol\":8473:8730  function _burn(address account, uint256 value) internal {... */\n    tag_126:\n        /* \"liberland/eth/mastet_token_flattened.sol\":8566:8567  0 */\n      0x00\n        /* \"liberland/eth/mastet_token_flattened.sol\":8547:8568  account != address(0) */\n      0xffffffffffffffffffffffffffffffffffffffff\n      and\n        /* \"liberland/eth/mastet_token_flattened.sol\":8547:8554  account */\n      dup3\n        /* \"liberland/eth/mastet_token_flattened.sol\":8547:8568  account != address(0) */\n      0xffffffffffffffffffffffffffffffffffffffff\n      and\n      sub\n        /* \"liberland/eth/mastet_token_flattened.sol\":8539:8569  require(account != address(0)) */\n      tag_175\n      jumpi\n      0x00\n      dup1\n      revert\n    tag_175:\n        /* \"liberland/eth/mastet_token_flattened.sol\":8610:8615  value */\n      dup1\n        /* \"liberland/eth/mastet_token_flattened.sol\":8595:8607  _totalSupply */\n      sload(0x02)\n        /* \"liberland/eth/mastet_token_flattened.sol\":8595:8615  _totalSupply - value */\n      tag_176\n      swap2\n      swap1\n      tag_118\n      jump\t// in\n    tag_176:\n        /* \"liberland/eth/mastet_token_flattened.sol\":8580:8592  _totalSupply */\n      0x02\n        /* \"liberland/eth/mastet_token_flattened.sol\":8580:8615  _totalSupply = _totalSupply - value */\n      dup2\n      swap1\n      sstore\n      pop\n        /* \"liberland/eth/mastet_token_flattened.sol\":8667:8672  value */\n      dup1\n        /* \"liberland/eth/mastet_token_flattened.sol\":8646:8655  _balances */\n      0x00\n        /* \"liberland/eth/mastet_token_flattened.sol\":8646:8664  _balances[account] */\n      dup1\n        /* \"liberland/eth/mastet_token_flattened.sol\":8656:8663  account */\n      dup5\n        /* \"liberland/eth/mastet_token_flattened.sol\":8646:8664  _balances[account] */\n      0xffffffffffffffffffffffffffffffffffffffff\n      and\n      0xffffffffffffffffffffffffffffffffffffffff\n      and\n      dup2\n      mstore\n      0x20\n      add\n      swap1\n      dup2\n      mstore\n      0x20\n      add\n      0x00\n      keccak256\n      sload\n        /* \"liberland/eth/mastet_token_flattened.sol\":8646:8672  _balances[account] - value */\n      tag_177\n      swap2\n      swap1\n      tag_118\n      jump\t// in\n    tag_177:\n        /* \"liberland/eth/mastet_token_flattened.sol\":8625:8634  _balances */\n      0x00\n        /* \"liberland/eth/mastet_token_flattened.sol\":8625:8643  _balances[account] */\n      dup1\n        /* \"liberland/eth/mastet_token_flattened.sol\":8635:8642  account */\n      dup5\n        /* \"liberland/eth/mastet_token_flattened.sol\":8625:8643  _balances[account] */\n      0xffffffffffffffffffffffffffffffffffffffff\n      and\n      0xffffffffffffffffffffffffffffffffffffffff\n      and\n      dup2\n      mstore\n      0x20\n      add\n      swap1\n      dup2\n      mstore\n      0x20\n      add\n      0x00\n      keccak256\n        /* \"liberland/eth/mastet_token_flattened.sol\":8625:8672  _balances[account] = _balances[account] - value */\n      dup2\n      swap1\n      sstore\n      pop\n        /* \"liberland/eth/mastet_token_flattened.sol\":8713:8714  0 */\n      0x00\n        /* \"liberland/eth/mastet_token_flattened.sol\":8687:8723  Transfer(account, address(0), value) */\n      0xffffffffffffffffffffffffffffffffffffffff\n      and\n        /* \"liberland/eth/mastet_token_flattened.sol\":8696:8703  account */\n      dup3\n        /* \"liberland/eth/mastet_token_flattened.sol\":8687:8723  Transfer(account, address(0), value) */\n      0xffffffffffffffffffffffffffffffffffffffff\n      and\n      0xddf252ad1be2c89b69c2b068fc378daa952ba7f163c4a11628f55a4df523b3ef\n        /* \"liberland/eth/mastet_token_flattened.sol\":8717:8722  value */\n      dup4\n        /* \"liberland/eth/mastet_token_flattened.sol\":8687:8723  Transfer(account, address(0), value) */\n      mload(0x40)\n      tag_178\n      swap2\n      swap1\n      tag_41\n      jump\t// in\n    tag_178:\n      mload(0x40)\n      dup1\n      swap2\n      sub\n      swap1\n      log3\n        /* \"liberland/eth/mastet_token_flattened.sol\":8473:8730  function _burn(address account, uint256 value) internal {... */\n      pop\n      pop\n      jump\t// out\n        /* \"liberland/eth/mastet_token_flattened.sol\":9662:9838  function _burnFrom(address account, uint256 value) internal {... */\n    tag_136:\n        /* \"liberland/eth/mastet_token_flattened.sol\":9732:9753  _burn(account, value) */\n      tag_180\n        /* \"liberland/eth/mastet_token_flattened.sol\":9738:9745  account */\n      dup3\n        /* \"liberland/eth/mastet_token_flattened.sol\":9747:9752  value */\n      dup3\n        /* \"liberland/eth/mastet_token_flattened.sol\":9732:9737  _burn */\n      tag_126\n        /* \"liberland/eth/mastet_token_flattened.sol\":9732:9753  _burn(account, value) */\n      jump\t// in\n    tag_180:\n        /* \"liberland/eth/mastet_token_flattened.sol\":9763:9831  _approve(account, msg.sender, _allowed[account][msg.sender] - value) */\n      tag_181\n        /* \"liberland/eth/mastet_token_flattened.sol\":9772:9779  account */\n      dup3\n        /* \"liberland/eth/mastet_token_flattened.sol\":9781:9791  msg.sender */\n      caller\n        /* \"liberland/eth/mastet_token_flattened.sol\":9825:9830  value */\n      dup4\n        /* \"liberland/eth/mastet_token_flattened.sol\":9793:9801  _allowed */\n      0x01\n        /* \"liberland/eth/mastet_token_flattened.sol\":9793:9810  _allowed[account] */\n      0x00\n        /* \"liberland/eth/mastet_token_flattened.sol\":9802:9809  account */\n      dup8\n        /* \"liberland/eth/mastet_token_flattened.sol\":9793:9810  _allowed[account] */\n      0xffffffffffffffffffffffffffffffffffffffff\n      and\n      0xffffffffffffffffffffffffffffffffffffffff\n      and\n      dup2\n      mstore\n      0x20\n      add\n      swap1\n      dup2\n      mstore\n      0x20\n      add\n      0x00\n      keccak256\n        /* \"liberland/eth/mastet_token_flattened.sol\":9793:9822  _allowed[account][msg.sender] */\n      0x00\n        /* \"liberland/eth/mastet_token_flattened.sol\":9811:9821  msg.sender */\n      caller\n        /* \"liberland/eth/mastet_token_flattened.sol\":9793:9822  _allowed[account][msg.sender] */\n      0xffffffffffffffffffffffffffffffffffffffff\n      and\n      0xffffffffffffffffffffffffffffffffffffffff\n      and\n      dup2\n      mstore\n      0x20\n      add\n      swap1\n      dup2\n      mstore\n      0x20\n      add\n      0x00\n      keccak256\n      sload\n        /* \"liberland/eth/mastet_token_flattened.sol\":9793:9830  _allowed[account][msg.sender] - value */\n      tag_182\n      swap2\n      swap1\n      tag_118\n      jump\t// in\n    tag_182:\n        /* \"liberland/eth/mastet_token_flattened.sol\":9763:9771  _approve */\n      tag_111\n        /* \"liberland/eth/mastet_token_flattened.sol\":9763:9831  _approve(account, msg.sender, _allowed[account][msg.sender] - value) */\n      jump\t// in\n    tag_181:\n        /* \"liberland/eth/mastet_token_flattened.sol\":9662:9838  function _burnFrom(address account, uint256 value) internal {... */\n      pop\n      pop\n      jump\t// out\n        /* \"liberland/eth/mastet_token_flattened.sol\":7990:8247  function _mint(address account, uint256 value) internal {... */\n    tag_157:\n        /* \"liberland/eth/mastet_token_flattened.sol\":8083:8084  0 */\n      0x00\n        /* \"liberland/eth/mastet_token_flattened.sol\":8064:8085  account != address(0) */\n      0xffffffffffffffffffffffffffffffffffffffff\n      and\n        /* \"liberland/eth/mastet_token_flattened.sol\":8064:8071  account */\n      dup3\n        /* \"liberland/eth/mastet_token_flattened.sol\":8064:8085  account != address(0) */\n      0xffffffffffffffffffffffffffffffffffffffff\n      and\n      sub\n        /* \"liberland/eth/mastet_token_flattened.sol\":8056:8086  require(account != address(0)) */\n      tag_184\n      jumpi\n      0x00\n      dup1\n      revert\n    tag_184:\n        /* \"liberland/eth/mastet_token_flattened.sol\":8127:8132  value */\n      dup1\n        /* \"liberland/eth/mastet_token_flattened.sol\":8112:8124  _totalSupply */\n      sload(0x02)\n        /* \"liberland/eth/mastet_token_flattened.sol\":8112:8132  _totalSupply + value */\n      tag_185\n      swap2\n      swap1\n      tag_123\n      jump\t// in\n    tag_185:\n        /* \"liberland/eth/mastet_token_flattened.sol\":8097:8109  _totalSupply */\n      0x02\n        /* \"liberland/eth/mastet_token_flattened.sol\":8097:8132  _totalSupply = _totalSupply + value */\n      dup2\n      swap1\n      sstore\n      pop\n        /* \"liberland/eth/mastet_token_flattened.sol\":8184:8189  value */\n      dup1\n        /* \"liberland/eth/mastet_token_flattened.sol\":8163:8172  _balances */\n      0x00\n        /* \"liberland/eth/mastet_token_flattened.sol\":8163:8181  _balances[account] */\n      dup1\n        /* \"liberland/eth/mastet_token_flattened.sol\":8173:8180  account */\n      dup5\n        /* \"liberland/eth/mastet_token_flattened.sol\":8163:8181  _balances[account] */\n      0xffffffffffffffffffffffffffffffffffffffff\n      and\n      0xffffffffffffffffffffffffffffffffffffffff\n      and\n      dup2\n      mstore\n      0x20\n      add\n      swap1\n      dup2\n      mstore\n      0x20\n      add\n      0x00\n      keccak256\n      sload\n        /* \"liberland/eth/mastet_token_flattened.sol\":8163:8189  _balances[account] + value */\n      tag_186\n      swap2\n      swap1\n      tag_123\n      jump\t// in\n    tag_186:\n        /* \"liberland/eth/mastet_token_flattened.sol\":8142:8151  _balances */\n      0x00\n        /* \"liberland/eth/mastet_token_flattened.sol\":8142:8160  _balances[account] */\n      dup1\n        /* \"liberland/eth/mastet_token_flattened.sol\":8152:8159  account */\n      dup5\n        /* \"liberland/eth/mastet_token_flattened.sol\":8142:8160  _balances[account] */\n      0xffffffffffffffffffffffffffffffffffffffff\n      and\n      0xffffffffffffffffffffffffffffffffffffffff\n      and\n      dup2\n      mstore\n      0x20\n      add\n      swap1\n      dup2\n      mstore\n      0x20\n      add\n      0x00\n      keccak256\n        /* \"liberland/eth/mastet_token_flattened.sol\":8142:8189  _balances[account] = _balances[account] + value */\n      dup2\n      swap1\n      sstore\n      pop\n        /* \"liberland/eth/mastet_token_flattened.sol\":8225:8232  account */\n      dup2\n        /* \"liberland/eth/mastet_token_flattened.sol\":8204:8240  Transfer(address(0), account, value) */\n      0xffffffffffffffffffffffffffffffffffffffff\n      and\n        /* \"liberland/eth/mastet_token_flattened.sol\":8221:8222  0 */\n      0x00\n        /* \"liberland/eth/mastet_token_flattened.sol\":8204:8240  Transfer(address(0), account, value) */\n      0xffffffffffffffffffffffffffffffffffffffff\n      and\n      0xddf252ad1be2c89b69c2b068fc378daa952ba7f163c4a11628f55a4df523b3ef\n        /* \"liberland/eth/mastet_token_flattened.sol\":8234:8239  value */\n      dup4\n        /* \"liberland/eth/mastet_token_flattened.sol\":8204:8240  Transfer(address(0), account, value) */\n      mload(0x40)\n      tag_187\n      swap2\n      swap1\n      tag_41\n      jump\t// in\n    tag_187:\n      mload(0x40)\n      dup1\n      swap2\n      sub\n      swap1\n      log3\n        /* \"liberland/eth/mastet_token_flattened.sol\":7990:8247  function _mint(address account, uint256 value) internal {... */\n      pop\n      pop\n      jump\t// out\n        /* \"liberland/eth/mastet_token_flattened.sol\":12563:12746  function _transferOwnership(address newOwner) internal {... */\n    tag_164:\n        /* \"liberland/eth/mastet_token_flattened.sol\":12656:12657  0 */\n      0x00\n        /* \"liberland/eth/mastet_token_flattened.sol\":12636:12658  newOwner != address(0) */\n      0xffffffffffffffffffffffffffffffffffffffff\n      and\n        /* \"liberland/eth/mastet_token_flattened.sol\":12636:12644  newOwner */\n      dup2\n        /* \"liberland/eth/mastet_token_flattened.sol\":12636:12658  newOwner != address(0) */\n      0xffffffffffffffffffffffffffffffffffffffff\n      and\n      sub\n        /* \"liberland/eth/mastet_token_flattened.sol\":12628:12659  require(newOwner != address(0)) */\n      tag_189\n      jumpi\n      0x00\n      dup1\n      revert\n    tag_189:\n        /* \"liberland/eth/mastet_token_flattened.sol\":12703:12711  newOwner */\n      dup1\n        /* \"liberland/eth/mastet_token_flattened.sol\":12674:12712  OwnershipTransferred(_owner, newOwner) */\n      0xffffffffffffffffffffffffffffffffffffffff\n      and\n        /* \"liberland/eth/mastet_token_flattened.sol\":12695:12701  _owner */\n      0x05\n      0x01\n      swap1\n      sload\n      swap1\n      0x0100\n      exp\n      swap1\n      div\n      0xffffffffffffffffffffffffffffffffffffffff\n      and\n        /* \"liberland/eth/mastet_token_flattened.sol\":12674:12712  OwnershipTransferred(_owner, newOwner) */\n      0xffffffffffffffffffffffffffffffffffffffff\n      and\n      0x8be0079c531659141344cd1fd0a4f28419497f9722a3daafe3b4186f6b6457e0\n      mload(0x40)\n      mload(0x40)\n      dup1\n      swap2\n      sub\n      swap1\n      log3\n        /* \"liberland/eth/mastet_token_flattened.sol\":12731:12739  newOwner */\n      dup1\n        /* \"liberland/eth/mastet_token_flattened.sol\":12722:12728  _owner */\n      0x05\n      0x01\n        /* \"liberland/eth/mastet_token_flattened.sol\":12722:12739  _owner = newOwner */\n      0x0100\n      exp\n      dup2\n      sload\n      dup2\n      0xffffffffffffffffffffffffffffffffffffffff\n      mul\n      not\n      and\n      swap1\n      dup4\n      0xffffffffffffffffffffffffffffffffffffffff\n      and\n      mul\n      or\n      swap1\n      sstore\n      pop\n        /* \"liberland/eth/mastet_token_flattened.sol\":12563:12746  function _transferOwnership(address newOwner) internal {... */\n      pop\n      jump\t// out\n        /* \"#utility.yul\":7:106   */\n    tag_190:\n        /* \"#utility.yul\":59:65   */\n      0x00\n        /* \"#utility.yul\":93:98   */\n      dup2\n        /* \"#utility.yul\":87:99   */\n      mload\n        /* \"#utility.yul\":77:99   */\n      swap1\n      pop\n        /* \"#utility.yul\":7:106   */\n      swap2\n      swap1\n      pop\n      jump\t// out\n        /* \"#utility.yul\":112:281   */\n    tag_191:\n        /* \"#utility.yul\":196:207   */\n      0x00\n        /* \"#utility.yul\":230:236   */\n      dup3\n        /* \"#utility.yul\":225:228   */\n      dup3\n        /* \"#utility.yul\":218:237   */\n      mstore\n        /* \"#utility.yul\":270:274   */\n      0x20\n        /* \"#utility.yul\":265:268   */\n      dup3\n        /* \"#utility.yul\":261:275   */\n      add\n        /* \"#utility.yul\":246:275   */\n      swap1\n      pop\n        /* \"#utility.yul\":112:281   */\n      swap3\n      swap2\n      pop\n      pop\n      jump\t// out\n        /* \"#utility.yul\":287:533   */\n    tag_192:\n        /* \"#utility.yul\":368:369   */\n      0x00\n        /* \"#utility.yul\":378:491   */\n    tag_221:\n        /* \"#utility.yul\":392:398   */\n      dup4\n        /* \"#utility.yul\":389:390   */\n      dup2\n        /* \"#utility.yul\":386:399   */\n      lt\n        /* \"#utility.yul\":378:491   */\n      iszero\n      tag_223\n      jumpi\n        /* \"#utility.yul\":477:478   */\n      dup1\n        /* \"#utility.yul\":472:475   */\n      dup3\n        /* \"#utility.yul\":468:479   */\n      add\n        /* \"#utility.yul\":462:480   */\n      mload\n        /* \"#utility.yul\":458:459   */\n      dup2\n        /* \"#utility.yul\":453:456   */\n      dup5\n        /* \"#utility.yul\":449:460   */\n      add\n        /* \"#utility.yul\":442:481   */\n      mstore\n        /* \"#utility.yul\":414:416   */\n      0x20\n        /* \"#utility.yul\":411:412   */\n      dup2\n        /* \"#utility.yul\":407:417   */\n      add\n        /* \"#utility.yul\":402:417   */\n      swap1\n      pop\n        /* \"#utility.yul\":378:491   */\n      jump(tag_221)\n    tag_223:\n        /* \"#utility.yul\":525:526   */\n      0x00\n        /* \"#utility.yul\":516:522   */\n      dup5\n        /* \"#utility.yul\":511:514   */\n      dup5\n        /* \"#utility.yul\":507:523   */\n      add\n        /* \"#utility.yul\":500:527   */\n      mstore\n        /* \"#utility.yul\":349:533   */\n      pop\n        /* \"#utility.yul\":287:533   */\n      pop\n      pop\n      pop\n      jump\t// out\n        /* \"#utility.yul\":539:641   */\n    tag_193:\n        /* \"#utility.yul\":580:586   */\n      0x00\n        /* \"#utility.yul\":631:633   */\n      0x1f\n        /* \"#utility.yul\":627:634   */\n      not\n        /* \"#utility.yul\":622:624   */\n      0x1f\n        /* \"#utility.yul\":615:620   */\n      dup4\n        /* \"#utility.yul\":611:625   */\n      add\n        /* \"#utility.yul\":607:635   */\n      and\n        /* \"#utility.yul\":597:635   */\n      swap1\n      pop\n        /* \"#utility.yul\":539:641   */\n      swap2\n      swap1\n      pop\n      jump\t// out\n        /* \"#utility.yul\":647:1024   */\n    tag_194:\n        /* \"#utility.yul\":735:738   */\n      0x00\n        /* \"#utility.yul\":763:802   */\n      tag_226\n        /* \"#utility.yul\":796:801   */\n      dup3\n        /* \"#utility.yul\":763:802   */\n      tag_190\n      jump\t// in\n    tag_226:\n        /* \"#utility.yul\":818:889   */\n      tag_227\n        /* \"#utility.yul\":882:888   */\n      dup2\n        /* \"#utility.yul\":877:880   */\n      dup6\n        /* \"#utility.yul\":818:889   */\n      tag_191\n      jump\t// in\n    tag_227:\n        /* \"#utility.yul\":811:889   */\n      swap4\n      pop\n        /* \"#utility.yul\":898:963   */\n      tag_228\n        /* \"#utility.yul\":956:962   */\n      dup2\n        /* \"#utility.yul\":951:954   */\n      dup6\n        /* \"#utility.yul\":944:948   */\n      0x20\n        /* \"#utility.yul\":937:942   */\n      dup7\n        /* \"#utility.yul\":933:949   */\n      add\n        /* \"#utility.yul\":898:963   */\n      tag_192\n      jump\t// in\n    tag_228:\n        /* \"#utility.yul\":988:1017   */\n      tag_229\n        /* \"#utility.yul\":1010:1016   */\n      dup2\n        /* \"#utility.yul\":988:1017   */\n      tag_193\n      jump\t// in\n    tag_229:\n        /* \"#utility.yul\":983:986   */\n      dup5\n        /* \"#utility.yul\":979:1018   */\n      add\n        /* \"#utility.yul\":972:1018   */\n      swap2\n      pop\n        /* \"#utility.yul\":739:1024   */\n      pop\n        /* \"#utility.yul\":647:1024   */\n      swap3\n      swap2\n      pop\n      pop\n      jump\t// out\n        /* \"#utility.yul\":1030:1343   */\n    tag_31:\n        /* \"#utility.yul\":1143:1147   */\n      0x00\n        /* \"#utility.yul\":1181:1183   */\n      0x20\n        /* \"#utility.yul\":1170:1179   */\n      dup3\n        /* \"#utility.yul\":1166:1184   */\n      add\n        /* \"#utility.yul\":1158:1184   */\n      swap1\n      pop\n        /* \"#utility.yul\":1230:1239   */\n      dup2\n        /* \"#utility.yul\":1224:1228   */\n      dup2\n        /* \"#utility.yul\":1220:1240   */\n      sub\n        /* \"#utility.yul\":1216:1217   */\n      0x00\n        /* \"#utility.yul\":1205:1214   */\n      dup4\n        /* \"#utility.yul\":1201:1218   */\n      add\n        /* \"#utility.yul\":1194:1241   */\n      mstore\n        /* \"#utility.yul\":1258:1336   */\n      tag_231\n        /* \"#utility.yul\":1331:1335   */\n      dup2\n        /* \"#utility.yul\":1322:1328   */\n      dup5\n        /* \"#utility.yul\":1258:1336   */\n      tag_194\n      jump\t// in\n    tag_231:\n        /* \"#utility.yul\":1250:1336   */\n      swap1\n      pop\n        /* \"#utility.yul\":1030:1343   */\n      swap3\n      swap2\n      pop\n      pop\n      jump\t// out\n        /* \"#utility.yul\":1430:1547   */\n    tag_196:\n        /* \"#utility.yul\":1539:1540   */\n      0x00\n        /* \"#utility.yul\":1536:1537   */\n      dup1\n        /* \"#utility.yul\":1529:1541   */\n      revert\n        /* \"#utility.yul\":1676:1802   */\n    tag_198:\n        /* \"#utility.yul\":1713:1720   */\n      0x00\n        /* \"#utility.yul\":1753:1795   */\n      0xffffffffffffffffffffffffffffffffffffffff\n        /* \"#utility.yul\":1746:1751   */\n      dup3\n        /* \"#utility.yul\":1742:1796   */\n      and\n        /* \"#utility.yul\":1731:1796   */\n      swap1\n      pop\n        /* \"#utility.yul\":1676:1802   */\n      swap2\n      swap1\n      pop\n      jump\t// out\n        /* \"#utility.yul\":1808:1904   */\n    tag_199:\n        /* \"#utility.yul\":1845:1852   */\n      0x00\n        /* \"#utility.yul\":1874:1898   */\n      tag_237\n        /* \"#utility.yul\":1892:1897   */\n      dup3\n        /* \"#utility.yul\":1874:1898   */\n      tag_198\n      jump\t// in\n    tag_237:\n        /* \"#utility.yul\":1863:1898   */\n      swap1\n      pop\n        /* \"#utility.yul\":1808:1904   */\n      swap2\n      swap1\n      pop\n      jump\t// out\n        /* \"#utility.yul\":1910:2032   */\n    tag_200:\n        /* \"#utility.yul\":1983:2007   */\n      tag_239\n        /* \"#utility.yul\":2001:2006   */\n      dup2\n        /* \"#utility.yul\":1983:2007   */\n      tag_199\n      jump\t// in\n    tag_239:\n        /* \"#utility.yul\":1976:1981   */\n      dup2\n        /* \"#utility.yul\":1973:2008   */\n      eq\n        /* \"#utility.yul\":1963:2026   */\n      tag_240\n      jumpi\n        /* \"#utility.yul\":2022:2023   */\n      0x00\n        /* \"#utility.yul\":2019:2020   */\n      dup1\n        /* \"#utility.yul\":2012:2024   */\n      revert\n        /* \"#utility.yul\":1963:2026   */\n    tag_240:\n        /* \"#utility.yul\":1910:2032   */\n      pop\n      jump\t// out\n        /* \"#utility.yul\":2038:2177   */\n    tag_201:\n        /* \"#utility.yul\":2084:2089   */\n      0x00\n        /* \"#utility.yul\":2122:2128   */\n      dup2\n        /* \"#utility.yul\":2109:2129   */\n      calldataload\n        /* \"#utility.yul\":2100:2129   */\n      swap1\n      pop\n        /* \"#utility.yul\":2138:2171   */\n      tag_242\n        /* \"#utility.yul\":2165:2170   */\n      dup2\n        /* \"#utility.yul\":2138:2171   */\n      tag_200\n      jump\t// in\n    tag_242:\n        /* \"#utility.yul\":2038:2177   */\n      swap3\n      swap2\n      pop\n      pop\n      jump\t// out\n        /* \"#utility.yul\":2183:2260   */\n    tag_202:\n        /* \"#utility.yul\":2220:2227   */\n      0x00\n        /* \"#utility.yul\":2249:2254   */\n      dup2\n        /* \"#utility.yul\":2238:2254   */\n      swap1\n      pop\n        /* \"#utility.yul\":2183:2260   */\n      swap2\n      swap1\n      pop\n      jump\t// out\n        /* \"#utility.yul\":2266:2388   */\n    tag_203:\n        /* \"#utility.yul\":2339:2363   */\n      tag_245\n        /* \"#utility.yul\":2357:2362   */\n      dup2\n        /* \"#utility.yul\":2339:2363   */\n      tag_202\n      jump\t// in\n    tag_245:\n        /* \"#utility.yul\":2332:2337   */\n      dup2\n        /* \"#utility.yul\":2329:2364   */\n      eq\n        /* \"#utility.yul\":2319:2382   */\n      tag_246\n      jumpi\n        /* \"#utility.yul\":2378:2379   */\n      0x00\n        /* \"#utility.yul\":2375:2376   */\n      dup1\n        /* \"#utility.yul\":2368:2380   */\n      revert\n        /* \"#utility.yul\":2319:2382   */\n    tag_246:\n        /* \"#utility.yul\":2266:2388   */\n      pop\n      jump\t// out\n        /* \"#utility.yul\":2394:2533   */\n    tag_204:\n        /* \"#utility.yul\":2440:2445   */\n      0x00\n        /* \"#utility.yul\":2478:2484   */\n      dup2\n        /* \"#utility.yul\":2465:2485   */\n      calldataload\n        /* \"#utility.yul\":2456:2485   */\n      swap1\n      pop\n        /* \"#utility.yul\":2494:2527   */\n      tag_248\n        /* \"#utility.yul\":2521:2526   */\n      dup2\n        /* \"#utility.yul\":2494:2527   */\n      tag_203\n      jump\t// in\n    tag_248:\n        /* \"#utility.yul\":2394:2533   */\n      swap3\n      swap2\n      pop\n      pop\n      jump\t// out\n        /* \"#utility.yul\":2539:3013   */\n    tag_34:\n        /* \"#utility.yul\":2607:2613   */\n      0x00\n        /* \"#utility.yul\":2615:2621   */\n      dup1\n        /* \"#utility.yul\":2664:2666   */\n      0x40\n        /* \"#utility.yul\":2652:2661   */\n      dup4\n        /* \"#utility.yul\":2643:2650   */\n      dup6\n        /* \"#utility.yul\":2639:2662   */\n      sub\n        /* \"#utility.yul\":2635:2667   */\n      slt\n        /* \"#utility.yul\":2632:2751   */\n      iszero\n      tag_250\n      jumpi\n        /* \"#utility.yul\":2670:2749   */\n      tag_251\n      tag_196\n      jump\t// in\n    tag_251:\n        /* \"#utility.yul\":2632:2751   */\n    tag_250:\n        /* \"#utility.yul\":2790:2791   */\n      0x00\n        /* \"#utility.yul\":2815:2868   */\n      tag_252\n        /* \"#utility.yul\":2860:2867   */\n      dup6\n        /* \"#utility.yul\":2851:2857   */\n      dup3\n        /* \"#utility.yul\":2840:2849   */\n      dup7\n        /* \"#utility.yul\":2836:2858   */\n      add\n        /* \"#utility.yul\":2815:2868   */\n      tag_201\n      jump\t// in\n    tag_252:\n        /* \"#utility.yul\":2805:2868   */\n      swap3\n      pop\n        /* \"#utility.yul\":2761:2878   */\n      pop\n        /* \"#utility.yul\":2917:2919   */\n      0x20\n        /* \"#utility.yul\":2943:2996   */\n      tag_253\n        /* \"#utility.yul\":2988:2995   */\n      dup6\n        /* \"#utility.yul\":2979:2985   */\n      dup3\n        /* \"#utility.yul\":2968:2977   */\n      dup7\n        /* \"#utility.yul\":2964:2986   */\n      add\n        /* \"#utility.yul\":2943:2996   */\n      tag_204\n      jump\t// in\n    tag_253:\n        /* \"#utility.yul\":2933:2996   */\n      swap2\n      pop\n        /* \"#utility.yul\":2888:3006   */\n      pop\n        /* \"#utility.yul\":2539:3013   */\n      swap3\n      pop\n      swap3\n      swap1\n      pop\n      jump\t// out\n        /* \"#utility.yul\":3019:3109   */\n    tag_205:\n        /* \"#utility.yul\":3053:3060   */\n      0x00\n        /* \"#utility.yul\":3096:3101   */\n      dup2\n        /* \"#utility.yul\":3089:3102   */\n      iszero\n        /* \"#utility.yul\":3082:3103   */\n      iszero\n        /* \"#utility.yul\":3071:3103   */\n      swap1\n      pop\n        /* \"#utility.yul\":3019:3109   */\n      swap2\n      swap1\n      pop\n      jump\t// out\n        /* \"#utility.yul\":3115:3224   */\n    tag_206:\n        /* \"#utility.yul\":3196:3217   */\n      tag_256\n        /* \"#utility.yul\":3211:3216   */\n      dup2\n        /* \"#utility.yul\":3196:3217   */\n      tag_205\n      jump\t// in\n    tag_256:\n        /* \"#utility.yul\":3191:3194   */\n      dup3\n        /* \"#utility.yul\":3184:3218   */\n      mstore\n        /* \"#utility.yul\":3115:3224   */\n      pop\n      pop\n      jump\t// out\n        /* \"#utility.yul\":3230:3440   */\n    tag_37:\n        /* \"#utility.yul\":3317:3321   */\n      0x00\n        /* \"#utility.yul\":3355:3357   */\n      0x20\n        /* \"#utility.yul\":3344:3353   */\n      dup3\n        /* \"#utility.yul\":3340:3358   */\n      add\n        /* \"#utility.yul\":3332:3358   */\n      swap1\n      pop\n        /* \"#utility.yul\":3368:3433   */\n      tag_258\n        /* \"#utility.yul\":3430:3431   */\n      0x00\n        /* \"#utility.yul\":3419:3428   */\n      dup4\n        /* \"#utility.yul\":3415:3432   */\n      add\n        /* \"#utility.yul\":3406:3412   */\n      dup5\n        /* \"#utility.yul\":3368:3433   */\n      tag_206\n      jump\t// in\n    tag_258:\n        /* \"#utility.yul\":3230:3440   */\n      swap3\n      swap2\n      pop\n      pop\n      jump\t// out\n        /* \"#utility.yul\":3446:3564   */\n    tag_207:\n        /* \"#utility.yul\":3533:3557   */\n      tag_260\n        /* \"#utility.yul\":3551:3556   */\n      dup2\n        /* \"#utility.yul\":3533:3557   */\n      tag_202\n      jump\t// in\n    tag_260:\n        /* \"#utility.yul\":3528:3531   */\n      dup3\n        /* \"#utility.yul\":3521:3558   */\n      mstore\n        /* \"#utility.yul\":3446:3564   */\n      pop\n      pop\n      jump\t// out\n        /* \"#utility.yul\":3570:3792   */\n    tag_41:\n        /* \"#utility.yul\":3663:3667   */\n      0x00\n        /* \"#utility.yul\":3701:3703   */\n      0x20\n        /* \"#utility.yul\":3690:3699   */\n      dup3\n        /* \"#utility.yul\":3686:3704   */\n      add\n        /* \"#utility.yul\":3678:3704   */\n      swap1\n      pop\n        /* \"#utility.yul\":3714:3785   */\n      tag_262\n        /* \"#utility.yul\":3782:3783   */\n      0x00\n        /* \"#utility.yul\":3771:3780   */\n      dup4\n        /* \"#utility.yul\":3767:3784   */\n      add\n        /* \"#utility.yul\":3758:3764   */\n      dup5\n        /* \"#utility.yul\":3714:3785   */\n      tag_207\n      jump\t// in\n    tag_262:\n        /* \"#utility.yul\":3570:3792   */\n      swap3\n      swap2\n      pop\n      pop\n      jump\t// out\n        /* \"#utility.yul\":3798:4417   */\n    tag_44:\n        /* \"#utility.yul\":3875:3881   */\n      0x00\n        /* \"#utility.yul\":3883:3889   */\n      dup1\n        /* \"#utility.yul\":3891:3897   */\n      0x00\n        /* \"#utility.yul\":3940:3942   */\n      0x60\n        /* \"#utility.yul\":3928:3937   */\n      dup5\n        /* \"#utility.yul\":3919:3926   */\n      dup7\n        /* \"#utility.yul\":3915:3938   */\n      sub\n        /* \"#utility.yul\":3911:3943   */\n      slt\n        /* \"#utility.yul\":3908:4027   */\n      iszero\n      tag_264\n      jumpi\n        /* \"#utility.yul\":3946:4025   */\n      tag_265\n      tag_196\n      jump\t// in\n    tag_265:\n        /* \"#utility.yul\":3908:4027   */\n    tag_264:\n        /* \"#utility.yul\":4066:4067   */\n      0x00\n        /* \"#utility.yul\":4091:4144   */\n      tag_266\n        /* \"#utility.yul\":4136:4143   */\n      dup7\n        /* \"#utility.yul\":4127:4133   */\n      dup3\n        /* \"#utility.yul\":4116:4125   */\n      dup8\n        /* \"#utility.yul\":4112:4134   */\n      add\n        /* \"#utility.yul\":4091:4144   */\n      tag_201\n      jump\t// in\n    tag_266:\n        /* \"#utility.yul\":4081:4144   */\n      swap4\n      pop\n        /* \"#utility.yul\":4037:4154   */\n      pop\n        /* \"#utility.yul\":4193:4195   */\n      0x20\n        /* \"#utility.yul\":4219:4272   */\n      tag_267\n        /* \"#utility.yul\":4264:4271   */\n      dup7\n        /* \"#utility.yul\":4255:4261   */\n      dup3\n        /* \"#utility.yul\":4244:4253   */\n      dup8\n        /* \"#utility.yul\":4240:4262   */\n      add\n        /* \"#utility.yul\":4219:4272   */\n      tag_201\n      jump\t// in\n    tag_267:\n        /* \"#utility.yul\":4209:4272   */\n      swap3\n      pop\n        /* \"#utility.yul\":4164:4282   */\n      pop\n        /* \"#utility.yul\":4321:4323   */\n      0x40\n        /* \"#utility.yul\":4347:4400   */\n      tag_268\n        /* \"#utility.yul\":4392:4399   */\n      dup7\n        /* \"#utility.yul\":4383:4389   */\n      dup3\n        /* \"#utility.yul\":4372:4381   */\n      dup8\n        /* \"#utility.yul\":4368:4390   */\n      add\n        /* \"#utility.yul\":4347:4400   */\n      tag_204\n      jump\t// in\n    tag_268:\n        /* \"#utility.yul\":4337:4400   */\n      swap2\n      pop\n        /* \"#utility.yul\":4292:4410   */\n      pop\n        /* \"#utility.yul\":3798:4417   */\n      swap3\n      pop\n      swap3\n      pop\n      swap3\n      jump\t// out\n        /* \"#utility.yul\":4423:4509   */\n    tag_208:\n        /* \"#utility.yul\":4458:4465   */\n      0x00\n        /* \"#utility.yul\":4498:4502   */\n      0xff\n        /* \"#utility.yul\":4491:4496   */\n      dup3\n        /* \"#utility.yul\":4487:4503   */\n      and\n        /* \"#utility.yul\":4476:4503   */\n      swap1\n      pop\n        /* \"#utility.yul\":4423:4509   */\n      swap2\n      swap1\n      pop\n      jump\t// out\n        /* \"#utility.yul\":4515:4627   */\n    tag_209:\n        /* \"#utility.yul\":4598:4620   */\n      tag_271\n        /* \"#utility.yul\":4614:4619   */\n      dup2\n        /* \"#utility.yul\":4598:4620   */\n      tag_208\n      jump\t// in\n    tag_271:\n        /* \"#utility.yul\":4593:4596   */\n      dup3\n        /* \"#utility.yul\":4586:4621   */\n      mstore\n        /* \"#utility.yul\":4515:4627   */\n      pop\n      pop\n      jump\t// out\n        /* \"#utility.yul\":4633:4847   */\n    tag_50:\n        /* \"#utility.yul\":4722:4726   */\n      0x00\n        /* \"#utility.yul\":4760:4762   */\n      0x20\n        /* \"#utility.yul\":4749:4758   */\n      dup3\n        /* \"#utility.yul\":4745:4763   */\n      add\n        /* \"#utility.yul\":4737:4763   */\n      swap1\n      pop\n        /* \"#utility.yul\":4773:4840   */\n      tag_273\n        /* \"#utility.yul\":4837:4838   */\n      0x00\n        /* \"#utility.yul\":4826:4835   */\n      dup4\n        /* \"#utility.yul\":4822:4839   */\n      add\n        /* \"#utility.yul\":4813:4819   */\n      dup5\n        /* \"#utility.yul\":4773:4840   */\n      tag_209\n      jump\t// in\n    tag_273:\n        /* \"#utility.yul\":4633:4847   */\n      swap3\n      swap2\n      pop\n      pop\n      jump\t// out\n        /* \"#utility.yul\":4853:5182   */\n    tag_57:\n        /* \"#utility.yul\":4912:4918   */\n      0x00\n        /* \"#utility.yul\":4961:4963   */\n      0x20\n        /* \"#utility.yul\":4949:4958   */\n      dup3\n        /* \"#utility.yul\":4940:4947   */\n      dup5\n        /* \"#utility.yul\":4936:4959   */\n      sub\n        /* \"#utility.yul\":4932:4964   */\n      slt\n        /* \"#utility.yul\":4929:5048   */\n      iszero\n      tag_275\n      jumpi\n        /* \"#utility.yul\":4967:5046   */\n      tag_276\n      tag_196\n      jump\t// in\n    tag_276:\n        /* \"#utility.yul\":4929:5048   */\n    tag_275:\n        /* \"#utility.yul\":5087:5088   */\n      0x00\n        /* \"#utility.yul\":5112:5165   */\n      tag_277\n        /* \"#utility.yul\":5157:5164   */\n      dup5\n        /* \"#utility.yul\":5148:5154   */\n      dup3\n        /* \"#utility.yul\":5137:5146   */\n      dup6\n        /* \"#utility.yul\":5133:5155   */\n      add\n        /* \"#utility.yul\":5112:5165   */\n      tag_204\n      jump\t// in\n    tag_277:\n        /* \"#utility.yul\":5102:5165   */\n      swap2\n      pop\n        /* \"#utility.yul\":5058:5175   */\n      pop\n        /* \"#utility.yul\":4853:5182   */\n      swap3\n      swap2\n      pop\n      pop\n      jump\t// out\n        /* \"#utility.yul\":5188:5517   */\n    tag_61:\n        /* \"#utility.yul\":5247:5253   */\n      0x00\n        /* \"#utility.yul\":5296:5298   */\n      0x20\n        /* \"#utility.yul\":5284:5293   */\n      dup3\n        /* \"#utility.yul\":5275:5282   */\n      dup5\n        /* \"#utility.yul\":5271:5294   */\n      sub\n        /* \"#utility.yul\":5267:5299   */\n      slt\n        /* \"#utility.yul\":5264:5383   */\n      iszero\n      tag_279\n      jumpi\n        /* \"#utility.yul\":5302:5381   */\n      tag_280\n      tag_196\n      jump\t// in\n    tag_280:\n        /* \"#utility.yul\":5264:5383   */\n    tag_279:\n        /* \"#utility.yul\":5422:5423   */\n      0x00\n        /* \"#utility.yul\":5447:5500   */\n      tag_281\n        /* \"#utility.yul\":5492:5499   */\n      dup5\n        /* \"#utility.yul\":5483:5489   */\n      dup3\n        /* \"#utility.yul\":5472:5481   */\n      dup6\n        /* \"#utility.yul\":5468:5490   */\n      add\n        /* \"#utility.yul\":5447:5500   */\n      tag_201\n      jump\t// in\n    tag_281:\n        /* \"#utility.yul\":5437:5500   */\n      swap2\n      pop\n        /* \"#utility.yul\":5393:5510   */\n      pop\n        /* \"#utility.yul\":5188:5517   */\n      swap3\n      swap2\n      pop\n      pop\n      jump\t// out\n        /* \"#utility.yul\":5523:5641   */\n    tag_210:\n        /* \"#utility.yul\":5610:5634   */\n      tag_283\n        /* \"#utility.yul\":5628:5633   */\n      dup2\n        /* \"#utility.yul\":5610:5634   */\n      tag_199\n      jump\t// in\n    tag_283:\n        /* \"#utility.yul\":5605:5608   */\n      dup3\n        /* \"#utility.yul\":5598:5635   */\n      mstore\n        /* \"#utility.yul\":5523:5641   */\n      pop\n      pop\n      jump\t// out\n        /* \"#utility.yul\":5647:5869   */\n    tag_72:\n        /* \"#utility.yul\":5740:5744   */\n      0x00\n        /* \"#utility.yul\":5778:5780   */\n      0x20\n        /* \"#utility.yul\":5767:5776   */\n      dup3\n        /* \"#utility.yul\":5763:5781   */\n      add\n        /* \"#utility.yul\":5755:5781   */\n      swap1\n      pop\n        /* \"#utility.yul\":5791:5862   */\n      tag_285\n        /* \"#utility.yul\":5859:5860   */\n      0x00\n        /* \"#utility.yul\":5848:5857   */\n      dup4\n        /* \"#utility.yul\":5844:5861   */\n      add\n        /* \"#utility.yul\":5835:5841   */\n      dup5\n        /* \"#utility.yul\":5791:5862   */\n      tag_210\n      jump\t// in\n    tag_285:\n        /* \"#utility.yul\":5647:5869   */\n      swap3\n      swap2\n      pop\n      pop\n      jump\t// out\n        /* \"#utility.yul\":5875:6349   */\n    tag_89:\n        /* \"#utility.yul\":5943:5949   */\n      0x00\n        /* \"#utility.yul\":5951:5957   */\n      dup1\n        /* \"#utility.yul\":6000:6002   */\n      0x40\n        /* \"#utility.yul\":5988:5997   */\n      dup4\n        /* \"#utility.yul\":5979:5986   */\n      dup6\n        /* \"#utility.yul\":5975:5998   */\n      sub\n        /* \"#utility.yul\":5971:6003   */\n      slt\n        /* \"#utility.yul\":5968:6087   */\n      iszero\n      tag_287\n      jumpi\n        /* \"#utility.yul\":6006:6085   */\n      tag_288\n      tag_196\n      jump\t// in\n    tag_288:\n        /* \"#utility.yul\":5968:6087   */\n    tag_287:\n        /* \"#utility.yul\":6126:6127   */\n      0x00\n        /* \"#utility.yul\":6151:6204   */\n      tag_289\n        /* \"#utility.yul\":6196:6203   */\n      dup6\n        /* \"#utility.yul\":6187:6193   */\n      dup3\n        /* \"#utility.yul\":6176:6185   */\n      dup7\n        /* \"#utility.yul\":6172:6194   */\n      add\n        /* \"#utility.yul\":6151:6204   */\n      tag_201\n      jump\t// in\n    tag_289:\n        /* \"#utility.yul\":6141:6204   */\n      swap3\n      pop\n        /* \"#utility.yul\":6097:6214   */\n      pop\n        /* \"#utility.yul\":6253:6255   */\n      0x20\n        /* \"#utility.yul\":6279:6332   */\n      tag_290\n        /* \"#utility.yul\":6324:6331   */\n      dup6\n        /* \"#utility.yul\":6315:6321   */\n      dup3\n        /* \"#utility.yul\":6304:6313   */\n      dup7\n        /* \"#utility.yul\":6300:6322   */\n      add\n        /* \"#utility.yul\":6279:6332   */\n      tag_201\n      jump\t// in\n    tag_290:\n        /* \"#utility.yul\":6269:6332   */\n      swap2\n      pop\n        /* \"#utility.yul\":6224:6342   */\n      pop\n        /* \"#utility.yul\":5875:6349   */\n      swap3\n      pop\n      swap3\n      swap1\n      pop\n      jump\t// out\n        /* \"#utility.yul\":6355:6432   */\n    tag_211:\n        /* \"#utility.yul\":6392:6399   */\n      0x00\n        /* \"#utility.yul\":6421:6426   */\n      dup2\n        /* \"#utility.yul\":6410:6426   */\n      swap1\n      pop\n        /* \"#utility.yul\":6355:6432   */\n      swap2\n      swap1\n      pop\n      jump\t// out\n        /* \"#utility.yul\":6438:6556   */\n    tag_212:\n        /* \"#utility.yul\":6525:6549   */\n      tag_293\n        /* \"#utility.yul\":6543:6548   */\n      dup2\n        /* \"#utility.yul\":6525:6549   */\n      tag_211\n      jump\t// in\n    tag_293:\n        /* \"#utility.yul\":6520:6523   */\n      dup3\n        /* \"#utility.yul\":6513:6550   */\n      mstore\n        /* \"#utility.yul\":6438:6556   */\n      pop\n      pop\n      jump\t// out\n        /* \"#utility.yul\":6562:6784   */\n    tag_101:\n        /* \"#utility.yul\":6655:6659   */\n      0x00\n        /* \"#utility.yul\":6693:6695   */\n      0x20\n        /* \"#utility.yul\":6682:6691   */\n      dup3\n        /* \"#utility.yul\":6678:6696   */\n      add\n        /* \"#utility.yul\":6670:6696   */\n      swap1\n      pop\n        /* \"#utility.yul\":6706:6777   */\n      tag_295\n        /* \"#utility.yul\":6774:6775   */\n      0x00\n        /* \"#utility.yul\":6763:6772   */\n      dup4\n        /* \"#utility.yul\":6759:6776   */\n      add\n        /* \"#utility.yul\":6750:6756   */\n      dup5\n        /* \"#utility.yul\":6706:6777   */\n      tag_212\n      jump\t// in\n    tag_295:\n        /* \"#utility.yul\":6562:6784   */\n      swap3\n      swap2\n      pop\n      pop\n      jump\t// out\n        /* \"#utility.yul\":6790:6970   */\n    tag_213:\n        /* \"#utility.yul\":6838:6915   */\n      0x4e487b7100000000000000000000000000000000000000000000000000000000\n        /* \"#utility.yul\":6835:6836   */\n      0x00\n        /* \"#utility.yul\":6828:6916   */\n      mstore\n        /* \"#utility.yul\":6935:6939   */\n      0x22\n        /* \"#utility.yul\":6932:6933   */\n      0x04\n        /* \"#utility.yul\":6925:6940   */\n      mstore\n        /* \"#utility.yul\":6959:6963   */\n      0x24\n        /* \"#utility.yul\":6956:6957   */\n      0x00\n        /* \"#utility.yul\":6949:6964   */\n      revert\n        /* \"#utility.yul\":6976:7296   */\n    tag_104:\n        /* \"#utility.yul\":7020:7026   */\n      0x00\n        /* \"#utility.yul\":7057:7058   */\n      0x02\n        /* \"#utility.yul\":7051:7055   */\n      dup3\n        /* \"#utility.yul\":7047:7059   */\n      div\n        /* \"#utility.yul\":7037:7059   */\n      swap1\n      pop\n        /* \"#utility.yul\":7104:7105   */\n      0x01\n        /* \"#utility.yul\":7098:7102   */\n      dup3\n        /* \"#utility.yul\":7094:7106   */\n      and\n        /* \"#utility.yul\":7125:7143   */\n      dup1\n        /* \"#utility.yul\":7115:7196   */\n      tag_298\n      jumpi\n        /* \"#utility.yul\":7181:7185   */\n      0x7f\n        /* \"#utility.yul\":7173:7179   */\n      dup3\n        /* \"#utility.yul\":7169:7186   */\n      and\n        /* \"#utility.yul\":7159:7186   */\n      swap2\n      pop\n        /* \"#utility.yul\":7115:7196   */\n    tag_298:\n        /* \"#utility.yul\":7243:7245   */\n      0x20\n        /* \"#utility.yul\":7235:7241   */\n      dup3\n        /* \"#utility.yul\":7232:7246   */\n      lt\n        /* \"#utility.yul\":7212:7230   */\n      dup2\n        /* \"#utility.yul\":7209:7247   */\n      sub\n        /* \"#utility.yul\":7206:7290   */\n      tag_299\n      jumpi\n        /* \"#utility.yul\":7262:7280   */\n      tag_300\n      tag_213\n      jump\t// in\n    tag_300:\n        /* \"#utility.yul\":7206:7290   */\n    tag_299:\n        /* \"#utility.yul\":7027:7296   */\n      pop\n        /* \"#utility.yul\":6976:7296   */\n      swap2\n      swap1\n      pop\n      jump\t// out\n        /* \"#utility.yul\":7302:7482   */\n    tag_214:\n        /* \"#utility.yul\":7350:7427   */\n      0x4e487b7100000000000000000000000000000000000000000000000000000000\n        /* \"#utility.yul\":7347:7348   */\n      0x00\n        /* \"#utility.yul\":7340:7428   */\n      mstore\n        /* \"#utility.yul\":7447:7451   */\n      0x11\n        /* \"#utility.yul\":7444:7445   */\n      0x04\n        /* \"#utility.yul\":7437:7452   */\n      mstore\n        /* \"#utility.yul\":7471:7475   */\n      0x24\n        /* \"#utility.yul\":7468:7469   */\n      0x00\n        /* \"#utility.yul\":7461:7476   */\n      revert\n        /* \"#utility.yul\":7488:7682   */\n    tag_118:\n        /* \"#utility.yul\":7528:7532   */\n      0x00\n        /* \"#utility.yul\":7548:7568   */\n      tag_303\n        /* \"#utility.yul\":7566:7567   */\n      dup3\n        /* \"#utility.yul\":7548:7568   */\n      tag_202\n      jump\t// in\n    tag_303:\n        /* \"#utility.yul\":7543:7568   */\n      swap2\n      pop\n        /* \"#utility.yul\":7582:7602   */\n      tag_304\n        /* \"#utility.yul\":7600:7601   */\n      dup4\n        /* \"#utility.yul\":7582:7602   */\n      tag_202\n      jump\t// in\n    tag_304:\n        /* \"#utility.yul\":7577:7602   */\n      swap3\n      pop\n        /* \"#utility.yul\":7626:7627   */\n      dup3\n        /* \"#utility.yul\":7623:7624   */\n      dup3\n        /* \"#utility.yul\":7619:7628   */\n      sub\n        /* \"#utility.yul\":7611:7628   */\n      swap1\n      pop\n        /* \"#utility.yul\":7650:7651   */\n      dup2\n        /* \"#utility.yul\":7644:7648   */\n      dup2\n        /* \"#utility.yul\":7641:7652   */\n      gt\n        /* \"#utility.yul\":7638:7675   */\n      iszero\n      tag_305\n      jumpi\n        /* \"#utility.yul\":7655:7673   */\n      tag_306\n      tag_214\n      jump\t// in\n    tag_306:\n        /* \"#utility.yul\":7638:7675   */\n    tag_305:\n        /* \"#utility.yul\":7488:7682   */\n      swap3\n      swap2\n      pop\n      pop\n      jump\t// out\n        /* \"#utility.yul\":7688:7879   */\n    tag_123:\n        /* \"#utility.yul\":7728:7731   */\n      0x00\n        /* \"#utility.yul\":7747:7767   */\n      tag_308\n        /* \"#utility.yul\":7765:7766   */\n      dup3\n        /* \"#utility.yul\":7747:7767   */\n      tag_202\n      jump\t// in\n    tag_308:\n        /* \"#utility.yul\":7742:7767   */\n      swap2\n      pop\n        /* \"#utility.yul\":7781:7801   */\n      tag_309\n        /* \"#utility.yul\":7799:7800   */\n      dup4\n        /* \"#utility.yul\":7781:7801   */\n      tag_202\n      jump\t// in\n    tag_309:\n        /* \"#utility.yul\":7776:7801   */\n      swap3\n      pop\n        /* \"#utility.yul\":7824:7825   */\n      dup3\n        /* \"#utility.yul\":7821:7822   */\n      dup3\n        /* \"#utility.yul\":7817:7826   */\n      add\n        /* \"#utility.yul\":7810:7826   */\n      swap1\n      pop\n        /* \"#utility.yul\":7845:7848   */\n      dup1\n        /* \"#utility.yul\":7842:7843   */\n      dup3\n        /* \"#utility.yul\":7839:7849   */\n      gt\n        /* \"#utility.yul\":7836:7872   */\n      iszero\n      tag_310\n      jumpi\n        /* \"#utility.yul\":7852:7870   */\n      tag_311\n      tag_214\n      jump\t// in\n    tag_311:\n        /* \"#utility.yul\":7836:7872   */\n    tag_310:\n        /* \"#utility.yul\":7688:7879   */\n      swap3\n      swap2\n      pop\n      pop\n      jump\t// out\n        /* \"#utility.yul\":7885:8044   */\n    tag_215:\n        /* \"#utility.yul\":8025:8036   */\n      0x4e6f74206f776e65720000000000000000000000000000000000000000000000\n        /* \"#utility.yul\":8021:8022   */\n      0x00\n        /* \"#utility.yul\":8013:8019   */\n      dup3\n        /* \"#utility.yul\":8009:8023   */\n      add\n        /* \"#utility.yul\":8002:8037   */\n      mstore\n        /* \"#utility.yul\":7885:8044   */\n      pop\n      jump\t// out\n        /* \"#utility.yul\":8050:8415   */\n    tag_216:\n        /* \"#utility.yul\":8192:8195   */\n      0x00\n        /* \"#utility.yul\":8213:8279   */\n      tag_314\n        /* \"#utility.yul\":8277:8278   */\n      0x09\n        /* \"#utility.yul\":8272:8275   */\n      dup4\n        /* \"#utility.yul\":8213:8279   */\n      tag_191\n      jump\t// in\n    tag_314:\n        /* \"#utility.yul\":8206:8279   */\n      swap2\n      pop\n        /* \"#utility.yul\":8288:8381   */\n      tag_315\n        /* \"#utility.yul\":8377:8380   */\n      dup3\n        /* \"#utility.yul\":8288:8381   */\n      tag_215\n      jump\t// in\n    tag_315:\n        /* \"#utility.yul\":8406:8408   */\n      0x20\n        /* \"#utility.yul\":8401:8404   */\n      dup3\n        /* \"#utility.yul\":8397:8409   */\n      add\n        /* \"#utility.yul\":8390:8409   */\n      swap1\n      pop\n        /* \"#utility.yul\":8050:8415   */\n      swap2\n      swap1\n      pop\n      jump\t// out\n        /* \"#utility.yul\":8421:8840   */\n    tag_132:\n        /* \"#utility.yul\":8587:8591   */\n      0x00\n        /* \"#utility.yul\":8625:8627   */\n      0x20\n        /* \"#utility.yul\":8614:8623   */\n      dup3\n        /* \"#utility.yul\":8610:8628   */\n      add\n        /* \"#utility.yul\":8602:8628   */\n      swap1\n      pop\n        /* \"#utility.yul\":8674:8683   */\n      dup2\n        /* \"#utility.yul\":8668:8672   */\n      dup2\n        /* \"#utility.yul\":8664:8684   */\n      sub\n        /* \"#utility.yul\":8660:8661   */\n      0x00\n        /* \"#utility.yul\":8649:8658   */\n      dup4\n        /* \"#utility.yul\":8645:8662   */\n      add\n        /* \"#utility.yul\":8638:8685   */\n      mstore\n        /* \"#utility.yul\":8702:8833   */\n      tag_317\n        /* \"#utility.yul\":8828:8832   */\n      dup2\n        /* \"#utility.yul\":8702:8833   */\n      tag_216\n      jump\t// in\n    tag_317:\n        /* \"#utility.yul\":8694:8833   */\n      swap1\n      pop\n        /* \"#utility.yul\":8421:8840   */\n      swap2\n      swap1\n      pop\n      jump\t// out\n\n    auxdata: 0xa2646970667358221220d2c0cac748e9f7b0941d2a87078ef8d3af4c195173308cd86bcac20f8bd6060764736f6c63430008110033\n}\n",
				"bytecode": {
					"linkReferences": {},
					"object": "60806040523480156200001157600080fd5b506040516200207e3803806200207e833981810160405281019062000037919062000555565b85858582600390816200004b919062000870565b5081600490816200005d919062000870565b5080600560006101000a81548160ff021916908360ff16021790555050505033600560016101000a81548173ffffffffffffffffffffffffffffffffffffffff021916908373ffffffffffffffffffffffffffffffffffffffff160217905550600560019054906101000a900473ffffffffffffffffffffffffffffffffffffffff1673ffffffffffffffffffffffffffffffffffffffff16600073ffffffffffffffffffffffffffffffffffffffff167f8be0079c531659141344cd1fd0a4f28419497f9722a3daafe3b4186f6b6457e060405160405180910390a3806006819055506200015383836200015f60201b60201c565b505050505050620009ef565b600073ffffffffffffffffffffffffffffffffffffffff168273ffffffffffffffffffffffffffffffffffffffff16036200019957600080fd5b80600254620001a9919062000986565b600281905550806000808473ffffffffffffffffffffffffffffffffffffffff1673ffffffffffffffffffffffffffffffffffffffff16815260200190815260200160002054620001fb919062000986565b6000808473ffffffffffffffffffffffffffffffffffffffff1673ffffffffffffffffffffffffffffffffffffffff168152602001908152602001600020819055508173ffffffffffffffffffffffffffffffffffffffff16600073ffffffffffffffffffffffffffffffffffffffff167fddf252ad1be2c89b69c2b068fc378daa952ba7f163c4a11628f55a4df523b3ef836040516200029d9190620009d2565b60405180910390a35050565b6000604051905090565b600080fd5b600080fd5b600080fd5b600080fd5b6000601f19601f8301169050919050565b7f4e487b7100000000000000000000000000000000000000000000000000000000600052604160045260246000fd5b6200031282620002c7565b810181811067ffffffffffffffff82111715620003345762000333620002d8565b5b80604052505050565b600062000349620002a9565b905062000357828262000307565b919050565b600067ffffffffffffffff8211156200037a5762000379620002d8565b5b6200038582620002c7565b9050602081019050919050565b60005b83811015620003b257808201518184015260208101905062000395565b60008484015250505050565b6000620003d5620003cf846200035c565b6200033d565b905082815260208101848484011115620003f457620003f3620002c2565b5b6200040184828562000392565b509392505050565b600082601f830112620004215762000420620002bd565b5b815162000433848260208601620003be565b91505092915050565b600060ff82169050919050565b62000454816200043c565b81146200046057600080fd5b50565b600081519050620004748162000449565b92915050565b600073ffffffffffffffffffffffffffffffffffffffff82169050919050565b6000620004a7826200047a565b9050919050565b620004b9816200049a565b8114620004c557600080fd5b50565b600081519050620004d981620004ae565b92915050565b6000819050919050565b620004f481620004df565b81146200050057600080fd5b50565b6000815190506200051481620004e9565b92915050565b6000819050919050565b6200052f816200051a565b81146200053b57600080fd5b50565b6000815190506200054f8162000524565b92915050565b60008060008060008060c08789031215620005755762000574620002b3565b5b600087015167ffffffffffffffff811115620005965762000595620002b8565b5b620005a489828a0162000409565b965050602087015167ffffffffffffffff811115620005c857620005c7620002b8565b5b620005d689828a0162000409565b9550506040620005e989828a0162000463565b9450506060620005fc89828a01620004c8565b93505060806200060f89828a0162000503565b92505060a06200062289828a016200053e565b9150509295509295509295565b600081519050919050565b7f4e487b7100000000000000000000000000000000000000000000000000000000600052602260045260246000fd5b600060028204905060018216806200068257607f821691505b6020821081036200069857620006976200063a565b5b50919050565b60008190508160005260206000209050919050565b60006020601f8301049050919050565b600082821b905092915050565b600060088302620007027fffffffffffffffffffffffffffffffffffffffffffffffffffffffffffffffff82620006c3565b6200070e8683620006c3565b95508019841693508086168417925050509392505050565b6000819050919050565b6000620007516200074b6200074584620004df565b62000726565b620004df565b9050919050565b6000819050919050565b6200076d8362000730565b620007856200077c8262000758565b848454620006d0565b825550505050565b600090565b6200079c6200078d565b620007a981848462000762565b505050565b5b81811015620007d157620007c560008262000792565b600181019050620007af565b5050565b601f8211156200082057620007ea816200069e565b620007f584620006b3565b8101602085101562000805578190505b6200081d6200081485620006b3565b830182620007ae565b50505b505050565b600082821c905092915050565b6000620008456000198460080262000825565b1980831691505092915050565b600062000860838362000832565b9150826002028217905092915050565b6200087b826200062f565b67ffffffffffffffff811115620008975762000896620002d8565b5b620008a3825462000669565b620008b0828285620007d5565b600060209050601f831160018114620008e85760008415620008d3578287015190505b620008df858262000852565b8655506200094f565b601f198416620008f8866200069e565b60005b828110156200092257848901518255600182019150602085019450602081019050620008fb565b868310156200094257848901516200093e601f89168262000832565b8355505b6001600288020188555050505b505050505050565b7f4e487b7100000000000000000000000000000000000000000000000000000000600052601160045260246000fd5b60006200099382620004df565b9150620009a083620004df565b9250828201905080821115620009bb57620009ba62000957565b5b92915050565b620009cc81620004df565b82525050565b6000602082019050620009e96000830184620009c1565b92915050565b61167f80620009ff6000396000f3fe608060405234801561001057600080fd5b50600436106101255760003560e01c806379cc6790116100ad578063a9059cbb11610071578063a9059cbb14610311578063dd62ed3e14610341578063f0dda65c14610371578063f2fde38b1461038d578063fcec35a9146103a957610126565b806379cc67901461026b5780638da5cb5b146102875780638f32d59b146102a557806395d89b41146102c3578063a457c2d7146102e157610126565b8063313ce567116100f4578063313ce567146101c757806339509351146101e557806342966c681461021557806370a0823114610231578063715018a61461026157610126565b806306fdde031461012b578063095ea7b31461014957806318160ddd1461017957806323b872dd1461019757610126565b5b600080fd5b6101336103c7565b6040516101409190611209565b60405180910390f35b610163600480360381019061015e91906112c4565b610459565b604051610170919061131f565b60405180910390f35b610181610470565b60405161018e9190611349565b60405180910390f35b6101b160048036038101906101ac9190611364565b61047a565b6040516101be919061131f565b60405180910390f35b6101cf610524565b6040516101dc91906113d3565b60405180910390f35b6101ff60048036038101906101fa91906112c4565b61053b565b60405161020c919061131f565b60405180910390f35b61022f600480360381019061022a91906113ee565b6105d9565b005b61024b6004803603810190610246919061141b565b6105e6565b6040516102589190611349565b60405180910390f35b61026961062e565b005b610285600480360381019061028091906112c4565b610736565b005b61028f610744565b60405161029c9190611457565b60405180910390f35b6102ad61076e565b6040516102ba919061131f565b60405180910390f35b6102cb6107c6565b6040516102d89190611209565b60405180910390f35b6102fb60048036038101906102f691906112c4565b610858565b604051610308919061131f565b60405180910390f35b61032b600480360381019061032691906112c4565b6108f6565b604051610338919061131f565b60405180910390f35b61035b60048036038101906103569190611472565b61090d565b6040516103689190611349565b60405180910390f35b61038b600480360381019061038691906112c4565b610994565b005b6103a760048036038101906103a2919061141b565b6109e9565b005b6103b1610a3c565b6040516103be91906114cb565b60405180910390f35b6060600380546103d690611515565b80601f016020809104026020016040519081016040528092919081815260200182805461040290611515565b801561044f5780601f106104245761010080835404028352916020019161044f565b820191906000526020600020905b81548152906001019060200180831161043257829003601f168201915b5050505050905090565b6000610466338484610a42565b6001905092915050565b6000600254905090565b6000610487848484610b9f565b610519843384600160008973ffffffffffffffffffffffffffffffffffffffff1673ffffffffffffffffffffffffffffffffffffffff16815260200190815260200160002060003373ffffffffffffffffffffffffffffffffffffffff1673ffffffffffffffffffffffffffffffffffffffff168152602001908152602001600020546105149190611575565b610a42565b600190509392505050565b6000600560009054906101000a900460ff16905090565b60006105cf338484600160003373ffffffffffffffffffffffffffffffffffffffff1673ffffffffffffffffffffffffffffffffffffffff16815260200190815260200160002060008873ffffffffffffffffffffffffffffffffffffffff1673ffffffffffffffffffffffffffffffffffffffff168152602001908152602001600020546105ca91906115a9565b610a42565b6001905092915050565b6105e33382610d5a565b50565b60008060008373ffffffffffffffffffffffffffffffffffffffff1673ffffffffffffffffffffffffffffffffffffffff168152602001908152602001600020549050919050565b61063661076e565b610675576040517f08c379a000000000000000000000000000000000000000000000000000000000815260040161066c90611629565b60405180910390fd5b600073ffffffffffffffffffffffffffffffffffffffff16600560019054906101000a900473ffffffffffffffffffffffffffffffffffffffff1673ffffffffffffffffffffffffffffffffffffffff167f8be0079c531659141344cd1fd0a4f28419497f9722a3daafe3b4186f6b6457e060405160405180910390a36000600560016101000a81548173ffffffffffffffffffffffffffffffffffffffff021916908373ffffffffffffffffffffffffffffffffffffffff160217905550565b6107408282610e9d565b5050565b6000600560019054906101000a900473ffffffffffffffffffffffffffffffffffffffff16905090565b6000600560019054906101000a900473ffffffffffffffffffffffffffffffffffffffff1673ffffffffffffffffffffffffffffffffffffffff163373ffffffffffffffffffffffffffffffffffffffff1614905090565b6060600480546107d590611515565b80601f016020809104026020016040519081016040528092919081815260200182805461080190611515565b801561084e5780601f106108235761010080835404028352916020019161084e565b820191906000526020600020905b81548152906001019060200180831161083157829003601f168201915b5050505050905090565b60006108ec338484600160003373ffffffffffffffffffffffffffffffffffffffff1673ffffffffffffffffffffffffffffffffffffffff16815260200190815260200160002060008873ffffffffffffffffffffffffffffffffffffffff1673ffffffffffffffffffffffffffffffffffffffff168152602001908152602001600020546108e79190611575565b610a42565b6001905092915050565b6000610903338484610b9f565b6001905092915050565b6000600160008473ffffffffffffffffffffffffffffffffffffffff1673ffffffffffffffffffffffffffffffffffffffff16815260200190815260200160002060008373ffffffffffffffffffffffffffffffffffffffff1673ffffffffffffffffffffffffffffffffffffffff16815260200190815260200160002054905092915050565b61099c61076e565b6109db576040517f08c379a00000000000000000000000000000000000000000000000000000000081526004016109d290611629565b60405180910390fd5b6109e58282610f3d565b5050565b6109f161076e565b610a30576040517f08c379a0000000000000000000000000000000000000000000000000000000008152600401610a2790611629565b60405180910390fd5b610a3981611080565b50565b60065481565b600073ffffffffffffffffffffffffffffffffffffffff168273ffffffffffffffffffffffffffffffffffffffff1603610a7b57600080fd5b600073ffffffffffffffffffffffffffffffffffffffff168373ffffffffffffffffffffffffffffffffffffffff1603610ab457600080fd5b80600160008573ffffffffffffffffffffffffffffffffffffffff1673ffffffffffffffffffffffffffffffffffffffff16815260200190815260200160002060008473ffffffffffffffffffffffffffffffffffffffff1673ffffffffffffffffffffffffffffffffffffffff168152602001908152602001600020819055508173ffffffffffffffffffffffffffffffffffffffff168373ffffffffffffffffffffffffffffffffffffffff167f8c5be1e5ebec7d5bd14f71427d1e84f3dd0314c0f7b2291e5b200ac8c7c3b92583604051610b929190611349565b60405180910390a3505050565b600073ffffffffffffffffffffffffffffffffffffffff168273ffffffffffffffffffffffffffffffffffffffff1603610bd857600080fd5b806000808573ffffffffffffffffffffffffffffffffffffffff1673ffffffffffffffffffffffffffffffffffffffff16815260200190815260200160002054610c229190611575565b6000808573ffffffffffffffffffffffffffffffffffffffff1673ffffffffffffffffffffffffffffffffffffffff16815260200190815260200160002081905550806000808473ffffffffffffffffffffffffffffffffffffffff1673ffffffffffffffffffffffffffffffffffffffff16815260200190815260200160002054610cae91906115a9565b6000808473ffffffffffffffffffffffffffffffffffffffff1673ffffffffffffffffffffffffffffffffffffffff168152602001908152602001600020819055508173ffffffffffffffffffffffffffffffffffffffff168373ffffffffffffffffffffffffffffffffffffffff167fddf252ad1be2c89b69c2b068fc378daa952ba7f163c4a11628f55a4df523b3ef83604051610d4d9190611349565b60405180910390a3505050565b600073ffffffffffffffffffffffffffffffffffffffff168273ffffffffffffffffffffffffffffffffffffffff1603610d9357600080fd5b80600254610da19190611575565b600281905550806000808473ffffffffffffffffffffffffffffffffffffffff1673ffffffffffffffffffffffffffffffffffffffff16815260200190815260200160002054610df19190611575565b6000808473ffffffffffffffffffffffffffffffffffffffff1673ffffffffffffffffffffffffffffffffffffffff16815260200190815260200160002081905550600073ffffffffffffffffffffffffffffffffffffffff168273ffffffffffffffffffffffffffffffffffffffff167fddf252ad1be2c89b69c2b068fc378daa952ba7f163c4a11628f55a4df523b3ef83604051610e919190611349565b60405180910390a35050565b610ea78282610d5a565b610f39823383600160008773ffffffffffffffffffffffffffffffffffffffff1673ffffffffffffffffffffffffffffffffffffffff16815260200190815260200160002060003373ffffffffffffffffffffffffffffffffffffffff1673ffffffffffffffffffffffffffffffffffffffff16815260200190815260200160002054610f349190611575565b610a42565b5050565b600073ffffffffffffffffffffffffffffffffffffffff168273ffffffffffffffffffffffffffffffffffffffff1603610f7657600080fd5b80600254610f8491906115a9565b600281905550806000808473ffffffffffffffffffffffffffffffffffffffff1673ffffffffffffffffffffffffffffffffffffffff16815260200190815260200160002054610fd491906115a9565b6000808473ffffffffffffffffffffffffffffffffffffffff1673ffffffffffffffffffffffffffffffffffffffff168152602001908152602001600020819055508173ffffffffffffffffffffffffffffffffffffffff16600073ffffffffffffffffffffffffffffffffffffffff167fddf252ad1be2c89b69c2b068fc378daa952ba7f163c4a11628f55a4df523b3ef836040516110749190611349565b60405180910390a35050565b600073ffffffffffffffffffffffffffffffffffffffff168173ffffffffffffffffffffffffffffffffffffffff16036110b957600080fd5b8073ffffffffffffffffffffffffffffffffffffffff16600560019054906101000a900473ffffffffffffffffffffffffffffffffffffffff1673ffffffffffffffffffffffffffffffffffffffff167f8be0079c531659141344cd1fd0a4f28419497f9722a3daafe3b4186f6b6457e060405160405180910390a380600560016101000a81548173ffffffffffffffffffffffffffffffffffffffff021916908373ffffffffffffffffffffffffffffffffffffffff16021790555050565b600081519050919050565b600082825260208201905092915050565b60005b838110156111b3578082015181840152602081019050611198565b60008484015250505050565b6000601f19601f8301169050919050565b60006111db82611179565b6111e58185611184565b93506111f5818560208601611195565b6111fe816111bf565b840191505092915050565b6000602082019050818103600083015261122381846111d0565b905092915050565b600080fd5b600073ffffffffffffffffffffffffffffffffffffffff82169050919050565b600061125b82611230565b9050919050565b61126b81611250565b811461127657600080fd5b50565b60008135905061128881611262565b92915050565b6000819050919050565b6112a18161128e565b81146112ac57600080fd5b50565b6000813590506112be81611298565b92915050565b600080604083850312156112db576112da61122b565b5b60006112e985828601611279565b92505060206112fa858286016112af565b9150509250929050565b60008115159050919050565b61131981611304565b82525050565b60006020820190506113346000830184611310565b92915050565b6113438161128e565b82525050565b600060208201905061135e600083018461133a565b92915050565b60008060006060848603121561137d5761137c61122b565b5b600061138b86828701611279565b935050602061139c86828701611279565b92505060406113ad868287016112af565b9150509250925092565b600060ff82169050919050565b6113cd816113b7565b82525050565b60006020820190506113e860008301846113c4565b92915050565b6000602082840312156114045761140361122b565b5b6000611412848285016112af565b91505092915050565b6000602082840312156114315761143061122b565b5b600061143f84828501611279565b91505092915050565b61145181611250565b82525050565b600060208201905061146c6000830184611448565b92915050565b600080604083850312156114895761148861122b565b5b600061149785828601611279565b92505060206114a885828601611279565b9150509250929050565b6000819050919050565b6114c5816114b2565b82525050565b60006020820190506114e060008301846114bc565b92915050565b7f4e487b7100000000000000000000000000000000000000000000000000000000600052602260045260246000fd5b6000600282049050600182168061152d57607f821691505b6020821081036115405761153f6114e6565b5b50919050565b7f4e487b7100000000000000000000000000000000000000000000000000000000600052601160045260246000fd5b60006115808261128e565b915061158b8361128e565b92508282039050818111156115a3576115a2611546565b5b92915050565b60006115b48261128e565b91506115bf8361128e565b92508282019050808211156115d7576115d6611546565b5b92915050565b7f4e6f74206f776e65720000000000000000000000000000000000000000000000600082015250565b6000611613600983611184565b915061161e826115dd565b602082019050919050565b6000602082019050818103600083015261164281611606565b905091905056fea2646970667358221220d2c0cac748e9f7b0941d2a87078ef8d3af4c195173308cd86bcac20f8bd6060764736f6c63430008110033",
					"opcodes": "PUSH1 0x80 PUSH1 0x40 MSTORE CALLVALUE DUP1 ISZERO PUSH3 0x11 JUMPI PUSH1 0x0 DUP1 REVERT JUMPDEST POP PUSH1 0x40 MLOAD PUSH3 0x207E CODESIZE SUB DUP1 PUSH3 0x207E DUP4 CODECOPY DUP2 DUP2 ADD PUSH1 0x40 MSTORE DUP2 ADD SWAP1 PUSH3 0x37 SWAP2 SWAP1 PUSH3 0x555 JUMP JUMPDEST DUP6 DUP6 DUP6 DUP3 PUSH1 0x3 SWAP1 DUP2 PUSH3 0x4B SWAP2 SWAP1 PUSH3 0x870 JUMP JUMPDEST POP DUP2 PUSH1 0x4 SWAP1 DUP2 PUSH3 0x5D SWAP2 SWAP1 PUSH3 0x870 JUMP JUMPDEST POP DUP1 PUSH1 0x5 PUSH1 0x0 PUSH2 0x100 EXP DUP2 SLOAD DUP2 PUSH1 0xFF MUL NOT AND SWAP1 DUP4 PUSH1 0xFF AND MUL OR SWAP1 SSTORE POP POP POP POP CALLER PUSH1 0x5 PUSH1 0x1 PUSH2 0x100 EXP DUP2 SLOAD DUP2 PUSH20 0xFFFFFFFFFFFFFFFFFFFFFFFFFFFFFFFFFFFFFFFF MUL NOT AND SWAP1 DUP4 PUSH20 0xFFFFFFFFFFFFFFFFFFFFFFFFFFFFFFFFFFFFFFFF AND MUL OR SWAP1 SSTORE POP PUSH1 0x5 PUSH1 0x1 SWAP1 SLOAD SWAP1 PUSH2 0x100 EXP SWAP1 DIV PUSH20 0xFFFFFFFFFFFFFFFFFFFFFFFFFFFFFFFFFFFFFFFF AND PUSH20 0xFFFFFFFFFFFFFFFFFFFFFFFFFFFFFFFFFFFFFFFF AND PUSH1 0x0 PUSH20 0xFFFFFFFFFFFFFFFFFFFFFFFFFFFFFFFFFFFFFFFF AND PUSH32 0x8BE0079C531659141344CD1FD0A4F28419497F9722A3DAAFE3B4186F6B6457E0 PUSH1 0x40 MLOAD PUSH1 0x40 MLOAD DUP1 SWAP2 SUB SWAP1 LOG3 DUP1 PUSH1 0x6 DUP2 SWAP1 SSTORE POP PUSH3 0x153 DUP4 DUP4 PUSH3 0x15F PUSH1 0x20 SHL PUSH1 0x20 SHR JUMP JUMPDEST POP POP POP POP POP POP PUSH3 0x9EF JUMP JUMPDEST PUSH1 0x0 PUSH20 0xFFFFFFFFFFFFFFFFFFFFFFFFFFFFFFFFFFFFFFFF AND DUP3 PUSH20 0xFFFFFFFFFFFFFFFFFFFFFFFFFFFFFFFFFFFFFFFF AND SUB PUSH3 0x199 JUMPI PUSH1 0x0 DUP1 REVERT JUMPDEST DUP1 PUSH1 0x2 SLOAD PUSH3 0x1A9 SWAP2 SWAP1 PUSH3 0x986 JUMP JUMPDEST PUSH1 0x2 DUP2 SWAP1 SSTORE POP DUP1 PUSH1 0x0 DUP1 DUP5 PUSH20 0xFFFFFFFFFFFFFFFFFFFFFFFFFFFFFFFFFFFFFFFF AND PUSH20 0xFFFFFFFFFFFFFFFFFFFFFFFFFFFFFFFFFFFFFFFF AND DUP2 MSTORE PUSH1 0x20 ADD SWAP1 DUP2 MSTORE PUSH1 0x20 ADD PUSH1 0x0 KECCAK256 SLOAD PUSH3 0x1FB SWAP2 SWAP1 PUSH3 0x986 JUMP JUMPDEST PUSH1 0x0 DUP1 DUP5 PUSH20 0xFFFFFFFFFFFFFFFFFFFFFFFFFFFFFFFFFFFFFFFF AND PUSH20 0xFFFFFFFFFFFFFFFFFFFFFFFFFFFFFFFFFFFFFFFF AND DUP2 MSTORE PUSH1 0x20 ADD SWAP1 DUP2 MSTORE PUSH1 0x20 ADD PUSH1 0x0 KECCAK256 DUP2 SWAP1 SSTORE POP DUP2 PUSH20 0xFFFFFFFFFFFFFFFFFFFFFFFFFFFFFFFFFFFFFFFF AND PUSH1 0x0 PUSH20 0xFFFFFFFFFFFFFFFFFFFFFFFFFFFFFFFFFFFFFFFF AND PUSH32 0xDDF252AD1BE2C89B69C2B068FC378DAA952BA7F163C4A11628F55A4DF523B3EF DUP4 PUSH1 0x40 MLOAD PUSH3 0x29D SWAP2 SWAP1 PUSH3 0x9D2 JUMP JUMPDEST PUSH1 0x40 MLOAD DUP1 SWAP2 SUB SWAP1 LOG3 POP POP JUMP JUMPDEST PUSH1 0x0 PUSH1 0x40 MLOAD SWAP1 POP SWAP1 JUMP JUMPDEST PUSH1 0x0 DUP1 REVERT JUMPDEST PUSH1 0x0 DUP1 REVERT JUMPDEST PUSH1 0x0 DUP1 REVERT JUMPDEST PUSH1 0x0 DUP1 REVERT JUMPDEST PUSH1 0x0 PUSH1 0x1F NOT PUSH1 0x1F DUP4 ADD AND SWAP1 POP SWAP2 SWAP1 POP JUMP JUMPDEST PUSH32 0x4E487B7100000000000000000000000000000000000000000000000000000000 PUSH1 0x0 MSTORE PUSH1 0x41 PUSH1 0x4 MSTORE PUSH1 0x24 PUSH1 0x0 REVERT JUMPDEST PUSH3 0x312 DUP3 PUSH3 0x2C7 JUMP JUMPDEST DUP2 ADD DUP2 DUP2 LT PUSH8 0xFFFFFFFFFFFFFFFF DUP3 GT OR ISZERO PUSH3 0x334 JUMPI PUSH3 0x333 PUSH3 0x2D8 JUMP JUMPDEST JUMPDEST DUP1 PUSH1 0x40 MSTORE POP POP POP JUMP JUMPDEST PUSH1 0x0 PUSH3 0x349 PUSH3 0x2A9 JUMP JUMPDEST SWAP1 POP PUSH3 0x357 DUP3 DUP3 PUSH3 0x307 JUMP JUMPDEST SWAP2 SWAP1 POP JUMP JUMPDEST PUSH1 0x0 PUSH8 0xFFFFFFFFFFFFFFFF DUP3 GT ISZERO PUSH3 0x37A JUMPI PUSH3 0x379 PUSH3 0x2D8 JUMP JUMPDEST JUMPDEST PUSH3 0x385 DUP3 PUSH3 0x2C7 JUMP JUMPDEST SWAP1 POP PUSH1 0x20 DUP2 ADD SWAP1 POP SWAP2 SWAP1 POP JUMP JUMPDEST PUSH1 0x0 JUMPDEST DUP4 DUP2 LT ISZERO PUSH3 0x3B2 JUMPI DUP1 DUP3 ADD MLOAD DUP2 DUP5 ADD MSTORE PUSH1 0x20 DUP2 ADD SWAP1 POP PUSH3 0x395 JUMP JUMPDEST PUSH1 0x0 DUP5 DUP5 ADD MSTORE POP POP POP POP JUMP JUMPDEST PUSH1 0x0 PUSH3 0x3D5 PUSH3 0x3CF DUP5 PUSH3 0x35C JUMP JUMPDEST PUSH3 0x33D JUMP JUMPDEST SWAP1 POP DUP3 DUP2 MSTORE PUSH1 0x20 DUP2 ADD DUP5 DUP5 DUP5 ADD GT ISZERO PUSH3 0x3F4 JUMPI PUSH3 0x3F3 PUSH3 0x2C2 JUMP JUMPDEST JUMPDEST PUSH3 0x401 DUP5 DUP3 DUP6 PUSH3 0x392 JUMP JUMPDEST POP SWAP4 SWAP3 POP POP POP JUMP JUMPDEST PUSH1 0x0 DUP3 PUSH1 0x1F DUP4 ADD SLT PUSH3 0x421 JUMPI PUSH3 0x420 PUSH3 0x2BD JUMP JUMPDEST JUMPDEST DUP2 MLOAD PUSH3 0x433 DUP5 DUP3 PUSH1 0x20 DUP7 ADD PUSH3 0x3BE JUMP JUMPDEST SWAP2 POP POP SWAP3 SWAP2 POP POP JUMP JUMPDEST PUSH1 0x0 PUSH1 0xFF DUP3 AND SWAP1 POP SWAP2 SWAP1 POP JUMP JUMPDEST PUSH3 0x454 DUP2 PUSH3 0x43C JUMP JUMPDEST DUP2 EQ PUSH3 0x460 JUMPI PUSH1 0x0 DUP1 REVERT JUMPDEST POP JUMP JUMPDEST PUSH1 0x0 DUP2 MLOAD SWAP1 POP PUSH3 0x474 DUP2 PUSH3 0x449 JUMP JUMPDEST SWAP3 SWAP2 POP POP JUMP JUMPDEST PUSH1 0x0 PUSH20 0xFFFFFFFFFFFFFFFFFFFFFFFFFFFFFFFFFFFFFFFF DUP3 AND SWAP1 POP SWAP2 SWAP1 POP JUMP JUMPDEST PUSH1 0x0 PUSH3 0x4A7 DUP3 PUSH3 0x47A JUMP JUMPDEST SWAP1 POP SWAP2 SWAP1 POP JUMP JUMPDEST PUSH3 0x4B9 DUP2 PUSH3 0x49A JUMP JUMPDEST DUP2 EQ PUSH3 0x4C5 JUMPI PUSH1 0x0 DUP1 REVERT JUMPDEST POP JUMP JUMPDEST PUSH1 0x0 DUP2 MLOAD SWAP1 POP PUSH3 0x4D9 DUP2 PUSH3 0x4AE JUMP JUMPDEST SWAP3 SWAP2 POP POP JUMP JUMPDEST PUSH1 0x0 DUP2 SWAP1 POP SWAP2 SWAP1 POP JUMP JUMPDEST PUSH3 0x4F4 DUP2 PUSH3 0x4DF JUMP JUMPDEST DUP2 EQ PUSH3 0x500 JUMPI PUSH1 0x0 DUP1 REVERT JUMPDEST POP JUMP JUMPDEST PUSH1 0x0 DUP2 MLOAD SWAP1 POP PUSH3 0x514 DUP2 PUSH3 0x4E9 JUMP JUMPDEST SWAP3 SWAP2 POP POP JUMP JUMPDEST PUSH1 0x0 DUP2 SWAP1 POP SWAP2 SWAP1 POP JUMP JUMPDEST PUSH3 0x52F DUP2 PUSH3 0x51A JUMP JUMPDEST DUP2 EQ PUSH3 0x53B JUMPI PUSH1 0x0 DUP1 REVERT JUMPDEST POP JUMP JUMPDEST PUSH1 0x0 DUP2 MLOAD SWAP1 POP PUSH3 0x54F DUP2 PUSH3 0x524 JUMP JUMPDEST SWAP3 SWAP2 POP POP JUMP JUMPDEST PUSH1 0x0 DUP1 PUSH1 0x0 DUP1 PUSH1 0x0 DUP1 PUSH1 0xC0 DUP8 DUP10 SUB SLT ISZERO PUSH3 0x575 JUMPI PUSH3 0x574 PUSH3 0x2B3 JUMP JUMPDEST JUMPDEST PUSH1 0x0 DUP8 ADD MLOAD PUSH8 0xFFFFFFFFFFFFFFFF DUP2 GT ISZERO PUSH3 0x596 JUMPI PUSH3 0x595 PUSH3 0x2B8 JUMP JUMPDEST JUMPDEST PUSH3 0x5A4 DUP10 DUP3 DUP11 ADD PUSH3 0x409 JUMP JUMPDEST SWAP7 POP POP PUSH1 0x20 DUP8 ADD MLOAD PUSH8 0xFFFFFFFFFFFFFFFF DUP2 GT ISZERO PUSH3 0x5C8 JUMPI PUSH3 0x5C7 PUSH3 0x2B8 JUMP JUMPDEST JUMPDEST PUSH3 0x5D6 DUP10 DUP3 DUP11 ADD PUSH3 0x409 JUMP JUMPDEST SWAP6 POP POP PUSH1 0x40 PUSH3 0x5E9 DUP10 DUP3 DUP11 ADD PUSH3 0x463 JUMP JUMPDEST SWAP5 POP POP PUSH1 0x60 PUSH3 0x5FC DUP10 DUP3 DUP11 ADD PUSH3 0x4C8 JUMP JUMPDEST SWAP4 POP POP PUSH1 0x80 PUSH3 0x60F DUP10 DUP3 DUP11 ADD PUSH3 0x503 JUMP JUMPDEST SWAP3 POP POP PUSH1 0xA0 PUSH3 0x622 DUP10 DUP3 DUP11 ADD PUSH3 0x53E JUMP JUMPDEST SWAP2 POP POP SWAP3 SWAP6 POP SWAP3 SWAP6 POP SWAP3 SWAP6 JUMP JUMPDEST PUSH1 0x0 DUP2 MLOAD SWAP1 POP SWAP2 SWAP1 POP JUMP JUMPDEST PUSH32 0x4E487B7100000000000000000000000000000000000000000000000000000000 PUSH1 0x0 MSTORE PUSH1 0x22 PUSH1 0x4 MSTORE PUSH1 0x24 PUSH1 0x0 REVERT JUMPDEST PUSH1 0x0 PUSH1 0x2 DUP3 DIV SWAP1 POP PUSH1 0x1 DUP3 AND DUP1 PUSH3 0x682 JUMPI PUSH1 0x7F DUP3 AND SWAP2 POP JUMPDEST PUSH1 0x20 DUP3 LT DUP2 SUB PUSH3 0x698 JUMPI PUSH3 0x697 PUSH3 0x63A JUMP JUMPDEST JUMPDEST POP SWAP2 SWAP1 POP JUMP JUMPDEST PUSH1 0x0 DUP2 SWAP1 POP DUP2 PUSH1 0x0 MSTORE PUSH1 0x20 PUSH1 0x0 KECCAK256 SWAP1 POP SWAP2 SWAP1 POP JUMP JUMPDEST PUSH1 0x0 PUSH1 0x20 PUSH1 0x1F DUP4 ADD DIV SWAP1 POP SWAP2 SWAP1 POP JUMP JUMPDEST PUSH1 0x0 DUP3 DUP3 SHL SWAP1 POP SWAP3 SWAP2 POP POP JUMP JUMPDEST PUSH1 0x0 PUSH1 0x8 DUP4 MUL PUSH3 0x702 PUSH32 0xFFFFFFFFFFFFFFFFFFFFFFFFFFFFFFFFFFFFFFFFFFFFFFFFFFFFFFFFFFFFFFFF DUP3 PUSH3 0x6C3 JUMP JUMPDEST PUSH3 0x70E DUP7 DUP4 PUSH3 0x6C3 JUMP JUMPDEST SWAP6 POP DUP1 NOT DUP5 AND SWAP4 POP DUP1 DUP7 AND DUP5 OR SWAP3 POP POP POP SWAP4 SWAP3 POP POP POP JUMP JUMPDEST PUSH1 0x0 DUP2 SWAP1 POP SWAP2 SWAP1 POP JUMP JUMPDEST PUSH1 0x0 PUSH3 0x751 PUSH3 0x74B PUSH3 0x745 DUP5 PUSH3 0x4DF JUMP JUMPDEST PUSH3 0x726 JUMP JUMPDEST PUSH3 0x4DF JUMP JUMPDEST SWAP1 POP SWAP2 SWAP1 POP JUMP JUMPDEST PUSH1 0x0 DUP2 SWAP1 POP SWAP2 SWAP1 POP JUMP JUMPDEST PUSH3 0x76D DUP4 PUSH3 0x730 JUMP JUMPDEST PUSH3 0x785 PUSH3 0x77C DUP3 PUSH3 0x758 JUMP JUMPDEST DUP5 DUP5 SLOAD PUSH3 0x6D0 JUMP JUMPDEST DUP3 SSTORE POP POP POP POP JUMP JUMPDEST PUSH1 0x0 SWAP1 JUMP JUMPDEST PUSH3 0x79C PUSH3 0x78D JUMP JUMPDEST PUSH3 0x7A9 DUP2 DUP5 DUP5 PUSH3 0x762 JUMP JUMPDEST POP POP POP JUMP JUMPDEST JUMPDEST DUP2 DUP2 LT ISZERO PUSH3 0x7D1 JUMPI PUSH3 0x7C5 PUSH1 0x0 DUP3 PUSH3 0x792 JUMP JUMPDEST PUSH1 0x1 DUP2 ADD SWAP1 POP PUSH3 0x7AF JUMP JUMPDEST POP POP JUMP JUMPDEST PUSH1 0x1F DUP3 GT ISZERO PUSH3 0x820 JUMPI PUSH3 0x7EA DUP2 PUSH3 0x69E JUMP JUMPDEST PUSH3 0x7F5 DUP5 PUSH3 0x6B3 JUMP JUMPDEST DUP2 ADD PUSH1 0x20 DUP6 LT ISZERO PUSH3 0x805 JUMPI DUP2 SWAP1 POP JUMPDEST PUSH3 0x81D PUSH3 0x814 DUP6 PUSH3 0x6B3 JUMP JUMPDEST DUP4 ADD DUP3 PUSH3 0x7AE JUMP JUMPDEST POP POP JUMPDEST POP POP POP JUMP JUMPDEST PUSH1 0x0 DUP3 DUP3 SHR SWAP1 POP SWAP3 SWAP2 POP POP JUMP JUMPDEST PUSH1 0x0 PUSH3 0x845 PUSH1 0x0 NOT DUP5 PUSH1 0x8 MUL PUSH3 0x825 JUMP JUMPDEST NOT DUP1 DUP4 AND SWAP2 POP POP SWAP3 SWAP2 POP POP JUMP JUMPDEST PUSH1 0x0 PUSH3 0x860 DUP4 DUP4 PUSH3 0x832 JUMP JUMPDEST SWAP2 POP DUP3 PUSH1 0x2 MUL DUP3 OR SWAP1 POP SWAP3 SWAP2 POP POP JUMP JUMPDEST PUSH3 0x87B DUP3 PUSH3 0x62F JUMP JUMPDEST PUSH8 0xFFFFFFFFFFFFFFFF DUP2 GT ISZERO PUSH3 0x897 JUMPI PUSH3 0x896 PUSH3 0x2D8 JUMP JUMPDEST JUMPDEST PUSH3 0x8A3 DUP3 SLOAD PUSH3 0x669 JUMP JUMPDEST PUSH3 0x8B0 DUP3 DUP3 DUP6 PUSH3 0x7D5 JUMP JUMPDEST PUSH1 0x0 PUSH1 0x20 SWAP1 POP PUSH1 0x1F DUP4 GT PUSH1 0x1 DUP2 EQ PUSH3 0x8E8 JUMPI PUSH1 0x0 DUP5 ISZERO PUSH3 0x8D3 JUMPI DUP3 DUP8 ADD MLOAD SWAP1 POP JUMPDEST PUSH3 0x8DF DUP6 DUP3 PUSH3 0x852 JUMP JUMPDEST DUP7 SSTORE POP PUSH3 0x94F JUMP JUMPDEST PUSH1 0x1F NOT DUP5 AND PUSH3 0x8F8 DUP7 PUSH3 0x69E JUMP JUMPDEST PUSH1 0x0 JUMPDEST DUP3 DUP2 LT ISZERO PUSH3 0x922 JUMPI DUP5 DUP10 ADD MLOAD DUP3 SSTORE PUSH1 0x1 DUP3 ADD SWAP2 POP PUSH1 0x20 DUP6 ADD SWAP5 POP PUSH1 0x20 DUP2 ADD SWAP1 POP PUSH3 0x8FB JUMP JUMPDEST DUP7 DUP4 LT ISZERO PUSH3 0x942 JUMPI DUP5 DUP10 ADD MLOAD PUSH3 0x93E PUSH1 0x1F DUP10 AND DUP3 PUSH3 0x832 JUMP JUMPDEST DUP4 SSTORE POP JUMPDEST PUSH1 0x1 PUSH1 0x2 DUP9 MUL ADD DUP9 SSTORE POP POP POP JUMPDEST POP POP POP POP POP POP JUMP JUMPDEST PUSH32 0x4E487B7100000000000000000000000000000000000000000000000000000000 PUSH1 0x0 MSTORE PUSH1 0x11 PUSH1 0x4 MSTORE PUSH1 0x24 PUSH1 0x0 REVERT JUMPDEST PUSH1 0x0 PUSH3 0x993 DUP3 PUSH3 0x4DF JUMP JUMPDEST SWAP2 POP PUSH3 0x9A0 DUP4 PUSH3 0x4DF JUMP JUMPDEST SWAP3 POP DUP3 DUP3 ADD SWAP1 POP DUP1 DUP3 GT ISZERO PUSH3 0x9BB JUMPI PUSH3 0x9BA PUSH3 0x957 JUMP JUMPDEST JUMPDEST SWAP3 SWAP2 POP POP JUMP JUMPDEST PUSH3 0x9CC DUP2 PUSH3 0x4DF JUMP JUMPDEST DUP3 MSTORE POP POP JUMP JUMPDEST PUSH1 0x0 PUSH1 0x20 DUP3 ADD SWAP1 POP PUSH3 0x9E9 PUSH1 0x0 DUP4 ADD DUP5 PUSH3 0x9C1 JUMP JUMPDEST SWAP3 SWAP2 POP POP JUMP JUMPDEST PUSH2 0x167F DUP1 PUSH3 0x9FF PUSH1 0x0 CODECOPY PUSH1 0x0 RETURN INVALID PUSH1 0x80 PUSH1 0x40 MSTORE CALLVALUE DUP1 ISZERO PUSH2 0x10 JUMPI PUSH1 0x0 DUP1 REVERT JUMPDEST POP PUSH1 0x4 CALLDATASIZE LT PUSH2 0x125 JUMPI PUSH1 0x0 CALLDATALOAD PUSH1 0xE0 SHR DUP1 PUSH4 0x79CC6790 GT PUSH2 0xAD JUMPI DUP1 PUSH4 0xA9059CBB GT PUSH2 0x71 JUMPI DUP1 PUSH4 0xA9059CBB EQ PUSH2 0x311 JUMPI DUP1 PUSH4 0xDD62ED3E EQ PUSH2 0x341 JUMPI DUP1 PUSH4 0xF0DDA65C EQ PUSH2 0x371 JUMPI DUP1 PUSH4 0xF2FDE38B EQ PUSH2 0x38D JUMPI DUP1 PUSH4 0xFCEC35A9 EQ PUSH2 0x3A9 JUMPI PUSH2 0x126 JUMP JUMPDEST DUP1 PUSH4 0x79CC6790 EQ PUSH2 0x26B JUMPI DUP1 PUSH4 0x8DA5CB5B EQ PUSH2 0x287 JUMPI DUP1 PUSH4 0x8F32D59B EQ PUSH2 0x2A5 JUMPI DUP1 PUSH4 0x95D89B41 EQ PUSH2 0x2C3 JUMPI DUP1 PUSH4 0xA457C2D7 EQ PUSH2 0x2E1 JUMPI PUSH2 0x126 JUMP JUMPDEST DUP1 PUSH4 0x313CE567 GT PUSH2 0xF4 JUMPI DUP1 PUSH4 0x313CE567 EQ PUSH2 0x1C7 JUMPI DUP1 PUSH4 0x39509351 EQ PUSH2 0x1E5 JUMPI DUP1 PUSH4 0x42966C68 EQ PUSH2 0x215 JUMPI DUP1 PUSH4 0x70A08231 EQ PUSH2 0x231 JUMPI DUP1 PUSH4 0x715018A6 EQ PUSH2 0x261 JUMPI PUSH2 0x126 JUMP JUMPDEST DUP1 PUSH4 0x6FDDE03 EQ PUSH2 0x12B JUMPI DUP1 PUSH4 0x95EA7B3 EQ PUSH2 0x149 JUMPI DUP1 PUSH4 0x18160DDD EQ PUSH2 0x179 JUMPI DUP1 PUSH4 0x23B872DD EQ PUSH2 0x197 JUMPI PUSH2 0x126 JUMP JUMPDEST JUMPDEST PUSH1 0x0 DUP1 REVERT JUMPDEST PUSH2 0x133 PUSH2 0x3C7 JUMP JUMPDEST PUSH1 0x40 MLOAD PUSH2 0x140 SWAP2 SWAP1 PUSH2 0x1209 JUMP JUMPDEST PUSH1 0x40 MLOAD DUP1 SWAP2 SUB SWAP1 RETURN JUMPDEST PUSH2 0x163 PUSH1 0x4 DUP1 CALLDATASIZE SUB DUP2 ADD SWAP1 PUSH2 0x15E SWAP2 SWAP1 PUSH2 0x12C4 JUMP JUMPDEST PUSH2 0x459 JUMP JUMPDEST PUSH1 0x40 MLOAD PUSH2 0x170 SWAP2 SWAP1 PUSH2 0x131F JUMP JUMPDEST PUSH1 0x40 MLOAD DUP1 SWAP2 SUB SWAP1 RETURN JUMPDEST PUSH2 0x181 PUSH2 0x470 JUMP JUMPDEST PUSH1 0x40 MLOAD PUSH2 0x18E SWAP2 SWAP1 PUSH2 0x1349 JUMP JUMPDEST PUSH1 0x40 MLOAD DUP1 SWAP2 SUB SWAP1 RETURN JUMPDEST PUSH2 0x1B1 PUSH1 0x4 DUP1 CALLDATASIZE SUB DUP2 ADD SWAP1 PUSH2 0x1AC SWAP2 SWAP1 PUSH2 0x1364 JUMP JUMPDEST PUSH2 0x47A JUMP JUMPDEST PUSH1 0x40 MLOAD PUSH2 0x1BE SWAP2 SWAP1 PUSH2 0x131F JUMP JUMPDEST PUSH1 0x40 MLOAD DUP1 SWAP2 SUB SWAP1 RETURN JUMPDEST PUSH2 0x1CF PUSH2 0x524 JUMP JUMPDEST PUSH1 0x40 MLOAD PUSH2 0x1DC SWAP2 SWAP1 PUSH2 0x13D3 JUMP JUMPDEST PUSH1 0x40 MLOAD DUP1 SWAP2 SUB SWAP1 RETURN JUMPDEST PUSH2 0x1FF PUSH1 0x4 DUP1 CALLDATASIZE SUB DUP2 ADD SWAP1 PUSH2 0x1FA SWAP2 SWAP1 PUSH2 0x12C4 JUMP JUMPDEST PUSH2 0x53B JUMP JUMPDEST PUSH1 0x40 MLOAD PUSH2 0x20C SWAP2 SWAP1 PUSH2 0x131F JUMP JUMPDEST PUSH1 0x40 MLOAD DUP1 SWAP2 SUB SWAP1 RETURN JUMPDEST PUSH2 0x22F PUSH1 0x4 DUP1 CALLDATASIZE SUB DUP2 ADD SWAP1 PUSH2 0x22A SWAP2 SWAP1 PUSH2 0x13EE JUMP JUMPDEST PUSH2 0x5D9 JUMP JUMPDEST STOP JUMPDEST PUSH2 0x24B PUSH1 0x4 DUP1 CALLDATASIZE SUB DUP2 ADD SWAP1 PUSH2 0x246 SWAP2 SWAP1 PUSH2 0x141B JUMP JUMPDEST PUSH2 0x5E6 JUMP JUMPDEST PUSH1 0x40 MLOAD PUSH2 0x258 SWAP2 SWAP1 PUSH2 0x1349 JUMP JUMPDEST PUSH1 0x40 MLOAD DUP1 SWAP2 SUB SWAP1 RETURN JUMPDEST PUSH2 0x269 PUSH2 0x62E JUMP JUMPDEST STOP JUMPDEST PUSH2 0x285 PUSH1 0x4 DUP1 CALLDATASIZE SUB DUP2 ADD SWAP1 PUSH2 0x280 SWAP2 SWAP1 PUSH2 0x12C4 JUMP JUMPDEST PUSH2 0x736 JUMP JUMPDEST STOP JUMPDEST PUSH2 0x28F PUSH2 0x744 JUMP JUMPDEST PUSH1 0x40 MLOAD PUSH2 0x29C SWAP2 SWAP1 PUSH2 0x1457 JUMP JUMPDEST PUSH1 0x40 MLOAD DUP1 SWAP2 SUB SWAP1 RETURN JUMPDEST PUSH2 0x2AD PUSH2 0x76E JUMP JUMPDEST PUSH1 0x40 MLOAD PUSH2 0x2BA SWAP2 SWAP1 PUSH2 0x131F JUMP JUMPDEST PUSH1 0x40 MLOAD DUP1 SWAP2 SUB SWAP1 RETURN JUMPDEST PUSH2 0x2CB PUSH2 0x7C6 JUMP JUMPDEST PUSH1 0x40 MLOAD PUSH2 0x2D8 SWAP2 SWAP1 PUSH2 0x1209 JUMP JUMPDEST PUSH1 0x40 MLOAD DUP1 SWAP2 SUB SWAP1 RETURN JUMPDEST PUSH2 0x2FB PUSH1 0x4 DUP1 CALLDATASIZE SUB DUP2 ADD SWAP1 PUSH2 0x2F6 SWAP2 SWAP1 PUSH2 0x12C4 JUMP JUMPDEST PUSH2 0x858 JUMP JUMPDEST PUSH1 0x40 MLOAD PUSH2 0x308 SWAP2 SWAP1 PUSH2 0x131F JUMP JUMPDEST PUSH1 0x40 MLOAD DUP1 SWAP2 SUB SWAP1 RETURN JUMPDEST PUSH2 0x32B PUSH1 0x4 DUP1 CALLDATASIZE SUB DUP2 ADD SWAP1 PUSH2 0x326 SWAP2 SWAP1 PUSH2 0x12C4 JUMP JUMPDEST PUSH2 0x8F6 JUMP JUMPDEST PUSH1 0x40 MLOAD PUSH2 0x338 SWAP2 SWAP1 PUSH2 0x131F JUMP JUMPDEST PUSH1 0x40 MLOAD DUP1 SWAP2 SUB SWAP1 RETURN JUMPDEST PUSH2 0x35B PUSH1 0x4 DUP1 CALLDATASIZE SUB DUP2 ADD SWAP1 PUSH2 0x356 SWAP2 SWAP1 PUSH2 0x1472 JUMP JUMPDEST PUSH2 0x90D JUMP JUMPDEST PUSH1 0x40 MLOAD PUSH2 0x368 SWAP2 SWAP1 PUSH2 0x1349 JUMP JUMPDEST PUSH1 0x40 MLOAD DUP1 SWAP2 SUB SWAP1 RETURN JUMPDEST PUSH2 0x38B PUSH1 0x4 DUP1 CALLDATASIZE SUB DUP2 ADD SWAP1 PUSH2 0x386 SWAP2 SWAP1 PUSH2 0x12C4 JUMP JUMPDEST PUSH2 0x994 JUMP JUMPDEST STOP JUMPDEST PUSH2 0x3A7 PUSH1 0x4 DUP1 CALLDATASIZE SUB DUP2 ADD SWAP1 PUSH2 0x3A2 SWAP2 SWAP1 PUSH2 0x141B JUMP JUMPDEST PUSH2 0x9E9 JUMP JUMPDEST STOP JUMPDEST PUSH2 0x3B1 PUSH2 0xA3C JUMP JUMPDEST PUSH1 0x40 MLOAD PUSH2 0x3BE SWAP2 SWAP1 PUSH2 0x14CB JUMP JUMPDEST PUSH1 0x40 MLOAD DUP1 SWAP2 SUB SWAP1 RETURN JUMPDEST PUSH1 0x60 PUSH1 0x3 DUP1 SLOAD PUSH2 0x3D6 SWAP1 PUSH2 0x1515 JUMP JUMPDEST DUP1 PUSH1 0x1F ADD PUSH1 0x20 DUP1 SWAP2 DIV MUL PUSH1 0x20 ADD PUSH1 0x40 MLOAD SWAP1 DUP2 ADD PUSH1 0x40 MSTORE DUP1 SWAP3 SWAP2 SWAP1 DUP2 DUP2 MSTORE PUSH1 0x20 ADD DUP3 DUP1 SLOAD PUSH2 0x402 SWAP1 PUSH2 0x1515 JUMP JUMPDEST DUP1 ISZERO PUSH2 0x44F JUMPI DUP1 PUSH1 0x1F LT PUSH2 0x424 JUMPI PUSH2 0x100 DUP1 DUP4 SLOAD DIV MUL DUP4 MSTORE SWAP2 PUSH1 0x20 ADD SWAP2 PUSH2 0x44F JUMP JUMPDEST DUP3 ADD SWAP2 SWAP1 PUSH1 0x0 MSTORE PUSH1 0x20 PUSH1 0x0 KECCAK256 SWAP1 JUMPDEST DUP2 SLOAD DUP2 MSTORE SWAP1 PUSH1 0x1 ADD SWAP1 PUSH1 0x20 ADD DUP1 DUP4 GT PUSH2 0x432 JUMPI DUP3 SWAP1 SUB PUSH1 0x1F AND DUP3 ADD SWAP2 JUMPDEST POP POP POP POP POP SWAP1 POP SWAP1 JUMP JUMPDEST PUSH1 0x0 PUSH2 0x466 CALLER DUP5 DUP5 PUSH2 0xA42 JUMP JUMPDEST PUSH1 0x1 SWAP1 POP SWAP3 SWAP2 POP POP JUMP JUMPDEST PUSH1 0x0 PUSH1 0x2 SLOAD SWAP1 POP SWAP1 JUMP JUMPDEST PUSH1 0x0 PUSH2 0x487 DUP5 DUP5 DUP5 PUSH2 0xB9F JUMP JUMPDEST PUSH2 0x519 DUP5 CALLER DUP5 PUSH1 0x1 PUSH1 0x0 DUP10 PUSH20 0xFFFFFFFFFFFFFFFFFFFFFFFFFFFFFFFFFFFFFFFF AND PUSH20 0xFFFFFFFFFFFFFFFFFFFFFFFFFFFFFFFFFFFFFFFF AND DUP2 MSTORE PUSH1 0x20 ADD SWAP1 DUP2 MSTORE PUSH1 0x20 ADD PUSH1 0x0 KECCAK256 PUSH1 0x0 CALLER PUSH20 0xFFFFFFFFFFFFFFFFFFFFFFFFFFFFFFFFFFFFFFFF AND PUSH20 0xFFFFFFFFFFFFFFFFFFFFFFFFFFFFFFFFFFFFFFFF AND DUP2 MSTORE PUSH1 0x20 ADD SWAP1 DUP2 MSTORE PUSH1 0x20 ADD PUSH1 0x0 KECCAK256 SLOAD PUSH2 0x514 SWAP2 SWAP1 PUSH2 0x1575 JUMP JUMPDEST PUSH2 0xA42 JUMP JUMPDEST PUSH1 0x1 SWAP1 POP SWAP4 SWAP3 POP POP POP JUMP JUMPDEST PUSH1 0x0 PUSH1 0x5 PUSH1 0x0 SWAP1 SLOAD SWAP1 PUSH2 0x100 EXP SWAP1 DIV PUSH1 0xFF AND SWAP1 POP SWAP1 JUMP JUMPDEST PUSH1 0x0 PUSH2 0x5CF CALLER DUP5 DUP5 PUSH1 0x1 PUSH1 0x0 CALLER PUSH20 0xFFFFFFFFFFFFFFFFFFFFFFFFFFFFFFFFFFFFFFFF AND PUSH20 0xFFFFFFFFFFFFFFFFFFFFFFFFFFFFFFFFFFFFFFFF AND DUP2 MSTORE PUSH1 0x20 ADD SWAP1 DUP2 MSTORE PUSH1 0x20 ADD PUSH1 0x0 KECCAK256 PUSH1 0x0 DUP9 PUSH20 0xFFFFFFFFFFFFFFFFFFFFFFFFFFFFFFFFFFFFFFFF AND PUSH20 0xFFFFFFFFFFFFFFFFFFFFFFFFFFFFFFFFFFFFFFFF AND DUP2 MSTORE PUSH1 0x20 ADD SWAP1 DUP2 MSTORE PUSH1 0x20 ADD PUSH1 0x0 KECCAK256 SLOAD PUSH2 0x5CA SWAP2 SWAP1 PUSH2 0x15A9 JUMP JUMPDEST PUSH2 0xA42 JUMP JUMPDEST PUSH1 0x1 SWAP1 POP SWAP3 SWAP2 POP POP JUMP JUMPDEST PUSH2 0x5E3 CALLER DUP3 PUSH2 0xD5A JUMP JUMPDEST POP JUMP JUMPDEST PUSH1 0x0 DUP1 PUSH1 0x0 DUP4 PUSH20 0xFFFFFFFFFFFFFFFFFFFFFFFFFFFFFFFFFFFFFFFF AND PUSH20 0xFFFFFFFFFFFFFFFFFFFFFFFFFFFFFFFFFFFFFFFF AND DUP2 MSTORE PUSH1 0x20 ADD SWAP1 DUP2 MSTORE PUSH1 0x20 ADD PUSH1 0x0 KECCAK256 SLOAD SWAP1 POP SWAP2 SWAP1 POP JUMP JUMPDEST PUSH2 0x636 PUSH2 0x76E JUMP JUMPDEST PUSH2 0x675 JUMPI PUSH1 0x40 MLOAD PUSH32 0x8C379A000000000000000000000000000000000000000000000000000000000 DUP2 MSTORE PUSH1 0x4 ADD PUSH2 0x66C SWAP1 PUSH2 0x1629 JUMP JUMPDEST PUSH1 0x40 MLOAD DUP1 SWAP2 SUB SWAP1 REVERT JUMPDEST PUSH1 0x0 PUSH20 0xFFFFFFFFFFFFFFFFFFFFFFFFFFFFFFFFFFFFFFFF AND PUSH1 0x5 PUSH1 0x1 SWAP1 SLOAD SWAP1 PUSH2 0x100 EXP SWAP1 DIV PUSH20 0xFFFFFFFFFFFFFFFFFFFFFFFFFFFFFFFFFFFFFFFF AND PUSH20 0xFFFFFFFFFFFFFFFFFFFFFFFFFFFFFFFFFFFFFFFF AND PUSH32 0x8BE0079C531659141344CD1FD0A4F28419497F9722A3DAAFE3B4186F6B6457E0 PUSH1 0x40 MLOAD PUSH1 0x40 MLOAD DUP1 SWAP2 SUB SWAP1 LOG3 PUSH1 0x0 PUSH1 0x5 PUSH1 0x1 PUSH2 0x100 EXP DUP2 SLOAD DUP2 PUSH20 0xFFFFFFFFFFFFFFFFFFFFFFFFFFFFFFFFFFFFFFFF MUL NOT AND SWAP1 DUP4 PUSH20 0xFFFFFFFFFFFFFFFFFFFFFFFFFFFFFFFFFFFFFFFF AND MUL OR SWAP1 SSTORE POP JUMP JUMPDEST PUSH2 0x740 DUP3 DUP3 PUSH2 0xE9D JUMP JUMPDEST POP POP JUMP JUMPDEST PUSH1 0x0 PUSH1 0x5 PUSH1 0x1 SWAP1 SLOAD SWAP1 PUSH2 0x100 EXP SWAP1 DIV PUSH20 0xFFFFFFFFFFFFFFFFFFFFFFFFFFFFFFFFFFFFFFFF AND SWAP1 POP SWAP1 JUMP JUMPDEST PUSH1 0x0 PUSH1 0x5 PUSH1 0x1 SWAP1 SLOAD SWAP1 PUSH2 0x100 EXP SWAP1 DIV PUSH20 0xFFFFFFFFFFFFFFFFFFFFFFFFFFFFFFFFFFFFFFFF AND PUSH20 0xFFFFFFFFFFFFFFFFFFFFFFFFFFFFFFFFFFFFFFFF AND CALLER PUSH20 0xFFFFFFFFFFFFFFFFFFFFFFFFFFFFFFFFFFFFFFFF AND EQ SWAP1 POP SWAP1 JUMP JUMPDEST PUSH1 0x60 PUSH1 0x4 DUP1 SLOAD PUSH2 0x7D5 SWAP1 PUSH2 0x1515 JUMP JUMPDEST DUP1 PUSH1 0x1F ADD PUSH1 0x20 DUP1 SWAP2 DIV MUL PUSH1 0x20 ADD PUSH1 0x40 MLOAD SWAP1 DUP2 ADD PUSH1 0x40 MSTORE DUP1 SWAP3 SWAP2 SWAP1 DUP2 DUP2 MSTORE PUSH1 0x20 ADD DUP3 DUP1 SLOAD PUSH2 0x801 SWAP1 PUSH2 0x1515 JUMP JUMPDEST DUP1 ISZERO PUSH2 0x84E JUMPI DUP1 PUSH1 0x1F LT PUSH2 0x823 JUMPI PUSH2 0x100 DUP1 DUP4 SLOAD DIV MUL DUP4 MSTORE SWAP2 PUSH1 0x20 ADD SWAP2 PUSH2 0x84E JUMP JUMPDEST DUP3 ADD SWAP2 SWAP1 PUSH1 0x0 MSTORE PUSH1 0x20 PUSH1 0x0 KECCAK256 SWAP1 JUMPDEST DUP2 SLOAD DUP2 MSTORE SWAP1 PUSH1 0x1 ADD SWAP1 PUSH1 0x20 ADD DUP1 DUP4 GT PUSH2 0x831 JUMPI DUP3 SWAP1 SUB PUSH1 0x1F AND DUP3 ADD SWAP2 JUMPDEST POP POP POP POP POP SWAP1 POP SWAP1 JUMP JUMPDEST PUSH1 0x0 PUSH2 0x8EC CALLER DUP5 DUP5 PUSH1 0x1 PUSH1 0x0 CALLER PUSH20 0xFFFFFFFFFFFFFFFFFFFFFFFFFFFFFFFFFFFFFFFF AND PUSH20 0xFFFFFFFFFFFFFFFFFFFFFFFFFFFFFFFFFFFFFFFF AND DUP2 MSTORE PUSH1 0x20 ADD SWAP1 DUP2 MSTORE PUSH1 0x20 ADD PUSH1 0x0 KECCAK256 PUSH1 0x0 DUP9 PUSH20 0xFFFFFFFFFFFFFFFFFFFFFFFFFFFFFFFFFFFFFFFF AND PUSH20 0xFFFFFFFFFFFFFFFFFFFFFFFFFFFFFFFFFFFFFFFF AND DUP2 MSTORE PUSH1 0x20 ADD SWAP1 DUP2 MSTORE PUSH1 0x20 ADD PUSH1 0x0 KECCAK256 SLOAD PUSH2 0x8E7 SWAP2 SWAP1 PUSH2 0x1575 JUMP JUMPDEST PUSH2 0xA42 JUMP JUMPDEST PUSH1 0x1 SWAP1 POP SWAP3 SWAP2 POP POP JUMP JUMPDEST PUSH1 0x0 PUSH2 0x903 CALLER DUP5 DUP5 PUSH2 0xB9F JUMP JUMPDEST PUSH1 0x1 SWAP1 POP SWAP3 SWAP2 POP POP JUMP JUMPDEST PUSH1 0x0 PUSH1 0x1 PUSH1 0x0 DUP5 PUSH20 0xFFFFFFFFFFFFFFFFFFFFFFFFFFFFFFFFFFFFFFFF AND PUSH20 0xFFFFFFFFFFFFFFFFFFFFFFFFFFFFFFFFFFFFFFFF AND DUP2 MSTORE PUSH1 0x20 ADD SWAP1 DUP2 MSTORE PUSH1 0x20 ADD PUSH1 0x0 KECCAK256 PUSH1 0x0 DUP4 PUSH20 0xFFFFFFFFFFFFFFFFFFFFFFFFFFFFFFFFFFFFFFFF AND PUSH20 0xFFFFFFFFFFFFFFFFFFFFFFFFFFFFFFFFFFFFFFFF AND DUP2 MSTORE PUSH1 0x20 ADD SWAP1 DUP2 MSTORE PUSH1 0x20 ADD PUSH1 0x0 KECCAK256 SLOAD SWAP1 POP SWAP3 SWAP2 POP POP JUMP JUMPDEST PUSH2 0x99C PUSH2 0x76E JUMP JUMPDEST PUSH2 0x9DB JUMPI PUSH1 0x40 MLOAD PUSH32 0x8C379A000000000000000000000000000000000000000000000000000000000 DUP2 MSTORE PUSH1 0x4 ADD PUSH2 0x9D2 SWAP1 PUSH2 0x1629 JUMP JUMPDEST PUSH1 0x40 MLOAD DUP1 SWAP2 SUB SWAP1 REVERT JUMPDEST PUSH2 0x9E5 DUP3 DUP3 PUSH2 0xF3D JUMP JUMPDEST POP POP JUMP JUMPDEST PUSH2 0x9F1 PUSH2 0x76E JUMP JUMPDEST PUSH2 0xA30 JUMPI PUSH1 0x40 MLOAD PUSH32 0x8C379A000000000000000000000000000000000000000000000000000000000 DUP2 MSTORE PUSH1 0x4 ADD PUSH2 0xA27 SWAP1 PUSH2 0x1629 JUMP JUMPDEST PUSH1 0x40 MLOAD DUP1 SWAP2 SUB SWAP1 REVERT JUMPDEST PUSH2 0xA39 DUP2 PUSH2 0x1080 JUMP JUMPDEST POP JUMP JUMPDEST PUSH1 0x6 SLOAD DUP2 JUMP JUMPDEST PUSH1 0x0 PUSH20 0xFFFFFFFFFFFFFFFFFFFFFFFFFFFFFFFFFFFFFFFF AND DUP3 PUSH20 0xFFFFFFFFFFFFFFFFFFFFFFFFFFFFFFFFFFFFFFFF AND SUB PUSH2 0xA7B JUMPI PUSH1 0x0 DUP1 REVERT JUMPDEST PUSH1 0x0 PUSH20 0xFFFFFFFFFFFFFFFFFFFFFFFFFFFFFFFFFFFFFFFF AND DUP4 PUSH20 0xFFFFFFFFFFFFFFFFFFFFFFFFFFFFFFFFFFFFFFFF AND SUB PUSH2 0xAB4 JUMPI PUSH1 0x0 DUP1 REVERT JUMPDEST DUP1 PUSH1 0x1 PUSH1 0x0 DUP6 PUSH20 0xFFFFFFFFFFFFFFFFFFFFFFFFFFFFFFFFFFFFFFFF AND PUSH20 0xFFFFFFFFFFFFFFFFFFFFFFFFFFFFFFFFFFFFFFFF AND DUP2 MSTORE PUSH1 0x20 ADD SWAP1 DUP2 MSTORE PUSH1 0x20 ADD PUSH1 0x0 KECCAK256 PUSH1 0x0 DUP5 PUSH20 0xFFFFFFFFFFFFFFFFFFFFFFFFFFFFFFFFFFFFFFFF AND PUSH20 0xFFFFFFFFFFFFFFFFFFFFFFFFFFFFFFFFFFFFFFFF AND DUP2 MSTORE PUSH1 0x20 ADD SWAP1 DUP2 MSTORE PUSH1 0x20 ADD PUSH1 0x0 KECCAK256 DUP2 SWAP1 SSTORE POP DUP2 PUSH20 0xFFFFFFFFFFFFFFFFFFFFFFFFFFFFFFFFFFFFFFFF AND DUP4 PUSH20 0xFFFFFFFFFFFFFFFFFFFFFFFFFFFFFFFFFFFFFFFF AND PUSH32 0x8C5BE1E5EBEC7D5BD14F71427D1E84F3DD0314C0F7B2291E5B200AC8C7C3B925 DUP4 PUSH1 0x40 MLOAD PUSH2 0xB92 SWAP2 SWAP1 PUSH2 0x1349 JUMP JUMPDEST PUSH1 0x40 MLOAD DUP1 SWAP2 SUB SWAP1 LOG3 POP POP POP JUMP JUMPDEST PUSH1 0x0 PUSH20 0xFFFFFFFFFFFFFFFFFFFFFFFFFFFFFFFFFFFFFFFF AND DUP3 PUSH20 0xFFFFFFFFFFFFFFFFFFFFFFFFFFFFFFFFFFFFFFFF AND SUB PUSH2 0xBD8 JUMPI PUSH1 0x0 DUP1 REVERT JUMPDEST DUP1 PUSH1 0x0 DUP1 DUP6 PUSH20 0xFFFFFFFFFFFFFFFFFFFFFFFFFFFFFFFFFFFFFFFF AND PUSH20 0xFFFFFFFFFFFFFFFFFFFFFFFFFFFFFFFFFFFFFFFF AND DUP2 MSTORE PUSH1 0x20 ADD SWAP1 DUP2 MSTORE PUSH1 0x20 ADD PUSH1 0x0 KECCAK256 SLOAD PUSH2 0xC22 SWAP2 SWAP1 PUSH2 0x1575 JUMP JUMPDEST PUSH1 0x0 DUP1 DUP6 PUSH20 0xFFFFFFFFFFFFFFFFFFFFFFFFFFFFFFFFFFFFFFFF AND PUSH20 0xFFFFFFFFFFFFFFFFFFFFFFFFFFFFFFFFFFFFFFFF AND DUP2 MSTORE PUSH1 0x20 ADD SWAP1 DUP2 MSTORE PUSH1 0x20 ADD PUSH1 0x0 KECCAK256 DUP2 SWAP1 SSTORE POP DUP1 PUSH1 0x0 DUP1 DUP5 PUSH20 0xFFFFFFFFFFFFFFFFFFFFFFFFFFFFFFFFFFFFFFFF AND PUSH20 0xFFFFFFFFFFFFFFFFFFFFFFFFFFFFFFFFFFFFFFFF AND DUP2 MSTORE PUSH1 0x20 ADD SWAP1 DUP2 MSTORE PUSH1 0x20 ADD PUSH1 0x0 KECCAK256 SLOAD PUSH2 0xCAE SWAP2 SWAP1 PUSH2 0x15A9 JUMP JUMPDEST PUSH1 0x0 DUP1 DUP5 PUSH20 0xFFFFFFFFFFFFFFFFFFFFFFFFFFFFFFFFFFFFFFFF AND PUSH20 0xFFFFFFFFFFFFFFFFFFFFFFFFFFFFFFFFFFFFFFFF AND DUP2 MSTORE PUSH1 0x20 ADD SWAP1 DUP2 MSTORE PUSH1 0x20 ADD PUSH1 0x0 KECCAK256 DUP2 SWAP1 SSTORE POP DUP2 PUSH20 0xFFFFFFFFFFFFFFFFFFFFFFFFFFFFFFFFFFFFFFFF AND DUP4 PUSH20 0xFFFFFFFFFFFFFFFFFFFFFFFFFFFFFFFFFFFFFFFF AND PUSH32 0xDDF252AD1BE2C89B69C2B068FC378DAA952BA7F163C4A11628F55A4DF523B3EF DUP4 PUSH1 0x40 MLOAD PUSH2 0xD4D SWAP2 SWAP1 PUSH2 0x1349 JUMP JUMPDEST PUSH1 0x40 MLOAD DUP1 SWAP2 SUB SWAP1 LOG3 POP POP POP JUMP JUMPDEST PUSH1 0x0 PUSH20 0xFFFFFFFFFFFFFFFFFFFFFFFFFFFFFFFFFFFFFFFF AND DUP3 PUSH20 0xFFFFFFFFFFFFFFFFFFFFFFFFFFFFFFFFFFFFFFFF AND SUB PUSH2 0xD93 JUMPI PUSH1 0x0 DUP1 REVERT JUMPDEST DUP1 PUSH1 0x2 SLOAD PUSH2 0xDA1 SWAP2 SWAP1 PUSH2 0x1575 JUMP JUMPDEST PUSH1 0x2 DUP2 SWAP1 SSTORE POP DUP1 PUSH1 0x0 DUP1 DUP5 PUSH20 0xFFFFFFFFFFFFFFFFFFFFFFFFFFFFFFFFFFFFFFFF AND PUSH20 0xFFFFFFFFFFFFFFFFFFFFFFFFFFFFFFFFFFFFFFFF AND DUP2 MSTORE PUSH1 0x20 ADD SWAP1 DUP2 MSTORE PUSH1 0x20 ADD PUSH1 0x0 KECCAK256 SLOAD PUSH2 0xDF1 SWAP2 SWAP1 PUSH2 0x1575 JUMP JUMPDEST PUSH1 0x0 DUP1 DUP5 PUSH20 0xFFFFFFFFFFFFFFFFFFFFFFFFFFFFFFFFFFFFFFFF AND PUSH20 0xFFFFFFFFFFFFFFFFFFFFFFFFFFFFFFFFFFFFFFFF AND DUP2 MSTORE PUSH1 0x20 ADD SWAP1 DUP2 MSTORE PUSH1 0x20 ADD PUSH1 0x0 KECCAK256 DUP2 SWAP1 SSTORE POP PUSH1 0x0 PUSH20 0xFFFFFFFFFFFFFFFFFFFFFFFFFFFFFFFFFFFFFFFF AND DUP3 PUSH20 0xFFFFFFFFFFFFFFFFFFFFFFFFFFFFFFFFFFFFFFFF AND PUSH32 0xDDF252AD1BE2C89B69C2B068FC378DAA952BA7F163C4A11628F55A4DF523B3EF DUP4 PUSH1 0x40 MLOAD PUSH2 0xE91 SWAP2 SWAP1 PUSH2 0x1349 JUMP JUMPDEST PUSH1 0x40 MLOAD DUP1 SWAP2 SUB SWAP1 LOG3 POP POP JUMP JUMPDEST PUSH2 0xEA7 DUP3 DUP3 PUSH2 0xD5A JUMP JUMPDEST PUSH2 0xF39 DUP3 CALLER DUP4 PUSH1 0x1 PUSH1 0x0 DUP8 PUSH20 0xFFFFFFFFFFFFFFFFFFFFFFFFFFFFFFFFFFFFFFFF AND PUSH20 0xFFFFFFFFFFFFFFFFFFFFFFFFFFFFFFFFFFFFFFFF AND DUP2 MSTORE PUSH1 0x20 ADD SWAP1 DUP2 MSTORE PUSH1 0x20 ADD PUSH1 0x0 KECCAK256 PUSH1 0x0 CALLER PUSH20 0xFFFFFFFFFFFFFFFFFFFFFFFFFFFFFFFFFFFFFFFF AND PUSH20 0xFFFFFFFFFFFFFFFFFFFFFFFFFFFFFFFFFFFFFFFF AND DUP2 MSTORE PUSH1 0x20 ADD SWAP1 DUP2 MSTORE PUSH1 0x20 ADD PUSH1 0x0 KECCAK256 SLOAD PUSH2 0xF34 SWAP2 SWAP1 PUSH2 0x1575 JUMP JUMPDEST PUSH2 0xA42 JUMP JUMPDEST POP POP JUMP JUMPDEST PUSH1 0x0 PUSH20 0xFFFFFFFFFFFFFFFFFFFFFFFFFFFFFFFFFFFFFFFF AND DUP3 PUSH20 0xFFFFFFFFFFFFFFFFFFFFFFFFFFFFFFFFFFFFFFFF AND SUB PUSH2 0xF76 JUMPI PUSH1 0x0 DUP1 REVERT JUMPDEST DUP1 PUSH1 0x2 SLOAD PUSH2 0xF84 SWAP2 SWAP1 PUSH2 0x15A9 JUMP JUMPDEST PUSH1 0x2 DUP2 SWAP1 SSTORE POP DUP1 PUSH1 0x0 DUP1 DUP5 PUSH20 0xFFFFFFFFFFFFFFFFFFFFFFFFFFFFFFFFFFFFFFFF AND PUSH20 0xFFFFFFFFFFFFFFFFFFFFFFFFFFFFFFFFFFFFFFFF AND DUP2 MSTORE PUSH1 0x20 ADD SWAP1 DUP2 MSTORE PUSH1 0x20 ADD PUSH1 0x0 KECCAK256 SLOAD PUSH2 0xFD4 SWAP2 SWAP1 PUSH2 0x15A9 JUMP JUMPDEST PUSH1 0x0 DUP1 DUP5 PUSH20 0xFFFFFFFFFFFFFFFFFFFFFFFFFFFFFFFFFFFFFFFF AND PUSH20 0xFFFFFFFFFFFFFFFFFFFFFFFFFFFFFFFFFFFFFFFF AND DUP2 MSTORE PUSH1 0x20 ADD SWAP1 DUP2 MSTORE PUSH1 0x20 ADD PUSH1 0x0 KECCAK256 DUP2 SWAP1 SSTORE POP DUP2 PUSH20 0xFFFFFFFFFFFFFFFFFFFFFFFFFFFFFFFFFFFFFFFF AND PUSH1 0x0 PUSH20 0xFFFFFFFFFFFFFFFFFFFFFFFFFFFFFFFFFFFFFFFF AND PUSH32 0xDDF252AD1BE2C89B69C2B068FC378DAA952BA7F163C4A11628F55A4DF523B3EF DUP4 PUSH1 0x40 MLOAD PUSH2 0x1074 SWAP2 SWAP1 PUSH2 0x1349 JUMP JUMPDEST PUSH1 0x40 MLOAD DUP1 SWAP2 SUB SWAP1 LOG3 POP POP JUMP JUMPDEST PUSH1 0x0 PUSH20 0xFFFFFFFFFFFFFFFFFFFFFFFFFFFFFFFFFFFFFFFF AND DUP2 PUSH20 0xFFFFFFFFFFFFFFFFFFFFFFFFFFFFFFFFFFFFFFFF AND SUB PUSH2 0x10B9 JUMPI PUSH1 0x0 DUP1 REVERT JUMPDEST DUP1 PUSH20 0xFFFFFFFFFFFFFFFFFFFFFFFFFFFFFFFFFFFFFFFF AND PUSH1 0x5 PUSH1 0x1 SWAP1 SLOAD SWAP1 PUSH2 0x100 EXP SWAP1 DIV PUSH20 0xFFFFFFFFFFFFFFFFFFFFFFFFFFFFFFFFFFFFFFFF AND PUSH20 0xFFFFFFFFFFFFFFFFFFFFFFFFFFFFFFFFFFFFFFFF AND PUSH32 0x8BE0079C531659141344CD1FD0A4F28419497F9722A3DAAFE3B4186F6B6457E0 PUSH1 0x40 MLOAD PUSH1 0x40 MLOAD DUP1 SWAP2 SUB SWAP1 LOG3 DUP1 PUSH1 0x5 PUSH1 0x1 PUSH2 0x100 EXP DUP2 SLOAD DUP2 PUSH20 0xFFFFFFFFFFFFFFFFFFFFFFFFFFFFFFFFFFFFFFFF MUL NOT AND SWAP1 DUP4 PUSH20 0xFFFFFFFFFFFFFFFFFFFFFFFFFFFFFFFFFFFFFFFF AND MUL OR SWAP1 SSTORE POP POP JUMP JUMPDEST PUSH1 0x0 DUP2 MLOAD SWAP1 POP SWAP2 SWAP1 POP JUMP JUMPDEST PUSH1 0x0 DUP3 DUP3 MSTORE PUSH1 0x20 DUP3 ADD SWAP1 POP SWAP3 SWAP2 POP POP JUMP JUMPDEST PUSH1 0x0 JUMPDEST DUP4 DUP2 LT ISZERO PUSH2 0x11B3 JUMPI DUP1 DUP3 ADD MLOAD DUP2 DUP5 ADD MSTORE PUSH1 0x20 DUP2 ADD SWAP1 POP PUSH2 0x1198 JUMP JUMPDEST PUSH1 0x0 DUP5 DUP5 ADD MSTORE POP POP POP POP JUMP JUMPDEST PUSH1 0x0 PUSH1 0x1F NOT PUSH1 0x1F DUP4 ADD AND SWAP1 POP SWAP2 SWAP1 POP JUMP JUMPDEST PUSH1 0x0 PUSH2 0x11DB DUP3 PUSH2 0x1179 JUMP JUMPDEST PUSH2 0x11E5 DUP2 DUP6 PUSH2 0x1184 JUMP JUMPDEST SWAP4 POP PUSH2 0x11F5 DUP2 DUP6 PUSH1 0x20 DUP7 ADD PUSH2 0x1195 JUMP JUMPDEST PUSH2 0x11FE DUP2 PUSH2 0x11BF JUMP JUMPDEST DUP5 ADD SWAP2 POP POP SWAP3 SWAP2 POP POP JUMP JUMPDEST PUSH1 0x0 PUSH1 0x20 DUP3 ADD SWAP1 POP DUP2 DUP2 SUB PUSH1 0x0 DUP4 ADD MSTORE PUSH2 0x1223 DUP2 DUP5 PUSH2 0x11D0 JUMP JUMPDEST SWAP1 POP SWAP3 SWAP2 POP POP JUMP JUMPDEST PUSH1 0x0 DUP1 REVERT JUMPDEST PUSH1 0x0 PUSH20 0xFFFFFFFFFFFFFFFFFFFFFFFFFFFFFFFFFFFFFFFF DUP3 AND SWAP1 POP SWAP2 SWAP1 POP JUMP JUMPDEST PUSH1 0x0 PUSH2 0x125B DUP3 PUSH2 0x1230 JUMP JUMPDEST SWAP1 POP SWAP2 SWAP1 POP JUMP JUMPDEST PUSH2 0x126B DUP2 PUSH2 0x1250 JUMP JUMPDEST DUP2 EQ PUSH2 0x1276 JUMPI PUSH1 0x0 DUP1 REVERT JUMPDEST POP JUMP JUMPDEST PUSH1 0x0 DUP2 CALLDATALOAD SWAP1 POP PUSH2 0x1288 DUP2 PUSH2 0x1262 JUMP JUMPDEST SWAP3 SWAP2 POP POP JUMP JUMPDEST PUSH1 0x0 DUP2 SWAP1 POP SWAP2 SWAP1 POP JUMP JUMPDEST PUSH2 0x12A1 DUP2 PUSH2 0x128E JUMP JUMPDEST DUP2 EQ PUSH2 0x12AC JUMPI PUSH1 0x0 DUP1 REVERT JUMPDEST POP JUMP JUMPDEST PUSH1 0x0 DUP2 CALLDATALOAD SWAP1 POP PUSH2 0x12BE DUP2 PUSH2 0x1298 JUMP JUMPDEST SWAP3 SWAP2 POP POP JUMP JUMPDEST PUSH1 0x0 DUP1 PUSH1 0x40 DUP4 DUP6 SUB SLT ISZERO PUSH2 0x12DB JUMPI PUSH2 0x12DA PUSH2 0x122B JUMP JUMPDEST JUMPDEST PUSH1 0x0 PUSH2 0x12E9 DUP6 DUP3 DUP7 ADD PUSH2 0x1279 JUMP JUMPDEST SWAP3 POP POP PUSH1 0x20 PUSH2 0x12FA DUP6 DUP3 DUP7 ADD PUSH2 0x12AF JUMP JUMPDEST SWAP2 POP POP SWAP3 POP SWAP3 SWAP1 POP JUMP JUMPDEST PUSH1 0x0 DUP2 ISZERO ISZERO SWAP1 POP SWAP2 SWAP1 POP JUMP JUMPDEST PUSH2 0x1319 DUP2 PUSH2 0x1304 JUMP JUMPDEST DUP3 MSTORE POP POP JUMP JUMPDEST PUSH1 0x0 PUSH1 0x20 DUP3 ADD SWAP1 POP PUSH2 0x1334 PUSH1 0x0 DUP4 ADD DUP5 PUSH2 0x1310 JUMP JUMPDEST SWAP3 SWAP2 POP POP JUMP JUMPDEST PUSH2 0x1343 DUP2 PUSH2 0x128E JUMP JUMPDEST DUP3 MSTORE POP POP JUMP JUMPDEST PUSH1 0x0 PUSH1 0x20 DUP3 ADD SWAP1 POP PUSH2 0x135E PUSH1 0x0 DUP4 ADD DUP5 PUSH2 0x133A JUMP JUMPDEST SWAP3 SWAP2 POP POP JUMP JUMPDEST PUSH1 0x0 DUP1 PUSH1 0x0 PUSH1 0x60 DUP5 DUP7 SUB SLT ISZERO PUSH2 0x137D JUMPI PUSH2 0x137C PUSH2 0x122B JUMP JUMPDEST JUMPDEST PUSH1 0x0 PUSH2 0x138B DUP7 DUP3 DUP8 ADD PUSH2 0x1279 JUMP JUMPDEST SWAP4 POP POP PUSH1 0x20 PUSH2 0x139C DUP7 DUP3 DUP8 ADD PUSH2 0x1279 JUMP JUMPDEST SWAP3 POP POP PUSH1 0x40 PUSH2 0x13AD DUP7 DUP3 DUP8 ADD PUSH2 0x12AF JUMP JUMPDEST SWAP2 POP POP SWAP3 POP SWAP3 POP SWAP3 JUMP JUMPDEST PUSH1 0x0 PUSH1 0xFF DUP3 AND SWAP1 POP SWAP2 SWAP1 POP JUMP JUMPDEST PUSH2 0x13CD DUP2 PUSH2 0x13B7 JUMP JUMPDEST DUP3 MSTORE POP POP JUMP JUMPDEST PUSH1 0x0 PUSH1 0x20 DUP3 ADD SWAP1 POP PUSH2 0x13E8 PUSH1 0x0 DUP4 ADD DUP5 PUSH2 0x13C4 JUMP JUMPDEST SWAP3 SWAP2 POP POP JUMP JUMPDEST PUSH1 0x0 PUSH1 0x20 DUP3 DUP5 SUB SLT ISZERO PUSH2 0x1404 JUMPI PUSH2 0x1403 PUSH2 0x122B JUMP JUMPDEST JUMPDEST PUSH1 0x0 PUSH2 0x1412 DUP5 DUP3 DUP6 ADD PUSH2 0x12AF JUMP JUMPDEST SWAP2 POP POP SWAP3 SWAP2 POP POP JUMP JUMPDEST PUSH1 0x0 PUSH1 0x20 DUP3 DUP5 SUB SLT ISZERO PUSH2 0x1431 JUMPI PUSH2 0x1430 PUSH2 0x122B JUMP JUMPDEST JUMPDEST PUSH1 0x0 PUSH2 0x143F DUP5 DUP3 DUP6 ADD PUSH2 0x1279 JUMP JUMPDEST SWAP2 POP POP SWAP3 SWAP2 POP POP JUMP JUMPDEST PUSH2 0x1451 DUP2 PUSH2 0x1250 JUMP JUMPDEST DUP3 MSTORE POP POP JUMP JUMPDEST PUSH1 0x0 PUSH1 0x20 DUP3 ADD SWAP1 POP PUSH2 0x146C PUSH1 0x0 DUP4 ADD DUP5 PUSH2 0x1448 JUMP JUMPDEST SWAP3 SWAP2 POP POP JUMP JUMPDEST PUSH1 0x0 DUP1 PUSH1 0x40 DUP4 DUP6 SUB SLT ISZERO PUSH2 0x1489 JUMPI PUSH2 0x1488 PUSH2 0x122B JUMP JUMPDEST JUMPDEST PUSH1 0x0 PUSH2 0x1497 DUP6 DUP3 DUP7 ADD PUSH2 0x1279 JUMP JUMPDEST SWAP3 POP POP PUSH1 0x20 PUSH2 0x14A8 DUP6 DUP3 DUP7 ADD PUSH2 0x1279 JUMP JUMPDEST SWAP2 POP POP SWAP3 POP SWAP3 SWAP1 POP JUMP JUMPDEST PUSH1 0x0 DUP2 SWAP1 POP SWAP2 SWAP1 POP JUMP JUMPDEST PUSH2 0x14C5 DUP2 PUSH2 0x14B2 JUMP JUMPDEST DUP3 MSTORE POP POP JUMP JUMPDEST PUSH1 0x0 PUSH1 0x20 DUP3 ADD SWAP1 POP PUSH2 0x14E0 PUSH1 0x0 DUP4 ADD DUP5 PUSH2 0x14BC JUMP JUMPDEST SWAP3 SWAP2 POP POP JUMP JUMPDEST PUSH32 0x4E487B7100000000000000000000000000000000000000000000000000000000 PUSH1 0x0 MSTORE PUSH1 0x22 PUSH1 0x4 MSTORE PUSH1 0x24 PUSH1 0x0 REVERT JUMPDEST PUSH1 0x0 PUSH1 0x2 DUP3 DIV SWAP1 POP PUSH1 0x1 DUP3 AND DUP1 PUSH2 0x152D JUMPI PUSH1 0x7F DUP3 AND SWAP2 POP JUMPDEST PUSH1 0x20 DUP3 LT DUP2 SUB PUSH2 0x1540 JUMPI PUSH2 0x153F PUSH2 0x14E6 JUMP JUMPDEST JUMPDEST POP SWAP2 SWAP1 POP JUMP JUMPDEST PUSH32 0x4E487B7100000000000000000000000000000000000000000000000000000000 PUSH1 0x0 MSTORE PUSH1 0x11 PUSH1 0x4 MSTORE PUSH1 0x24 PUSH1 0x0 REVERT JUMPDEST PUSH1 0x0 PUSH2 0x1580 DUP3 PUSH2 0x128E JUMP JUMPDEST SWAP2 POP PUSH2 0x158B DUP4 PUSH2 0x128E JUMP JUMPDEST SWAP3 POP DUP3 DUP3 SUB SWAP1 POP DUP2 DUP2 GT ISZERO PUSH2 0x15A3 JUMPI PUSH2 0x15A2 PUSH2 0x1546 JUMP JUMPDEST JUMPDEST SWAP3 SWAP2 POP POP JUMP JUMPDEST PUSH1 0x0 PUSH2 0x15B4 DUP3 PUSH2 0x128E JUMP JUMPDEST SWAP2 POP PUSH2 0x15BF DUP4 PUSH2 0x128E JUMP JUMPDEST SWAP3 POP DUP3 DUP3 ADD SWAP1 POP DUP1 DUP3 GT ISZERO PUSH2 0x15D7 JUMPI PUSH2 0x15D6 PUSH2 0x1546 JUMP JUMPDEST JUMPDEST SWAP3 SWAP2 POP POP JUMP JUMPDEST PUSH32 0x4E6F74206F776E65720000000000000000000000000000000000000000000000 PUSH1 0x0 DUP3 ADD MSTORE POP JUMP JUMPDEST PUSH1 0x0 PUSH2 0x1613 PUSH1 0x9 DUP4 PUSH2 0x1184 JUMP JUMPDEST SWAP2 POP PUSH2 0x161E DUP3 PUSH2 0x15DD JUMP JUMPDEST PUSH1 0x20 DUP3 ADD SWAP1 POP SWAP2 SWAP1 POP JUMP JUMPDEST PUSH1 0x0 PUSH1 0x20 DUP3 ADD SWAP1 POP DUP2 DUP2 SUB PUSH1 0x0 DUP4 ADD MSTORE PUSH2 0x1642 DUP2 PUSH2 0x1606 JUMP JUMPDEST SWAP1 POP SWAP2 SWAP1 POP JUMP INVALID LOG2 PUSH5 0x6970667358 0x22 SLT KECCAK256 0xD2 0xC0 0xCA 0xC7 BASEFEE 0xE9 0xF7 0xB0 SWAP5 SAR 0x2A DUP8 SMOD DUP15 0xF8 0xD3 0xAF 0x4C NOT MLOAD PUSH20 0x308CD86BCAC20F8BD6060764736F6C6343000811 STOP CALLER "
				},
				"gasEstimates": {
					"creation": {
						"codeDepositCost": "1151800",
						"executionCost": "infinite",
						"totalCost": "infinite"
					},
					"external": {
						"": "227",
						"_sidechainAssetId()": "2539",
						"allowance(address,address)": "infinite",
						"approve(address,uint256)": "infinite",
						"balanceOf(address)": "2930",
						"burn(uint256)": "infinite",
						"burnFrom(address,uint256)": "infinite",
						"decimals()": "2502",
						"decreaseAllowance(address,uint256)": "infinite",
						"increaseAllowance(address,uint256)": "infinite",
						"isOwner()": "2613",
						"mintTokens(address,uint256)": "infinite",
						"name()": "infinite",
						"owner()": "2617",
						"renounceOwnership()": "30558",
						"symbol()": "infinite",
						"totalSupply()": "2505",
						"transfer(address,uint256)": "infinite",
						"transferFrom(address,address,uint256)": "infinite",
						"transferOwnership(address)": "30910"
					}
				},
				"methodIdentifiers": {
					"_sidechainAssetId()": "fcec35a9",
					"allowance(address,address)": "dd62ed3e",
					"approve(address,uint256)": "095ea7b3",
					"balanceOf(address)": "70a08231",
					"burn(uint256)": "42966c68",
					"burnFrom(address,uint256)": "79cc6790",
					"decimals()": "313ce567",
					"decreaseAllowance(address,uint256)": "a457c2d7",
					"increaseAllowance(address,uint256)": "39509351",
					"isOwner()": "8f32d59b",
					"mintTokens(address,uint256)": "f0dda65c",
					"name()": "06fdde03",
					"owner()": "8da5cb5b",
					"renounceOwnership()": "715018a6",
					"symbol()": "95d89b41",
					"totalSupply()": "18160ddd",
					"transfer(address,uint256)": "a9059cbb",
					"transferFrom(address,address,uint256)": "23b872dd",
					"transferOwnership(address)": "f2fde38b"
				}
			},
			"storageLayout": {
				"storage": [
					{
						"astId": 136,
						"contract": "liberland/eth/mastet_token_flattened.sol:MasterToken",
						"label": "_balances",
						"offset": 0,
						"slot": "0",
						"type": "t_mapping(t_address,t_uint256)"
					},
					{
						"astId": 142,
						"contract": "liberland/eth/mastet_token_flattened.sol:MasterToken",
						"label": "_allowed",
						"offset": 0,
						"slot": "1",
						"type": "t_mapping(t_address,t_mapping(t_address,t_uint256))"
					},
					{
						"astId": 144,
						"contract": "liberland/eth/mastet_token_flattened.sol:MasterToken",
						"label": "_totalSupply",
						"offset": 0,
						"slot": "2",
						"type": "t_uint256"
					},
					{
						"astId": 74,
						"contract": "liberland/eth/mastet_token_flattened.sol:MasterToken",
						"label": "_name",
						"offset": 0,
						"slot": "3",
						"type": "t_string_storage"
					},
					{
						"astId": 76,
						"contract": "liberland/eth/mastet_token_flattened.sol:MasterToken",
						"label": "_symbol",
						"offset": 0,
						"slot": "4",
						"type": "t_string_storage"
					},
					{
						"astId": 78,
						"contract": "liberland/eth/mastet_token_flattened.sol:MasterToken",
						"label": "_decimals",
						"offset": 0,
						"slot": "5",
						"type": "t_uint8"
					},
					{
						"astId": 558,
						"contract": "liberland/eth/mastet_token_flattened.sol:MasterToken",
						"label": "_owner",
						"offset": 1,
						"slot": "5",
						"type": "t_address"
					},
					{
						"astId": 684,
						"contract": "liberland/eth/mastet_token_flattened.sol:MasterToken",
						"label": "_sidechainAssetId",
						"offset": 0,
						"slot": "6",
						"type": "t_bytes32"
					}
				],
				"types": {
					"t_address": {
						"encoding": "inplace",
						"label": "address",
						"numberOfBytes": "20"
					},
					"t_bytes32": {
						"encoding": "inplace",
						"label": "bytes32",
						"numberOfBytes": "32"
					},
					"t_mapping(t_address,t_mapping(t_address,t_uint256))": {
						"encoding": "mapping",
						"key": "t_address",
						"label": "mapping(address => mapping(address => uint256))",
						"numberOfBytes": "32",
						"value": "t_mapping(t_address,t_uint256)"
					},
					"t_mapping(t_address,t_uint256)": {
						"encoding": "mapping",
						"key": "t_address",
						"label": "mapping(address => uint256)",
						"numberOfBytes": "32",
						"value": "t_uint256"
					},
					"t_string_storage": {
						"encoding": "bytes",
						"label": "string",
						"numberOfBytes": "32"
					},
					"t_uint256": {
						"encoding": "inplace",
						"label": "uint256",
						"numberOfBytes": "32"
					},
					"t_uint8": {
						"encoding": "inplace",
						"label": "uint8",
						"numberOfBytes": "1"
					}
				}
			},
			"userdoc": {
				"kind": "user",
				"methods": {
					"renounceOwnership()": {
						"notice": "Renouncing to ownership will leave the contract without an owner. It will not be possible to call the functions with the `onlyOwner` modifier anymore."
					}
				},
				"version": 1
			}
		}
	}
}