{
	"liberland/eth/mastet_token_flattened.sol": {
		"ERC20Burnable": {
			"abi": [
				{
					"anonymous": false,
					"inputs": [
						{
							"indexed": true,
							"internalType": "address",
							"name": "owner",
							"type": "address"
						},
						{
							"indexed": true,
							"internalType": "address",
							"name": "spender",
							"type": "address"
						},
						{
							"indexed": false,
							"internalType": "uint256",
							"name": "value",
							"type": "uint256"
						}
					],
					"name": "Approval",
					"type": "event"
				},
				{
					"anonymous": false,
					"inputs": [
						{
							"indexed": true,
							"internalType": "address",
							"name": "from",
							"type": "address"
						},
						{
							"indexed": true,
							"internalType": "address",
							"name": "to",
							"type": "address"
						},
						{
							"indexed": false,
							"internalType": "uint256",
							"name": "value",
							"type": "uint256"
						}
					],
					"name": "Transfer",
					"type": "event"
				},
				{
					"inputs": [
						{
							"internalType": "address",
							"name": "owner",
							"type": "address"
						},
						{
							"internalType": "address",
							"name": "spender",
							"type": "address"
						}
					],
					"name": "allowance",
					"outputs": [
						{
							"internalType": "uint256",
							"name": "",
							"type": "uint256"
						}
					],
					"stateMutability": "view",
					"type": "function"
				},
				{
					"inputs": [
						{
							"internalType": "address",
							"name": "spender",
							"type": "address"
						},
						{
							"internalType": "uint256",
							"name": "value",
							"type": "uint256"
						}
					],
					"name": "approve",
					"outputs": [
						{
							"internalType": "bool",
							"name": "",
							"type": "bool"
						}
					],
					"stateMutability": "nonpayable",
					"type": "function"
				},
				{
					"inputs": [
						{
							"internalType": "address",
							"name": "owner",
							"type": "address"
						}
					],
					"name": "balanceOf",
					"outputs": [
						{
							"internalType": "uint256",
							"name": "",
							"type": "uint256"
						}
					],
					"stateMutability": "view",
					"type": "function"
				},
				{
					"inputs": [
						{
							"internalType": "uint256",
							"name": "value",
							"type": "uint256"
						}
					],
					"name": "burn",
					"outputs": [],
					"stateMutability": "nonpayable",
					"type": "function"
				},
				{
					"inputs": [
						{
							"internalType": "address",
							"name": "from",
							"type": "address"
						},
						{
							"internalType": "uint256",
							"name": "value",
							"type": "uint256"
						}
					],
					"name": "burnFrom",
					"outputs": [],
					"stateMutability": "nonpayable",
					"type": "function"
				},
				{
					"inputs": [
						{
							"internalType": "address",
							"name": "spender",
							"type": "address"
						},
						{
							"internalType": "uint256",
							"name": "subtractedValue",
							"type": "uint256"
						}
					],
					"name": "decreaseAllowance",
					"outputs": [
						{
							"internalType": "bool",
							"name": "",
							"type": "bool"
						}
					],
					"stateMutability": "nonpayable",
					"type": "function"
				},
				{
					"inputs": [
						{
							"internalType": "address",
							"name": "spender",
							"type": "address"
						},
						{
							"internalType": "uint256",
							"name": "addedValue",
							"type": "uint256"
						}
					],
					"name": "increaseAllowance",
					"outputs": [
						{
							"internalType": "bool",
							"name": "",
							"type": "bool"
						}
					],
					"stateMutability": "nonpayable",
					"type": "function"
				},
				{
					"inputs": [],
					"name": "totalSupply",
					"outputs": [
						{
							"internalType": "uint256",
							"name": "",
							"type": "uint256"
						}
					],
					"stateMutability": "view",
					"type": "function"
				},
				{
					"inputs": [
						{
							"internalType": "address",
							"name": "to",
							"type": "address"
						},
						{
							"internalType": "uint256",
							"name": "value",
							"type": "uint256"
						}
					],
					"name": "transfer",
					"outputs": [
						{
							"internalType": "bool",
							"name": "",
							"type": "bool"
						}
					],
					"stateMutability": "nonpayable",
					"type": "function"
				},
				{
					"inputs": [
						{
							"internalType": "address",
							"name": "from",
							"type": "address"
						},
						{
							"internalType": "address",
							"name": "to",
							"type": "address"
						},
						{
							"internalType": "uint256",
							"name": "value",
							"type": "uint256"
						}
					],
					"name": "transferFrom",
					"outputs": [
						{
							"internalType": "bool",
							"name": "",
							"type": "bool"
						}
					],
					"stateMutability": "nonpayable",
					"type": "function"
				}
			],
			"devdoc": {
				"details": "Token that can be irreversibly burned (destroyed).",
				"kind": "dev",
				"methods": {
					"allowance(address,address)": {
						"details": "Function to check the amount of tokens that an owner allowed to a spender.",
						"params": {
							"owner": "address The address which owns the funds.",
							"spender": "address The address which will spend the funds."
						},
						"returns": {
							"_0": "A uint256 specifying the amount of tokens still available for the spender."
						}
					},
					"approve(address,uint256)": {
						"details": "Approve the passed address to spend the specified amount of tokens on behalf of msg.sender. Beware that changing an allowance with this method brings the risk that someone may use both the old and the new allowance by unfortunate transaction ordering. One possible solution to mitigate this race condition is to first reduce the spender's allowance to 0 and set the desired value afterwards: https://github.com/ethereum/EIPs/issues/20#issuecomment-263524729",
						"params": {
							"spender": "The address which will spend the funds.",
							"value": "The amount of tokens to be spent."
						}
					},
					"balanceOf(address)": {
						"details": "Gets the balance of the specified address.",
						"params": {
							"owner": "The address to query the balance of."
						},
						"returns": {
							"_0": "An uint256 representing the amount owned by the passed address."
						}
					},
					"burn(uint256)": {
						"details": "Burns a specific amount of tokens.",
						"params": {
							"value": "The amount of token to be burned."
						}
					},
					"burnFrom(address,uint256)": {
						"details": "Burns a specific amount of tokens from the target address and decrements allowance",
						"params": {
							"from": "address The address which you want to send tokens from",
							"value": "uint256 The amount of token to be burned"
						}
					},
					"decreaseAllowance(address,uint256)": {
						"details": "Decrease the amount of tokens that an owner allowed to a spender. approve should be called when allowed_[_spender] == 0. To decrement allowed value is better to use this function to avoid 2 calls (and wait until the first transaction is mined) From MonolithDAO Token.sol Emits an Approval event.",
						"params": {
							"spender": "The address which will spend the funds.",
							"subtractedValue": "The amount of tokens to decrease the allowance by."
						}
					},
					"increaseAllowance(address,uint256)": {
						"details": "Increase the amount of tokens that an owner allowed to a spender. approve should be called when allowed_[_spender] == 0. To increment allowed value is better to use this function to avoid 2 calls (and wait until the first transaction is mined) From MonolithDAO Token.sol Emits an Approval event.",
						"params": {
							"addedValue": "The amount of tokens to increase the allowance by.",
							"spender": "The address which will spend the funds."
						}
					},
					"totalSupply()": {
						"details": "Total number of tokens in existence"
					},
					"transfer(address,uint256)": {
						"details": "Transfer token for a specified address",
						"params": {
							"to": "The address to transfer to.",
							"value": "The amount to be transferred."
						}
					},
					"transferFrom(address,address,uint256)": {
						"details": "Transfer tokens from one address to another. Note that while this function emits an Approval event, this is not required as per the specification, and other compliant implementations may not emit the event.",
						"params": {
							"from": "address The address which you want to send tokens from",
							"to": "address The address which you want to transfer to",
							"value": "uint256 the amount of tokens to be transferred"
						}
					}
				},
				"title": "Burnable Token",
				"version": 1
			},
			"evm": {
				"assembly": "    /* \"liberland/eth/mastet_token_flattened.sol\":10004:10583  contract ERC20Burnable is ERC20 {... */\n  mstore(0x40, 0x80)\n  callvalue\n  dup1\n  iszero\n  tag_1\n  jumpi\n  0x00\n  dup1\n  revert\ntag_1:\n  pop\n  dataSize(sub_0)\n  dup1\n  dataOffset(sub_0)\n  0x00\n  codecopy\n  0x00\n  return\nstop\n\nsub_0: assembly {\n        /* \"liberland/eth/mastet_token_flattened.sol\":10004:10583  contract ERC20Burnable is ERC20 {... */\n      mstore(0x40, 0x80)\n      callvalue\n      dup1\n      iszero\n      tag_1\n      jumpi\n      0x00\n      dup1\n      revert\n    tag_1:\n      pop\n      jumpi(tag_2, lt(calldatasize, 0x04))\n      shr(0xe0, calldataload(0x00))\n      dup1\n      0x70a08231\n      gt\n      tag_13\n      jumpi\n      dup1\n      0x70a08231\n      eq\n      tag_8\n      jumpi\n      dup1\n      0x79cc6790\n      eq\n      tag_9\n      jumpi\n      dup1\n      0xa457c2d7\n      eq\n      tag_10\n      jumpi\n      dup1\n      0xa9059cbb\n      eq\n      tag_11\n      jumpi\n      dup1\n      0xdd62ed3e\n      eq\n      tag_12\n      jumpi\n      jump(tag_2)\n    tag_13:\n      dup1\n      0x095ea7b3\n      eq\n      tag_3\n      jumpi\n      dup1\n      0x18160ddd\n      eq\n      tag_4\n      jumpi\n      dup1\n      0x23b872dd\n      eq\n      tag_5\n      jumpi\n      dup1\n      0x39509351\n      eq\n      tag_6\n      jumpi\n      dup1\n      0x42966c68\n      eq\n      tag_7\n      jumpi\n    tag_2:\n      0x00\n      dup1\n      revert\n        /* \"liberland/eth/mastet_token_flattened.sol\":4696:4878  function approve(address spender, uint256 value)... */\n    tag_3:\n      tag_14\n      0x04\n      dup1\n      calldatasize\n      sub\n      dup2\n      add\n      swap1\n      tag_15\n      swap2\n      swap1\n      tag_16\n      jump\t// in\n    tag_15:\n      tag_17\n      jump\t// in\n    tag_14:\n      mload(0x40)\n      tag_18\n      swap2\n      swap1\n      tag_19\n      jump\t// in\n    tag_18:\n      mload(0x40)\n      dup1\n      swap2\n      sub\n      swap1\n      return\n        /* \"liberland/eth/mastet_token_flattened.sol\":2789:2887  function totalSupply() public view override returns (uint256) {... */\n    tag_4:\n      tag_20\n      tag_21\n      jump\t// in\n    tag_20:\n      mload(0x40)\n      tag_22\n      swap2\n      swap1\n      tag_23\n      jump\t// in\n    tag_22:\n      mload(0x40)\n      dup1\n      swap2\n      sub\n      swap1\n      return\n        /* \"liberland/eth/mastet_token_flattened.sol\":5341:5601  function transferFrom(... */\n    tag_5:\n      tag_24\n      0x04\n      dup1\n      calldatasize\n      sub\n      dup2\n      add\n      swap1\n      tag_25\n      swap2\n      swap1\n      tag_26\n      jump\t// in\n    tag_25:\n      tag_27\n      jump\t// in\n    tag_24:\n      mload(0x40)\n      tag_28\n      swap2\n      swap1\n      tag_19\n      jump\t// in\n    tag_28:\n      mload(0x40)\n      dup1\n      swap2\n      sub\n      swap1\n      return\n        /* \"liberland/eth/mastet_token_flattened.sol\":6104:6367  function increaseAllowance(address spender, uint256 addedValue)... */\n    tag_6:\n      tag_29\n      0x04\n      dup1\n      calldatasize\n      sub\n      dup2\n      add\n      swap1\n      tag_30\n      swap2\n      swap1\n      tag_16\n      jump\t// in\n    tag_30:\n      tag_31\n      jump\t// in\n    tag_29:\n      mload(0x40)\n      tag_32\n      swap2\n      swap1\n      tag_19\n      jump\t// in\n    tag_32:\n      mload(0x40)\n      dup1\n      swap2\n      sub\n      swap1\n      return\n        /* \"liberland/eth/mastet_token_flattened.sol\":10159:10236  function burn(uint256 value) public {... */\n    tag_7:\n      tag_33\n      0x04\n      dup1\n      calldatasize\n      sub\n      dup2\n      add\n      swap1\n      tag_34\n      swap2\n      swap1\n      tag_35\n      jump\t// in\n    tag_34:\n      tag_36\n      jump\t// in\n    tag_33:\n      stop\n        /* \"liberland/eth/mastet_token_flattened.sol\":3100:3213  function balanceOf(address owner) public view override returns (uint256) {... */\n    tag_8:\n      tag_37\n      0x04\n      dup1\n      calldatasize\n      sub\n      dup2\n      add\n      swap1\n      tag_38\n      swap2\n      swap1\n      tag_39\n      jump\t// in\n    tag_38:\n      tag_40\n      jump\t// in\n    tag_37:\n      mload(0x40)\n      tag_41\n      swap2\n      swap1\n      tag_23\n      jump\t// in\n    tag_41:\n      mload(0x40)\n      dup1\n      swap2\n      sub\n      swap1\n      return\n        /* \"liberland/eth/mastet_token_flattened.sol\":10488:10581  function burnFrom(address from, uint256 value) public {... */\n    tag_9:\n      tag_42\n      0x04\n      dup1\n      calldatasize\n      sub\n      dup2\n      add\n      swap1\n      tag_43\n      swap2\n      swap1\n      tag_16\n      jump\t// in\n    tag_43:\n      tag_44\n      jump\t// in\n    tag_42:\n      stop\n        /* \"liberland/eth/mastet_token_flattened.sol\":6875:7148  function decreaseAllowance(address spender, uint256 subtractedValue)... */\n    tag_10:\n      tag_45\n      0x04\n      dup1\n      calldatasize\n      sub\n      dup2\n      add\n      swap1\n      tag_46\n      swap2\n      swap1\n      tag_16\n      jump\t// in\n    tag_46:\n      tag_47\n      jump\t// in\n    tag_45:\n      mload(0x40)\n      tag_48\n      swap2\n      swap1\n      tag_19\n      jump\t// in\n    tag_48:\n      mload(0x40)\n      dup1\n      swap2\n      sub\n      swap1\n      return\n        /* \"liberland/eth/mastet_token_flattened.sol\":3886:4060  function transfer(address to, uint256 value)... */\n    tag_11:\n      tag_49\n      0x04\n      dup1\n      calldatasize\n      sub\n      dup2\n      add\n      swap1\n      tag_50\n      swap2\n      swap1\n      tag_16\n      jump\t// in\n    tag_50:\n      tag_51\n      jump\t// in\n    tag_49:\n      mload(0x40)\n      tag_52\n      swap2\n      swap1\n      tag_19\n      jump\t// in\n    tag_52:\n      mload(0x40)\n      dup1\n      swap2\n      sub\n      swap1\n      return\n        /* \"liberland/eth/mastet_token_flattened.sol\":3544:3718  function allowance(address owner, address spender)... */\n    tag_12:\n      tag_53\n      0x04\n      dup1\n      calldatasize\n      sub\n      dup2\n      add\n      swap1\n      tag_54\n      swap2\n      swap1\n      tag_55\n      jump\t// in\n    tag_54:\n      tag_56\n      jump\t// in\n    tag_53:\n      mload(0x40)\n      tag_57\n      swap2\n      swap1\n      tag_23\n      jump\t// in\n    tag_57:\n      mload(0x40)\n      dup1\n      swap2\n      sub\n      swap1\n      return\n        /* \"liberland/eth/mastet_token_flattened.sol\":4696:4878  function approve(address spender, uint256 value)... */\n    tag_17:\n        /* \"liberland/eth/mastet_token_flattened.sol\":4794:4798  bool */\n      0x00\n        /* \"liberland/eth/mastet_token_flattened.sol\":4814:4850  _approve(msg.sender, spender, value) */\n      tag_59\n        /* \"liberland/eth/mastet_token_flattened.sol\":4823:4833  msg.sender */\n      caller\n        /* \"liberland/eth/mastet_token_flattened.sol\":4835:4842  spender */\n      dup5\n        /* \"liberland/eth/mastet_token_flattened.sol\":4844:4849  value */\n      dup5\n        /* \"liberland/eth/mastet_token_flattened.sol\":4814:4822  _approve */\n      tag_60\n        /* \"liberland/eth/mastet_token_flattened.sol\":4814:4850  _approve(msg.sender, spender, value) */\n      jump\t// in\n    tag_59:\n        /* \"liberland/eth/mastet_token_flattened.sol\":4867:4871  true */\n      0x01\n        /* \"liberland/eth/mastet_token_flattened.sol\":4860:4871  return true */\n      swap1\n      pop\n        /* \"liberland/eth/mastet_token_flattened.sol\":4696:4878  function approve(address spender, uint256 value)... */\n      swap3\n      swap2\n      pop\n      pop\n      jump\t// out\n        /* \"liberland/eth/mastet_token_flattened.sol\":2789:2887  function totalSupply() public view override returns (uint256) {... */\n    tag_21:\n        /* \"liberland/eth/mastet_token_flattened.sol\":2842:2849  uint256 */\n      0x00\n        /* \"liberland/eth/mastet_token_flattened.sol\":2868:2880  _totalSupply */\n      sload(0x02)\n        /* \"liberland/eth/mastet_token_flattened.sol\":2861:2880  return _totalSupply */\n      swap1\n      pop\n        /* \"liberland/eth/mastet_token_flattened.sol\":2789:2887  function totalSupply() public view override returns (uint256) {... */\n      swap1\n      jump\t// out\n        /* \"liberland/eth/mastet_token_flattened.sol\":5341:5601  function transferFrom(... */\n    tag_27:\n        /* \"liberland/eth/mastet_token_flattened.sol\":5459:5463  bool */\n      0x00\n        /* \"liberland/eth/mastet_token_flattened.sol\":5475:5501  _transfer(from, to, value) */\n      tag_63\n        /* \"liberland/eth/mastet_token_flattened.sol\":5485:5489  from */\n      dup5\n        /* \"liberland/eth/mastet_token_flattened.sol\":5491:5493  to */\n      dup5\n        /* \"liberland/eth/mastet_token_flattened.sol\":5495:5500  value */\n      dup5\n        /* \"liberland/eth/mastet_token_flattened.sol\":5475:5484  _transfer */\n      tag_64\n        /* \"liberland/eth/mastet_token_flattened.sol\":5475:5501  _transfer(from, to, value) */\n      jump\t// in\n    tag_63:\n        /* \"liberland/eth/mastet_token_flattened.sol\":5511:5573  _approve(from, msg.sender, _allowed[from][msg.sender] - value) */\n      tag_65\n        /* \"liberland/eth/mastet_token_flattened.sol\":5520:5524  from */\n      dup5\n        /* \"liberland/eth/mastet_token_flattened.sol\":5526:5536  msg.sender */\n      caller\n        /* \"liberland/eth/mastet_token_flattened.sol\":5567:5572  value */\n      dup5\n        /* \"liberland/eth/mastet_token_flattened.sol\":5538:5546  _allowed */\n      0x01\n        /* \"liberland/eth/mastet_token_flattened.sol\":5538:5552  _allowed[from] */\n      0x00\n        /* \"liberland/eth/mastet_token_flattened.sol\":5547:5551  from */\n      dup10\n        /* \"liberland/eth/mastet_token_flattened.sol\":5538:5552  _allowed[from] */\n      0xffffffffffffffffffffffffffffffffffffffff\n      and\n      0xffffffffffffffffffffffffffffffffffffffff\n      and\n      dup2\n      mstore\n      0x20\n      add\n      swap1\n      dup2\n      mstore\n      0x20\n      add\n      0x00\n      keccak256\n        /* \"liberland/eth/mastet_token_flattened.sol\":5538:5564  _allowed[from][msg.sender] */\n      0x00\n        /* \"liberland/eth/mastet_token_flattened.sol\":5553:5563  msg.sender */\n      caller\n        /* \"liberland/eth/mastet_token_flattened.sol\":5538:5564  _allowed[from][msg.sender] */\n      0xffffffffffffffffffffffffffffffffffffffff\n      and\n      0xffffffffffffffffffffffffffffffffffffffff\n      and\n      dup2\n      mstore\n      0x20\n      add\n      swap1\n      dup2\n      mstore\n      0x20\n      add\n      0x00\n      keccak256\n      sload\n        /* \"liberland/eth/mastet_token_flattened.sol\":5538:5572  _allowed[from][msg.sender] - value */\n      tag_66\n      swap2\n      swap1\n      tag_67\n      jump\t// in\n    tag_66:\n        /* \"liberland/eth/mastet_token_flattened.sol\":5511:5519  _approve */\n      tag_60\n        /* \"liberland/eth/mastet_token_flattened.sol\":5511:5573  _approve(from, msg.sender, _allowed[from][msg.sender] - value) */\n      jump\t// in\n    tag_65:\n        /* \"liberland/eth/mastet_token_flattened.sol\":5590:5594  true */\n      0x01\n        /* \"liberland/eth/mastet_token_flattened.sol\":5583:5594  return true */\n      swap1\n      pop\n        /* \"liberland/eth/mastet_token_flattened.sol\":5341:5601  function transferFrom(... */\n      swap4\n      swap3\n      pop\n      pop\n      pop\n      jump\t// out\n        /* \"liberland/eth/mastet_token_flattened.sol\":6104:6367  function increaseAllowance(address spender, uint256 addedValue)... */\n    tag_31:\n        /* \"liberland/eth/mastet_token_flattened.sol\":6200:6204  bool */\n      0x00\n        /* \"liberland/eth/mastet_token_flattened.sol\":6220:6339  _approve(... */\n      tag_69\n        /* \"liberland/eth/mastet_token_flattened.sol\":6242:6252  msg.sender */\n      caller\n        /* \"liberland/eth/mastet_token_flattened.sol\":6266:6273  spender */\n      dup5\n        /* \"liberland/eth/mastet_token_flattened.sol\":6319:6329  addedValue */\n      dup5\n        /* \"liberland/eth/mastet_token_flattened.sol\":6287:6295  _allowed */\n      0x01\n        /* \"liberland/eth/mastet_token_flattened.sol\":6287:6307  _allowed[msg.sender] */\n      0x00\n        /* \"liberland/eth/mastet_token_flattened.sol\":6296:6306  msg.sender */\n      caller\n        /* \"liberland/eth/mastet_token_flattened.sol\":6287:6307  _allowed[msg.sender] */\n      0xffffffffffffffffffffffffffffffffffffffff\n      and\n      0xffffffffffffffffffffffffffffffffffffffff\n      and\n      dup2\n      mstore\n      0x20\n      add\n      swap1\n      dup2\n      mstore\n      0x20\n      add\n      0x00\n      keccak256\n        /* \"liberland/eth/mastet_token_flattened.sol\":6287:6316  _allowed[msg.sender][spender] */\n      0x00\n        /* \"liberland/eth/mastet_token_flattened.sol\":6308:6315  spender */\n      dup9\n        /* \"liberland/eth/mastet_token_flattened.sol\":6287:6316  _allowed[msg.sender][spender] */\n      0xffffffffffffffffffffffffffffffffffffffff\n      and\n      0xffffffffffffffffffffffffffffffffffffffff\n      and\n      dup2\n      mstore\n      0x20\n      add\n      swap1\n      dup2\n      mstore\n      0x20\n      add\n      0x00\n      keccak256\n      sload\n        /* \"liberland/eth/mastet_token_flattened.sol\":6287:6329  _allowed[msg.sender][spender] + addedValue */\n      tag_70\n      swap2\n      swap1\n      tag_71\n      jump\t// in\n    tag_70:\n        /* \"liberland/eth/mastet_token_flattened.sol\":6220:6228  _approve */\n      tag_60\n        /* \"liberland/eth/mastet_token_flattened.sol\":6220:6339  _approve(... */\n      jump\t// in\n    tag_69:\n        /* \"liberland/eth/mastet_token_flattened.sol\":6356:6360  true */\n      0x01\n        /* \"liberland/eth/mastet_token_flattened.sol\":6349:6360  return true */\n      swap1\n      pop\n        /* \"liberland/eth/mastet_token_flattened.sol\":6104:6367  function increaseAllowance(address spender, uint256 addedValue)... */\n      swap3\n      swap2\n      pop\n      pop\n      jump\t// out\n        /* \"liberland/eth/mastet_token_flattened.sol\":10159:10236  function burn(uint256 value) public {... */\n    tag_36:\n        /* \"liberland/eth/mastet_token_flattened.sol\":10205:10229  _burn(msg.sender, value) */\n      tag_73\n        /* \"liberland/eth/mastet_token_flattened.sol\":10211:10221  msg.sender */\n      caller\n        /* \"liberland/eth/mastet_token_flattened.sol\":10223:10228  value */\n      dup3\n        /* \"liberland/eth/mastet_token_flattened.sol\":10205:10210  _burn */\n      tag_74\n        /* \"liberland/eth/mastet_token_flattened.sol\":10205:10229  _burn(msg.sender, value) */\n      jump\t// in\n    tag_73:\n        /* \"liberland/eth/mastet_token_flattened.sol\":10159:10236  function burn(uint256 value) public {... */\n      pop\n      jump\t// out\n        /* \"liberland/eth/mastet_token_flattened.sol\":3100:3213  function balanceOf(address owner) public view override returns (uint256) {... */\n    tag_40:\n        /* \"liberland/eth/mastet_token_flattened.sol\":3164:3171  uint256 */\n      0x00\n        /* \"liberland/eth/mastet_token_flattened.sol\":3190:3199  _balances */\n      dup1\n        /* \"liberland/eth/mastet_token_flattened.sol\":3190:3206  _balances[owner] */\n      0x00\n        /* \"liberland/eth/mastet_token_flattened.sol\":3200:3205  owner */\n      dup4\n        /* \"liberland/eth/mastet_token_flattened.sol\":3190:3206  _balances[owner] */\n      0xffffffffffffffffffffffffffffffffffffffff\n      and\n      0xffffffffffffffffffffffffffffffffffffffff\n      and\n      dup2\n      mstore\n      0x20\n      add\n      swap1\n      dup2\n      mstore\n      0x20\n      add\n      0x00\n      keccak256\n      sload\n        /* \"liberland/eth/mastet_token_flattened.sol\":3183:3206  return _balances[owner] */\n      swap1\n      pop\n        /* \"liberland/eth/mastet_token_flattened.sol\":3100:3213  function balanceOf(address owner) public view override returns (uint256) {... */\n      swap2\n      swap1\n      pop\n      jump\t// out\n        /* \"liberland/eth/mastet_token_flattened.sol\":10488:10581  function burnFrom(address from, uint256 value) public {... */\n    tag_44:\n        /* \"liberland/eth/mastet_token_flattened.sol\":10552:10574  _burnFrom(from, value) */\n      tag_77\n        /* \"liberland/eth/mastet_token_flattened.sol\":10562:10566  from */\n      dup3\n        /* \"liberland/eth/mastet_token_flattened.sol\":10568:10573  value */\n      dup3\n        /* \"liberland/eth/mastet_token_flattened.sol\":10552:10561  _burnFrom */\n      tag_78\n        /* \"liberland/eth/mastet_token_flattened.sol\":10552:10574  _burnFrom(from, value) */\n      jump\t// in\n    tag_77:\n        /* \"liberland/eth/mastet_token_flattened.sol\":10488:10581  function burnFrom(address from, uint256 value) public {... */\n      pop\n      pop\n      jump\t// out\n        /* \"liberland/eth/mastet_token_flattened.sol\":6875:7148  function decreaseAllowance(address spender, uint256 subtractedValue)... */\n    tag_47:\n        /* \"liberland/eth/mastet_token_flattened.sol\":6976:6980  bool */\n      0x00\n        /* \"liberland/eth/mastet_token_flattened.sol\":6996:7120  _approve(... */\n      tag_80\n        /* \"liberland/eth/mastet_token_flattened.sol\":7018:7028  msg.sender */\n      caller\n        /* \"liberland/eth/mastet_token_flattened.sol\":7042:7049  spender */\n      dup5\n        /* \"liberland/eth/mastet_token_flattened.sol\":7095:7110  subtractedValue */\n      dup5\n        /* \"liberland/eth/mastet_token_flattened.sol\":7063:7071  _allowed */\n      0x01\n        /* \"liberland/eth/mastet_token_flattened.sol\":7063:7083  _allowed[msg.sender] */\n      0x00\n        /* \"liberland/eth/mastet_token_flattened.sol\":7072:7082  msg.sender */\n      caller\n        /* \"liberland/eth/mastet_token_flattened.sol\":7063:7083  _allowed[msg.sender] */\n      0xffffffffffffffffffffffffffffffffffffffff\n      and\n      0xffffffffffffffffffffffffffffffffffffffff\n      and\n      dup2\n      mstore\n      0x20\n      add\n      swap1\n      dup2\n      mstore\n      0x20\n      add\n      0x00\n      keccak256\n        /* \"liberland/eth/mastet_token_flattened.sol\":7063:7092  _allowed[msg.sender][spender] */\n      0x00\n        /* \"liberland/eth/mastet_token_flattened.sol\":7084:7091  spender */\n      dup9\n        /* \"liberland/eth/mastet_token_flattened.sol\":7063:7092  _allowed[msg.sender][spender] */\n      0xffffffffffffffffffffffffffffffffffffffff\n      and\n      0xffffffffffffffffffffffffffffffffffffffff\n      and\n      dup2\n      mstore\n      0x20\n      add\n      swap1\n      dup2\n      mstore\n      0x20\n      add\n      0x00\n      keccak256\n      sload\n        /* \"liberland/eth/mastet_token_flattened.sol\":7063:7110  _allowed[msg.sender][spender] - subtractedValue */\n      tag_81\n      swap2\n      swap1\n      tag_67\n      jump\t// in\n    tag_81:\n        /* \"liberland/eth/mastet_token_flattened.sol\":6996:7004  _approve */\n      tag_60\n        /* \"liberland/eth/mastet_token_flattened.sol\":6996:7120  _approve(... */\n      jump\t// in\n    tag_80:\n        /* \"liberland/eth/mastet_token_flattened.sol\":7137:7141  true */\n      0x01\n        /* \"liberland/eth/mastet_token_flattened.sol\":7130:7141  return true */\n      swap1\n      pop\n        /* \"liberland/eth/mastet_token_flattened.sol\":6875:7148  function decreaseAllowance(address spender, uint256 subtractedValue)... */\n      swap3\n      swap2\n      pop\n      pop\n      jump\t// out\n        /* \"liberland/eth/mastet_token_flattened.sol\":3886:4060  function transfer(address to, uint256 value)... */\n    tag_51:\n        /* \"liberland/eth/mastet_token_flattened.sol\":3980:3984  bool */\n      0x00\n        /* \"liberland/eth/mastet_token_flattened.sol\":4000:4032  _transfer(msg.sender, to, value) */\n      tag_83\n        /* \"liberland/eth/mastet_token_flattened.sol\":4010:4020  msg.sender */\n      caller\n        /* \"liberland/eth/mastet_token_flattened.sol\":4022:4024  to */\n      dup5\n        /* \"liberland/eth/mastet_token_flattened.sol\":4026:4031  value */\n      dup5\n        /* \"liberland/eth/mastet_token_flattened.sol\":4000:4009  _transfer */\n      tag_64\n        /* \"liberland/eth/mastet_token_flattened.sol\":4000:4032  _transfer(msg.sender, to, value) */\n      jump\t// in\n    tag_83:\n        /* \"liberland/eth/mastet_token_flattened.sol\":4049:4053  true */\n      0x01\n        /* \"liberland/eth/mastet_token_flattened.sol\":4042:4053  return true */\n      swap1\n      pop\n        /* \"liberland/eth/mastet_token_flattened.sol\":3886:4060  function transfer(address to, uint256 value)... */\n      swap3\n      swap2\n      pop\n      pop\n      jump\t// out\n        /* \"liberland/eth/mastet_token_flattened.sol\":3544:3718  function allowance(address owner, address spender)... */\n    tag_56:\n        /* \"liberland/eth/mastet_token_flattened.sol\":3657:3664  uint256 */\n      0x00\n        /* \"liberland/eth/mastet_token_flattened.sol\":3687:3695  _allowed */\n      0x01\n        /* \"liberland/eth/mastet_token_flattened.sol\":3687:3702  _allowed[owner] */\n      0x00\n        /* \"liberland/eth/mastet_token_flattened.sol\":3696:3701  owner */\n      dup5\n        /* \"liberland/eth/mastet_token_flattened.sol\":3687:3702  _allowed[owner] */\n      0xffffffffffffffffffffffffffffffffffffffff\n      and\n      0xffffffffffffffffffffffffffffffffffffffff\n      and\n      dup2\n      mstore\n      0x20\n      add\n      swap1\n      dup2\n      mstore\n      0x20\n      add\n      0x00\n      keccak256\n        /* \"liberland/eth/mastet_token_flattened.sol\":3687:3711  _allowed[owner][spender] */\n      0x00\n        /* \"liberland/eth/mastet_token_flattened.sol\":3703:3710  spender */\n      dup4\n        /* \"liberland/eth/mastet_token_flattened.sol\":3687:3711  _allowed[owner][spender] */\n      0xffffffffffffffffffffffffffffffffffffffff\n      and\n      0xffffffffffffffffffffffffffffffffffffffff\n      and\n      dup2\n      mstore\n      0x20\n      add\n      swap1\n      dup2\n      mstore\n      0x20\n      add\n      0x00\n      keccak256\n      sload\n        /* \"liberland/eth/mastet_token_flattened.sol\":3680:3711  return _allowed[owner][spender] */\n      swap1\n      pop\n        /* \"liberland/eth/mastet_token_flattened.sol\":3544:3718  function allowance(address owner, address spender)... */\n      swap3\n      swap2\n      pop\n      pop\n      jump\t// out\n        /* \"liberland/eth/mastet_token_flattened.sol\":8995:9273  function _approve(... */\n    tag_60:\n        /* \"liberland/eth/mastet_token_flattened.sol\":9136:9137  0 */\n      0x00\n        /* \"liberland/eth/mastet_token_flattened.sol\":9117:9138  spender != address(0) */\n      0xffffffffffffffffffffffffffffffffffffffff\n      and\n        /* \"liberland/eth/mastet_token_flattened.sol\":9117:9124  spender */\n      dup3\n        /* \"liberland/eth/mastet_token_flattened.sol\":9117:9138  spender != address(0) */\n      0xffffffffffffffffffffffffffffffffffffffff\n      and\n      sub\n        /* \"liberland/eth/mastet_token_flattened.sol\":9109:9139  require(spender != address(0)) */\n      tag_86\n      jumpi\n      0x00\n      dup1\n      revert\n    tag_86:\n        /* \"liberland/eth/mastet_token_flattened.sol\":9174:9175  0 */\n      0x00\n        /* \"liberland/eth/mastet_token_flattened.sol\":9157:9176  owner != address(0) */\n      0xffffffffffffffffffffffffffffffffffffffff\n      and\n        /* \"liberland/eth/mastet_token_flattened.sol\":9157:9162  owner */\n      dup4\n        /* \"liberland/eth/mastet_token_flattened.sol\":9157:9176  owner != address(0) */\n      0xffffffffffffffffffffffffffffffffffffffff\n      and\n      sub\n        /* \"liberland/eth/mastet_token_flattened.sol\":9149:9177  require(owner != address(0)) */\n      tag_87\n      jumpi\n      0x00\n      dup1\n      revert\n    tag_87:\n        /* \"liberland/eth/mastet_token_flattened.sol\":9215:9220  value */\n      dup1\n        /* \"liberland/eth/mastet_token_flattened.sol\":9188:9196  _allowed */\n      0x01\n        /* \"liberland/eth/mastet_token_flattened.sol\":9188:9203  _allowed[owner] */\n      0x00\n        /* \"liberland/eth/mastet_token_flattened.sol\":9197:9202  owner */\n      dup6\n        /* \"liberland/eth/mastet_token_flattened.sol\":9188:9203  _allowed[owner] */\n      0xffffffffffffffffffffffffffffffffffffffff\n      and\n      0xffffffffffffffffffffffffffffffffffffffff\n      and\n      dup2\n      mstore\n      0x20\n      add\n      swap1\n      dup2\n      mstore\n      0x20\n      add\n      0x00\n      keccak256\n        /* \"liberland/eth/mastet_token_flattened.sol\":9188:9212  _allowed[owner][spender] */\n      0x00\n        /* \"liberland/eth/mastet_token_flattened.sol\":9204:9211  spender */\n      dup5\n        /* \"liberland/eth/mastet_token_flattened.sol\":9188:9212  _allowed[owner][spender] */\n      0xffffffffffffffffffffffffffffffffffffffff\n      and\n      0xffffffffffffffffffffffffffffffffffffffff\n      and\n      dup2\n      mstore\n      0x20\n      add\n      swap1\n      dup2\n      mstore\n      0x20\n      add\n      0x00\n      keccak256\n        /* \"liberland/eth/mastet_token_flattened.sol\":9188:9220  _allowed[owner][spender] = value */\n      dup2\n      swap1\n      sstore\n      pop\n        /* \"liberland/eth/mastet_token_flattened.sol\":9251:9258  spender */\n      dup2\n        /* \"liberland/eth/mastet_token_flattened.sol\":9235:9266  Approval(owner, spender, value) */\n      0xffffffffffffffffffffffffffffffffffffffff\n      and\n        /* \"liberland/eth/mastet_token_flattened.sol\":9244:9249  owner */\n      dup4\n        /* \"liberland/eth/mastet_token_flattened.sol\":9235:9266  Approval(owner, spender, value) */\n      0xffffffffffffffffffffffffffffffffffffffff\n      and\n      0x8c5be1e5ebec7d5bd14f71427d1e84f3dd0314c0f7b2291e5b200ac8c7c3b925\n        /* \"liberland/eth/mastet_token_flattened.sol\":9260:9265  value */\n      dup4\n        /* \"liberland/eth/mastet_token_flattened.sol\":9235:9266  Approval(owner, spender, value) */\n      mload(0x40)\n      tag_88\n      swap2\n      swap1\n      tag_23\n      jump\t// in\n    tag_88:\n      mload(0x40)\n      dup1\n      swap2\n      sub\n      swap1\n      log3\n        /* \"liberland/eth/mastet_token_flattened.sol\":8995:9273  function _approve(... */\n      pop\n      pop\n      pop\n      jump\t// out\n        /* \"liberland/eth/mastet_token_flattened.sol\":7367:7647  function _transfer(... */\n    tag_64:\n        /* \"liberland/eth/mastet_token_flattened.sol\":7498:7499  0 */\n      0x00\n        /* \"liberland/eth/mastet_token_flattened.sol\":7484:7500  to != address(0) */\n      0xffffffffffffffffffffffffffffffffffffffff\n      and\n        /* \"liberland/eth/mastet_token_flattened.sol\":7484:7486  to */\n      dup3\n        /* \"liberland/eth/mastet_token_flattened.sol\":7484:7500  to != address(0) */\n      0xffffffffffffffffffffffffffffffffffffffff\n      and\n      sub\n        /* \"liberland/eth/mastet_token_flattened.sol\":7476:7501  require(to != address(0)) */\n      tag_90\n      jumpi\n      0x00\n      dup1\n      revert\n    tag_90:\n        /* \"liberland/eth/mastet_token_flattened.sol\":7548:7553  value */\n      dup1\n        /* \"liberland/eth/mastet_token_flattened.sol\":7530:7539  _balances */\n      0x00\n        /* \"liberland/eth/mastet_token_flattened.sol\":7530:7545  _balances[from] */\n      dup1\n        /* \"liberland/eth/mastet_token_flattened.sol\":7540:7544  from */\n      dup6\n        /* \"liberland/eth/mastet_token_flattened.sol\":7530:7545  _balances[from] */\n      0xffffffffffffffffffffffffffffffffffffffff\n      and\n      0xffffffffffffffffffffffffffffffffffffffff\n      and\n      dup2\n      mstore\n      0x20\n      add\n      swap1\n      dup2\n      mstore\n      0x20\n      add\n      0x00\n      keccak256\n      sload\n        /* \"liberland/eth/mastet_token_flattened.sol\":7530:7553  _balances[from] - value */\n      tag_91\n      swap2\n      swap1\n      tag_67\n      jump\t// in\n    tag_91:\n        /* \"liberland/eth/mastet_token_flattened.sol\":7512:7521  _balances */\n      0x00\n        /* \"liberland/eth/mastet_token_flattened.sol\":7512:7527  _balances[from] */\n      dup1\n        /* \"liberland/eth/mastet_token_flattened.sol\":7522:7526  from */\n      dup6\n        /* \"liberland/eth/mastet_token_flattened.sol\":7512:7527  _balances[from] */\n      0xffffffffffffffffffffffffffffffffffffffff\n      and\n      0xffffffffffffffffffffffffffffffffffffffff\n      and\n      dup2\n      mstore\n      0x20\n      add\n      swap1\n      dup2\n      mstore\n      0x20\n      add\n      0x00\n      keccak256\n        /* \"liberland/eth/mastet_token_flattened.sol\":7512:7553  _balances[from] = _balances[from] - value */\n      dup2\n      swap1\n      sstore\n      pop\n        /* \"liberland/eth/mastet_token_flattened.sol\":7595:7600  value */\n      dup1\n        /* \"liberland/eth/mastet_token_flattened.sol\":7579:7588  _balances */\n      0x00\n        /* \"liberland/eth/mastet_token_flattened.sol\":7579:7592  _balances[to] */\n      dup1\n        /* \"liberland/eth/mastet_token_flattened.sol\":7589:7591  to */\n      dup5\n        /* \"liberland/eth/mastet_token_flattened.sol\":7579:7592  _balances[to] */\n      0xffffffffffffffffffffffffffffffffffffffff\n      and\n      0xffffffffffffffffffffffffffffffffffffffff\n      and\n      dup2\n      mstore\n      0x20\n      add\n      swap1\n      dup2\n      mstore\n      0x20\n      add\n      0x00\n      keccak256\n      sload\n        /* \"liberland/eth/mastet_token_flattened.sol\":7579:7600  _balances[to] + value */\n      tag_92\n      swap2\n      swap1\n      tag_71\n      jump\t// in\n    tag_92:\n        /* \"liberland/eth/mastet_token_flattened.sol\":7563:7572  _balances */\n      0x00\n        /* \"liberland/eth/mastet_token_flattened.sol\":7563:7576  _balances[to] */\n      dup1\n        /* \"liberland/eth/mastet_token_flattened.sol\":7573:7575  to */\n      dup5\n        /* \"liberland/eth/mastet_token_flattened.sol\":7563:7576  _balances[to] */\n      0xffffffffffffffffffffffffffffffffffffffff\n      and\n      0xffffffffffffffffffffffffffffffffffffffff\n      and\n      dup2\n      mstore\n      0x20\n      add\n      swap1\n      dup2\n      mstore\n      0x20\n      add\n      0x00\n      keccak256\n        /* \"liberland/eth/mastet_token_flattened.sol\":7563:7600  _balances[to] = _balances[to] + value */\n      dup2\n      swap1\n      sstore\n      pop\n        /* \"liberland/eth/mastet_token_flattened.sol\":7630:7632  to */\n      dup2\n        /* \"liberland/eth/mastet_token_flattened.sol\":7615:7640  Transfer(from, to, value) */\n      0xffffffffffffffffffffffffffffffffffffffff\n      and\n        /* \"liberland/eth/mastet_token_flattened.sol\":7624:7628  from */\n      dup4\n        /* \"liberland/eth/mastet_token_flattened.sol\":7615:7640  Transfer(from, to, value) */\n      0xffffffffffffffffffffffffffffffffffffffff\n      and\n      0xddf252ad1be2c89b69c2b068fc378daa952ba7f163c4a11628f55a4df523b3ef\n        /* \"liberland/eth/mastet_token_flattened.sol\":7634:7639  value */\n      dup4\n        /* \"liberland/eth/mastet_token_flattened.sol\":7615:7640  Transfer(from, to, value) */\n      mload(0x40)\n      tag_93\n      swap2\n      swap1\n      tag_23\n      jump\t// in\n    tag_93:\n      mload(0x40)\n      dup1\n      swap2\n      sub\n      swap1\n      log3\n        /* \"liberland/eth/mastet_token_flattened.sol\":7367:7647  function _transfer(... */\n      pop\n      pop\n      pop\n      jump\t// out\n        /* \"liberland/eth/mastet_token_flattened.sol\":8473:8730  function _burn(address account, uint256 value) internal {... */\n    tag_74:\n        /* \"liberland/eth/mastet_token_flattened.sol\":8566:8567  0 */\n      0x00\n        /* \"liberland/eth/mastet_token_flattened.sol\":8547:8568  account != address(0) */\n      0xffffffffffffffffffffffffffffffffffffffff\n      and\n        /* \"liberland/eth/mastet_token_flattened.sol\":8547:8554  account */\n      dup3\n        /* \"liberland/eth/mastet_token_flattened.sol\":8547:8568  account != address(0) */\n      0xffffffffffffffffffffffffffffffffffffffff\n      and\n      sub\n        /* \"liberland/eth/mastet_token_flattened.sol\":8539:8569  require(account != address(0)) */\n      tag_95\n      jumpi\n      0x00\n      dup1\n      revert\n    tag_95:\n        /* \"liberland/eth/mastet_token_flattened.sol\":8610:8615  value */\n      dup1\n        /* \"liberland/eth/mastet_token_flattened.sol\":8595:8607  _totalSupply */\n      sload(0x02)\n        /* \"liberland/eth/mastet_token_flattened.sol\":8595:8615  _totalSupply - value */\n      tag_96\n      swap2\n      swap1\n      tag_67\n      jump\t// in\n    tag_96:\n        /* \"liberland/eth/mastet_token_flattened.sol\":8580:8592  _totalSupply */\n      0x02\n        /* \"liberland/eth/mastet_token_flattened.sol\":8580:8615  _totalSupply = _totalSupply - value */\n      dup2\n      swap1\n      sstore\n      pop\n        /* \"liberland/eth/mastet_token_flattened.sol\":8667:8672  value */\n      dup1\n        /* \"liberland/eth/mastet_token_flattened.sol\":8646:8655  _balances */\n      0x00\n        /* \"liberland/eth/mastet_token_flattened.sol\":8646:8664  _balances[account] */\n      dup1\n        /* \"liberland/eth/mastet_token_flattened.sol\":8656:8663  account */\n      dup5\n        /* \"liberland/eth/mastet_token_flattened.sol\":8646:8664  _balances[account] */\n      0xffffffffffffffffffffffffffffffffffffffff\n      and\n      0xffffffffffffffffffffffffffffffffffffffff\n      and\n      dup2\n      mstore\n      0x20\n      add\n      swap1\n      dup2\n      mstore\n      0x20\n      add\n      0x00\n      keccak256\n      sload\n        /* \"liberland/eth/mastet_token_flattened.sol\":8646:8672  _balances[account] - value */\n      tag_97\n      swap2\n      swap1\n      tag_67\n      jump\t// in\n    tag_97:\n        /* \"liberland/eth/mastet_token_flattened.sol\":8625:8634  _balances */\n      0x00\n        /* \"liberland/eth/mastet_token_flattened.sol\":8625:8643  _balances[account] */\n      dup1\n        /* \"liberland/eth/mastet_token_flattened.sol\":8635:8642  account */\n      dup5\n        /* \"liberland/eth/mastet_token_flattened.sol\":8625:8643  _balances[account] */\n      0xffffffffffffffffffffffffffffffffffffffff\n      and\n      0xffffffffffffffffffffffffffffffffffffffff\n      and\n      dup2\n      mstore\n      0x20\n      add\n      swap1\n      dup2\n      mstore\n      0x20\n      add\n      0x00\n      keccak256\n        /* \"liberland/eth/mastet_token_flattened.sol\":8625:8672  _balances[account] = _balances[account] - value */\n      dup2\n      swap1\n      sstore\n      pop\n        /* \"liberland/eth/mastet_token_flattened.sol\":8713:8714  0 */\n      0x00\n        /* \"liberland/eth/mastet_token_flattened.sol\":8687:8723  Transfer(account, address(0), value) */\n      0xffffffffffffffffffffffffffffffffffffffff\n      and\n        /* \"liberland/eth/mastet_token_flattened.sol\":8696:8703  account */\n      dup3\n        /* \"liberland/eth/mastet_token_flattened.sol\":8687:8723  Transfer(account, address(0), value) */\n      0xffffffffffffffffffffffffffffffffffffffff\n      and\n      0xddf252ad1be2c89b69c2b068fc378daa952ba7f163c4a11628f55a4df523b3ef\n        /* \"liberland/eth/mastet_token_flattened.sol\":8717:8722  value */\n      dup4\n        /* \"liberland/eth/mastet_token_flattened.sol\":8687:8723  Transfer(account, address(0), value) */\n      mload(0x40)\n      tag_98\n      swap2\n      swap1\n      tag_23\n      jump\t// in\n    tag_98:\n      mload(0x40)\n      dup1\n      swap2\n      sub\n      swap1\n      log3\n        /* \"liberland/eth/mastet_token_flattened.sol\":8473:8730  function _burn(address account, uint256 value) internal {... */\n      pop\n      pop\n      jump\t// out\n        /* \"liberland/eth/mastet_token_flattened.sol\":9662:9838  function _burnFrom(address account, uint256 value) internal {... */\n    tag_78:\n        /* \"liberland/eth/mastet_token_flattened.sol\":9732:9753  _burn(account, value) */\n      tag_100\n        /* \"liberland/eth/mastet_token_flattened.sol\":9738:9745  account */\n      dup3\n        /* \"liberland/eth/mastet_token_flattened.sol\":9747:9752  value */\n      dup3\n        /* \"liberland/eth/mastet_token_flattened.sol\":9732:9737  _burn */\n      tag_74\n        /* \"liberland/eth/mastet_token_flattened.sol\":9732:9753  _burn(account, value) */\n      jump\t// in\n    tag_100:\n        /* \"liberland/eth/mastet_token_flattened.sol\":9763:9831  _approve(account, msg.sender, _allowed[account][msg.sender] - value) */\n      tag_101\n        /* \"liberland/eth/mastet_token_flattened.sol\":9772:9779  account */\n      dup3\n        /* \"liberland/eth/mastet_token_flattened.sol\":9781:9791  msg.sender */\n      caller\n        /* \"liberland/eth/mastet_token_flattened.sol\":9825:9830  value */\n      dup4\n        /* \"liberland/eth/mastet_token_flattened.sol\":9793:9801  _allowed */\n      0x01\n        /* \"liberland/eth/mastet_token_flattened.sol\":9793:9810  _allowed[account] */\n      0x00\n        /* \"liberland/eth/mastet_token_flattened.sol\":9802:9809  account */\n      dup8\n        /* \"liberland/eth/mastet_token_flattened.sol\":9793:9810  _allowed[account] */\n      0xffffffffffffffffffffffffffffffffffffffff\n      and\n      0xffffffffffffffffffffffffffffffffffffffff\n      and\n      dup2\n      mstore\n      0x20\n      add\n      swap1\n      dup2\n      mstore\n      0x20\n      add\n      0x00\n      keccak256\n        /* \"liberland/eth/mastet_token_flattened.sol\":9793:9822  _allowed[account][msg.sender] */\n      0x00\n        /* \"liberland/eth/mastet_token_flattened.sol\":9811:9821  msg.sender */\n      caller\n        /* \"liberland/eth/mastet_token_flattened.sol\":9793:9822  _allowed[account][msg.sender] */\n      0xffffffffffffffffffffffffffffffffffffffff\n      and\n      0xffffffffffffffffffffffffffffffffffffffff\n      and\n      dup2\n      mstore\n      0x20\n      add\n      swap1\n      dup2\n      mstore\n      0x20\n      add\n      0x00\n      keccak256\n      sload\n        /* \"liberland/eth/mastet_token_flattened.sol\":9793:9830  _allowed[account][msg.sender] - value */\n      tag_102\n      swap2\n      swap1\n      tag_67\n      jump\t// in\n    tag_102:\n        /* \"liberland/eth/mastet_token_flattened.sol\":9763:9771  _approve */\n      tag_60\n        /* \"liberland/eth/mastet_token_flattened.sol\":9763:9831  _approve(account, msg.sender, _allowed[account][msg.sender] - value) */\n      jump\t// in\n    tag_101:\n        /* \"liberland/eth/mastet_token_flattened.sol\":9662:9838  function _burnFrom(address account, uint256 value) internal {... */\n      pop\n      pop\n      jump\t// out\n        /* \"#utility.yul\":88:205   */\n    tag_104:\n        /* \"#utility.yul\":197:198   */\n      0x00\n        /* \"#utility.yul\":194:195   */\n      dup1\n        /* \"#utility.yul\":187:199   */\n      revert\n        /* \"#utility.yul\":334:460   */\n    tag_106:\n        /* \"#utility.yul\":371:378   */\n      0x00\n        /* \"#utility.yul\":411:453   */\n      0xffffffffffffffffffffffffffffffffffffffff\n        /* \"#utility.yul\":404:409   */\n      dup3\n        /* \"#utility.yul\":400:454   */\n      and\n        /* \"#utility.yul\":389:454   */\n      swap1\n      pop\n        /* \"#utility.yul\":334:460   */\n      swap2\n      swap1\n      pop\n      jump\t// out\n        /* \"#utility.yul\":466:562   */\n    tag_107:\n        /* \"#utility.yul\":503:510   */\n      0x00\n        /* \"#utility.yul\":532:556   */\n      tag_123\n        /* \"#utility.yul\":550:555   */\n      dup3\n        /* \"#utility.yul\":532:556   */\n      tag_106\n      jump\t// in\n    tag_123:\n        /* \"#utility.yul\":521:556   */\n      swap1\n      pop\n        /* \"#utility.yul\":466:562   */\n      swap2\n      swap1\n      pop\n      jump\t// out\n        /* \"#utility.yul\":568:690   */\n    tag_108:\n        /* \"#utility.yul\":641:665   */\n      tag_125\n        /* \"#utility.yul\":659:664   */\n      dup2\n        /* \"#utility.yul\":641:665   */\n      tag_107\n      jump\t// in\n    tag_125:\n        /* \"#utility.yul\":634:639   */\n      dup2\n        /* \"#utility.yul\":631:666   */\n      eq\n        /* \"#utility.yul\":621:684   */\n      tag_126\n      jumpi\n        /* \"#utility.yul\":680:681   */\n      0x00\n        /* \"#utility.yul\":677:678   */\n      dup1\n        /* \"#utility.yul\":670:682   */\n      revert\n        /* \"#utility.yul\":621:684   */\n    tag_126:\n        /* \"#utility.yul\":568:690   */\n      pop\n      jump\t// out\n        /* \"#utility.yul\":696:835   */\n    tag_109:\n        /* \"#utility.yul\":742:747   */\n      0x00\n        /* \"#utility.yul\":780:786   */\n      dup2\n        /* \"#utility.yul\":767:787   */\n      calldataload\n        /* \"#utility.yul\":758:787   */\n      swap1\n      pop\n        /* \"#utility.yul\":796:829   */\n      tag_128\n        /* \"#utility.yul\":823:828   */\n      dup2\n        /* \"#utility.yul\":796:829   */\n      tag_108\n      jump\t// in\n    tag_128:\n        /* \"#utility.yul\":696:835   */\n      swap3\n      swap2\n      pop\n      pop\n      jump\t// out\n        /* \"#utility.yul\":841:918   */\n    tag_110:\n        /* \"#utility.yul\":878:885   */\n      0x00\n        /* \"#utility.yul\":907:912   */\n      dup2\n        /* \"#utility.yul\":896:912   */\n      swap1\n      pop\n        /* \"#utility.yul\":841:918   */\n      swap2\n      swap1\n      pop\n      jump\t// out\n        /* \"#utility.yul\":924:1046   */\n    tag_111:\n        /* \"#utility.yul\":997:1021   */\n      tag_131\n        /* \"#utility.yul\":1015:1020   */\n      dup2\n        /* \"#utility.yul\":997:1021   */\n      tag_110\n      jump\t// in\n    tag_131:\n        /* \"#utility.yul\":990:995   */\n      dup2\n        /* \"#utility.yul\":987:1022   */\n      eq\n        /* \"#utility.yul\":977:1040   */\n      tag_132\n      jumpi\n        /* \"#utility.yul\":1036:1037   */\n      0x00\n        /* \"#utility.yul\":1033:1034   */\n      dup1\n        /* \"#utility.yul\":1026:1038   */\n      revert\n        /* \"#utility.yul\":977:1040   */\n    tag_132:\n        /* \"#utility.yul\":924:1046   */\n      pop\n      jump\t// out\n        /* \"#utility.yul\":1052:1191   */\n    tag_112:\n        /* \"#utility.yul\":1098:1103   */\n      0x00\n        /* \"#utility.yul\":1136:1142   */\n      dup2\n        /* \"#utility.yul\":1123:1143   */\n      calldataload\n        /* \"#utility.yul\":1114:1143   */\n      swap1\n      pop\n        /* \"#utility.yul\":1152:1185   */\n      tag_134\n        /* \"#utility.yul\":1179:1184   */\n      dup2\n        /* \"#utility.yul\":1152:1185   */\n      tag_111\n      jump\t// in\n    tag_134:\n        /* \"#utility.yul\":1052:1191   */\n      swap3\n      swap2\n      pop\n      pop\n      jump\t// out\n        /* \"#utility.yul\":1197:1671   */\n    tag_16:\n        /* \"#utility.yul\":1265:1271   */\n      0x00\n        /* \"#utility.yul\":1273:1279   */\n      dup1\n        /* \"#utility.yul\":1322:1324   */\n      0x40\n        /* \"#utility.yul\":1310:1319   */\n      dup4\n        /* \"#utility.yul\":1301:1308   */\n      dup6\n        /* \"#utility.yul\":1297:1320   */\n      sub\n        /* \"#utility.yul\":1293:1325   */\n      slt\n        /* \"#utility.yul\":1290:1409   */\n      iszero\n      tag_136\n      jumpi\n        /* \"#utility.yul\":1328:1407   */\n      tag_137\n      tag_104\n      jump\t// in\n    tag_137:\n        /* \"#utility.yul\":1290:1409   */\n    tag_136:\n        /* \"#utility.yul\":1448:1449   */\n      0x00\n        /* \"#utility.yul\":1473:1526   */\n      tag_138\n        /* \"#utility.yul\":1518:1525   */\n      dup6\n        /* \"#utility.yul\":1509:1515   */\n      dup3\n        /* \"#utility.yul\":1498:1507   */\n      dup7\n        /* \"#utility.yul\":1494:1516   */\n      add\n        /* \"#utility.yul\":1473:1526   */\n      tag_109\n      jump\t// in\n    tag_138:\n        /* \"#utility.yul\":1463:1526   */\n      swap3\n      pop\n        /* \"#utility.yul\":1419:1536   */\n      pop\n        /* \"#utility.yul\":1575:1577   */\n      0x20\n        /* \"#utility.yul\":1601:1654   */\n      tag_139\n        /* \"#utility.yul\":1646:1653   */\n      dup6\n        /* \"#utility.yul\":1637:1643   */\n      dup3\n        /* \"#utility.yul\":1626:1635   */\n      dup7\n        /* \"#utility.yul\":1622:1644   */\n      add\n        /* \"#utility.yul\":1601:1654   */\n      tag_112\n      jump\t// in\n    tag_139:\n        /* \"#utility.yul\":1591:1654   */\n      swap2\n      pop\n        /* \"#utility.yul\":1546:1664   */\n      pop\n        /* \"#utility.yul\":1197:1671   */\n      swap3\n      pop\n      swap3\n      swap1\n      pop\n      jump\t// out\n        /* \"#utility.yul\":1677:1767   */\n    tag_113:\n        /* \"#utility.yul\":1711:1718   */\n      0x00\n        /* \"#utility.yul\":1754:1759   */\n      dup2\n        /* \"#utility.yul\":1747:1760   */\n      iszero\n        /* \"#utility.yul\":1740:1761   */\n      iszero\n        /* \"#utility.yul\":1729:1761   */\n      swap1\n      pop\n        /* \"#utility.yul\":1677:1767   */\n      swap2\n      swap1\n      pop\n      jump\t// out\n        /* \"#utility.yul\":1773:1882   */\n    tag_114:\n        /* \"#utility.yul\":1854:1875   */\n      tag_142\n        /* \"#utility.yul\":1869:1874   */\n      dup2\n        /* \"#utility.yul\":1854:1875   */\n      tag_113\n      jump\t// in\n    tag_142:\n        /* \"#utility.yul\":1849:1852   */\n      dup3\n        /* \"#utility.yul\":1842:1876   */\n      mstore\n        /* \"#utility.yul\":1773:1882   */\n      pop\n      pop\n      jump\t// out\n        /* \"#utility.yul\":1888:2098   */\n    tag_19:\n        /* \"#utility.yul\":1975:1979   */\n      0x00\n        /* \"#utility.yul\":2013:2015   */\n      0x20\n        /* \"#utility.yul\":2002:2011   */\n      dup3\n        /* \"#utility.yul\":1998:2016   */\n      add\n        /* \"#utility.yul\":1990:2016   */\n      swap1\n      pop\n        /* \"#utility.yul\":2026:2091   */\n      tag_144\n        /* \"#utility.yul\":2088:2089   */\n      0x00\n        /* \"#utility.yul\":2077:2086   */\n      dup4\n        /* \"#utility.yul\":2073:2090   */\n      add\n        /* \"#utility.yul\":2064:2070   */\n      dup5\n        /* \"#utility.yul\":2026:2091   */\n      tag_114\n      jump\t// in\n    tag_144:\n        /* \"#utility.yul\":1888:2098   */\n      swap3\n      swap2\n      pop\n      pop\n      jump\t// out\n        /* \"#utility.yul\":2104:2222   */\n    tag_115:\n        /* \"#utility.yul\":2191:2215   */\n      tag_146\n        /* \"#utility.yul\":2209:2214   */\n      dup2\n        /* \"#utility.yul\":2191:2215   */\n      tag_110\n      jump\t// in\n    tag_146:\n        /* \"#utility.yul\":2186:2189   */\n      dup3\n        /* \"#utility.yul\":2179:2216   */\n      mstore\n        /* \"#utility.yul\":2104:2222   */\n      pop\n      pop\n      jump\t// out\n        /* \"#utility.yul\":2228:2450   */\n    tag_23:\n        /* \"#utility.yul\":2321:2325   */\n      0x00\n        /* \"#utility.yul\":2359:2361   */\n      0x20\n        /* \"#utility.yul\":2348:2357   */\n      dup3\n        /* \"#utility.yul\":2344:2362   */\n      add\n        /* \"#utility.yul\":2336:2362   */\n      swap1\n      pop\n        /* \"#utility.yul\":2372:2443   */\n      tag_148\n        /* \"#utility.yul\":2440:2441   */\n      0x00\n        /* \"#utility.yul\":2429:2438   */\n      dup4\n        /* \"#utility.yul\":2425:2442   */\n      add\n        /* \"#utility.yul\":2416:2422   */\n      dup5\n        /* \"#utility.yul\":2372:2443   */\n      tag_115\n      jump\t// in\n    tag_148:\n        /* \"#utility.yul\":2228:2450   */\n      swap3\n      swap2\n      pop\n      pop\n      jump\t// out\n        /* \"#utility.yul\":2456:3075   */\n    tag_26:\n        /* \"#utility.yul\":2533:2539   */\n      0x00\n        /* \"#utility.yul\":2541:2547   */\n      dup1\n        /* \"#utility.yul\":2549:2555   */\n      0x00\n        /* \"#utility.yul\":2598:2600   */\n      0x60\n        /* \"#utility.yul\":2586:2595   */\n      dup5\n        /* \"#utility.yul\":2577:2584   */\n      dup7\n        /* \"#utility.yul\":2573:2596   */\n      sub\n        /* \"#utility.yul\":2569:2601   */\n      slt\n        /* \"#utility.yul\":2566:2685   */\n      iszero\n      tag_150\n      jumpi\n        /* \"#utility.yul\":2604:2683   */\n      tag_151\n      tag_104\n      jump\t// in\n    tag_151:\n        /* \"#utility.yul\":2566:2685   */\n    tag_150:\n        /* \"#utility.yul\":2724:2725   */\n      0x00\n        /* \"#utility.yul\":2749:2802   */\n      tag_152\n        /* \"#utility.yul\":2794:2801   */\n      dup7\n        /* \"#utility.yul\":2785:2791   */\n      dup3\n        /* \"#utility.yul\":2774:2783   */\n      dup8\n        /* \"#utility.yul\":2770:2792   */\n      add\n        /* \"#utility.yul\":2749:2802   */\n      tag_109\n      jump\t// in\n    tag_152:\n        /* \"#utility.yul\":2739:2802   */\n      swap4\n      pop\n        /* \"#utility.yul\":2695:2812   */\n      pop\n        /* \"#utility.yul\":2851:2853   */\n      0x20\n        /* \"#utility.yul\":2877:2930   */\n      tag_153\n        /* \"#utility.yul\":2922:2929   */\n      dup7\n        /* \"#utility.yul\":2913:2919   */\n      dup3\n        /* \"#utility.yul\":2902:2911   */\n      dup8\n        /* \"#utility.yul\":2898:2920   */\n      add\n        /* \"#utility.yul\":2877:2930   */\n      tag_109\n      jump\t// in\n    tag_153:\n        /* \"#utility.yul\":2867:2930   */\n      swap3\n      pop\n        /* \"#utility.yul\":2822:2940   */\n      pop\n        /* \"#utility.yul\":2979:2981   */\n      0x40\n        /* \"#utility.yul\":3005:3058   */\n      tag_154\n        /* \"#utility.yul\":3050:3057   */\n      dup7\n        /* \"#utility.yul\":3041:3047   */\n      dup3\n        /* \"#utility.yul\":3030:3039   */\n      dup8\n        /* \"#utility.yul\":3026:3048   */\n      add\n        /* \"#utility.yul\":3005:3058   */\n      tag_112\n      jump\t// in\n    tag_154:\n        /* \"#utility.yul\":2995:3058   */\n      swap2\n      pop\n        /* \"#utility.yul\":2950:3068   */\n      pop\n        /* \"#utility.yul\":2456:3075   */\n      swap3\n      pop\n      swap3\n      pop\n      swap3\n      jump\t// out\n        /* \"#utility.yul\":3081:3410   */\n    tag_35:\n        /* \"#utility.yul\":3140:3146   */\n      0x00\n        /* \"#utility.yul\":3189:3191   */\n      0x20\n        /* \"#utility.yul\":3177:3186   */\n      dup3\n        /* \"#utility.yul\":3168:3175   */\n      dup5\n        /* \"#utility.yul\":3164:3187   */\n      sub\n        /* \"#utility.yul\":3160:3192   */\n      slt\n        /* \"#utility.yul\":3157:3276   */\n      iszero\n      tag_156\n      jumpi\n        /* \"#utility.yul\":3195:3274   */\n      tag_157\n      tag_104\n      jump\t// in\n    tag_157:\n        /* \"#utility.yul\":3157:3276   */\n    tag_156:\n        /* \"#utility.yul\":3315:3316   */\n      0x00\n        /* \"#utility.yul\":3340:3393   */\n      tag_158\n        /* \"#utility.yul\":3385:3392   */\n      dup5\n        /* \"#utility.yul\":3376:3382   */\n      dup3\n        /* \"#utility.yul\":3365:3374   */\n      dup6\n        /* \"#utility.yul\":3361:3383   */\n      add\n        /* \"#utility.yul\":3340:3393   */\n      tag_112\n      jump\t// in\n    tag_158:\n        /* \"#utility.yul\":3330:3393   */\n      swap2\n      pop\n        /* \"#utility.yul\":3286:3403   */\n      pop\n        /* \"#utility.yul\":3081:3410   */\n      swap3\n      swap2\n      pop\n      pop\n      jump\t// out\n        /* \"#utility.yul\":3416:3745   */\n    tag_39:\n        /* \"#utility.yul\":3475:3481   */\n      0x00\n        /* \"#utility.yul\":3524:3526   */\n      0x20\n        /* \"#utility.yul\":3512:3521   */\n      dup3\n        /* \"#utility.yul\":3503:3510   */\n      dup5\n        /* \"#utility.yul\":3499:3522   */\n      sub\n        /* \"#utility.yul\":3495:3527   */\n      slt\n        /* \"#utility.yul\":3492:3611   */\n      iszero\n      tag_160\n      jumpi\n        /* \"#utility.yul\":3530:3609   */\n      tag_161\n      tag_104\n      jump\t// in\n    tag_161:\n        /* \"#utility.yul\":3492:3611   */\n    tag_160:\n        /* \"#utility.yul\":3650:3651   */\n      0x00\n        /* \"#utility.yul\":3675:3728   */\n      tag_162\n        /* \"#utility.yul\":3720:3727   */\n      dup5\n        /* \"#utility.yul\":3711:3717   */\n      dup3\n        /* \"#utility.yul\":3700:3709   */\n      dup6\n        /* \"#utility.yul\":3696:3718   */\n      add\n        /* \"#utility.yul\":3675:3728   */\n      tag_109\n      jump\t// in\n    tag_162:\n        /* \"#utility.yul\":3665:3728   */\n      swap2\n      pop\n        /* \"#utility.yul\":3621:3738   */\n      pop\n        /* \"#utility.yul\":3416:3745   */\n      swap3\n      swap2\n      pop\n      pop\n      jump\t// out\n        /* \"#utility.yul\":3751:4225   */\n    tag_55:\n        /* \"#utility.yul\":3819:3825   */\n      0x00\n        /* \"#utility.yul\":3827:3833   */\n      dup1\n        /* \"#utility.yul\":3876:3878   */\n      0x40\n        /* \"#utility.yul\":3864:3873   */\n      dup4\n        /* \"#utility.yul\":3855:3862   */\n      dup6\n        /* \"#utility.yul\":3851:3874   */\n      sub\n        /* \"#utility.yul\":3847:3879   */\n      slt\n        /* \"#utility.yul\":3844:3963   */\n      iszero\n      tag_164\n      jumpi\n        /* \"#utility.yul\":3882:3961   */\n      tag_165\n      tag_104\n      jump\t// in\n    tag_165:\n        /* \"#utility.yul\":3844:3963   */\n    tag_164:\n        /* \"#utility.yul\":4002:4003   */\n      0x00\n        /* \"#utility.yul\":4027:4080   */\n      tag_166\n        /* \"#utility.yul\":4072:4079   */\n      dup6\n        /* \"#utility.yul\":4063:4069   */\n      dup3\n        /* \"#utility.yul\":4052:4061   */\n      dup7\n        /* \"#utility.yul\":4048:4070   */\n      add\n        /* \"#utility.yul\":4027:4080   */\n      tag_109\n      jump\t// in\n    tag_166:\n        /* \"#utility.yul\":4017:4080   */\n      swap3\n      pop\n        /* \"#utility.yul\":3973:4090   */\n      pop\n        /* \"#utility.yul\":4129:4131   */\n      0x20\n        /* \"#utility.yul\":4155:4208   */\n      tag_167\n        /* \"#utility.yul\":4200:4207   */\n      dup6\n        /* \"#utility.yul\":4191:4197   */\n      dup3\n        /* \"#utility.yul\":4180:4189   */\n      dup7\n        /* \"#utility.yul\":4176:4198   */\n      add\n        /* \"#utility.yul\":4155:4208   */\n      tag_109\n      jump\t// in\n    tag_167:\n        /* \"#utility.yul\":4145:4208   */\n      swap2\n      pop\n        /* \"#utility.yul\":4100:4218   */\n      pop\n        /* \"#utility.yul\":3751:4225   */\n      swap3\n      pop\n      swap3\n      swap1\n      pop\n      jump\t// out\n        /* \"#utility.yul\":4231:4411   */\n    tag_116:\n        /* \"#utility.yul\":4279:4356   */\n      0x4e487b7100000000000000000000000000000000000000000000000000000000\n        /* \"#utility.yul\":4276:4277   */\n      0x00\n        /* \"#utility.yul\":4269:4357   */\n      mstore\n        /* \"#utility.yul\":4376:4380   */\n      0x11\n        /* \"#utility.yul\":4373:4374   */\n      0x04\n        /* \"#utility.yul\":4366:4381   */\n      mstore\n        /* \"#utility.yul\":4400:4404   */\n      0x24\n        /* \"#utility.yul\":4397:4398   */\n      0x00\n        /* \"#utility.yul\":4390:4405   */\n      revert\n        /* \"#utility.yul\":4417:4611   */\n    tag_67:\n        /* \"#utility.yul\":4457:4461   */\n      0x00\n        /* \"#utility.yul\":4477:4497   */\n      tag_170\n        /* \"#utility.yul\":4495:4496   */\n      dup3\n        /* \"#utility.yul\":4477:4497   */\n      tag_110\n      jump\t// in\n    tag_170:\n        /* \"#utility.yul\":4472:4497   */\n      swap2\n      pop\n        /* \"#utility.yul\":4511:4531   */\n      tag_171\n        /* \"#utility.yul\":4529:4530   */\n      dup4\n        /* \"#utility.yul\":4511:4531   */\n      tag_110\n      jump\t// in\n    tag_171:\n        /* \"#utility.yul\":4506:4531   */\n      swap3\n      pop\n        /* \"#utility.yul\":4555:4556   */\n      dup3\n        /* \"#utility.yul\":4552:4553   */\n      dup3\n        /* \"#utility.yul\":4548:4557   */\n      sub\n        /* \"#utility.yul\":4540:4557   */\n      swap1\n      pop\n        /* \"#utility.yul\":4579:4580   */\n      dup2\n        /* \"#utility.yul\":4573:4577   */\n      dup2\n        /* \"#utility.yul\":4570:4581   */\n      gt\n        /* \"#utility.yul\":4567:4604   */\n      iszero\n      tag_172\n      jumpi\n        /* \"#utility.yul\":4584:4602   */\n      tag_173\n      tag_116\n      jump\t// in\n    tag_173:\n        /* \"#utility.yul\":4567:4604   */\n    tag_172:\n        /* \"#utility.yul\":4417:4611   */\n      swap3\n      swap2\n      pop\n      pop\n      jump\t// out\n        /* \"#utility.yul\":4617:4808   */\n    tag_71:\n        /* \"#utility.yul\":4657:4660   */\n      0x00\n        /* \"#utility.yul\":4676:4696   */\n      tag_175\n        /* \"#utility.yul\":4694:4695   */\n      dup3\n        /* \"#utility.yul\":4676:4696   */\n      tag_110\n      jump\t// in\n    tag_175:\n        /* \"#utility.yul\":4671:4696   */\n      swap2\n      pop\n        /* \"#utility.yul\":4710:4730   */\n      tag_176\n        /* \"#utility.yul\":4728:4729   */\n      dup4\n        /* \"#utility.yul\":4710:4730   */\n      tag_110\n      jump\t// in\n    tag_176:\n        /* \"#utility.yul\":4705:4730   */\n      swap3\n      pop\n        /* \"#utility.yul\":4753:4754   */\n      dup3\n        /* \"#utility.yul\":4750:4751   */\n      dup3\n        /* \"#utility.yul\":4746:4755   */\n      add\n        /* \"#utility.yul\":4739:4755   */\n      swap1\n      pop\n        /* \"#utility.yul\":4774:4777   */\n      dup1\n        /* \"#utility.yul\":4771:4772   */\n      dup3\n        /* \"#utility.yul\":4768:4778   */\n      gt\n        /* \"#utility.yul\":4765:4801   */\n      iszero\n      tag_177\n      jumpi\n        /* \"#utility.yul\":4781:4799   */\n      tag_178\n      tag_116\n      jump\t// in\n    tag_178:\n        /* \"#utility.yul\":4765:4801   */\n    tag_177:\n        /* \"#utility.yul\":4617:4808   */\n      swap3\n      swap2\n      pop\n      pop\n      jump\t// out\n\n    auxdata: 0xa2646970667358221220e1d5d184a04d6b93e7596a16cc76b67e2b11437b3d2358df9b1ea43f9d34f54564736f6c63430008110033\n}\n",
				"bytecode": {
					"linkReferences": {},
					"object": "608060405234801561001057600080fd5b50610d3f806100206000396000f3fe608060405234801561001057600080fd5b506004361061009e5760003560e01c806370a082311161006657806370a082311461016d57806379cc67901461019d578063a457c2d7146101b9578063a9059cbb146101e9578063dd62ed3e146102195761009e565b8063095ea7b3146100a357806318160ddd146100d357806323b872dd146100f1578063395093511461012157806342966c6814610151575b600080fd5b6100bd60048036038101906100b89190610ae5565b610249565b6040516100ca9190610b40565b60405180910390f35b6100db610260565b6040516100e89190610b6a565b60405180910390f35b61010b60048036038101906101069190610b85565b61026a565b6040516101189190610b40565b60405180910390f35b61013b60048036038101906101369190610ae5565b610314565b6040516101489190610b40565b60405180910390f35b61016b60048036038101906101669190610bd8565b6103b2565b005b61018760048036038101906101829190610c05565b6103bf565b6040516101949190610b6a565b60405180910390f35b6101b760048036038101906101b29190610ae5565b610407565b005b6101d360048036038101906101ce9190610ae5565b610415565b6040516101e09190610b40565b60405180910390f35b61020360048036038101906101fe9190610ae5565b6104b3565b6040516102109190610b40565b60405180910390f35b610233600480360381019061022e9190610c32565b6104ca565b6040516102409190610b6a565b60405180910390f35b6000610256338484610551565b6001905092915050565b6000600254905090565b60006102778484846106ae565b610309843384600160008973ffffffffffffffffffffffffffffffffffffffff1673ffffffffffffffffffffffffffffffffffffffff16815260200190815260200160002060003373ffffffffffffffffffffffffffffffffffffffff1673ffffffffffffffffffffffffffffffffffffffff168152602001908152602001600020546103049190610ca1565b610551565b600190509392505050565b60006103a8338484600160003373ffffffffffffffffffffffffffffffffffffffff1673ffffffffffffffffffffffffffffffffffffffff16815260200190815260200160002060008873ffffffffffffffffffffffffffffffffffffffff1673ffffffffffffffffffffffffffffffffffffffff168152602001908152602001600020546103a39190610cd5565b610551565b6001905092915050565b6103bc3382610869565b50565b60008060008373ffffffffffffffffffffffffffffffffffffffff1673ffffffffffffffffffffffffffffffffffffffff168152602001908152602001600020549050919050565b61041182826109ac565b5050565b60006104a9338484600160003373ffffffffffffffffffffffffffffffffffffffff1673ffffffffffffffffffffffffffffffffffffffff16815260200190815260200160002060008873ffffffffffffffffffffffffffffffffffffffff1673ffffffffffffffffffffffffffffffffffffffff168152602001908152602001600020546104a49190610ca1565b610551565b6001905092915050565b60006104c03384846106ae565b6001905092915050565b6000600160008473ffffffffffffffffffffffffffffffffffffffff1673ffffffffffffffffffffffffffffffffffffffff16815260200190815260200160002060008373ffffffffffffffffffffffffffffffffffffffff1673ffffffffffffffffffffffffffffffffffffffff16815260200190815260200160002054905092915050565b600073ffffffffffffffffffffffffffffffffffffffff168273ffffffffffffffffffffffffffffffffffffffff160361058a57600080fd5b600073ffffffffffffffffffffffffffffffffffffffff168373ffffffffffffffffffffffffffffffffffffffff16036105c357600080fd5b80600160008573ffffffffffffffffffffffffffffffffffffffff1673ffffffffffffffffffffffffffffffffffffffff16815260200190815260200160002060008473ffffffffffffffffffffffffffffffffffffffff1673ffffffffffffffffffffffffffffffffffffffff168152602001908152602001600020819055508173ffffffffffffffffffffffffffffffffffffffff168373ffffffffffffffffffffffffffffffffffffffff167f8c5be1e5ebec7d5bd14f71427d1e84f3dd0314c0f7b2291e5b200ac8c7c3b925836040516106a19190610b6a565b60405180910390a3505050565b600073ffffffffffffffffffffffffffffffffffffffff168273ffffffffffffffffffffffffffffffffffffffff16036106e757600080fd5b806000808573ffffffffffffffffffffffffffffffffffffffff1673ffffffffffffffffffffffffffffffffffffffff168152602001908152602001600020546107319190610ca1565b6000808573ffffffffffffffffffffffffffffffffffffffff1673ffffffffffffffffffffffffffffffffffffffff16815260200190815260200160002081905550806000808473ffffffffffffffffffffffffffffffffffffffff1673ffffffffffffffffffffffffffffffffffffffff168152602001908152602001600020546107bd9190610cd5565b6000808473ffffffffffffffffffffffffffffffffffffffff1673ffffffffffffffffffffffffffffffffffffffff168152602001908152602001600020819055508173ffffffffffffffffffffffffffffffffffffffff168373ffffffffffffffffffffffffffffffffffffffff167fddf252ad1be2c89b69c2b068fc378daa952ba7f163c4a11628f55a4df523b3ef8360405161085c9190610b6a565b60405180910390a3505050565b600073ffffffffffffffffffffffffffffffffffffffff168273ffffffffffffffffffffffffffffffffffffffff16036108a257600080fd5b806002546108b09190610ca1565b600281905550806000808473ffffffffffffffffffffffffffffffffffffffff1673ffffffffffffffffffffffffffffffffffffffff168152602001908152602001600020546109009190610ca1565b6000808473ffffffffffffffffffffffffffffffffffffffff1673ffffffffffffffffffffffffffffffffffffffff16815260200190815260200160002081905550600073ffffffffffffffffffffffffffffffffffffffff168273ffffffffffffffffffffffffffffffffffffffff167fddf252ad1be2c89b69c2b068fc378daa952ba7f163c4a11628f55a4df523b3ef836040516109a09190610b6a565b60405180910390a35050565b6109b68282610869565b610a48823383600160008773ffffffffffffffffffffffffffffffffffffffff1673ffffffffffffffffffffffffffffffffffffffff16815260200190815260200160002060003373ffffffffffffffffffffffffffffffffffffffff1673ffffffffffffffffffffffffffffffffffffffff16815260200190815260200160002054610a439190610ca1565b610551565b5050565b600080fd5b600073ffffffffffffffffffffffffffffffffffffffff82169050919050565b6000610a7c82610a51565b9050919050565b610a8c81610a71565b8114610a9757600080fd5b50565b600081359050610aa981610a83565b92915050565b6000819050919050565b610ac281610aaf565b8114610acd57600080fd5b50565b600081359050610adf81610ab9565b92915050565b60008060408385031215610afc57610afb610a4c565b5b6000610b0a85828601610a9a565b9250506020610b1b85828601610ad0565b9150509250929050565b60008115159050919050565b610b3a81610b25565b82525050565b6000602082019050610b556000830184610b31565b92915050565b610b6481610aaf565b82525050565b6000602082019050610b7f6000830184610b5b565b92915050565b600080600060608486031215610b9e57610b9d610a4c565b5b6000610bac86828701610a9a565b9350506020610bbd86828701610a9a565b9250506040610bce86828701610ad0565b9150509250925092565b600060208284031215610bee57610bed610a4c565b5b6000610bfc84828501610ad0565b91505092915050565b600060208284031215610c1b57610c1a610a4c565b5b6000610c2984828501610a9a565b91505092915050565b60008060408385031215610c4957610c48610a4c565b5b6000610c5785828601610a9a565b9250506020610c6885828601610a9a565b9150509250929050565b7f4e487b7100000000000000000000000000000000000000000000000000000000600052601160045260246000fd5b6000610cac82610aaf565b9150610cb783610aaf565b9250828203905081811115610ccf57610cce610c72565b5b92915050565b6000610ce082610aaf565b9150610ceb83610aaf565b9250828201905080821115610d0357610d02610c72565b5b9291505056fea2646970667358221220e1d5d184a04d6b93e7596a16cc76b67e2b11437b3d2358df9b1ea43f9d34f54564736f6c63430008110033",
					"opcodes": "PUSH1 0x80 PUSH1 0x40 MSTORE CALLVALUE DUP1 ISZERO PUSH2 0x10 JUMPI PUSH1 0x0 DUP1 REVERT JUMPDEST POP PUSH2 0xD3F DUP1 PUSH2 0x20 PUSH1 0x0 CODECOPY PUSH1 0x0 RETURN INVALID PUSH1 0x80 PUSH1 0x40 MSTORE CALLVALUE DUP1 ISZERO PUSH2 0x10 JUMPI PUSH1 0x0 DUP1 REVERT JUMPDEST POP PUSH1 0x4 CALLDATASIZE LT PUSH2 0x9E JUMPI PUSH1 0x0 CALLDATALOAD PUSH1 0xE0 SHR DUP1 PUSH4 0x70A08231 GT PUSH2 0x66 JUMPI DUP1 PUSH4 0x70A08231 EQ PUSH2 0x16D JUMPI DUP1 PUSH4 0x79CC6790 EQ PUSH2 0x19D JUMPI DUP1 PUSH4 0xA457C2D7 EQ PUSH2 0x1B9 JUMPI DUP1 PUSH4 0xA9059CBB EQ PUSH2 0x1E9 JUMPI DUP1 PUSH4 0xDD62ED3E EQ PUSH2 0x219 JUMPI PUSH2 0x9E JUMP JUMPDEST DUP1 PUSH4 0x95EA7B3 EQ PUSH2 0xA3 JUMPI DUP1 PUSH4 0x18160DDD EQ PUSH2 0xD3 JUMPI DUP1 PUSH4 0x23B872DD EQ PUSH2 0xF1 JUMPI DUP1 PUSH4 0x39509351 EQ PUSH2 0x121 JUMPI DUP1 PUSH4 0x42966C68 EQ PUSH2 0x151 JUMPI JUMPDEST PUSH1 0x0 DUP1 REVERT JUMPDEST PUSH2 0xBD PUSH1 0x4 DUP1 CALLDATASIZE SUB DUP2 ADD SWAP1 PUSH2 0xB8 SWAP2 SWAP1 PUSH2 0xAE5 JUMP JUMPDEST PUSH2 0x249 JUMP JUMPDEST PUSH1 0x40 MLOAD PUSH2 0xCA SWAP2 SWAP1 PUSH2 0xB40 JUMP JUMPDEST PUSH1 0x40 MLOAD DUP1 SWAP2 SUB SWAP1 RETURN JUMPDEST PUSH2 0xDB PUSH2 0x260 JUMP JUMPDEST PUSH1 0x40 MLOAD PUSH2 0xE8 SWAP2 SWAP1 PUSH2 0xB6A JUMP JUMPDEST PUSH1 0x40 MLOAD DUP1 SWAP2 SUB SWAP1 RETURN JUMPDEST PUSH2 0x10B PUSH1 0x4 DUP1 CALLDATASIZE SUB DUP2 ADD SWAP1 PUSH2 0x106 SWAP2 SWAP1 PUSH2 0xB85 JUMP JUMPDEST PUSH2 0x26A JUMP JUMPDEST PUSH1 0x40 MLOAD PUSH2 0x118 SWAP2 SWAP1 PUSH2 0xB40 JUMP JUMPDEST PUSH1 0x40 MLOAD DUP1 SWAP2 SUB SWAP1 RETURN JUMPDEST PUSH2 0x13B PUSH1 0x4 DUP1 CALLDATASIZE SUB DUP2 ADD SWAP1 PUSH2 0x136 SWAP2 SWAP1 PUSH2 0xAE5 JUMP JUMPDEST PUSH2 0x314 JUMP JUMPDEST PUSH1 0x40 MLOAD PUSH2 0x148 SWAP2 SWAP1 PUSH2 0xB40 JUMP JUMPDEST PUSH1 0x40 MLOAD DUP1 SWAP2 SUB SWAP1 RETURN JUMPDEST PUSH2 0x16B PUSH1 0x4 DUP1 CALLDATASIZE SUB DUP2 ADD SWAP1 PUSH2 0x166 SWAP2 SWAP1 PUSH2 0xBD8 JUMP JUMPDEST PUSH2 0x3B2 JUMP JUMPDEST STOP JUMPDEST PUSH2 0x187 PUSH1 0x4 DUP1 CALLDATASIZE SUB DUP2 ADD SWAP1 PUSH2 0x182 SWAP2 SWAP1 PUSH2 0xC05 JUMP JUMPDEST PUSH2 0x3BF JUMP JUMPDEST PUSH1 0x40 MLOAD PUSH2 0x194 SWAP2 SWAP1 PUSH2 0xB6A JUMP JUMPDEST PUSH1 0x40 MLOAD DUP1 SWAP2 SUB SWAP1 RETURN JUMPDEST PUSH2 0x1B7 PUSH1 0x4 DUP1 CALLDATASIZE SUB DUP2 ADD SWAP1 PUSH2 0x1B2 SWAP2 SWAP1 PUSH2 0xAE5 JUMP JUMPDEST PUSH2 0x407 JUMP JUMPDEST STOP JUMPDEST PUSH2 0x1D3 PUSH1 0x4 DUP1 CALLDATASIZE SUB DUP2 ADD SWAP1 PUSH2 0x1CE SWAP2 SWAP1 PUSH2 0xAE5 JUMP JUMPDEST PUSH2 0x415 JUMP JUMPDEST PUSH1 0x40 MLOAD PUSH2 0x1E0 SWAP2 SWAP1 PUSH2 0xB40 JUMP JUMPDEST PUSH1 0x40 MLOAD DUP1 SWAP2 SUB SWAP1 RETURN JUMPDEST PUSH2 0x203 PUSH1 0x4 DUP1 CALLDATASIZE SUB DUP2 ADD SWAP1 PUSH2 0x1FE SWAP2 SWAP1 PUSH2 0xAE5 JUMP JUMPDEST PUSH2 0x4B3 JUMP JUMPDEST PUSH1 0x40 MLOAD PUSH2 0x210 SWAP2 SWAP1 PUSH2 0xB40 JUMP JUMPDEST PUSH1 0x40 MLOAD DUP1 SWAP2 SUB SWAP1 RETURN JUMPDEST PUSH2 0x233 PUSH1 0x4 DUP1 CALLDATASIZE SUB DUP2 ADD SWAP1 PUSH2 0x22E SWAP2 SWAP1 PUSH2 0xC32 JUMP JUMPDEST PUSH2 0x4CA JUMP JUMPDEST PUSH1 0x40 MLOAD PUSH2 0x240 SWAP2 SWAP1 PUSH2 0xB6A JUMP JUMPDEST PUSH1 0x40 MLOAD DUP1 SWAP2 SUB SWAP1 RETURN JUMPDEST PUSH1 0x0 PUSH2 0x256 CALLER DUP5 DUP5 PUSH2 0x551 JUMP JUMPDEST PUSH1 0x1 SWAP1 POP SWAP3 SWAP2 POP POP JUMP JUMPDEST PUSH1 0x0 PUSH1 0x2 SLOAD SWAP1 POP SWAP1 JUMP JUMPDEST PUSH1 0x0 PUSH2 0x277 DUP5 DUP5 DUP5 PUSH2 0x6AE JUMP JUMPDEST PUSH2 0x309 DUP5 CALLER DUP5 PUSH1 0x1 PUSH1 0x0 DUP10 PUSH20 0xFFFFFFFFFFFFFFFFFFFFFFFFFFFFFFFFFFFFFFFF AND PUSH20 0xFFFFFFFFFFFFFFFFFFFFFFFFFFFFFFFFFFFFFFFF AND DUP2 MSTORE PUSH1 0x20 ADD SWAP1 DUP2 MSTORE PUSH1 0x20 ADD PUSH1 0x0 KECCAK256 PUSH1 0x0 CALLER PUSH20 0xFFFFFFFFFFFFFFFFFFFFFFFFFFFFFFFFFFFFFFFF AND PUSH20 0xFFFFFFFFFFFFFFFFFFFFFFFFFFFFFFFFFFFFFFFF AND DUP2 MSTORE PUSH1 0x20 ADD SWAP1 DUP2 MSTORE PUSH1 0x20 ADD PUSH1 0x0 KECCAK256 SLOAD PUSH2 0x304 SWAP2 SWAP1 PUSH2 0xCA1 JUMP JUMPDEST PUSH2 0x551 JUMP JUMPDEST PUSH1 0x1 SWAP1 POP SWAP4 SWAP3 POP POP POP JUMP JUMPDEST PUSH1 0x0 PUSH2 0x3A8 CALLER DUP5 DUP5 PUSH1 0x1 PUSH1 0x0 CALLER PUSH20 0xFFFFFFFFFFFFFFFFFFFFFFFFFFFFFFFFFFFFFFFF AND PUSH20 0xFFFFFFFFFFFFFFFFFFFFFFFFFFFFFFFFFFFFFFFF AND DUP2 MSTORE PUSH1 0x20 ADD SWAP1 DUP2 MSTORE PUSH1 0x20 ADD PUSH1 0x0 KECCAK256 PUSH1 0x0 DUP9 PUSH20 0xFFFFFFFFFFFFFFFFFFFFFFFFFFFFFFFFFFFFFFFF AND PUSH20 0xFFFFFFFFFFFFFFFFFFFFFFFFFFFFFFFFFFFFFFFF AND DUP2 MSTORE PUSH1 0x20 ADD SWAP1 DUP2 MSTORE PUSH1 0x20 ADD PUSH1 0x0 KECCAK256 SLOAD PUSH2 0x3A3 SWAP2 SWAP1 PUSH2 0xCD5 JUMP JUMPDEST PUSH2 0x551 JUMP JUMPDEST PUSH1 0x1 SWAP1 POP SWAP3 SWAP2 POP POP JUMP JUMPDEST PUSH2 0x3BC CALLER DUP3 PUSH2 0x869 JUMP JUMPDEST POP JUMP JUMPDEST PUSH1 0x0 DUP1 PUSH1 0x0 DUP4 PUSH20 0xFFFFFFFFFFFFFFFFFFFFFFFFFFFFFFFFFFFFFFFF AND PUSH20 0xFFFFFFFFFFFFFFFFFFFFFFFFFFFFFFFFFFFFFFFF AND DUP2 MSTORE PUSH1 0x20 ADD SWAP1 DUP2 MSTORE PUSH1 0x20 ADD PUSH1 0x0 KECCAK256 SLOAD SWAP1 POP SWAP2 SWAP1 POP JUMP JUMPDEST PUSH2 0x411 DUP3 DUP3 PUSH2 0x9AC JUMP JUMPDEST POP POP JUMP JUMPDEST PUSH1 0x0 PUSH2 0x4A9 CALLER DUP5 DUP5 PUSH1 0x1 PUSH1 0x0 CALLER PUSH20 0xFFFFFFFFFFFFFFFFFFFFFFFFFFFFFFFFFFFFFFFF AND PUSH20 0xFFFFFFFFFFFFFFFFFFFFFFFFFFFFFFFFFFFFFFFF AND DUP2 MSTORE PUSH1 0x20 ADD SWAP1 DUP2 MSTORE PUSH1 0x20 ADD PUSH1 0x0 KECCAK256 PUSH1 0x0 DUP9 PUSH20 0xFFFFFFFFFFFFFFFFFFFFFFFFFFFFFFFFFFFFFFFF AND PUSH20 0xFFFFFFFFFFFFFFFFFFFFFFFFFFFFFFFFFFFFFFFF AND DUP2 MSTORE PUSH1 0x20 ADD SWAP1 DUP2 MSTORE PUSH1 0x20 ADD PUSH1 0x0 KECCAK256 SLOAD PUSH2 0x4A4 SWAP2 SWAP1 PUSH2 0xCA1 JUMP JUMPDEST PUSH2 0x551 JUMP JUMPDEST PUSH1 0x1 SWAP1 POP SWAP3 SWAP2 POP POP JUMP JUMPDEST PUSH1 0x0 PUSH2 0x4C0 CALLER DUP5 DUP5 PUSH2 0x6AE JUMP JUMPDEST PUSH1 0x1 SWAP1 POP SWAP3 SWAP2 POP POP JUMP JUMPDEST PUSH1 0x0 PUSH1 0x1 PUSH1 0x0 DUP5 PUSH20 0xFFFFFFFFFFFFFFFFFFFFFFFFFFFFFFFFFFFFFFFF AND PUSH20 0xFFFFFFFFFFFFFFFFFFFFFFFFFFFFFFFFFFFFFFFF AND DUP2 MSTORE PUSH1 0x20 ADD SWAP1 DUP2 MSTORE PUSH1 0x20 ADD PUSH1 0x0 KECCAK256 PUSH1 0x0 DUP4 PUSH20 0xFFFFFFFFFFFFFFFFFFFFFFFFFFFFFFFFFFFFFFFF AND PUSH20 0xFFFFFFFFFFFFFFFFFFFFFFFFFFFFFFFFFFFFFFFF AND DUP2 MSTORE PUSH1 0x20 ADD SWAP1 DUP2 MSTORE PUSH1 0x20 ADD PUSH1 0x0 KECCAK256 SLOAD SWAP1 POP SWAP3 SWAP2 POP POP JUMP JUMPDEST PUSH1 0x0 PUSH20 0xFFFFFFFFFFFFFFFFFFFFFFFFFFFFFFFFFFFFFFFF AND DUP3 PUSH20 0xFFFFFFFFFFFFFFFFFFFFFFFFFFFFFFFFFFFFFFFF AND SUB PUSH2 0x58A JUMPI PUSH1 0x0 DUP1 REVERT JUMPDEST PUSH1 0x0 PUSH20 0xFFFFFFFFFFFFFFFFFFFFFFFFFFFFFFFFFFFFFFFF AND DUP4 PUSH20 0xFFFFFFFFFFFFFFFFFFFFFFFFFFFFFFFFFFFFFFFF AND SUB PUSH2 0x5C3 JUMPI PUSH1 0x0 DUP1 REVERT JUMPDEST DUP1 PUSH1 0x1 PUSH1 0x0 DUP6 PUSH20 0xFFFFFFFFFFFFFFFFFFFFFFFFFFFFFFFFFFFFFFFF AND PUSH20 0xFFFFFFFFFFFFFFFFFFFFFFFFFFFFFFFFFFFFFFFF AND DUP2 MSTORE PUSH1 0x20 ADD SWAP1 DUP2 MSTORE PUSH1 0x20 ADD PUSH1 0x0 KECCAK256 PUSH1 0x0 DUP5 PUSH20 0xFFFFFFFFFFFFFFFFFFFFFFFFFFFFFFFFFFFFFFFF AND PUSH20 0xFFFFFFFFFFFFFFFFFFFFFFFFFFFFFFFFFFFFFFFF AND DUP2 MSTORE PUSH1 0x20 ADD SWAP1 DUP2 MSTORE PUSH1 0x20 ADD PUSH1 0x0 KECCAK256 DUP2 SWAP1 SSTORE POP DUP2 PUSH20 0xFFFFFFFFFFFFFFFFFFFFFFFFFFFFFFFFFFFFFFFF AND DUP4 PUSH20 0xFFFFFFFFFFFFFFFFFFFFFFFFFFFFFFFFFFFFFFFF AND PUSH32 0x8C5BE1E5EBEC7D5BD14F71427D1E84F3DD0314C0F7B2291E5B200AC8C7C3B925 DUP4 PUSH1 0x40 MLOAD PUSH2 0x6A1 SWAP2 SWAP1 PUSH2 0xB6A JUMP JUMPDEST PUSH1 0x40 MLOAD DUP1 SWAP2 SUB SWAP1 LOG3 POP POP POP JUMP JUMPDEST PUSH1 0x0 PUSH20 0xFFFFFFFFFFFFFFFFFFFFFFFFFFFFFFFFFFFFFFFF AND DUP3 PUSH20 0xFFFFFFFFFFFFFFFFFFFFFFFFFFFFFFFFFFFFFFFF AND SUB PUSH2 0x6E7 JUMPI PUSH1 0x0 DUP1 REVERT JUMPDEST DUP1 PUSH1 0x0 DUP1 DUP6 PUSH20 0xFFFFFFFFFFFFFFFFFFFFFFFFFFFFFFFFFFFFFFFF AND PUSH20 0xFFFFFFFFFFFFFFFFFFFFFFFFFFFFFFFFFFFFFFFF AND DUP2 MSTORE PUSH1 0x20 ADD SWAP1 DUP2 MSTORE PUSH1 0x20 ADD PUSH1 0x0 KECCAK256 SLOAD PUSH2 0x731 SWAP2 SWAP1 PUSH2 0xCA1 JUMP JUMPDEST PUSH1 0x0 DUP1 DUP6 PUSH20 0xFFFFFFFFFFFFFFFFFFFFFFFFFFFFFFFFFFFFFFFF AND PUSH20 0xFFFFFFFFFFFFFFFFFFFFFFFFFFFFFFFFFFFFFFFF AND DUP2 MSTORE PUSH1 0x20 ADD SWAP1 DUP2 MSTORE PUSH1 0x20 ADD PUSH1 0x0 KECCAK256 DUP2 SWAP1 SSTORE POP DUP1 PUSH1 0x0 DUP1 DUP5 PUSH20 0xFFFFFFFFFFFFFFFFFFFFFFFFFFFFFFFFFFFFFFFF AND PUSH20 0xFFFFFFFFFFFFFFFFFFFFFFFFFFFFFFFFFFFFFFFF AND DUP2 MSTORE PUSH1 0x20 ADD SWAP1 DUP2 MSTORE PUSH1 0x20 ADD PUSH1 0x0 KECCAK256 SLOAD PUSH2 0x7BD SWAP2 SWAP1 PUSH2 0xCD5 JUMP JUMPDEST PUSH1 0x0 DUP1 DUP5 PUSH20 0xFFFFFFFFFFFFFFFFFFFFFFFFFFFFFFFFFFFFFFFF AND PUSH20 0xFFFFFFFFFFFFFFFFFFFFFFFFFFFFFFFFFFFFFFFF AND DUP2 MSTORE PUSH1 0x20 ADD SWAP1 DUP2 MSTORE PUSH1 0x20 ADD PUSH1 0x0 KECCAK256 DUP2 SWAP1 SSTORE POP DUP2 PUSH20 0xFFFFFFFFFFFFFFFFFFFFFFFFFFFFFFFFFFFFFFFF AND DUP4 PUSH20 0xFFFFFFFFFFFFFFFFFFFFFFFFFFFFFFFFFFFFFFFF AND PUSH32 0xDDF252AD1BE2C89B69C2B068FC378DAA952BA7F163C4A11628F55A4DF523B3EF DUP4 PUSH1 0x40 MLOAD PUSH2 0x85C SWAP2 SWAP1 PUSH2 0xB6A JUMP JUMPDEST PUSH1 0x40 MLOAD DUP1 SWAP2 SUB SWAP1 LOG3 POP POP POP JUMP JUMPDEST PUSH1 0x0 PUSH20 0xFFFFFFFFFFFFFFFFFFFFFFFFFFFFFFFFFFFFFFFF AND DUP3 PUSH20 0xFFFFFFFFFFFFFFFFFFFFFFFFFFFFFFFFFFFFFFFF AND SUB PUSH2 0x8A2 JUMPI PUSH1 0x0 DUP1 REVERT JUMPDEST DUP1 PUSH1 0x2 SLOAD PUSH2 0x8B0 SWAP2 SWAP1 PUSH2 0xCA1 JUMP JUMPDEST PUSH1 0x2 DUP2 SWAP1 SSTORE POP DUP1 PUSH1 0x0 DUP1 DUP5 PUSH20 0xFFFFFFFFFFFFFFFFFFFFFFFFFFFFFFFFFFFFFFFF AND PUSH20 0xFFFFFFFFFFFFFFFFFFFFFFFFFFFFFFFFFFFFFFFF AND DUP2 MSTORE PUSH1 0x20 ADD SWAP1 DUP2 MSTORE PUSH1 0x20 ADD PUSH1 0x0 KECCAK256 SLOAD PUSH2 0x900 SWAP2 SWAP1 PUSH2 0xCA1 JUMP JUMPDEST PUSH1 0x0 DUP1 DUP5 PUSH20 0xFFFFFFFFFFFFFFFFFFFFFFFFFFFFFFFFFFFFFFFF AND PUSH20 0xFFFFFFFFFFFFFFFFFFFFFFFFFFFFFFFFFFFFFFFF AND DUP2 MSTORE PUSH1 0x20 ADD SWAP1 DUP2 MSTORE PUSH1 0x20 ADD PUSH1 0x0 KECCAK256 DUP2 SWAP1 SSTORE POP PUSH1 0x0 PUSH20 0xFFFFFFFFFFFFFFFFFFFFFFFFFFFFFFFFFFFFFFFF AND DUP3 PUSH20 0xFFFFFFFFFFFFFFFFFFFFFFFFFFFFFFFFFFFFFFFF AND PUSH32 0xDDF252AD1BE2C89B69C2B068FC378DAA952BA7F163C4A11628F55A4DF523B3EF DUP4 PUSH1 0x40 MLOAD PUSH2 0x9A0 SWAP2 SWAP1 PUSH2 0xB6A JUMP JUMPDEST PUSH1 0x40 MLOAD DUP1 SWAP2 SUB SWAP1 LOG3 POP POP JUMP JUMPDEST PUSH2 0x9B6 DUP3 DUP3 PUSH2 0x869 JUMP JUMPDEST PUSH2 0xA48 DUP3 CALLER DUP4 PUSH1 0x1 PUSH1 0x0 DUP8 PUSH20 0xFFFFFFFFFFFFFFFFFFFFFFFFFFFFFFFFFFFFFFFF AND PUSH20 0xFFFFFFFFFFFFFFFFFFFFFFFFFFFFFFFFFFFFFFFF AND DUP2 MSTORE PUSH1 0x20 ADD SWAP1 DUP2 MSTORE PUSH1 0x20 ADD PUSH1 0x0 KECCAK256 PUSH1 0x0 CALLER PUSH20 0xFFFFFFFFFFFFFFFFFFFFFFFFFFFFFFFFFFFFFFFF AND PUSH20 0xFFFFFFFFFFFFFFFFFFFFFFFFFFFFFFFFFFFFFFFF AND DUP2 MSTORE PUSH1 0x20 ADD SWAP1 DUP2 MSTORE PUSH1 0x20 ADD PUSH1 0x0 KECCAK256 SLOAD PUSH2 0xA43 SWAP2 SWAP1 PUSH2 0xCA1 JUMP JUMPDEST PUSH2 0x551 JUMP JUMPDEST POP POP JUMP JUMPDEST PUSH1 0x0 DUP1 REVERT JUMPDEST PUSH1 0x0 PUSH20 0xFFFFFFFFFFFFFFFFFFFFFFFFFFFFFFFFFFFFFFFF DUP3 AND SWAP1 POP SWAP2 SWAP1 POP JUMP JUMPDEST PUSH1 0x0 PUSH2 0xA7C DUP3 PUSH2 0xA51 JUMP JUMPDEST SWAP1 POP SWAP2 SWAP1 POP JUMP JUMPDEST PUSH2 0xA8C DUP2 PUSH2 0xA71 JUMP JUMPDEST DUP2 EQ PUSH2 0xA97 JUMPI PUSH1 0x0 DUP1 REVERT JUMPDEST POP JUMP JUMPDEST PUSH1 0x0 DUP2 CALLDATALOAD SWAP1 POP PUSH2 0xAA9 DUP2 PUSH2 0xA83 JUMP JUMPDEST SWAP3 SWAP2 POP POP JUMP JUMPDEST PUSH1 0x0 DUP2 SWAP1 POP SWAP2 SWAP1 POP JUMP JUMPDEST PUSH2 0xAC2 DUP2 PUSH2 0xAAF JUMP JUMPDEST DUP2 EQ PUSH2 0xACD JUMPI PUSH1 0x0 DUP1 REVERT JUMPDEST POP JUMP JUMPDEST PUSH1 0x0 DUP2 CALLDATALOAD SWAP1 POP PUSH2 0xADF DUP2 PUSH2 0xAB9 JUMP JUMPDEST SWAP3 SWAP2 POP POP JUMP JUMPDEST PUSH1 0x0 DUP1 PUSH1 0x40 DUP4 DUP6 SUB SLT ISZERO PUSH2 0xAFC JUMPI PUSH2 0xAFB PUSH2 0xA4C JUMP JUMPDEST JUMPDEST PUSH1 0x0 PUSH2 0xB0A DUP6 DUP3 DUP7 ADD PUSH2 0xA9A JUMP JUMPDEST SWAP3 POP POP PUSH1 0x20 PUSH2 0xB1B DUP6 DUP3 DUP7 ADD PUSH2 0xAD0 JUMP JUMPDEST SWAP2 POP POP SWAP3 POP SWAP3 SWAP1 POP JUMP JUMPDEST PUSH1 0x0 DUP2 ISZERO ISZERO SWAP1 POP SWAP2 SWAP1 POP JUMP JUMPDEST PUSH2 0xB3A DUP2 PUSH2 0xB25 JUMP JUMPDEST DUP3 MSTORE POP POP JUMP JUMPDEST PUSH1 0x0 PUSH1 0x20 DUP3 ADD SWAP1 POP PUSH2 0xB55 PUSH1 0x0 DUP4 ADD DUP5 PUSH2 0xB31 JUMP JUMPDEST SWAP3 SWAP2 POP POP JUMP JUMPDEST PUSH2 0xB64 DUP2 PUSH2 0xAAF JUMP JUMPDEST DUP3 MSTORE POP POP JUMP JUMPDEST PUSH1 0x0 PUSH1 0x20 DUP3 ADD SWAP1 POP PUSH2 0xB7F PUSH1 0x0 DUP4 ADD DUP5 PUSH2 0xB5B JUMP JUMPDEST SWAP3 SWAP2 POP POP JUMP JUMPDEST PUSH1 0x0 DUP1 PUSH1 0x0 PUSH1 0x60 DUP5 DUP7 SUB SLT ISZERO PUSH2 0xB9E JUMPI PUSH2 0xB9D PUSH2 0xA4C JUMP JUMPDEST JUMPDEST PUSH1 0x0 PUSH2 0xBAC DUP7 DUP3 DUP8 ADD PUSH2 0xA9A JUMP JUMPDEST SWAP4 POP POP PUSH1 0x20 PUSH2 0xBBD DUP7 DUP3 DUP8 ADD PUSH2 0xA9A JUMP JUMPDEST SWAP3 POP POP PUSH1 0x40 PUSH2 0xBCE DUP7 DUP3 DUP8 ADD PUSH2 0xAD0 JUMP JUMPDEST SWAP2 POP POP SWAP3 POP SWAP3 POP SWAP3 JUMP JUMPDEST PUSH1 0x0 PUSH1 0x20 DUP3 DUP5 SUB SLT ISZERO PUSH2 0xBEE JUMPI PUSH2 0xBED PUSH2 0xA4C JUMP JUMPDEST JUMPDEST PUSH1 0x0 PUSH2 0xBFC DUP5 DUP3 DUP6 ADD PUSH2 0xAD0 JUMP JUMPDEST SWAP2 POP POP SWAP3 SWAP2 POP POP JUMP JUMPDEST PUSH1 0x0 PUSH1 0x20 DUP3 DUP5 SUB SLT ISZERO PUSH2 0xC1B JUMPI PUSH2 0xC1A PUSH2 0xA4C JUMP JUMPDEST JUMPDEST PUSH1 0x0 PUSH2 0xC29 DUP5 DUP3 DUP6 ADD PUSH2 0xA9A JUMP JUMPDEST SWAP2 POP POP SWAP3 SWAP2 POP POP JUMP JUMPDEST PUSH1 0x0 DUP1 PUSH1 0x40 DUP4 DUP6 SUB SLT ISZERO PUSH2 0xC49 JUMPI PUSH2 0xC48 PUSH2 0xA4C JUMP JUMPDEST JUMPDEST PUSH1 0x0 PUSH2 0xC57 DUP6 DUP3 DUP7 ADD PUSH2 0xA9A JUMP JUMPDEST SWAP3 POP POP PUSH1 0x20 PUSH2 0xC68 DUP6 DUP3 DUP7 ADD PUSH2 0xA9A JUMP JUMPDEST SWAP2 POP POP SWAP3 POP SWAP3 SWAP1 POP JUMP JUMPDEST PUSH32 0x4E487B7100000000000000000000000000000000000000000000000000000000 PUSH1 0x0 MSTORE PUSH1 0x11 PUSH1 0x4 MSTORE PUSH1 0x24 PUSH1 0x0 REVERT JUMPDEST PUSH1 0x0 PUSH2 0xCAC DUP3 PUSH2 0xAAF JUMP JUMPDEST SWAP2 POP PUSH2 0xCB7 DUP4 PUSH2 0xAAF JUMP JUMPDEST SWAP3 POP DUP3 DUP3 SUB SWAP1 POP DUP2 DUP2 GT ISZERO PUSH2 0xCCF JUMPI PUSH2 0xCCE PUSH2 0xC72 JUMP JUMPDEST JUMPDEST SWAP3 SWAP2 POP POP JUMP JUMPDEST PUSH1 0x0 PUSH2 0xCE0 DUP3 PUSH2 0xAAF JUMP JUMPDEST SWAP2 POP PUSH2 0xCEB DUP4 PUSH2 0xAAF JUMP JUMPDEST SWAP3 POP DUP3 DUP3 ADD SWAP1 POP DUP1 DUP3 GT ISZERO PUSH2 0xD03 JUMPI PUSH2 0xD02 PUSH2 0xC72 JUMP JUMPDEST JUMPDEST SWAP3 SWAP2 POP POP JUMP INVALID LOG2 PUSH5 0x6970667358 0x22 SLT KECCAK256 0xE1 0xD5 0xD1 DUP5 LOG0 0x4D PUSH12 0x93E7596A16CC76B67E2B1143 PUSH28 0x3D2358DF9B1EA43F9D34F54564736F6C634300081100330000000000 "
				},
				"gasEstimates": {
					"creation": {
						"codeDepositCost": "678200",
						"executionCost": "708",
						"totalCost": "678908"
					},
					"external": {
						"allowance(address,address)": "infinite",
						"approve(address,uint256)": "infinite",
						"balanceOf(address)": "2841",
						"burn(uint256)": "infinite",
						"burnFrom(address,uint256)": "infinite",
						"decreaseAllowance(address,uint256)": "infinite",
						"increaseAllowance(address,uint256)": "infinite",
						"totalSupply()": "2460",
						"transfer(address,uint256)": "infinite",
						"transferFrom(address,address,uint256)": "infinite"
					}
				},
				"methodIdentifiers": {
					"allowance(address,address)": "dd62ed3e",
					"approve(address,uint256)": "095ea7b3",
					"balanceOf(address)": "70a08231",
					"burn(uint256)": "42966c68",
					"burnFrom(address,uint256)": "79cc6790",
					"decreaseAllowance(address,uint256)": "a457c2d7",
					"increaseAllowance(address,uint256)": "39509351",
					"totalSupply()": "18160ddd",
					"transfer(address,uint256)": "a9059cbb",
					"transferFrom(address,address,uint256)": "23b872dd"
				}
			},
			"storageLayout": {
				"storage": [
					{
						"astId": 136,
						"contract": "liberland/eth/mastet_token_flattened.sol:ERC20Burnable",
						"label": "_balances",
						"offset": 0,
						"slot": "0",
						"type": "t_mapping(t_address,t_uint256)"
					},
					{
						"astId": 142,
						"contract": "liberland/eth/mastet_token_flattened.sol:ERC20Burnable",
						"label": "_allowed",
						"offset": 0,
						"slot": "1",
						"type": "t_mapping(t_address,t_mapping(t_address,t_uint256))"
					},
					{
						"astId": 144,
						"contract": "liberland/eth/mastet_token_flattened.sol:ERC20Burnable",
						"label": "_totalSupply",
						"offset": 0,
						"slot": "2",
						"type": "t_uint256"
					}
				],
				"types": {
					"t_address": {
						"encoding": "inplace",
						"label": "address",
						"numberOfBytes": "20"
					},
					"t_mapping(t_address,t_mapping(t_address,t_uint256))": {
						"encoding": "mapping",
						"key": "t_address",
						"label": "mapping(address => mapping(address => uint256))",
						"numberOfBytes": "32",
						"value": "t_mapping(t_address,t_uint256)"
					},
					"t_mapping(t_address,t_uint256)": {
						"encoding": "mapping",
						"key": "t_address",
						"label": "mapping(address => uint256)",
						"numberOfBytes": "32",
						"value": "t_uint256"
					},
					"t_uint256": {
						"encoding": "inplace",
						"label": "uint256",
						"numberOfBytes": "32"
					}
				}
			},
			"userdoc": {
				"kind": "user",
				"methods": {},
				"version": 1
			}
		}
	}
}