{
	"childtoken/t.sol": {
		"AccessControlMixin": {
			"abi": [
				{
					"anonymous": false,
					"inputs": [
						{
							"indexed": true,
							"internalType": "bytes32",
							"name": "role",
							"type": "bytes32"
						},
						{
							"indexed": true,
							"internalType": "bytes32",
							"name": "previousAdminRole",
							"type": "bytes32"
						},
						{
							"indexed": true,
							"internalType": "bytes32",
							"name": "newAdminRole",
							"type": "bytes32"
						}
					],
					"name": "RoleAdminChanged",
					"type": "event"
				},
				{
					"anonymous": false,
					"inputs": [
						{
							"indexed": true,
							"internalType": "bytes32",
							"name": "role",
							"type": "bytes32"
						},
						{
							"indexed": true,
							"internalType": "address",
							"name": "account",
							"type": "address"
						},
						{
							"indexed": true,
							"internalType": "address",
							"name": "sender",
							"type": "address"
						}
					],
					"name": "RoleGranted",
					"type": "event"
				},
				{
					"anonymous": false,
					"inputs": [
						{
							"indexed": true,
							"internalType": "bytes32",
							"name": "role",
							"type": "bytes32"
						},
						{
							"indexed": true,
							"internalType": "address",
							"name": "account",
							"type": "address"
						},
						{
							"indexed": true,
							"internalType": "address",
							"name": "sender",
							"type": "address"
						}
					],
					"name": "RoleRevoked",
					"type": "event"
				},
				{
					"inputs": [],
					"name": "DEFAULT_ADMIN_ROLE",
					"outputs": [
						{
							"internalType": "bytes32",
							"name": "",
							"type": "bytes32"
						}
					],
					"stateMutability": "view",
					"type": "function"
				},
				{
					"inputs": [
						{
							"internalType": "bytes32",
							"name": "role",
							"type": "bytes32"
						}
					],
					"name": "getRoleAdmin",
					"outputs": [
						{
							"internalType": "bytes32",
							"name": "",
							"type": "bytes32"
						}
					],
					"stateMutability": "view",
					"type": "function"
				},
				{
					"inputs": [
						{
							"internalType": "bytes32",
							"name": "role",
							"type": "bytes32"
						},
						{
							"internalType": "uint256",
							"name": "index",
							"type": "uint256"
						}
					],
					"name": "getRoleMember",
					"outputs": [
						{
							"internalType": "address",
							"name": "",
							"type": "address"
						}
					],
					"stateMutability": "view",
					"type": "function"
				},
				{
					"inputs": [
						{
							"internalType": "bytes32",
							"name": "role",
							"type": "bytes32"
						}
					],
					"name": "getRoleMemberCount",
					"outputs": [
						{
							"internalType": "uint256",
							"name": "",
							"type": "uint256"
						}
					],
					"stateMutability": "view",
					"type": "function"
				},
				{
					"inputs": [
						{
							"internalType": "bytes32",
							"name": "role",
							"type": "bytes32"
						},
						{
							"internalType": "address",
							"name": "account",
							"type": "address"
						}
					],
					"name": "grantRole",
					"outputs": [],
					"stateMutability": "nonpayable",
					"type": "function"
				},
				{
					"inputs": [
						{
							"internalType": "bytes32",
							"name": "role",
							"type": "bytes32"
						},
						{
							"internalType": "address",
							"name": "account",
							"type": "address"
						}
					],
					"name": "hasRole",
					"outputs": [
						{
							"internalType": "bool",
							"name": "",
							"type": "bool"
						}
					],
					"stateMutability": "view",
					"type": "function"
				},
				{
					"inputs": [
						{
							"internalType": "bytes32",
							"name": "role",
							"type": "bytes32"
						},
						{
							"internalType": "address",
							"name": "account",
							"type": "address"
						}
					],
					"name": "renounceRole",
					"outputs": [],
					"stateMutability": "nonpayable",
					"type": "function"
				},
				{
					"inputs": [
						{
							"internalType": "bytes32",
							"name": "role",
							"type": "bytes32"
						},
						{
							"internalType": "address",
							"name": "account",
							"type": "address"
						}
					],
					"name": "revokeRole",
					"outputs": [],
					"stateMutability": "nonpayable",
					"type": "function"
				}
			],
			"devdoc": {
				"methods": {
					"getRoleAdmin(bytes32)": {
						"details": "Returns the admin role that controls `role`. See {grantRole} and {revokeRole}.     * To change a role's admin, use {_setRoleAdmin}."
					},
					"getRoleMember(bytes32,uint256)": {
						"details": "Returns one of the accounts that have `role`. `index` must be a value between 0 and {getRoleMemberCount}, non-inclusive.     * Role bearers are not sorted in any particular way, and their ordering may change at any point.     * WARNING: When using {getRoleMember} and {getRoleMemberCount}, make sure you perform all queries on the same block. See the following https://forum.openzeppelin.com/t/iterating-over-elements-on-enumerableset-in-openzeppelin-contracts/2296[forum post] for more information."
					},
					"getRoleMemberCount(bytes32)": {
						"details": "Returns the number of accounts that have `role`. Can be used together with {getRoleMember} to enumerate all bearers of a role."
					},
					"grantRole(bytes32,address)": {
						"details": "Grants `role` to `account`.     * If `account` had not been already granted `role`, emits a {RoleGranted} event.     * Requirements:     * - the caller must have ``role``'s admin role."
					},
					"hasRole(bytes32,address)": {
						"details": "Returns `true` if `account` has been granted `role`."
					},
					"renounceRole(bytes32,address)": {
						"details": "Revokes `role` from the calling account.     * Roles are often managed via {grantRole} and {revokeRole}: this function's purpose is to provide a mechanism for accounts to lose their privileges if they are compromised (such as when a trusted device is misplaced).     * If the calling account had been granted `role`, emits a {RoleRevoked} event.     * Requirements:     * - the caller must be `account`."
					},
					"revokeRole(bytes32,address)": {
						"details": "Revokes `role` from `account`.     * If `account` had been granted `role`, emits a {RoleRevoked} event.     * Requirements:     * - the caller must have ``role``'s admin role."
					}
				}
			},
			"evm": {
				"assembly": "    /* \"childtoken/t.sol\":36253:36638  contract AccessControlMixin is AccessControl {... */\n  mstore(0x40, 0x80)\n  callvalue\n    /* \"--CODEGEN--\":5:14   */\n  dup1\n    /* \"--CODEGEN--\":2:4   */\n  iszero\n  tag_1\n  jumpi\n    /* \"--CODEGEN--\":27:28   */\n  0x00\n    /* \"--CODEGEN--\":24:25   */\n  dup1\n    /* \"--CODEGEN--\":17:29   */\n  revert\n    /* \"--CODEGEN--\":2:4   */\ntag_1:\n    /* \"childtoken/t.sol\":36253:36638  contract AccessControlMixin is AccessControl {... */\n  pop\n  dataSize(sub_0)\n  dup1\n  dataOffset(sub_0)\n  0x00\n  codecopy\n  0x00\n  return\nstop\n\nsub_0: assembly {\n        /* \"childtoken/t.sol\":36253:36638  contract AccessControlMixin is AccessControl {... */\n      mstore(0x40, 0x80)\n      callvalue\n        /* \"--CODEGEN--\":5:14   */\n      dup1\n        /* \"--CODEGEN--\":2:4   */\n      iszero\n      tag_1\n      jumpi\n        /* \"--CODEGEN--\":27:28   */\n      0x00\n        /* \"--CODEGEN--\":24:25   */\n      dup1\n        /* \"--CODEGEN--\":17:29   */\n      revert\n        /* \"--CODEGEN--\":2:4   */\n    tag_1:\n        /* \"childtoken/t.sol\":36253:36638  contract AccessControlMixin is AccessControl {... */\n      pop\n      jumpi(tag_2, lt(calldatasize, 0x04))\n      shr(0xe0, calldataload(0x00))\n      dup1\n      0x91d14854\n      gt\n      tag_11\n      jumpi\n      dup1\n      0x91d14854\n      eq\n      tag_7\n      jumpi\n      dup1\n      0xa217fddf\n      eq\n      tag_8\n      jumpi\n      dup1\n      0xca15c873\n      eq\n      tag_9\n      jumpi\n      dup1\n      0xd547741f\n      eq\n      tag_10\n      jumpi\n      jump(tag_2)\n    tag_11:\n      dup1\n      0x248a9ca3\n      eq\n      tag_3\n      jumpi\n      dup1\n      0x2f2ff15d\n      eq\n      tag_4\n      jumpi\n      dup1\n      0x36568abe\n      eq\n      tag_5\n      jumpi\n      dup1\n      0x9010d07c\n      eq\n      tag_6\n      jumpi\n    tag_2:\n        /* \"--CODEGEN--\":12:13   */\n      0x00\n        /* \"--CODEGEN--\":9:10   */\n      dup1\n        /* \"--CODEGEN--\":2:14   */\n      revert\n        /* \"childtoken/t.sol\":33094:33206  function getRoleAdmin(bytes32 role) public view returns (bytes32) {... */\n    tag_3:\n      tag_12\n      0x04\n      dup1\n      calldatasize\n      sub\n        /* \"--CODEGEN--\":15:17   */\n      0x20\n        /* \"--CODEGEN--\":10:13   */\n      dup2\n        /* \"--CODEGEN--\":7:18   */\n      lt\n        /* \"--CODEGEN--\":4:6   */\n      iszero\n      tag_13\n      jumpi\n        /* \"--CODEGEN--\":31:32   */\n      0x00\n        /* \"--CODEGEN--\":28:29   */\n      dup1\n        /* \"--CODEGEN--\":21:33   */\n      revert\n        /* \"--CODEGEN--\":4:6   */\n    tag_13:\n        /* \"childtoken/t.sol\":33094:33206  function getRoleAdmin(bytes32 role) public view returns (bytes32) {... */\n      dup2\n      add\n      swap1\n      dup1\n      dup1\n      calldataload\n      swap1\n      0x20\n      add\n      swap1\n      swap3\n      swap2\n      swap1\n      pop\n      pop\n      pop\n      tag_14\n      jump\t// in\n    tag_12:\n      mload(0x40)\n      dup1\n      dup3\n      dup2\n      mstore\n      0x20\n      add\n      swap2\n      pop\n      pop\n      mload(0x40)\n      dup1\n      swap2\n      sub\n      swap1\n      return\n        /* \"childtoken/t.sol\":33456:33679  function grantRole(bytes32 role, address account) public virtual {... */\n    tag_4:\n      tag_15\n      0x04\n      dup1\n      calldatasize\n      sub\n        /* \"--CODEGEN--\":15:17   */\n      0x40\n        /* \"--CODEGEN--\":10:13   */\n      dup2\n        /* \"--CODEGEN--\":7:18   */\n      lt\n        /* \"--CODEGEN--\":4:6   */\n      iszero\n      tag_16\n      jumpi\n        /* \"--CODEGEN--\":31:32   */\n      0x00\n        /* \"--CODEGEN--\":28:29   */\n      dup1\n        /* \"--CODEGEN--\":21:33   */\n      revert\n        /* \"--CODEGEN--\":4:6   */\n    tag_16:\n        /* \"childtoken/t.sol\":33456:33679  function grantRole(bytes32 role, address account) public virtual {... */\n      dup2\n      add\n      swap1\n      dup1\n      dup1\n      calldataload\n      swap1\n      0x20\n      add\n      swap1\n      swap3\n      swap2\n      swap1\n      dup1\n      calldataload\n      0xffffffffffffffffffffffffffffffffffffffff\n      and\n      swap1\n      0x20\n      add\n      swap1\n      swap3\n      swap2\n      swap1\n      pop\n      pop\n      pop\n      tag_17\n      jump\t// in\n    tag_15:\n      stop\n        /* \"childtoken/t.sol\":34630:34835  function renounceRole(bytes32 role, address account) public virtual {... */\n    tag_5:\n      tag_18\n      0x04\n      dup1\n      calldatasize\n      sub\n        /* \"--CODEGEN--\":15:17   */\n      0x40\n        /* \"--CODEGEN--\":10:13   */\n      dup2\n        /* \"--CODEGEN--\":7:18   */\n      lt\n        /* \"--CODEGEN--\":4:6   */\n      iszero\n      tag_19\n      jumpi\n        /* \"--CODEGEN--\":31:32   */\n      0x00\n        /* \"--CODEGEN--\":28:29   */\n      dup1\n        /* \"--CODEGEN--\":21:33   */\n      revert\n        /* \"--CODEGEN--\":4:6   */\n    tag_19:\n        /* \"childtoken/t.sol\":34630:34835  function renounceRole(bytes32 role, address account) public virtual {... */\n      dup2\n      add\n      swap1\n      dup1\n      dup1\n      calldataload\n      swap1\n      0x20\n      add\n      swap1\n      swap3\n      swap2\n      swap1\n      dup1\n      calldataload\n      0xffffffffffffffffffffffffffffffffffffffff\n      and\n      swap1\n      0x20\n      add\n      swap1\n      swap3\n      swap2\n      swap1\n      pop\n      pop\n      pop\n      tag_20\n      jump\t// in\n    tag_18:\n      stop\n        /* \"childtoken/t.sol\":32777:32913  function getRoleMember(bytes32 role, uint256 index) public view returns (address) {... */\n    tag_6:\n      tag_21\n      0x04\n      dup1\n      calldatasize\n      sub\n        /* \"--CODEGEN--\":15:17   */\n      0x40\n        /* \"--CODEGEN--\":10:13   */\n      dup2\n        /* \"--CODEGEN--\":7:18   */\n      lt\n        /* \"--CODEGEN--\":4:6   */\n      iszero\n      tag_22\n      jumpi\n        /* \"--CODEGEN--\":31:32   */\n      0x00\n        /* \"--CODEGEN--\":28:29   */\n      dup1\n        /* \"--CODEGEN--\":21:33   */\n      revert\n        /* \"--CODEGEN--\":4:6   */\n    tag_22:\n        /* \"childtoken/t.sol\":32777:32913  function getRoleMember(bytes32 role, uint256 index) public view returns (address) {... */\n      dup2\n      add\n      swap1\n      dup1\n      dup1\n      calldataload\n      swap1\n      0x20\n      add\n      swap1\n      swap3\n      swap2\n      swap1\n      dup1\n      calldataload\n      swap1\n      0x20\n      add\n      swap1\n      swap3\n      swap2\n      swap1\n      pop\n      pop\n      pop\n      tag_23\n      jump\t// in\n    tag_21:\n      mload(0x40)\n      dup1\n      dup3\n      0xffffffffffffffffffffffffffffffffffffffff\n      and\n      0xffffffffffffffffffffffffffffffffffffffff\n      and\n      dup2\n      mstore\n      0x20\n      add\n      swap2\n      pop\n      pop\n      mload(0x40)\n      dup1\n      swap2\n      sub\n      swap1\n      return\n        /* \"childtoken/t.sol\":31762:31899  function hasRole(bytes32 role, address account) public view returns (bool) {... */\n    tag_7:\n      tag_24\n      0x04\n      dup1\n      calldatasize\n      sub\n        /* \"--CODEGEN--\":15:17   */\n      0x40\n        /* \"--CODEGEN--\":10:13   */\n      dup2\n        /* \"--CODEGEN--\":7:18   */\n      lt\n        /* \"--CODEGEN--\":4:6   */\n      iszero\n      tag_25\n      jumpi\n        /* \"--CODEGEN--\":31:32   */\n      0x00\n        /* \"--CODEGEN--\":28:29   */\n      dup1\n        /* \"--CODEGEN--\":21:33   */\n      revert\n        /* \"--CODEGEN--\":4:6   */\n    tag_25:\n        /* \"childtoken/t.sol\":31762:31899  function hasRole(bytes32 role, address account) public view returns (bool) {... */\n      dup2\n      add\n      swap1\n      dup1\n      dup1\n      calldataload\n      swap1\n      0x20\n      add\n      swap1\n      swap3\n      swap2\n      swap1\n      dup1\n      calldataload\n      0xffffffffffffffffffffffffffffffffffffffff\n      and\n      swap1\n      0x20\n      add\n      swap1\n      swap3\n      swap2\n      swap1\n      pop\n      pop\n      pop\n      tag_26\n      jump\t// in\n    tag_24:\n      mload(0x40)\n      dup1\n      dup3\n      iszero\n      iszero\n      iszero\n      iszero\n      dup2\n      mstore\n      0x20\n      add\n      swap2\n      pop\n      pop\n      mload(0x40)\n      dup1\n      swap2\n      sub\n      swap1\n      return\n        /* \"childtoken/t.sol\":30539:30588  bytes32 public constant DEFAULT_ADMIN_ROLE = 0x00 */\n    tag_8:\n      tag_27\n      tag_28\n      jump\t// in\n    tag_27:\n      mload(0x40)\n      dup1\n      dup3\n      dup2\n      mstore\n      0x20\n      add\n      swap2\n      pop\n      pop\n      mload(0x40)\n      dup1\n      swap2\n      sub\n      swap1\n      return\n        /* \"childtoken/t.sol\":32067:32192  function getRoleMemberCount(bytes32 role) public view returns (uint256) {... */\n    tag_9:\n      tag_29\n      0x04\n      dup1\n      calldatasize\n      sub\n        /* \"--CODEGEN--\":15:17   */\n      0x20\n        /* \"--CODEGEN--\":10:13   */\n      dup2\n        /* \"--CODEGEN--\":7:18   */\n      lt\n        /* \"--CODEGEN--\":4:6   */\n      iszero\n      tag_30\n      jumpi\n        /* \"--CODEGEN--\":31:32   */\n      0x00\n        /* \"--CODEGEN--\":28:29   */\n      dup1\n        /* \"--CODEGEN--\":21:33   */\n      revert\n        /* \"--CODEGEN--\":4:6   */\n    tag_30:\n        /* \"childtoken/t.sol\":32067:32192  function getRoleMemberCount(bytes32 role) public view returns (uint256) {... */\n      dup2\n      add\n      swap1\n      dup1\n      dup1\n      calldataload\n      swap1\n      0x20\n      add\n      swap1\n      swap3\n      swap2\n      swap1\n      pop\n      pop\n      pop\n      tag_31\n      jump\t// in\n    tag_29:\n      mload(0x40)\n      dup1\n      dup3\n      dup2\n      mstore\n      0x20\n      add\n      swap2\n      pop\n      pop\n      mload(0x40)\n      dup1\n      swap2\n      sub\n      swap1\n      return\n        /* \"childtoken/t.sol\":33913:34139  function revokeRole(bytes32 role, address account) public virtual {... */\n    tag_10:\n      tag_32\n      0x04\n      dup1\n      calldatasize\n      sub\n        /* \"--CODEGEN--\":15:17   */\n      0x40\n        /* \"--CODEGEN--\":10:13   */\n      dup2\n        /* \"--CODEGEN--\":7:18   */\n      lt\n        /* \"--CODEGEN--\":4:6   */\n      iszero\n      tag_33\n      jumpi\n        /* \"--CODEGEN--\":31:32   */\n      0x00\n        /* \"--CODEGEN--\":28:29   */\n      dup1\n        /* \"--CODEGEN--\":21:33   */\n      revert\n        /* \"--CODEGEN--\":4:6   */\n    tag_33:\n        /* \"childtoken/t.sol\":33913:34139  function revokeRole(bytes32 role, address account) public virtual {... */\n      dup2\n      add\n      swap1\n      dup1\n      dup1\n      calldataload\n      swap1\n      0x20\n      add\n      swap1\n      swap3\n      swap2\n      swap1\n      dup1\n      calldataload\n      0xffffffffffffffffffffffffffffffffffffffff\n      and\n      swap1\n      0x20\n      add\n      swap1\n      swap3\n      swap2\n      swap1\n      pop\n      pop\n      pop\n      tag_34\n      jump\t// in\n    tag_32:\n      stop\n        /* \"childtoken/t.sol\":33094:33206  function getRoleAdmin(bytes32 role) public view returns (bytes32) {... */\n    tag_14:\n        /* \"childtoken/t.sol\":33151:33158  bytes32 */\n      0x00\n        /* \"childtoken/t.sol\":33177:33183  _roles */\n      dup1\n        /* \"childtoken/t.sol\":33177:33189  _roles[role] */\n      0x00\n        /* \"childtoken/t.sol\":33184:33188  role */\n      dup4\n        /* \"childtoken/t.sol\":33177:33189  _roles[role] */\n      dup2\n      mstore\n      0x20\n      add\n      swap1\n      dup2\n      mstore\n      0x20\n      add\n      0x00\n      keccak256\n        /* \"childtoken/t.sol\":33177:33199  _roles[role].adminRole */\n      0x02\n      add\n      sload\n        /* \"childtoken/t.sol\":33170:33199  return _roles[role].adminRole */\n      swap1\n      pop\n        /* \"childtoken/t.sol\":33094:33206  function getRoleAdmin(bytes32 role) public view returns (bytes32) {... */\n      swap2\n      swap1\n      pop\n      jump\t// out\n        /* \"childtoken/t.sol\":33456:33679  function grantRole(bytes32 role, address account) public virtual {... */\n    tag_17:\n        /* \"childtoken/t.sol\":33539:33584  hasRole(_roles[role].adminRole, _msgSender()) */\n      tag_37\n        /* \"childtoken/t.sol\":33547:33553  _roles */\n      0x00\n        /* \"childtoken/t.sol\":33547:33559  _roles[role] */\n      dup1\n        /* \"childtoken/t.sol\":33554:33558  role */\n      dup5\n        /* \"childtoken/t.sol\":33547:33559  _roles[role] */\n      dup2\n      mstore\n      0x20\n      add\n      swap1\n      dup2\n      mstore\n      0x20\n      add\n      0x00\n      keccak256\n        /* \"childtoken/t.sol\":33547:33569  _roles[role].adminRole */\n      0x02\n      add\n      sload\n        /* \"childtoken/t.sol\":33571:33583  _msgSender() */\n      tag_38\n        /* \"childtoken/t.sol\":33571:33581  _msgSender */\n      tag_39\n        /* \"childtoken/t.sol\":33571:33583  _msgSender() */\n      jump\t// in\n    tag_38:\n        /* \"childtoken/t.sol\":33539:33546  hasRole */\n      tag_26\n        /* \"childtoken/t.sol\":33539:33584  hasRole(_roles[role].adminRole, _msgSender()) */\n      jump\t// in\n    tag_37:\n        /* \"childtoken/t.sol\":33531:33636  require(hasRole(_roles[role].adminRole, _msgSender()), \"AccessControl: sender must be an admin to grant\") */\n      tag_40\n      jumpi\n      mload(0x40)\n      0x08c379a000000000000000000000000000000000000000000000000000000000\n      dup2\n      mstore\n      0x04\n      add\n      dup1\n      dup1\n      0x20\n      add\n      dup3\n      dup2\n      sub\n      dup3\n      mstore\n      0x2f\n      dup2\n      mstore\n      0x20\n      add\n      dup1\n      data_0ba7116025f1ef6b158a2bd2238e617f30e17c9e456917d901086ca4f8ad2811\n      0x2f\n      swap2\n      codecopy\n      0x40\n      add\n      swap2\n      pop\n      pop\n      mload(0x40)\n      dup1\n      swap2\n      sub\n      swap1\n      revert\n    tag_40:\n        /* \"childtoken/t.sol\":33647:33672  _grantRole(role, account) */\n      tag_41\n        /* \"childtoken/t.sol\":33658:33662  role */\n      dup3\n        /* \"childtoken/t.sol\":33664:33671  account */\n      dup3\n        /* \"childtoken/t.sol\":33647:33657  _grantRole */\n      tag_42\n        /* \"childtoken/t.sol\":33647:33672  _grantRole(role, account) */\n      jump\t// in\n    tag_41:\n        /* \"childtoken/t.sol\":33456:33679  function grantRole(bytes32 role, address account) public virtual {... */\n      pop\n      pop\n      jump\t// out\n        /* \"childtoken/t.sol\":34630:34835  function renounceRole(bytes32 role, address account) public virtual {... */\n    tag_20:\n        /* \"childtoken/t.sol\":34727:34739  _msgSender() */\n      tag_44\n        /* \"childtoken/t.sol\":34727:34737  _msgSender */\n      tag_39\n        /* \"childtoken/t.sol\":34727:34739  _msgSender() */\n      jump\t// in\n    tag_44:\n        /* \"childtoken/t.sol\":34716:34739  account == _msgSender() */\n      0xffffffffffffffffffffffffffffffffffffffff\n      and\n        /* \"childtoken/t.sol\":34716:34723  account */\n      dup2\n        /* \"childtoken/t.sol\":34716:34739  account == _msgSender() */\n      0xffffffffffffffffffffffffffffffffffffffff\n      and\n      eq\n        /* \"childtoken/t.sol\":34708:34791  require(account == _msgSender(), \"AccessControl: can only renounce roles for self\") */\n      tag_45\n      jumpi\n      mload(0x40)\n      0x08c379a000000000000000000000000000000000000000000000000000000000\n      dup2\n      mstore\n      0x04\n      add\n      dup1\n      dup1\n      0x20\n      add\n      dup3\n      dup2\n      sub\n      dup3\n      mstore\n      0x2f\n      dup2\n      mstore\n      0x20\n      add\n      dup1\n      data_fb06fa8ff2141e8ed74502f6792273793f25f0e9d3cf15344f3f5a0d4948fd4b\n      0x2f\n      swap2\n      codecopy\n      0x40\n      add\n      swap2\n      pop\n      pop\n      mload(0x40)\n      dup1\n      swap2\n      sub\n      swap1\n      revert\n    tag_45:\n        /* \"childtoken/t.sol\":34802:34828  _revokeRole(role, account) */\n      tag_46\n        /* \"childtoken/t.sol\":34814:34818  role */\n      dup3\n        /* \"childtoken/t.sol\":34820:34827  account */\n      dup3\n        /* \"childtoken/t.sol\":34802:34813  _revokeRole */\n      tag_47\n        /* \"childtoken/t.sol\":34802:34828  _revokeRole(role, account) */\n      jump\t// in\n    tag_46:\n        /* \"childtoken/t.sol\":34630:34835  function renounceRole(bytes32 role, address account) public virtual {... */\n      pop\n      pop\n      jump\t// out\n        /* \"childtoken/t.sol\":32777:32913  function getRoleMember(bytes32 role, uint256 index) public view returns (address) {... */\n    tag_23:\n        /* \"childtoken/t.sol\":32850:32857  address */\n      0x00\n        /* \"childtoken/t.sol\":32876:32906  _roles[role].members.at(index) */\n      tag_49\n        /* \"childtoken/t.sol\":32900:32905  index */\n      dup3\n        /* \"childtoken/t.sol\":32876:32882  _roles */\n      0x00\n        /* \"childtoken/t.sol\":32876:32888  _roles[role] */\n      dup1\n        /* \"childtoken/t.sol\":32883:32887  role */\n      dup7\n        /* \"childtoken/t.sol\":32876:32888  _roles[role] */\n      dup2\n      mstore\n      0x20\n      add\n      swap1\n      dup2\n      mstore\n      0x20\n      add\n      0x00\n      keccak256\n        /* \"childtoken/t.sol\":32876:32896  _roles[role].members */\n      0x00\n      add\n        /* \"childtoken/t.sol\":32876:32899  _roles[role].members.at */\n      tag_50\n      swap1\n        /* \"childtoken/t.sol\":32876:32906  _roles[role].members.at(index) */\n      swap2\n      swap1\n      0xffffffff\n      and\n      jump\t// in\n    tag_49:\n        /* \"childtoken/t.sol\":32869:32906  return _roles[role].members.at(index) */\n      swap1\n      pop\n        /* \"childtoken/t.sol\":32777:32913  function getRoleMember(bytes32 role, uint256 index) public view returns (address) {... */\n      swap3\n      swap2\n      pop\n      pop\n      jump\t// out\n        /* \"childtoken/t.sol\":31762:31899  function hasRole(bytes32 role, address account) public view returns (bool) {... */\n    tag_26:\n        /* \"childtoken/t.sol\":31831:31835  bool */\n      0x00\n        /* \"childtoken/t.sol\":31854:31892  _roles[role].members.contains(account) */\n      tag_52\n        /* \"childtoken/t.sol\":31884:31891  account */\n      dup3\n        /* \"childtoken/t.sol\":31854:31860  _roles */\n      0x00\n        /* \"childtoken/t.sol\":31854:31866  _roles[role] */\n      dup1\n        /* \"childtoken/t.sol\":31861:31865  role */\n      dup7\n        /* \"childtoken/t.sol\":31854:31866  _roles[role] */\n      dup2\n      mstore\n      0x20\n      add\n      swap1\n      dup2\n      mstore\n      0x20\n      add\n      0x00\n      keccak256\n        /* \"childtoken/t.sol\":31854:31874  _roles[role].members */\n      0x00\n      add\n        /* \"childtoken/t.sol\":31854:31883  _roles[role].members.contains */\n      tag_53\n      swap1\n        /* \"childtoken/t.sol\":31854:31892  _roles[role].members.contains(account) */\n      swap2\n      swap1\n      0xffffffff\n      and\n      jump\t// in\n    tag_52:\n        /* \"childtoken/t.sol\":31847:31892  return _roles[role].members.contains(account) */\n      swap1\n      pop\n        /* \"childtoken/t.sol\":31762:31899  function hasRole(bytes32 role, address account) public view returns (bool) {... */\n      swap3\n      swap2\n      pop\n      pop\n      jump\t// out\n        /* \"childtoken/t.sol\":30539:30588  bytes32 public constant DEFAULT_ADMIN_ROLE = 0x00 */\n    tag_28:\n        /* \"childtoken/t.sol\":30584:30588  0x00 */\n      0x00\n        /* \"childtoken/t.sol\":30539:30588  bytes32 public constant DEFAULT_ADMIN_ROLE = 0x00 */\n      dup1\n      shl\n      dup2\n      jump\t// out\n        /* \"childtoken/t.sol\":32067:32192  function getRoleMemberCount(bytes32 role) public view returns (uint256) {... */\n    tag_31:\n        /* \"childtoken/t.sol\":32130:32137  uint256 */\n      0x00\n        /* \"childtoken/t.sol\":32156:32185  _roles[role].members.length() */\n      tag_55\n        /* \"childtoken/t.sol\":32156:32162  _roles */\n      0x00\n        /* \"childtoken/t.sol\":32156:32168  _roles[role] */\n      dup1\n        /* \"childtoken/t.sol\":32163:32167  role */\n      dup5\n        /* \"childtoken/t.sol\":32156:32168  _roles[role] */\n      dup2\n      mstore\n      0x20\n      add\n      swap1\n      dup2\n      mstore\n      0x20\n      add\n      0x00\n      keccak256\n        /* \"childtoken/t.sol\":32156:32176  _roles[role].members */\n      0x00\n      add\n        /* \"childtoken/t.sol\":32156:32183  _roles[role].members.length */\n      tag_56\n        /* \"childtoken/t.sol\":32156:32185  _roles[role].members.length() */\n      jump\t// in\n    tag_55:\n        /* \"childtoken/t.sol\":32149:32185  return _roles[role].members.length() */\n      swap1\n      pop\n        /* \"childtoken/t.sol\":32067:32192  function getRoleMemberCount(bytes32 role) public view returns (uint256) {... */\n      swap2\n      swap1\n      pop\n      jump\t// out\n        /* \"childtoken/t.sol\":33913:34139  function revokeRole(bytes32 role, address account) public virtual {... */\n    tag_34:\n        /* \"childtoken/t.sol\":33997:34042  hasRole(_roles[role].adminRole, _msgSender()) */\n      tag_58\n        /* \"childtoken/t.sol\":34005:34011  _roles */\n      0x00\n        /* \"childtoken/t.sol\":34005:34017  _roles[role] */\n      dup1\n        /* \"childtoken/t.sol\":34012:34016  role */\n      dup5\n        /* \"childtoken/t.sol\":34005:34017  _roles[role] */\n      dup2\n      mstore\n      0x20\n      add\n      swap1\n      dup2\n      mstore\n      0x20\n      add\n      0x00\n      keccak256\n        /* \"childtoken/t.sol\":34005:34027  _roles[role].adminRole */\n      0x02\n      add\n      sload\n        /* \"childtoken/t.sol\":34029:34041  _msgSender() */\n      tag_59\n        /* \"childtoken/t.sol\":34029:34039  _msgSender */\n      tag_39\n        /* \"childtoken/t.sol\":34029:34041  _msgSender() */\n      jump\t// in\n    tag_59:\n        /* \"childtoken/t.sol\":33997:34004  hasRole */\n      tag_26\n        /* \"childtoken/t.sol\":33997:34042  hasRole(_roles[role].adminRole, _msgSender()) */\n      jump\t// in\n    tag_58:\n        /* \"childtoken/t.sol\":33989:34095  require(hasRole(_roles[role].adminRole, _msgSender()), \"AccessControl: sender must be an admin to revoke\") */\n      tag_60\n      jumpi\n      mload(0x40)\n      0x08c379a000000000000000000000000000000000000000000000000000000000\n      dup2\n      mstore\n      0x04\n      add\n      dup1\n      dup1\n      0x20\n      add\n      dup3\n      dup2\n      sub\n      dup3\n      mstore\n      0x30\n      dup2\n      mstore\n      0x20\n      add\n      dup1\n      data_64344570eab7406ca49d34d38bf2b2496dfda914405390c5057c8b0aabf798a3\n      0x30\n      swap2\n      codecopy\n      0x40\n      add\n      swap2\n      pop\n      pop\n      mload(0x40)\n      dup1\n      swap2\n      sub\n      swap1\n      revert\n    tag_60:\n        /* \"childtoken/t.sol\":34106:34132  _revokeRole(role, account) */\n      tag_61\n        /* \"childtoken/t.sol\":34118:34122  role */\n      dup3\n        /* \"childtoken/t.sol\":34124:34131  account */\n      dup3\n        /* \"childtoken/t.sol\":34106:34117  _revokeRole */\n      tag_47\n        /* \"childtoken/t.sol\":34106:34132  _revokeRole(role, account) */\n      jump\t// in\n    tag_61:\n        /* \"childtoken/t.sol\":33913:34139  function revokeRole(bytes32 role, address account) public virtual {... */\n      pop\n      pop\n      jump\t// out\n        /* \"childtoken/t.sol\":1799:1903  function _msgSender() internal view virtual returns (address payable) {... */\n    tag_39:\n        /* \"childtoken/t.sol\":1852:1867  address payable */\n      0x00\n        /* \"childtoken/t.sol\":1886:1896  msg.sender */\n      caller\n        /* \"childtoken/t.sol\":1879:1896  return msg.sender */\n      swap1\n      pop\n        /* \"childtoken/t.sol\":1799:1903  function _msgSender() internal view virtual returns (address payable) {... */\n      swap1\n      jump\t// out\n        /* \"childtoken/t.sol\":35837:36021  function _grantRole(bytes32 role, address account) private {... */\n    tag_42:\n        /* \"childtoken/t.sol\":35910:35943  _roles[role].members.add(account) */\n      tag_64\n        /* \"childtoken/t.sol\":35935:35942  account */\n      dup2\n        /* \"childtoken/t.sol\":35910:35916  _roles */\n      0x00\n        /* \"childtoken/t.sol\":35910:35922  _roles[role] */\n      dup1\n        /* \"childtoken/t.sol\":35917:35921  role */\n      dup6\n        /* \"childtoken/t.sol\":35910:35922  _roles[role] */\n      dup2\n      mstore\n      0x20\n      add\n      swap1\n      dup2\n      mstore\n      0x20\n      add\n      0x00\n      keccak256\n        /* \"childtoken/t.sol\":35910:35930  _roles[role].members */\n      0x00\n      add\n        /* \"childtoken/t.sol\":35910:35934  _roles[role].members.add */\n      tag_65\n      swap1\n        /* \"childtoken/t.sol\":35910:35943  _roles[role].members.add(account) */\n      swap2\n      swap1\n      0xffffffff\n      and\n      jump\t// in\n    tag_64:\n        /* \"childtoken/t.sol\":35906:36015  if (_roles[role].members.add(account)) {... */\n      iszero\n      tag_66\n      jumpi\n        /* \"childtoken/t.sol\":35991:36003  _msgSender() */\n      tag_67\n        /* \"childtoken/t.sol\":35991:36001  _msgSender */\n      tag_39\n        /* \"childtoken/t.sol\":35991:36003  _msgSender() */\n      jump\t// in\n    tag_67:\n        /* \"childtoken/t.sol\":35964:36004  RoleGranted(role, account, _msgSender()) */\n      0xffffffffffffffffffffffffffffffffffffffff\n      and\n        /* \"childtoken/t.sol\":35982:35989  account */\n      dup2\n        /* \"childtoken/t.sol\":35964:36004  RoleGranted(role, account, _msgSender()) */\n      0xffffffffffffffffffffffffffffffffffffffff\n      and\n        /* \"childtoken/t.sol\":35976:35980  role */\n      dup4\n        /* \"childtoken/t.sol\":35964:36004  RoleGranted(role, account, _msgSender()) */\n      0x2f8788117e7eff1d82e926ec794901d17c78024a50270940304540a733656f0d\n      mload(0x40)\n      mload(0x40)\n      dup1\n      swap2\n      sub\n      swap1\n      log4\n        /* \"childtoken/t.sol\":35906:36015  if (_roles[role].members.add(account)) {... */\n    tag_66:\n        /* \"childtoken/t.sol\":35837:36021  function _grantRole(bytes32 role, address account) private {... */\n      pop\n      pop\n      jump\t// out\n        /* \"childtoken/t.sol\":36027:36215  function _revokeRole(bytes32 role, address account) private {... */\n    tag_47:\n        /* \"childtoken/t.sol\":36101:36137  _roles[role].members.remove(account) */\n      tag_69\n        /* \"childtoken/t.sol\":36129:36136  account */\n      dup2\n        /* \"childtoken/t.sol\":36101:36107  _roles */\n      0x00\n        /* \"childtoken/t.sol\":36101:36113  _roles[role] */\n      dup1\n        /* \"childtoken/t.sol\":36108:36112  role */\n      dup6\n        /* \"childtoken/t.sol\":36101:36113  _roles[role] */\n      dup2\n      mstore\n      0x20\n      add\n      swap1\n      dup2\n      mstore\n      0x20\n      add\n      0x00\n      keccak256\n        /* \"childtoken/t.sol\":36101:36121  _roles[role].members */\n      0x00\n      add\n        /* \"childtoken/t.sol\":36101:36128  _roles[role].members.remove */\n      tag_70\n      swap1\n        /* \"childtoken/t.sol\":36101:36137  _roles[role].members.remove(account) */\n      swap2\n      swap1\n      0xffffffff\n      and\n      jump\t// in\n    tag_69:\n        /* \"childtoken/t.sol\":36097:36209  if (_roles[role].members.remove(account)) {... */\n      iszero\n      tag_71\n      jumpi\n        /* \"childtoken/t.sol\":36185:36197  _msgSender() */\n      tag_72\n        /* \"childtoken/t.sol\":36185:36195  _msgSender */\n      tag_39\n        /* \"childtoken/t.sol\":36185:36197  _msgSender() */\n      jump\t// in\n    tag_72:\n        /* \"childtoken/t.sol\":36158:36198  RoleRevoked(role, account, _msgSender()) */\n      0xffffffffffffffffffffffffffffffffffffffff\n      and\n        /* \"childtoken/t.sol\":36176:36183  account */\n      dup2\n        /* \"childtoken/t.sol\":36158:36198  RoleRevoked(role, account, _msgSender()) */\n      0xffffffffffffffffffffffffffffffffffffffff\n      and\n        /* \"childtoken/t.sol\":36170:36174  role */\n      dup4\n        /* \"childtoken/t.sol\":36158:36198  RoleRevoked(role, account, _msgSender()) */\n      0xf6391f5c32d9c69d2a47ea670b442974b53935d1edc7fd64eb21e047a839171b\n      mload(0x40)\n      mload(0x40)\n      dup1\n      swap2\n      sub\n      swap1\n      log4\n        /* \"childtoken/t.sol\":36097:36209  if (_roles[role].members.remove(account)) {... */\n    tag_71:\n        /* \"childtoken/t.sol\":36027:36215  function _revokeRole(bytes32 role, address account) private {... */\n      pop\n      pop\n      jump\t// out\n        /* \"childtoken/t.sol\":22221:22368  function at(AddressSet storage set, uint256 index) internal view returns (address) {... */\n    tag_50:\n        /* \"childtoken/t.sol\":22295:22302  address */\n      0x00\n        /* \"childtoken/t.sol\":22337:22359  _at(set._inner, index) */\n      tag_74\n        /* \"childtoken/t.sol\":22341:22344  set */\n      dup4\n        /* \"childtoken/t.sol\":22341:22351  set._inner */\n      0x00\n      add\n        /* \"childtoken/t.sol\":22353:22358  index */\n      dup4\n        /* \"childtoken/t.sol\":22337:22340  _at */\n      tag_75\n        /* \"childtoken/t.sol\":22337:22359  _at(set._inner, index) */\n      jump\t// in\n    tag_74:\n        /* \"childtoken/t.sol\":22329:22360  uint256(_at(set._inner, index)) */\n      0x00\n      shr\n        /* \"childtoken/t.sol\":22314:22361  return address(uint256(_at(set._inner, index))) */\n      swap1\n      pop\n        /* \"childtoken/t.sol\":22221:22368  function at(AddressSet storage set, uint256 index) internal view returns (address) {... */\n      swap3\n      swap2\n      pop\n      pop\n      jump\t// out\n        /* \"childtoken/t.sol\":21537:21693  function contains(AddressSet storage set, address value) internal view returns (bool) {... */\n    tag_53:\n        /* \"childtoken/t.sol\":21617:21621  bool */\n      0x00\n        /* \"childtoken/t.sol\":21640:21686  _contains(set._inner, bytes32(uint256(value))) */\n      tag_77\n        /* \"childtoken/t.sol\":21650:21653  set */\n      dup4\n        /* \"childtoken/t.sol\":21650:21660  set._inner */\n      0x00\n      add\n        /* \"childtoken/t.sol\":21678:21683  value */\n      dup4\n        /* \"childtoken/t.sol\":21670:21684  uint256(value) */\n      0xffffffffffffffffffffffffffffffffffffffff\n      and\n        /* \"childtoken/t.sol\":21662:21685  bytes32(uint256(value)) */\n      0x00\n      shl\n        /* \"childtoken/t.sol\":21640:21649  _contains */\n      tag_78\n        /* \"childtoken/t.sol\":21640:21686  _contains(set._inner, bytes32(uint256(value))) */\n      jump\t// in\n    tag_77:\n        /* \"childtoken/t.sol\":21633:21686  return _contains(set._inner, bytes32(uint256(value))) */\n      swap1\n      pop\n        /* \"childtoken/t.sol\":21537:21693  function contains(AddressSet storage set, address value) internal view returns (bool) {... */\n      swap3\n      swap2\n      pop\n      pop\n      jump\t// out\n        /* \"childtoken/t.sol\":21774:21889  function length(AddressSet storage set) internal view returns (uint256) {... */\n    tag_56:\n        /* \"childtoken/t.sol\":21837:21844  uint256 */\n      0x00\n        /* \"childtoken/t.sol\":21863:21882  _length(set._inner) */\n      tag_80\n        /* \"childtoken/t.sol\":21871:21874  set */\n      dup3\n        /* \"childtoken/t.sol\":21871:21881  set._inner */\n      0x00\n      add\n        /* \"childtoken/t.sol\":21863:21870  _length */\n      tag_81\n        /* \"childtoken/t.sol\":21863:21882  _length(set._inner) */\n      jump\t// in\n    tag_80:\n        /* \"childtoken/t.sol\":21856:21882  return _length(set._inner) */\n      swap1\n      pop\n        /* \"childtoken/t.sol\":21774:21889  function length(AddressSet storage set) internal view returns (uint256) {... */\n      swap2\n      swap1\n      pop\n      jump\t// out\n        /* \"childtoken/t.sol\":21000:21141  function add(AddressSet storage set, address value) internal returns (bool) {... */\n    tag_65:\n        /* \"childtoken/t.sol\":21070:21074  bool */\n      0x00\n        /* \"childtoken/t.sol\":21093:21134  _add(set._inner, bytes32(uint256(value))) */\n      tag_83\n        /* \"childtoken/t.sol\":21098:21101  set */\n      dup4\n        /* \"childtoken/t.sol\":21098:21108  set._inner */\n      0x00\n      add\n        /* \"childtoken/t.sol\":21126:21131  value */\n      dup4\n        /* \"childtoken/t.sol\":21118:21132  uint256(value) */\n      0xffffffffffffffffffffffffffffffffffffffff\n      and\n        /* \"childtoken/t.sol\":21110:21133  bytes32(uint256(value)) */\n      0x00\n      shl\n        /* \"childtoken/t.sol\":21093:21097  _add */\n      tag_84\n        /* \"childtoken/t.sol\":21093:21134  _add(set._inner, bytes32(uint256(value))) */\n      jump\t// in\n    tag_83:\n        /* \"childtoken/t.sol\":21086:21134  return _add(set._inner, bytes32(uint256(value))) */\n      swap1\n      pop\n        /* \"childtoken/t.sol\":21000:21141  function add(AddressSet storage set, address value) internal returns (bool) {... */\n      swap3\n      swap2\n      pop\n      pop\n      jump\t// out\n        /* \"childtoken/t.sol\":21309:21456  function remove(AddressSet storage set, address value) internal returns (bool) {... */\n    tag_70:\n        /* \"childtoken/t.sol\":21382:21386  bool */\n      0x00\n        /* \"childtoken/t.sol\":21405:21449  _remove(set._inner, bytes32(uint256(value))) */\n      tag_86\n        /* \"childtoken/t.sol\":21413:21416  set */\n      dup4\n        /* \"childtoken/t.sol\":21413:21423  set._inner */\n      0x00\n      add\n        /* \"childtoken/t.sol\":21441:21446  value */\n      dup4\n        /* \"childtoken/t.sol\":21433:21447  uint256(value) */\n      0xffffffffffffffffffffffffffffffffffffffff\n      and\n        /* \"childtoken/t.sol\":21425:21448  bytes32(uint256(value)) */\n      0x00\n      shl\n        /* \"childtoken/t.sol\":21405:21412  _remove */\n      tag_87\n        /* \"childtoken/t.sol\":21405:21449  _remove(set._inner, bytes32(uint256(value))) */\n      jump\t// in\n    tag_86:\n        /* \"childtoken/t.sol\":21398:21449  return _remove(set._inner, bytes32(uint256(value))) */\n      swap1\n      pop\n        /* \"childtoken/t.sol\":21309:21456  function remove(AddressSet storage set, address value) internal returns (bool) {... */\n      swap3\n      swap2\n      pop\n      pop\n      jump\t// out\n        /* \"childtoken/t.sol\":20559:20760  function _at(Set storage set, uint256 index) private view returns (bytes32) {... */\n    tag_75:\n        /* \"childtoken/t.sol\":20626:20633  bytes32 */\n      0x00\n        /* \"childtoken/t.sol\":20674:20679  index */\n      dup2\n        /* \"childtoken/t.sol\":20653:20656  set */\n      dup4\n        /* \"childtoken/t.sol\":20653:20664  set._values */\n      0x00\n      add\n        /* \"childtoken/t.sol\":20653:20671  set._values.length */\n      dup1\n      sload\n      swap1\n      pop\n        /* \"childtoken/t.sol\":20653:20679  set._values.length > index */\n      gt\n        /* \"childtoken/t.sol\":20645:20718  require(set._values.length > index, \"EnumerableSet: index out of bounds\") */\n      tag_89\n      jumpi\n      mload(0x40)\n      0x08c379a000000000000000000000000000000000000000000000000000000000\n      dup2\n      mstore\n      0x04\n      add\n      dup1\n      dup1\n      0x20\n      add\n      dup3\n      dup2\n      sub\n      dup3\n      mstore\n      0x22\n      dup2\n      mstore\n      0x20\n      add\n      dup1\n      data_045d6834e6193a687012a3ad777f612279e549b6945364d9d2324f48610d3cbb\n      0x22\n      swap2\n      codecopy\n      0x40\n      add\n      swap2\n      pop\n      pop\n      mload(0x40)\n      dup1\n      swap2\n      sub\n      swap1\n      revert\n    tag_89:\n        /* \"childtoken/t.sol\":20735:20738  set */\n      dup3\n        /* \"childtoken/t.sol\":20735:20746  set._values */\n      0x00\n      add\n        /* \"childtoken/t.sol\":20747:20752  index */\n      dup3\n        /* \"childtoken/t.sol\":20735:20753  set._values[index] */\n      dup2\n      sload\n      dup2\n      lt\n      tag_90\n      jumpi\n      invalid\n    tag_90:\n      swap1\n      0x00\n      mstore\n      keccak256(0x00, 0x20)\n      add\n      sload\n        /* \"childtoken/t.sol\":20728:20753  return set._values[index] */\n      swap1\n      pop\n        /* \"childtoken/t.sol\":20559:20760  function _at(Set storage set, uint256 index) private view returns (bytes32) {... */\n      swap3\n      swap2\n      pop\n      pop\n      jump\t// out\n        /* \"childtoken/t.sol\":19912:20039  function _contains(Set storage set, bytes32 value) private view returns (bool) {... */\n    tag_78:\n        /* \"childtoken/t.sol\":19985:19989  bool */\n      0x00\n        /* \"childtoken/t.sol\":20031:20032  0 */\n      dup1\n        /* \"childtoken/t.sol\":20008:20011  set */\n      dup4\n        /* \"childtoken/t.sol\":20008:20020  set._indexes */\n      0x01\n      add\n        /* \"childtoken/t.sol\":20008:20027  set._indexes[value] */\n      0x00\n        /* \"childtoken/t.sol\":20021:20026  value */\n      dup5\n        /* \"childtoken/t.sol\":20008:20027  set._indexes[value] */\n      dup2\n      mstore\n      0x20\n      add\n      swap1\n      dup2\n      mstore\n      0x20\n      add\n      0x00\n      keccak256\n      sload\n        /* \"childtoken/t.sol\":20008:20032  set._indexes[value] != 0 */\n      eq\n      iszero\n        /* \"childtoken/t.sol\":20001:20032  return set._indexes[value] != 0 */\n      swap1\n      pop\n        /* \"childtoken/t.sol\":19912:20039  function _contains(Set storage set, bytes32 value) private view returns (bool) {... */\n      swap3\n      swap2\n      pop\n      pop\n      jump\t// out\n        /* \"childtoken/t.sol\":20120:20227  function _length(Set storage set) private view returns (uint256) {... */\n    tag_81:\n        /* \"childtoken/t.sol\":20176:20183  uint256 */\n      0x00\n        /* \"childtoken/t.sol\":20202:20205  set */\n      dup2\n        /* \"childtoken/t.sol\":20202:20213  set._values */\n      0x00\n      add\n        /* \"childtoken/t.sol\":20202:20220  set._values.length */\n      dup1\n      sload\n      swap1\n      pop\n        /* \"childtoken/t.sol\":20195:20220  return set._values.length */\n      swap1\n      pop\n        /* \"childtoken/t.sol\":20120:20227  function _length(Set storage set) private view returns (uint256) {... */\n      swap2\n      swap1\n      pop\n      jump\t// out\n        /* \"childtoken/t.sol\":17747:18151  function _add(Set storage set, bytes32 value) private returns (bool) {... */\n    tag_84:\n        /* \"childtoken/t.sol\":17810:17814  bool */\n      0x00\n        /* \"childtoken/t.sol\":17831:17852  _contains(set, value) */\n      tag_95\n        /* \"childtoken/t.sol\":17841:17844  set */\n      dup4\n        /* \"childtoken/t.sol\":17846:17851  value */\n      dup4\n        /* \"childtoken/t.sol\":17831:17840  _contains */\n      tag_78\n        /* \"childtoken/t.sol\":17831:17852  _contains(set, value) */\n      jump\t// in\n    tag_95:\n        /* \"childtoken/t.sol\":17826:18145  if (!_contains(set, value)) {... */\n      tag_96\n      jumpi\n        /* \"childtoken/t.sol\":17868:17871  set */\n      dup3\n        /* \"childtoken/t.sol\":17868:17879  set._values */\n      0x00\n      add\n        /* \"childtoken/t.sol\":17885:17890  value */\n      dup3\n        /* \"childtoken/t.sol\":17868:17891  set._values.push(value) */\n      swap1\n      dup1\n        /* \"--CODEGEN--\":39:40   */\n      0x01\n        /* \"--CODEGEN--\":33:36   */\n      dup2\n        /* \"--CODEGEN--\":27:37   */\n      sload\n        /* \"--CODEGEN--\":23:41   */\n      add\n        /* \"--CODEGEN--\":57:67   */\n      dup1\n        /* \"--CODEGEN--\":52:55   */\n      dup3\n        /* \"--CODEGEN--\":45:68   */\n      sstore\n        /* \"--CODEGEN--\":79:89   */\n      dup1\n        /* \"--CODEGEN--\":72:89   */\n      swap2\n      pop\n        /* \"--CODEGEN--\":0:93   */\n      pop\n        /* \"childtoken/t.sol\":17868:17891  set._values.push(value) */\n      0x01\n      swap1\n      sub\n      swap1\n      0x00\n      mstore\n      keccak256(0x00, 0x20)\n      add\n      0x00\n      swap1\n      swap2\n      swap1\n      swap2\n      swap1\n      swap2\n      pop\n      sstore\n        /* \"childtoken/t.sol\":18048:18051  set */\n      dup3\n        /* \"childtoken/t.sol\":18048:18059  set._values */\n      0x00\n      add\n        /* \"childtoken/t.sol\":18048:18066  set._values.length */\n      dup1\n      sload\n      swap1\n      pop\n        /* \"childtoken/t.sol\":18026:18029  set */\n      dup4\n        /* \"childtoken/t.sol\":18026:18038  set._indexes */\n      0x01\n      add\n        /* \"childtoken/t.sol\":18026:18045  set._indexes[value] */\n      0x00\n        /* \"childtoken/t.sol\":18039:18044  value */\n      dup5\n        /* \"childtoken/t.sol\":18026:18045  set._indexes[value] */\n      dup2\n      mstore\n      0x20\n      add\n      swap1\n      dup2\n      mstore\n      0x20\n      add\n      0x00\n      keccak256\n        /* \"childtoken/t.sol\":18026:18066  set._indexes[value] = set._values.length */\n      dup2\n      swap1\n      sstore\n      pop\n        /* \"childtoken/t.sol\":18087:18091  true */\n      0x01\n        /* \"childtoken/t.sol\":18080:18091  return true */\n      swap1\n      pop\n      jump(tag_94)\n        /* \"childtoken/t.sol\":17826:18145  if (!_contains(set, value)) {... */\n    tag_96:\n        /* \"childtoken/t.sol\":18129:18134  false */\n      0x00\n        /* \"childtoken/t.sol\":18122:18134  return false */\n      swap1\n      pop\n        /* \"childtoken/t.sol\":17747:18151  function _add(Set storage set, bytes32 value) private returns (bool) {... */\n    tag_94:\n      swap3\n      swap2\n      pop\n      pop\n      jump\t// out\n        /* \"childtoken/t.sol\":18319:19831  function _remove(Set storage set, bytes32 value) private returns (bool) {... */\n    tag_87:\n        /* \"childtoken/t.sol\":18385:18389  bool */\n      0x00\n        /* \"childtoken/t.sol\":18501:18519  uint256 valueIndex */\n      dup1\n        /* \"childtoken/t.sol\":18522:18525  set */\n      dup4\n        /* \"childtoken/t.sol\":18522:18534  set._indexes */\n      0x01\n      add\n        /* \"childtoken/t.sol\":18522:18541  set._indexes[value] */\n      0x00\n        /* \"childtoken/t.sol\":18535:18540  value */\n      dup5\n        /* \"childtoken/t.sol\":18522:18541  set._indexes[value] */\n      dup2\n      mstore\n      0x20\n      add\n      swap1\n      dup2\n      mstore\n      0x20\n      add\n      0x00\n      keccak256\n      sload\n        /* \"childtoken/t.sol\":18501:18541  uint256 valueIndex = set._indexes[value] */\n      swap1\n      pop\n        /* \"childtoken/t.sol\":18570:18571  0 */\n      0x00\n        /* \"childtoken/t.sol\":18556:18566  valueIndex */\n      dup2\n        /* \"childtoken/t.sol\":18556:18571  valueIndex != 0 */\n      eq\n        /* \"childtoken/t.sol\":18552:19825  if (valueIndex != 0) { // Equivalent to contains(set, value)... */\n      tag_100\n      jumpi\n        /* \"childtoken/t.sol\":18913:18934  uint256 toDeleteIndex */\n      0x00\n        /* \"childtoken/t.sol\":18950:18951  1 */\n      0x01\n        /* \"childtoken/t.sol\":18937:18947  valueIndex */\n      dup3\n        /* \"childtoken/t.sol\":18937:18951  valueIndex - 1 */\n      sub\n        /* \"childtoken/t.sol\":18913:18951  uint256 toDeleteIndex = valueIndex - 1 */\n      swap1\n      pop\n        /* \"childtoken/t.sol\":18965:18982  uint256 lastIndex */\n      0x00\n        /* \"childtoken/t.sol\":19006:19007  1 */\n      0x01\n        /* \"childtoken/t.sol\":18985:18988  set */\n      dup7\n        /* \"childtoken/t.sol\":18985:18996  set._values */\n      0x00\n      add\n        /* \"childtoken/t.sol\":18985:19003  set._values.length */\n      dup1\n      sload\n      swap1\n      pop\n        /* \"childtoken/t.sol\":18985:19007  set._values.length - 1 */\n      sub\n        /* \"childtoken/t.sol\":18965:19007  uint256 lastIndex = set._values.length - 1 */\n      swap1\n      pop\n        /* \"childtoken/t.sol\":19247:19264  bytes32 lastvalue */\n      0x00\n        /* \"childtoken/t.sol\":19267:19270  set */\n      dup7\n        /* \"childtoken/t.sol\":19267:19278  set._values */\n      0x00\n      add\n        /* \"childtoken/t.sol\":19279:19288  lastIndex */\n      dup3\n        /* \"childtoken/t.sol\":19267:19289  set._values[lastIndex] */\n      dup2\n      sload\n      dup2\n      lt\n      tag_101\n      jumpi\n      invalid\n    tag_101:\n      swap1\n      0x00\n      mstore\n      keccak256(0x00, 0x20)\n      add\n      sload\n        /* \"childtoken/t.sol\":19247:19289  bytes32 lastvalue = set._values[lastIndex] */\n      swap1\n      pop\n        /* \"childtoken/t.sol\":19410:19419  lastvalue */\n      dup1\n        /* \"childtoken/t.sol\":19381:19384  set */\n      dup8\n        /* \"childtoken/t.sol\":19381:19392  set._values */\n      0x00\n      add\n        /* \"childtoken/t.sol\":19393:19406  toDeleteIndex */\n      dup5\n        /* \"childtoken/t.sol\":19381:19407  set._values[toDeleteIndex] */\n      dup2\n      sload\n      dup2\n      lt\n      tag_103\n      jumpi\n      invalid\n    tag_103:\n      swap1\n      0x00\n      mstore\n      keccak256(0x00, 0x20)\n      add\n        /* \"childtoken/t.sol\":19381:19419  set._values[toDeleteIndex] = lastvalue */\n      dup2\n      swap1\n      sstore\n      pop\n        /* \"childtoken/t.sol\":19527:19528  1 */\n      0x01\n        /* \"childtoken/t.sol\":19511:19524  toDeleteIndex */\n      dup4\n        /* \"childtoken/t.sol\":19511:19528  toDeleteIndex + 1 */\n      add\n        /* \"childtoken/t.sol\":19485:19488  set */\n      dup8\n        /* \"childtoken/t.sol\":19485:19497  set._indexes */\n      0x01\n      add\n        /* \"childtoken/t.sol\":19485:19508  set._indexes[lastvalue] */\n      0x00\n        /* \"childtoken/t.sol\":19498:19507  lastvalue */\n      dup4\n        /* \"childtoken/t.sol\":19485:19508  set._indexes[lastvalue] */\n      dup2\n      mstore\n      0x20\n      add\n      swap1\n      dup2\n      mstore\n      0x20\n      add\n      0x00\n      keccak256\n        /* \"childtoken/t.sol\":19485:19528  set._indexes[lastvalue] = toDeleteIndex + 1 */\n      dup2\n      swap1\n      sstore\n      pop\n        /* \"childtoken/t.sol\":19634:19637  set */\n      dup7\n        /* \"childtoken/t.sol\":19634:19645  set._values */\n      0x00\n      add\n        /* \"childtoken/t.sol\":19634:19651  set._values.pop() */\n      dup1\n      sload\n      dup1\n      tag_105\n      jumpi\n      invalid\n    tag_105:\n      0x01\n      swap1\n      sub\n      dup2\n      dup2\n      swap1\n      0x00\n      mstore\n      keccak256(0x00, 0x20)\n      add\n      0x00\n      swap1\n      sstore\n      swap1\n      sstore\n        /* \"childtoken/t.sol\":19726:19729  set */\n      dup7\n        /* \"childtoken/t.sol\":19726:19738  set._indexes */\n      0x01\n      add\n        /* \"childtoken/t.sol\":19726:19745  set._indexes[value] */\n      0x00\n        /* \"childtoken/t.sol\":19739:19744  value */\n      dup8\n        /* \"childtoken/t.sol\":19726:19745  set._indexes[value] */\n      dup2\n      mstore\n      0x20\n      add\n      swap1\n      dup2\n      mstore\n      0x20\n      add\n      0x00\n      keccak256\n        /* \"childtoken/t.sol\":19719:19745  delete set._indexes[value] */\n      0x00\n      swap1\n      sstore\n        /* \"childtoken/t.sol\":19767:19771  true */\n      0x01\n        /* \"childtoken/t.sol\":19760:19771  return true */\n      swap5\n      pop\n      pop\n      pop\n      pop\n      pop\n      jump(tag_99)\n        /* \"childtoken/t.sol\":18552:19825  if (valueIndex != 0) { // Equivalent to contains(set, value)... */\n    tag_100:\n        /* \"childtoken/t.sol\":19809:19814  false */\n      0x00\n        /* \"childtoken/t.sol\":19802:19814  return false */\n      swap2\n      pop\n      pop\n        /* \"childtoken/t.sol\":18319:19831  function _remove(Set storage set, bytes32 value) private returns (bool) {... */\n    tag_99:\n      swap3\n      swap2\n      pop\n      pop\n      jump\t// out\n    stop\n    data_045d6834e6193a687012a3ad777f612279e549b6945364d9d2324f48610d3cbb 456e756d657261626c655365743a20696e646578206f7574206f6620626f756e6473\n    data_0ba7116025f1ef6b158a2bd2238e617f30e17c9e456917d901086ca4f8ad2811 416363657373436f6e74726f6c3a2073656e646572206d75737420626520616e2061646d696e20746f206772616e74\n    data_64344570eab7406ca49d34d38bf2b2496dfda914405390c5057c8b0aabf798a3 416363657373436f6e74726f6c3a2073656e646572206d75737420626520616e2061646d696e20746f207265766f6b65\n    data_fb06fa8ff2141e8ed74502f6792273793f25f0e9d3cf15344f3f5a0d4948fd4b 416363657373436f6e74726f6c3a2063616e206f6e6c792072656e6f756e636520726f6c657320666f722073656c66\n\n    auxdata: 0xa26469706673582212203ee17da5d3fff11906f1ea9ab73ad7ca31777eeb3168e4769752bbdb37491a1664736f6c63430006060033\n}\n",
				"bytecode": {
					"linkReferences": {},
					"object": "608060405234801561001057600080fd5b50610a32806100206000396000f3fe608060405234801561001057600080fd5b50600436106100885760003560e01c806391d148541161005b57806391d14854146101e3578063a217fddf14610249578063ca15c87314610267578063d547741f146102a957610088565b8063248a9ca31461008d5780632f2ff15d146100cf57806336568abe1461011d5780639010d07c1461016b575b600080fd5b6100b9600480360360208110156100a357600080fd5b81019080803590602001909291905050506102f7565b6040518082815260200191505060405180910390f35b61011b600480360360408110156100e557600080fd5b8101908080359060200190929190803573ffffffffffffffffffffffffffffffffffffffff169060200190929190505050610316565b005b6101696004803603604081101561013357600080fd5b8101908080359060200190929190803573ffffffffffffffffffffffffffffffffffffffff16906020019092919050505061039f565b005b6101a16004803603604081101561018157600080fd5b810190808035906020019092919080359060200190929190505050610438565b604051808273ffffffffffffffffffffffffffffffffffffffff1673ffffffffffffffffffffffffffffffffffffffff16815260200191505060405180910390f35b61022f600480360360408110156101f957600080fd5b8101908080359060200190929190803573ffffffffffffffffffffffffffffffffffffffff169060200190929190505050610469565b604051808215151515815260200191505060405180910390f35b61025161049a565b6040518082815260200191505060405180910390f35b6102936004803603602081101561027d57600080fd5b81019080803590602001909291905050506104a1565b6040518082815260200191505060405180910390f35b6102f5600480360360408110156102bf57600080fd5b8101908080359060200190929190803573ffffffffffffffffffffffffffffffffffffffff1690602001909291905050506104c7565b005b6000806000838152602001908152602001600020600201549050919050565b61033c60008084815260200190815260200160002060020154610337610550565b610469565b610391576040517f08c379a000000000000000000000000000000000000000000000000000000000815260040180806020018281038252602f81526020018061096f602f913960400191505060405180910390fd5b61039b8282610558565b5050565b6103a7610550565b73ffffffffffffffffffffffffffffffffffffffff168173ffffffffffffffffffffffffffffffffffffffff161461042a576040517f08c379a000000000000000000000000000000000000000000000000000000000815260040180806020018281038252602f8152602001806109ce602f913960400191505060405180910390fd5b61043482826105eb565b5050565b60006104618260008086815260200190815260200160002060000161067e90919063ffffffff16565b905092915050565b60006104928260008086815260200190815260200160002060000161069890919063ffffffff16565b905092915050565b6000801b81565b60006104c06000808481526020019081526020016000206000016106c8565b9050919050565b6104ed600080848152602001908152602001600020600201546104e8610550565b610469565b610542576040517f08c379a000000000000000000000000000000000000000000000000000000000815260040180806020018281038252603081526020018061099e6030913960400191505060405180910390fd5b61054c82826105eb565b5050565b600033905090565b61057f816000808581526020019081526020016000206000016106dd90919063ffffffff16565b156105e75761058c610550565b73ffffffffffffffffffffffffffffffffffffffff168173ffffffffffffffffffffffffffffffffffffffff16837f2f8788117e7eff1d82e926ec794901d17c78024a50270940304540a733656f0d60405160405180910390a45b5050565b6106128160008085815260200190815260200160002060000161070d90919063ffffffff16565b1561067a5761061f610550565b73ffffffffffffffffffffffffffffffffffffffff168173ffffffffffffffffffffffffffffffffffffffff16837ff6391f5c32d9c69d2a47ea670b442974b53935d1edc7fd64eb21e047a839171b60405160405180910390a45b5050565b600061068d836000018361073d565b60001c905092915050565b60006106c0836000018373ffffffffffffffffffffffffffffffffffffffff1660001b6107c0565b905092915050565b60006106d6826000016107e3565b9050919050565b6000610705836000018373ffffffffffffffffffffffffffffffffffffffff1660001b6107f4565b905092915050565b6000610735836000018373ffffffffffffffffffffffffffffffffffffffff1660001b610864565b905092915050565b60008183600001805490501161079e576040517f08c379a000000000000000000000000000000000000000000000000000000000815260040180806020018281038252602281526020018061094d6022913960400191505060405180910390fd5b8260000182815481106107ad57fe5b9060005260206000200154905092915050565b600080836001016000848152602001908152602001600020541415905092915050565b600081600001805490509050919050565b600061080083836107c0565b61085957826000018290806001815401808255809150506001900390600052602060002001600090919091909150558260000180549050836001016000848152602001908152602001600020819055506001905061085e565b600090505b92915050565b6000808360010160008481526020019081526020016000205490506000811461094057600060018203905060006001866000018054905003905060008660000182815481106108af57fe5b90600052602060002001549050808760000184815481106108cc57fe5b906000526020600020018190555060018301876001016000838152602001908152602001600020819055508660000180548061090457fe5b60019003818190600052602060002001600090559055866001016000878152602001908152602001600020600090556001945050505050610946565b60009150505b9291505056fe456e756d657261626c655365743a20696e646578206f7574206f6620626f756e6473416363657373436f6e74726f6c3a2073656e646572206d75737420626520616e2061646d696e20746f206772616e74416363657373436f6e74726f6c3a2073656e646572206d75737420626520616e2061646d696e20746f207265766f6b65416363657373436f6e74726f6c3a2063616e206f6e6c792072656e6f756e636520726f6c657320666f722073656c66a26469706673582212203ee17da5d3fff11906f1ea9ab73ad7ca31777eeb3168e4769752bbdb37491a1664736f6c63430006060033",
					"opcodes": "PUSH1 0x80 PUSH1 0x40 MSTORE CALLVALUE DUP1 ISZERO PUSH2 0x10 JUMPI PUSH1 0x0 DUP1 REVERT JUMPDEST POP PUSH2 0xA32 DUP1 PUSH2 0x20 PUSH1 0x0 CODECOPY PUSH1 0x0 RETURN INVALID PUSH1 0x80 PUSH1 0x40 MSTORE CALLVALUE DUP1 ISZERO PUSH2 0x10 JUMPI PUSH1 0x0 DUP1 REVERT JUMPDEST POP PUSH1 0x4 CALLDATASIZE LT PUSH2 0x88 JUMPI PUSH1 0x0 CALLDATALOAD PUSH1 0xE0 SHR DUP1 PUSH4 0x91D14854 GT PUSH2 0x5B JUMPI DUP1 PUSH4 0x91D14854 EQ PUSH2 0x1E3 JUMPI DUP1 PUSH4 0xA217FDDF EQ PUSH2 0x249 JUMPI DUP1 PUSH4 0xCA15C873 EQ PUSH2 0x267 JUMPI DUP1 PUSH4 0xD547741F EQ PUSH2 0x2A9 JUMPI PUSH2 0x88 JUMP JUMPDEST DUP1 PUSH4 0x248A9CA3 EQ PUSH2 0x8D JUMPI DUP1 PUSH4 0x2F2FF15D EQ PUSH2 0xCF JUMPI DUP1 PUSH4 0x36568ABE EQ PUSH2 0x11D JUMPI DUP1 PUSH4 0x9010D07C EQ PUSH2 0x16B JUMPI JUMPDEST PUSH1 0x0 DUP1 REVERT JUMPDEST PUSH2 0xB9 PUSH1 0x4 DUP1 CALLDATASIZE SUB PUSH1 0x20 DUP2 LT ISZERO PUSH2 0xA3 JUMPI PUSH1 0x0 DUP1 REVERT JUMPDEST DUP2 ADD SWAP1 DUP1 DUP1 CALLDATALOAD SWAP1 PUSH1 0x20 ADD SWAP1 SWAP3 SWAP2 SWAP1 POP POP POP PUSH2 0x2F7 JUMP JUMPDEST PUSH1 0x40 MLOAD DUP1 DUP3 DUP2 MSTORE PUSH1 0x20 ADD SWAP2 POP POP PUSH1 0x40 MLOAD DUP1 SWAP2 SUB SWAP1 RETURN JUMPDEST PUSH2 0x11B PUSH1 0x4 DUP1 CALLDATASIZE SUB PUSH1 0x40 DUP2 LT ISZERO PUSH2 0xE5 JUMPI PUSH1 0x0 DUP1 REVERT JUMPDEST DUP2 ADD SWAP1 DUP1 DUP1 CALLDATALOAD SWAP1 PUSH1 0x20 ADD SWAP1 SWAP3 SWAP2 SWAP1 DUP1 CALLDATALOAD PUSH20 0xFFFFFFFFFFFFFFFFFFFFFFFFFFFFFFFFFFFFFFFF AND SWAP1 PUSH1 0x20 ADD SWAP1 SWAP3 SWAP2 SWAP1 POP POP POP PUSH2 0x316 JUMP JUMPDEST STOP JUMPDEST PUSH2 0x169 PUSH1 0x4 DUP1 CALLDATASIZE SUB PUSH1 0x40 DUP2 LT ISZERO PUSH2 0x133 JUMPI PUSH1 0x0 DUP1 REVERT JUMPDEST DUP2 ADD SWAP1 DUP1 DUP1 CALLDATALOAD SWAP1 PUSH1 0x20 ADD SWAP1 SWAP3 SWAP2 SWAP1 DUP1 CALLDATALOAD PUSH20 0xFFFFFFFFFFFFFFFFFFFFFFFFFFFFFFFFFFFFFFFF AND SWAP1 PUSH1 0x20 ADD SWAP1 SWAP3 SWAP2 SWAP1 POP POP POP PUSH2 0x39F JUMP JUMPDEST STOP JUMPDEST PUSH2 0x1A1 PUSH1 0x4 DUP1 CALLDATASIZE SUB PUSH1 0x40 DUP2 LT ISZERO PUSH2 0x181 JUMPI PUSH1 0x0 DUP1 REVERT JUMPDEST DUP2 ADD SWAP1 DUP1 DUP1 CALLDATALOAD SWAP1 PUSH1 0x20 ADD SWAP1 SWAP3 SWAP2 SWAP1 DUP1 CALLDATALOAD SWAP1 PUSH1 0x20 ADD SWAP1 SWAP3 SWAP2 SWAP1 POP POP POP PUSH2 0x438 JUMP JUMPDEST PUSH1 0x40 MLOAD DUP1 DUP3 PUSH20 0xFFFFFFFFFFFFFFFFFFFFFFFFFFFFFFFFFFFFFFFF AND PUSH20 0xFFFFFFFFFFFFFFFFFFFFFFFFFFFFFFFFFFFFFFFF AND DUP2 MSTORE PUSH1 0x20 ADD SWAP2 POP POP PUSH1 0x40 MLOAD DUP1 SWAP2 SUB SWAP1 RETURN JUMPDEST PUSH2 0x22F PUSH1 0x4 DUP1 CALLDATASIZE SUB PUSH1 0x40 DUP2 LT ISZERO PUSH2 0x1F9 JUMPI PUSH1 0x0 DUP1 REVERT JUMPDEST DUP2 ADD SWAP1 DUP1 DUP1 CALLDATALOAD SWAP1 PUSH1 0x20 ADD SWAP1 SWAP3 SWAP2 SWAP1 DUP1 CALLDATALOAD PUSH20 0xFFFFFFFFFFFFFFFFFFFFFFFFFFFFFFFFFFFFFFFF AND SWAP1 PUSH1 0x20 ADD SWAP1 SWAP3 SWAP2 SWAP1 POP POP POP PUSH2 0x469 JUMP JUMPDEST PUSH1 0x40 MLOAD DUP1 DUP3 ISZERO ISZERO ISZERO ISZERO DUP2 MSTORE PUSH1 0x20 ADD SWAP2 POP POP PUSH1 0x40 MLOAD DUP1 SWAP2 SUB SWAP1 RETURN JUMPDEST PUSH2 0x251 PUSH2 0x49A JUMP JUMPDEST PUSH1 0x40 MLOAD DUP1 DUP3 DUP2 MSTORE PUSH1 0x20 ADD SWAP2 POP POP PUSH1 0x40 MLOAD DUP1 SWAP2 SUB SWAP1 RETURN JUMPDEST PUSH2 0x293 PUSH1 0x4 DUP1 CALLDATASIZE SUB PUSH1 0x20 DUP2 LT ISZERO PUSH2 0x27D JUMPI PUSH1 0x0 DUP1 REVERT JUMPDEST DUP2 ADD SWAP1 DUP1 DUP1 CALLDATALOAD SWAP1 PUSH1 0x20 ADD SWAP1 SWAP3 SWAP2 SWAP1 POP POP POP PUSH2 0x4A1 JUMP JUMPDEST PUSH1 0x40 MLOAD DUP1 DUP3 DUP2 MSTORE PUSH1 0x20 ADD SWAP2 POP POP PUSH1 0x40 MLOAD DUP1 SWAP2 SUB SWAP1 RETURN JUMPDEST PUSH2 0x2F5 PUSH1 0x4 DUP1 CALLDATASIZE SUB PUSH1 0x40 DUP2 LT ISZERO PUSH2 0x2BF JUMPI PUSH1 0x0 DUP1 REVERT JUMPDEST DUP2 ADD SWAP1 DUP1 DUP1 CALLDATALOAD SWAP1 PUSH1 0x20 ADD SWAP1 SWAP3 SWAP2 SWAP1 DUP1 CALLDATALOAD PUSH20 0xFFFFFFFFFFFFFFFFFFFFFFFFFFFFFFFFFFFFFFFF AND SWAP1 PUSH1 0x20 ADD SWAP1 SWAP3 SWAP2 SWAP1 POP POP POP PUSH2 0x4C7 JUMP JUMPDEST STOP JUMPDEST PUSH1 0x0 DUP1 PUSH1 0x0 DUP4 DUP2 MSTORE PUSH1 0x20 ADD SWAP1 DUP2 MSTORE PUSH1 0x20 ADD PUSH1 0x0 KECCAK256 PUSH1 0x2 ADD SLOAD SWAP1 POP SWAP2 SWAP1 POP JUMP JUMPDEST PUSH2 0x33C PUSH1 0x0 DUP1 DUP5 DUP2 MSTORE PUSH1 0x20 ADD SWAP1 DUP2 MSTORE PUSH1 0x20 ADD PUSH1 0x0 KECCAK256 PUSH1 0x2 ADD SLOAD PUSH2 0x337 PUSH2 0x550 JUMP JUMPDEST PUSH2 0x469 JUMP JUMPDEST PUSH2 0x391 JUMPI PUSH1 0x40 MLOAD PUSH32 0x8C379A000000000000000000000000000000000000000000000000000000000 DUP2 MSTORE PUSH1 0x4 ADD DUP1 DUP1 PUSH1 0x20 ADD DUP3 DUP2 SUB DUP3 MSTORE PUSH1 0x2F DUP2 MSTORE PUSH1 0x20 ADD DUP1 PUSH2 0x96F PUSH1 0x2F SWAP2 CODECOPY PUSH1 0x40 ADD SWAP2 POP POP PUSH1 0x40 MLOAD DUP1 SWAP2 SUB SWAP1 REVERT JUMPDEST PUSH2 0x39B DUP3 DUP3 PUSH2 0x558 JUMP JUMPDEST POP POP JUMP JUMPDEST PUSH2 0x3A7 PUSH2 0x550 JUMP JUMPDEST PUSH20 0xFFFFFFFFFFFFFFFFFFFFFFFFFFFFFFFFFFFFFFFF AND DUP2 PUSH20 0xFFFFFFFFFFFFFFFFFFFFFFFFFFFFFFFFFFFFFFFF AND EQ PUSH2 0x42A JUMPI PUSH1 0x40 MLOAD PUSH32 0x8C379A000000000000000000000000000000000000000000000000000000000 DUP2 MSTORE PUSH1 0x4 ADD DUP1 DUP1 PUSH1 0x20 ADD DUP3 DUP2 SUB DUP3 MSTORE PUSH1 0x2F DUP2 MSTORE PUSH1 0x20 ADD DUP1 PUSH2 0x9CE PUSH1 0x2F SWAP2 CODECOPY PUSH1 0x40 ADD SWAP2 POP POP PUSH1 0x40 MLOAD DUP1 SWAP2 SUB SWAP1 REVERT JUMPDEST PUSH2 0x434 DUP3 DUP3 PUSH2 0x5EB JUMP JUMPDEST POP POP JUMP JUMPDEST PUSH1 0x0 PUSH2 0x461 DUP3 PUSH1 0x0 DUP1 DUP7 DUP2 MSTORE PUSH1 0x20 ADD SWAP1 DUP2 MSTORE PUSH1 0x20 ADD PUSH1 0x0 KECCAK256 PUSH1 0x0 ADD PUSH2 0x67E SWAP1 SWAP2 SWAP1 PUSH4 0xFFFFFFFF AND JUMP JUMPDEST SWAP1 POP SWAP3 SWAP2 POP POP JUMP JUMPDEST PUSH1 0x0 PUSH2 0x492 DUP3 PUSH1 0x0 DUP1 DUP7 DUP2 MSTORE PUSH1 0x20 ADD SWAP1 DUP2 MSTORE PUSH1 0x20 ADD PUSH1 0x0 KECCAK256 PUSH1 0x0 ADD PUSH2 0x698 SWAP1 SWAP2 SWAP1 PUSH4 0xFFFFFFFF AND JUMP JUMPDEST SWAP1 POP SWAP3 SWAP2 POP POP JUMP JUMPDEST PUSH1 0x0 DUP1 SHL DUP2 JUMP JUMPDEST PUSH1 0x0 PUSH2 0x4C0 PUSH1 0x0 DUP1 DUP5 DUP2 MSTORE PUSH1 0x20 ADD SWAP1 DUP2 MSTORE PUSH1 0x20 ADD PUSH1 0x0 KECCAK256 PUSH1 0x0 ADD PUSH2 0x6C8 JUMP JUMPDEST SWAP1 POP SWAP2 SWAP1 POP JUMP JUMPDEST PUSH2 0x4ED PUSH1 0x0 DUP1 DUP5 DUP2 MSTORE PUSH1 0x20 ADD SWAP1 DUP2 MSTORE PUSH1 0x20 ADD PUSH1 0x0 KECCAK256 PUSH1 0x2 ADD SLOAD PUSH2 0x4E8 PUSH2 0x550 JUMP JUMPDEST PUSH2 0x469 JUMP JUMPDEST PUSH2 0x542 JUMPI PUSH1 0x40 MLOAD PUSH32 0x8C379A000000000000000000000000000000000000000000000000000000000 DUP2 MSTORE PUSH1 0x4 ADD DUP1 DUP1 PUSH1 0x20 ADD DUP3 DUP2 SUB DUP3 MSTORE PUSH1 0x30 DUP2 MSTORE PUSH1 0x20 ADD DUP1 PUSH2 0x99E PUSH1 0x30 SWAP2 CODECOPY PUSH1 0x40 ADD SWAP2 POP POP PUSH1 0x40 MLOAD DUP1 SWAP2 SUB SWAP1 REVERT JUMPDEST PUSH2 0x54C DUP3 DUP3 PUSH2 0x5EB JUMP JUMPDEST POP POP JUMP JUMPDEST PUSH1 0x0 CALLER SWAP1 POP SWAP1 JUMP JUMPDEST PUSH2 0x57F DUP2 PUSH1 0x0 DUP1 DUP6 DUP2 MSTORE PUSH1 0x20 ADD SWAP1 DUP2 MSTORE PUSH1 0x20 ADD PUSH1 0x0 KECCAK256 PUSH1 0x0 ADD PUSH2 0x6DD SWAP1 SWAP2 SWAP1 PUSH4 0xFFFFFFFF AND JUMP JUMPDEST ISZERO PUSH2 0x5E7 JUMPI PUSH2 0x58C PUSH2 0x550 JUMP JUMPDEST PUSH20 0xFFFFFFFFFFFFFFFFFFFFFFFFFFFFFFFFFFFFFFFF AND DUP2 PUSH20 0xFFFFFFFFFFFFFFFFFFFFFFFFFFFFFFFFFFFFFFFF AND DUP4 PUSH32 0x2F8788117E7EFF1D82E926EC794901D17C78024A50270940304540A733656F0D PUSH1 0x40 MLOAD PUSH1 0x40 MLOAD DUP1 SWAP2 SUB SWAP1 LOG4 JUMPDEST POP POP JUMP JUMPDEST PUSH2 0x612 DUP2 PUSH1 0x0 DUP1 DUP6 DUP2 MSTORE PUSH1 0x20 ADD SWAP1 DUP2 MSTORE PUSH1 0x20 ADD PUSH1 0x0 KECCAK256 PUSH1 0x0 ADD PUSH2 0x70D SWAP1 SWAP2 SWAP1 PUSH4 0xFFFFFFFF AND JUMP JUMPDEST ISZERO PUSH2 0x67A JUMPI PUSH2 0x61F PUSH2 0x550 JUMP JUMPDEST PUSH20 0xFFFFFFFFFFFFFFFFFFFFFFFFFFFFFFFFFFFFFFFF AND DUP2 PUSH20 0xFFFFFFFFFFFFFFFFFFFFFFFFFFFFFFFFFFFFFFFF AND DUP4 PUSH32 0xF6391F5C32D9C69D2A47EA670B442974B53935D1EDC7FD64EB21E047A839171B PUSH1 0x40 MLOAD PUSH1 0x40 MLOAD DUP1 SWAP2 SUB SWAP1 LOG4 JUMPDEST POP POP JUMP JUMPDEST PUSH1 0x0 PUSH2 0x68D DUP4 PUSH1 0x0 ADD DUP4 PUSH2 0x73D JUMP JUMPDEST PUSH1 0x0 SHR SWAP1 POP SWAP3 SWAP2 POP POP JUMP JUMPDEST PUSH1 0x0 PUSH2 0x6C0 DUP4 PUSH1 0x0 ADD DUP4 PUSH20 0xFFFFFFFFFFFFFFFFFFFFFFFFFFFFFFFFFFFFFFFF AND PUSH1 0x0 SHL PUSH2 0x7C0 JUMP JUMPDEST SWAP1 POP SWAP3 SWAP2 POP POP JUMP JUMPDEST PUSH1 0x0 PUSH2 0x6D6 DUP3 PUSH1 0x0 ADD PUSH2 0x7E3 JUMP JUMPDEST SWAP1 POP SWAP2 SWAP1 POP JUMP JUMPDEST PUSH1 0x0 PUSH2 0x705 DUP4 PUSH1 0x0 ADD DUP4 PUSH20 0xFFFFFFFFFFFFFFFFFFFFFFFFFFFFFFFFFFFFFFFF AND PUSH1 0x0 SHL PUSH2 0x7F4 JUMP JUMPDEST SWAP1 POP SWAP3 SWAP2 POP POP JUMP JUMPDEST PUSH1 0x0 PUSH2 0x735 DUP4 PUSH1 0x0 ADD DUP4 PUSH20 0xFFFFFFFFFFFFFFFFFFFFFFFFFFFFFFFFFFFFFFFF AND PUSH1 0x0 SHL PUSH2 0x864 JUMP JUMPDEST SWAP1 POP SWAP3 SWAP2 POP POP JUMP JUMPDEST PUSH1 0x0 DUP2 DUP4 PUSH1 0x0 ADD DUP1 SLOAD SWAP1 POP GT PUSH2 0x79E JUMPI PUSH1 0x40 MLOAD PUSH32 0x8C379A000000000000000000000000000000000000000000000000000000000 DUP2 MSTORE PUSH1 0x4 ADD DUP1 DUP1 PUSH1 0x20 ADD DUP3 DUP2 SUB DUP3 MSTORE PUSH1 0x22 DUP2 MSTORE PUSH1 0x20 ADD DUP1 PUSH2 0x94D PUSH1 0x22 SWAP2 CODECOPY PUSH1 0x40 ADD SWAP2 POP POP PUSH1 0x40 MLOAD DUP1 SWAP2 SUB SWAP1 REVERT JUMPDEST DUP3 PUSH1 0x0 ADD DUP3 DUP2 SLOAD DUP2 LT PUSH2 0x7AD JUMPI INVALID JUMPDEST SWAP1 PUSH1 0x0 MSTORE PUSH1 0x20 PUSH1 0x0 KECCAK256 ADD SLOAD SWAP1 POP SWAP3 SWAP2 POP POP JUMP JUMPDEST PUSH1 0x0 DUP1 DUP4 PUSH1 0x1 ADD PUSH1 0x0 DUP5 DUP2 MSTORE PUSH1 0x20 ADD SWAP1 DUP2 MSTORE PUSH1 0x20 ADD PUSH1 0x0 KECCAK256 SLOAD EQ ISZERO SWAP1 POP SWAP3 SWAP2 POP POP JUMP JUMPDEST PUSH1 0x0 DUP2 PUSH1 0x0 ADD DUP1 SLOAD SWAP1 POP SWAP1 POP SWAP2 SWAP1 POP JUMP JUMPDEST PUSH1 0x0 PUSH2 0x800 DUP4 DUP4 PUSH2 0x7C0 JUMP JUMPDEST PUSH2 0x859 JUMPI DUP3 PUSH1 0x0 ADD DUP3 SWAP1 DUP1 PUSH1 0x1 DUP2 SLOAD ADD DUP1 DUP3 SSTORE DUP1 SWAP2 POP POP PUSH1 0x1 SWAP1 SUB SWAP1 PUSH1 0x0 MSTORE PUSH1 0x20 PUSH1 0x0 KECCAK256 ADD PUSH1 0x0 SWAP1 SWAP2 SWAP1 SWAP2 SWAP1 SWAP2 POP SSTORE DUP3 PUSH1 0x0 ADD DUP1 SLOAD SWAP1 POP DUP4 PUSH1 0x1 ADD PUSH1 0x0 DUP5 DUP2 MSTORE PUSH1 0x20 ADD SWAP1 DUP2 MSTORE PUSH1 0x20 ADD PUSH1 0x0 KECCAK256 DUP2 SWAP1 SSTORE POP PUSH1 0x1 SWAP1 POP PUSH2 0x85E JUMP JUMPDEST PUSH1 0x0 SWAP1 POP JUMPDEST SWAP3 SWAP2 POP POP JUMP JUMPDEST PUSH1 0x0 DUP1 DUP4 PUSH1 0x1 ADD PUSH1 0x0 DUP5 DUP2 MSTORE PUSH1 0x20 ADD SWAP1 DUP2 MSTORE PUSH1 0x20 ADD PUSH1 0x0 KECCAK256 SLOAD SWAP1 POP PUSH1 0x0 DUP2 EQ PUSH2 0x940 JUMPI PUSH1 0x0 PUSH1 0x1 DUP3 SUB SWAP1 POP PUSH1 0x0 PUSH1 0x1 DUP7 PUSH1 0x0 ADD DUP1 SLOAD SWAP1 POP SUB SWAP1 POP PUSH1 0x0 DUP7 PUSH1 0x0 ADD DUP3 DUP2 SLOAD DUP2 LT PUSH2 0x8AF JUMPI INVALID JUMPDEST SWAP1 PUSH1 0x0 MSTORE PUSH1 0x20 PUSH1 0x0 KECCAK256 ADD SLOAD SWAP1 POP DUP1 DUP8 PUSH1 0x0 ADD DUP5 DUP2 SLOAD DUP2 LT PUSH2 0x8CC JUMPI INVALID JUMPDEST SWAP1 PUSH1 0x0 MSTORE PUSH1 0x20 PUSH1 0x0 KECCAK256 ADD DUP2 SWAP1 SSTORE POP PUSH1 0x1 DUP4 ADD DUP8 PUSH1 0x1 ADD PUSH1 0x0 DUP4 DUP2 MSTORE PUSH1 0x20 ADD SWAP1 DUP2 MSTORE PUSH1 0x20 ADD PUSH1 0x0 KECCAK256 DUP2 SWAP1 SSTORE POP DUP7 PUSH1 0x0 ADD DUP1 SLOAD DUP1 PUSH2 0x904 JUMPI INVALID JUMPDEST PUSH1 0x1 SWAP1 SUB DUP2 DUP2 SWAP1 PUSH1 0x0 MSTORE PUSH1 0x20 PUSH1 0x0 KECCAK256 ADD PUSH1 0x0 SWAP1 SSTORE SWAP1 SSTORE DUP7 PUSH1 0x1 ADD PUSH1 0x0 DUP8 DUP2 MSTORE PUSH1 0x20 ADD SWAP1 DUP2 MSTORE PUSH1 0x20 ADD PUSH1 0x0 KECCAK256 PUSH1 0x0 SWAP1 SSTORE PUSH1 0x1 SWAP5 POP POP POP POP POP PUSH2 0x946 JUMP JUMPDEST PUSH1 0x0 SWAP2 POP POP JUMPDEST SWAP3 SWAP2 POP POP JUMP INVALID GASLIMIT PUSH15 0x756D657261626C655365743A20696E PUSH5 0x6578206F75 PUSH21 0x206F6620626F756E6473416363657373436F6E7472 PUSH16 0x6C3A2073656E646572206D7573742062 PUSH6 0x20616E206164 PUSH14 0x696E20746F206772616E74416363 PUSH6 0x7373436F6E74 PUSH19 0x6F6C3A2073656E646572206D75737420626520 PUSH2 0x6E20 PUSH2 0x646D PUSH10 0x6E20746F207265766F6B PUSH6 0x416363657373 NUMBER PUSH16 0x6E74726F6C3A2063616E206F6E6C7920 PUSH19 0x656E6F756E636520726F6C657320666F722073 PUSH6 0x6C66A2646970 PUSH7 0x73582212203EE1 PUSH30 0xA5D3FFF11906F1EA9AB73AD7CA31777EEB3168E4769752BBDB37491A1664 PUSH20 0x6F6C634300060600330000000000000000000000 "
				},
				"gasEstimates": {
					"creation": {
						"codeDepositCost": "522000",
						"executionCost": "556",
						"totalCost": "522556"
					},
					"external": {
						"DEFAULT_ADMIN_ROLE()": "233",
						"getRoleAdmin(bytes32)": "1185",
						"getRoleMember(bytes32,uint256)": "infinite",
						"getRoleMemberCount(bytes32)": "1334",
						"grantRole(bytes32,address)": "infinite",
						"hasRole(bytes32,address)": "infinite",
						"renounceRole(bytes32,address)": "infinite",
						"revokeRole(bytes32,address)": "infinite"
					},
					"internal": {
						"_setupContractId(string memory)": "infinite"
					}
				},
				"methodIdentifiers": {
					"DEFAULT_ADMIN_ROLE()": "a217fddf",
					"getRoleAdmin(bytes32)": "248a9ca3",
					"getRoleMember(bytes32,uint256)": "9010d07c",
					"getRoleMemberCount(bytes32)": "ca15c873",
					"grantRole(bytes32,address)": "2f2ff15d",
					"hasRole(bytes32,address)": "91d14854",
					"renounceRole(bytes32,address)": "36568abe",
					"revokeRole(bytes32,address)": "d547741f"
				}
			},
			"storageLayout": {
				"storage": [
					{
						"astId": 1274,
						"contract": "childtoken/t.sol:AccessControlMixin",
						"label": "_roles",
						"offset": 0,
						"slot": "0",
						"type": "t_mapping(t_bytes32,t_struct(RoleData)1270_storage)"
					},
					{
						"astId": 1538,
						"contract": "childtoken/t.sol:AccessControlMixin",
						"label": "_revertMsg",
						"offset": 0,
						"slot": "1",
						"type": "t_string_storage"
					}
				],
				"types": {
					"t_array(t_bytes32)dyn_storage": {
						"base": "t_bytes32",
						"encoding": "dynamic_array",
						"label": "bytes32[]",
						"numberOfBytes": "32"
					},
					"t_bytes32": {
						"encoding": "inplace",
						"label": "bytes32",
						"numberOfBytes": "32"
					},
					"t_mapping(t_bytes32,t_struct(RoleData)1270_storage)": {
						"encoding": "mapping",
						"key": "t_bytes32",
						"label": "mapping(bytes32 => struct AccessControl.RoleData)",
						"numberOfBytes": "32",
						"value": "t_struct(RoleData)1270_storage"
					},
					"t_mapping(t_bytes32,t_uint256)": {
						"encoding": "mapping",
						"key": "t_bytes32",
						"label": "mapping(bytes32 => uint256)",
						"numberOfBytes": "32",
						"value": "t_uint256"
					},
					"t_string_storage": {
						"encoding": "bytes",
						"label": "string",
						"numberOfBytes": "32"
					},
					"t_struct(AddressSet)753_storage": {
						"encoding": "inplace",
						"label": "struct EnumerableSet.AddressSet",
						"members": [
							{
								"astId": 752,
								"contract": "childtoken/t.sol:AccessControlMixin",
								"label": "_inner",
								"offset": 0,
								"slot": "0",
								"type": "t_struct(Set)573_storage"
							}
						],
						"numberOfBytes": "64"
					},
					"t_struct(RoleData)1270_storage": {
						"encoding": "inplace",
						"label": "struct AccessControl.RoleData",
						"members": [
							{
								"astId": 1267,
								"contract": "childtoken/t.sol:AccessControlMixin",
								"label": "members",
								"offset": 0,
								"slot": "0",
								"type": "t_struct(AddressSet)753_storage"
							},
							{
								"astId": 1269,
								"contract": "childtoken/t.sol:AccessControlMixin",
								"label": "adminRole",
								"offset": 0,
								"slot": "2",
								"type": "t_bytes32"
							}
						],
						"numberOfBytes": "96"
					},
					"t_struct(Set)573_storage": {
						"encoding": "inplace",
						"label": "struct EnumerableSet.Set",
						"members": [
							{
								"astId": 568,
								"contract": "childtoken/t.sol:AccessControlMixin",
								"label": "_values",
								"offset": 0,
								"slot": "0",
								"type": "t_array(t_bytes32)dyn_storage"
							},
							{
								"astId": 572,
								"contract": "childtoken/t.sol:AccessControlMixin",
								"label": "_indexes",
								"offset": 0,
								"slot": "1",
								"type": "t_mapping(t_bytes32,t_uint256)"
							}
						],
						"numberOfBytes": "64"
					},
					"t_uint256": {
						"encoding": "inplace",
						"label": "uint256",
						"numberOfBytes": "32"
					}
				}
			},
			"userdoc": {
				"methods": {}
			}
		}
	}
}